:100000005BC0000077C0000075C0000073C0000036
:1000100071C000006FC000006DC000006BC0000028
:1000200069C0000067C0000065C000002CC200006D
:1000300061C000005FC000005DC000005BC0000048
:100040000C94940F57C0000055C0000053C000002E
:100050000C94A30F4FC000000C9407104BC000007D
:1000600049C0000047C0000045C0000043C0000078
:100070000C94D50F3FC000000C9439103BC0000019
:1000800039C0000037C0000035C000001606290640
:100090000007EC0600070007000700070007DF065F
:1000A000000700070007000700070007E406000735
:1000B0006B0600070007A70611241FBECFEFD0E490
:1000C000DEBFCDBF16E0A0E0B1E0E2E0F3E200E089
:1000D0000BBF02C007900D92A031B107D9F726E0FF
:1000E000A0E1B6E001C01D92A133B207E1F79ED0B6
:1000F0000C947F1185CF579A81EC8093B0008FE0EC
:100100008093B10081E0809370009CE99093B400EB
:100110001092B3001092B2008093100608951F93BE
:10012000CF93DF9300D000D000D0CDB7DEB782E010
:1001300090E0A0E0B0E089839A83AB83BC8341E088
:10014000BE016F5F7F4FCE0105960E94B208182F47
:1001500081110BC025E634E03F932F9381E08F930C
:100160001FD50F900F900F9056C089819A81AB8157
:10017000BC8182309105A105B10591F0BF93AF9389
:100180009F938F938EE894E09F938F9381E08F935A
:1001900007D50FB6F894DEBF0FBECDBF10E03BC051
:1001A0008D819E818C3F23E0920781F09F938F93F6
:1001B0008EEC94E09F938F9381E08F93F1D40F9016
:1001C0000F900F900F900F9010E025C08DEF93E0EF
:1001D0009E838D8321E042E050E060E070E0CE013C
:1001E000059629D6182F81110BC026EF34E03F93D6
:1001F0002F9381E08F93D4D40F900F900F900BC06A
:1002000080E295E09F938F9384E08F93C9D40F9001
:100210000F900F9011E0812F26960FB6F894DEBF55
:100220000FBECDBFDF91CF911F9108954F925F9286
:100230006F927F929F92AF92BF92CF92DF92EF9296
:10024000FF920F931F93CF93DF93CDB7DEB72E9717
:100250000FB6F894DEBF0FBECDBF84E090E0A0E003
:10026000B0E08D839E83AF83B88745E060E072E1A4
:100270008AE790E089D186EA95E09F938F9314E016
:100280001F938ED486E395E09F938F931F9388D41A
:1002900032DF89858E7F89871A861B8681E08C876D
:1002A000CE0109960E94EC0A0F900F900F900F90CC
:1002B0000F900F9081110BC08AE495E09F938F936C
:1002C00081E08F936DD40F900F900F90C4C041E0E8
:1002D0006FE081E00E94C30A81110BC08CE595E0BC
:1002E0009F938F9381E08F935BD40F900F900F902B
:1002F000B2C087B1806F87B986E795E09F938F93EF
:1003000084E08F934DD40BDF0F900F900F908111ED
:100310000BC08DE895E09F938F9381E08F9340D43D
:100320000F900F900F9097C080EA95E09F938F9366
:1003300084E08F9335D40F900F900F900F2EF1EE35
:10034000EF2EF5E0FF2EF02D6894BB24B2F80F2EAF
:10035000F0EA9F2EF02D0F2EF0E5AF2EF02D0BECD6
:1003600015E00F2EFFEACF2EF5E0DF2EF02D41E055
:10037000BE016B5F7F4FCE010196F4D6811109C09B
:10038000DF92CF9281E08F930BD40F900F900F905C
:10039000EECF8D819E81AF81B88584309105A10516
:1003A000B10579F0BF93AF939F938F931F930F93F2
:1003B00081E08F93F5D30FB6F894DEBF0FBECDBFAB
:1003C000D6CF69817A8180E090E079D02B013C0121
:1003D00020E030E04FEF53E4D3D0181614F4A8B85F
:1003E0000CC020E030E04FEF53E4C301B20163D012
:1003F000882314F498B801C018B82B813C81A1EC73
:10040000B0EC0E947610880F892F881F990B919568
:100410008D5F809364041F928F93FF92EF92BF923F
:10042000BFD3BE01635F7F4F80E00E94090BBE0116
:10043000635F7F4F80E00E94090B21E042E050E0C3
:1004400060E070E0CE010D96F6D40F900F900F9003
:100450000F900F908CCF80E090E02E960FB6F8941E
:10046000DEBF0FBECDBFDF91CF911F910F91FF90E7
:10047000EF90DF90CF90BF90AF909F907F906F9064
:100480005F904F9008951F920F920FB60F92112414
:100490008F939F9380911006882331F0909164048C
:1004A0008CE9891B8093B3009F918F910F900FBEB1
:1004B0000F901F90189540D008F481E00895E894BB
:1004C00009C097FB3EF490958095709561957F4F9C
:1004D0008F4F9F4F9923A9F0F92F96E9BB2793954A
:1004E000F695879577956795B795F111F8CFFAF45A
:1004F000BB0F11F460FF1BC06F5F7F4F8F4F9F4F8B
:1005000016C0882311F096E911C0772321F09EE8E8
:10051000872F762F05C0662371F096E8862F70E04E
:1005200060E02AF09A95660F771F881FDAF7880F28
:100530009695879597F90895990F0008550FAA0B7E
:10054000E0E8FEEF16161706E807F907C0F01216E6
:100550001306E407F50798F0621B730B840B950BE9
:1005600039F40A2661F0232B242B252B21F408953E
:100570000A2609F4A140A6958FEF811D811D0895DB
:10058000DBDF08F48FEF08958091110681110AC016
:100590004093180640E063E370E00E94A50D81E0FF
:1005A000809311060895FC0101900020E9F731972E
:1005B0009F01281B390B40E050E0BC0180E00C9407
:1005C000A00E08958F929F92AF92BF92CF92DF922A
:1005D000EF92FF920F931F93CF93DF93CDB7DEB7C8
:1005E000DA950FB6F894DEBF0FBECDBF022F932E63
:1005F000A42EB52EC62ED72EE82EF92E10E0812C73
:10060000202F392D4A2D5B2D6C2D7D2D8E2D9F2D6C
:10061000AFE00E94731109F080F4E1E0F0E0EC0F2C
:10062000FD1FE10FF11D0083082D982CA82CB82C7C
:10063000C82CD82CE82CF82C1CC0E1E0F0E0EC0F22
:10064000FD1FE10FF11D802F8F708083202F392D2A
:100650004A2D5B2D6C2D7D2D8E2D9F2D04E00E944B
:100660005711022F932EA42EB52EC62ED72EE82E6C
:10067000F92EE12FF0E0A1E0B0E0AC0FBD1FAE0F0E
:10068000BF1F8C918A3020F0FD01895A808308C0F9
:1006900021E030E02C0F3D1FE20FF31F805D8083CF
:1006A0001F5F202F392D4A2D5B2D6C2D7D2D8E2D1A
:1006B0009F2DA82D0E94731109F0A2CF112399F04C
:1006C000612F70E06150710981E090E08C0F9D1FF7
:1006D000680F791F21E030E040E050E080E00E94A8
:1006E000A00E115069F7D3950FB6F894DEBF0FBE78
:1006F000CDBFDF91CF911F910F91FF90EF90DF90D1
:10070000CF90BF90AF909F908F9008952F923F927F
:100710004F925F926F927F928F929F92AF92BF9211
:10072000CF92DF92EF92FF920F931F93CF93DF93BD
:10073000CDB7DEB7C250D1400FB6F894DEBF0FBEC2
:10074000CDBFCF5FDE4F2883C150D140232E342E42
:10075000452E562E672E782E892E912CCF5FDE4F98
:100760002881C150D140322D432D542D652D762D39
:10077000872D982DA9E00E94731109F040F4FE0125
:10078000E90DF11D822F805D818393944BC00F2E64
:10079000FAE0AF2EF02DB12CC12CD12CE12CF12C94
:1007A00000E010E0CF5FDE4F2881C150D140322DF4
:1007B000432D542D652D762D872D982D0E94B01038
:1007C000CE5FDE4F2883C250D140CF5FDE4F2881FD
:1007D000C150D140322D432D542D652D762D872DBE
:1007E000982D0E94B210CF5FDE4F2883C150D140B8
:1007F000232E342E452E562E672E782E892EE1E09C
:10080000F0E0EC0FFD1FE90DF11DCE5FDE4FA8817A
:10081000C250D140A05DA0839394A0E00E947311C8
:1008200009F09CCF992099F0692D70E06150710911
:1008300081E090E08C0F9D1F680F791F21E030E070
:1008400040E050E080E00E94A00E9A9469F7CE5FED
:10085000DE4F0FB6F894DEBF0FBECDBFDF91CF9154
:100860001F910F91FF90EF90DF90CF90BF90AF90CE
:100870009F908F907F906F905F904F903F902F90C0
:1008800008956F927F928F929F92AF92BF92CF9274
:10089000DF92EF92FF920F931F93CF93DF9300D0DD
:1008A0001F92CDB7DEB76B017C018EE28A838DE2A9
:1008B0008B8320E030E0A901C701B601FCDD88236D
:1008C00074F421E030E040E050E0BE016D5F7F4F06
:1008D00080E00E94A00EF7FAF094F7F8F094C701B8
:1008E000B6013BD7622E732E842E952EA62EB72EE0
:1008F000082F192F98D79B01AC01C701B601C8D6A4
:100900006B017C01262D372D482D592D6A2D7B2D0D
:10091000802F912FFBDE21E030E040E050E0BE016F
:100920006E5F7F4F80E00E94A00E20E030E0A901C2
:10093000C701B601C0DD882359F120E030E040E274
:1009400051E4C701B6010E94B60C6B017C013FD790
:10095000162F70E080E090E0B4DD9B01AC01C70190
:10096000B60196D66B017C01105D198321E030E061
:1009700040E050E0BE016F5F7F4F80E00E94A00E1C
:1009800020E030E0A901C701B60195DD8111D5CF86
:1009900080E3898321E030E040E050E0BE016F5FFA
:1009A0007F4F80E00E94A00E0F900F900F90DF917C
:1009B000CF911F910F91FF90EF90DF90CF90BF905C
:1009C000AF909F908F907F906F9008952F923F925D
:1009D0004F925F926F927F928F929F92AF92BF924F
:1009E000CF92DF92EF92FF920F931F93CF93DF93FB
:1009F000CDB7DEB7C350D1400FB6F894DEBF0FBEFF
:100A0000CDBFCE5FDE4F2883C250D140832E742EDF
:100A1000652E562E472E382E292E8DE2CF5FDE4FC3
:100A20008883C150D140832DA0E00E94731124F52A
:100A300021E030E040E050E0BE016F5F7E4F80E09B
:100A40000E94A00ECE5FDE4F2881C250D140382DCB
:100A5000472D562D652D742D832D922D0E940E113C
:100A6000CE5FDE4F2883C250D140832E742E652E78
:100A7000562E472E382E292E912CCE5FDE4F288100
:100A8000C250D140382D472D562D652D742D832D04
:100A9000922DA9E00E94731109F044F4FE01E90DC2
:100AA000F11D822F805D818393944BC00F2EFAE05D
:100AB000AF2EF02DB12CC12CD12CE12CF12C00E06B
:100AC00010E0CE5FDE4F2881C250D140382D472D37
:100AD000562D652D742D832D922D0E948510CD5F8E
:100AE000DE4F2883C350D140CE5FDE4F2881C250F5
:100AF000D140382D472D562D652D742D832D922DE7
:100B00000E948710CE5FDE4F2883C250D140832ED3
:100B1000742E652E562E472E382E292EE1E0F0E059
:100B2000EC0FFD1FE90DF11DCD5FDE4FA881C35015
:100B3000D140A05DA0839394A0E00E94731109F0BE
:100B40009CCF992099F0692D70E06150710981E086
:100B500090E08C0F9D1F680F791F21E030E040E08E
:100B600050E080E00E94A00E9A9469F7CD5FDE4FBE
:100B70000FB6F894DEBF0FBECDBFDF91CF911F91AE
:100B80000F91FF90EF90DF90CF90BF90AF909F902C
:100B90008F907F906F905F904F903F902F9008952F
:100BA0003F924F925F926F927F928F929F92AF92FD
:100BB000BF92CF92DF92EF92FF920F931F93CF934A
:100BC000DF931F92CDB7DEB70E891F898091110682
:100BD000882309F41DC1809118069D89892309F491
:100BE00017C17E0128E1E20EF11CF80120812223C9
:100BF00009F40EC1412CD12C512C332433942532CD
:100C000029F0D11005C0411003C0F1C00F5F1F4F84
:100C1000F801808190E0FC01E356F109E631F1052D
:100C200008F0EEC0EA5BFF4F0C9470105701F2E041
:100C3000AF0EB11CF7018081898321E030E040E0F4
:100C400050E0BE016F5F7F4F852D0E94A00E7501A1
:100C5000D7C0DD20D9F06701F4E0CF0ED11CF70139
:100C600080819181A281B3814C015D01BB0C880818
:100C7000982C5401282F392F4A2F5B2F682D782D5F
:100C8000882D982DA3DE7601D52CBAC0442089F09A
:100C90005701F8E0AF0EB11CF7012081318142818C
:100CA0005381648175818681978190DE7501452C21
:100CB000A7C05701F2E0AF0EB11CF70131812081CE
:100CC000932F990F990B492F592F692F792F892F1E
:100CD0007DDE750195C0DD20B9F03701F4E06F0EBF
:100CE000711CF70180819181A281B3814C015D016A
:100CF000282F392D4A2D5B2D652D752D852D952D90
:100D000005DD7301D52C7CC0442089F05701F8E043
:100D1000AF0EB11CF7012081318142815381648182
:100D2000758186819781F2DC7501452C69C0F701D8
:100D300040815181F2E0EF0EF11C242F352F452D1B
:100D4000552D652D752D852D952DE0DC59C0DD20A7
:100D5000A9F0F70180819181A281B38124E0E20EA4
:100D6000F11C3C014D01282F372D482D592D652DA3
:100D7000752D852D952D26DCD52C42C0442079F08B
:100D8000F701208188E0E80EF11C31814281538116
:100D9000648175818681978115DC452C31C0F7010E
:100DA00040815181E2E0EE0EF11C242F352F452DBC
:100DB000552D652D752D852D952D04DC21C0DD204B
:100DC000F1F0432CD52C1CC0F70180819181F2E019
:100DD000EF0EF11CE8DB14C0F701608171818281A4
:100DE000938124E0E20EF11C4CDDD52C09C021E0FA
:100DF00030E040E050E0B801852DA2D701C0D32CEF
:100E0000C8010196F8012181222311F08C01F7CE4F
:100E10000F90DF91CF911F910F91FF90EF90DF9096
:100E2000CF90BF90AF909F908F907F906F905F908A
:100E30004F903F9008952F923F924F925F926F9202
:100E40007F928F929F92AF92BF92CF92DF92EF925A
:100E5000FF920F931F93DF93CF93CDB7DEB72C97FD
:100E60000FB6F894DEBF0FBECDBF7C0149875A870D
:100E70006B877C87022F19821A821B821C828091C9
:100E80001206882389F400D00F92EDB7FEB7319691
:100E900081E0808380E091E09283818381DE10E0B5
:100EA0000F900F900F9041C181E060E0C2D5182FE4
:100EB000882381F400D00F92EDB7FEB7319681E020
:100EC00080838EE191E0928381836ADE0F900F90A0
:100ED0000F902BC1002309F045C000D00F92EDB751
:100EE000FEB7319684E080838BE391E09283818327
:100EF00057DE0F900F900F9081E060911F0600D792
:100F0000162F662381F400D00F92EDB7FEB731960D
:100F100081E0808386E591E09283818341DE0F90BA
:100F20000F900F9002C180ED97E00197F1F72985AE
:100F30003A854B855C8581E0B70102D7162F662381
:100F400009F0F3C000D00F92EDB7FEB7319681E003
:100F5000808388E791E09283818322DE0F900F9057
:100F60000F90E3C004E00F2EF4E96F2EF1E07F2E26
:100F7000F02D0F2EF0ED4F2EF7E05F2EF02D0F2EFF
:100F8000FAE1CF2EF6E0DF2EF02D0F2EF9E0AF2E96
:100F9000BB24F02DAC0EBD1E0F2EF5E02F2E3324FA
:100FA000F02D2C0E3D1E4E010894811C911C00D08A
:100FB0000F92EDB7FEB73196008372826182F0DD49
:100FC0000F900F900F9081E060911F0699D6162F19
:100FD000662381F400D00F92EDB7FEB7319681E021
:100FE000808386E591E092838183DADD0F900F9014
:100FF0000F909BC0C2010197F1F781E0B60124E098
:1010000030E040E050E09CD6162F662381F400D0FB
:101010000F92EDB7FEB7319681E0808383EB91E0CC
:1010200092838183BDDD0F900F900F907EC081E091
:10103000B50124E030E040E050E082D6162F662370
:1010400081F400D00F92EDB7FEB7319681E0808336
:1010500083ED91E092838183A3DD0F900F900F9039
:1010600064C029853A854B855C8581E0B70168D6E7
:10107000162F662381F400D00F92EDB7FEB731969C
:1010800081E0808388E791E09283818389DD0F90FE
:101090000F900F904AC084E090E0A0E0B0E08D8314
:1010A0009E83AF83B887C401B10140E05BD0182FA5
:1010B000882379F400D00F92EDB7FEB73196008304
:1010C0008FEE91E0928381836BDD0F900F900F90F4
:1010D0006ECF80911A0690911B06A0911C06B091CC
:1010E0001D060196A11DB11D29813A814B815C81AC
:1010F00082179307A407B50729F080911906882362
:1011000009F055CF80911A0690911B06A0911C06FC
:10111000B0911D060196A11DB11D80931A069093F2
:101120001B06A0931C06B0931D0681E061E081D4EC
:10113000812F2C960FB6F894DEBF0FBECDBFCF9196
:10114000DF911F910F91FF90EF90DF90CF90BF90B4
:10115000AF909F908F907F906F905F904F903F9057
:101160002F9008956F927F928F929F92AF92BF922D
:10117000CF92DF92EF92FF920F931F93DF93CF9363
:10118000CDB7DEB729970FB6F894DEBF0FBECDBF3F
:101190003C016B01042F81E061E04BD4182F8823C0
:1011A00081F400D00F92EDB7FEB7319681E08083D5
:1011B0008FE092E092838183F3DC0F900F900F9089
:1011C000C9C1013009F02CC100D00F92EDB7FEB7B4
:1011D000319684E080838BE292E092838183E0DC2D
:1011E0000F900F900F907E010894E11CF11C81E09C
:1011F000B70121E030E040E050E091D66130710568
:101200008105910589F000D00F92EDB7FEB73196B8
:1012100081E0808383E592E092838183C1DC10E0EA
:101220000F900F900F9096C1998180911E0698178C
:10123000F1F600D00F92EDB7FEB7319684E08083CF
:1012400082E792E092838183ABDC0F900F900F9046
:1012500081E060E02BD481E0BE016E5F7F4F24E02F
:1012600030E040E050E00AE056D664307105810578
:10127000910589F000D00F92EDB7FEB7319681E06D
:1012800080838CE992E0928381838ADC10E00F9066
:101290000F900F905FC18DB79EB707970FB6F89468
:1012A0009EBF0FBE8DBFEDB7FEB7319684E0808341
:1012B0008CEB92E0928381838A819B81AC81BD819A
:1012C00083839483A583B6836BDCEDB7FEB7379633
:1012D0000FB6F894FEBF0FBEEDBF81E0BE016A5F9E
:1012E0007F4F24E030E040E050E00AE014D6643064
:1012F00071058105910589F000D00F92EDB7FEB719
:10130000319681E080838EEC92E09283818348DC89
:1013100010E00F900F900F901DC1F601808091801A
:10132000A280B3802E813F8148855985821693061D
:10133000A406B50648F58DB79EB70B970FB6F8947F
:101340009EBF0FBE8DBFEDB7FEB7319681E08083A3
:1013500082EF92E09283818383829482A582B68217
:1013600027833087418752871BDCF6011082118268
:101370001282138210E08DB79EB70B960FB6F894C9
:101380009EBF0FBE8DBFE6C081E0B3010AE0C3D5AA
:101390009B01AC01F6016083718382839383CE80CD
:1013A000DF80E884F9846C157D058E059F0521F1A9
:1013B0008DB79EB70B970FB6F8949EBF0FBE8DBF2B
:1013C000EDB7FEB7319681E080838AE393E09283A4
:1013D0008183C382D482E582F68227833087418766
:1013E0005287DEDB10E0EDB7FEB73B960FB6F89400
:1013F000FEBF0FBEEDBFAEC08A819B81AC81BD81B7
:101400000196A11DB11D8A839B83AC83BD83CE0150
:10141000029644E050E060E070E020E00CDD9AC00D
:1014200000D00F92EDB7FEB7319684E080838AE951
:1014300093E092838183B4DB0F900F900F907E0135
:101440000894E11CF11C81E0B70121E030E040E0AC
:1014500050E00AE060D5613071058105910589F0A1
:1014600000D00F92EDB7FEB7319681E0808383E51F
:1014700092E09283818394DB10E00F900F900F90A5
:1014800069C0998180911E069817E9F600D00F92E5
:10149000EDB7FEB7319684E080838EEB93E09283C4
:1014A00081837EDB0F900F900F9081E060E0FED291
:1014B000F60180819181A281B3810497A105B105D4
:1014C000B0F400D00F92EDB7FEB7319681E0808383
:1014D00084EE93E09283818363DBF60110821182B4
:1014E0001282138210E00F900F900F9033C081E0B2
:1014F000B30124E030E040E050E00AE00CD59B016D
:10150000AC01F6016083718382839383643071053B
:1015100081059105F9F08DB79EB707970FB6F8943E
:101520009EBF0FBE8DBFEDB7FEB7319681E08083C1
:1015300083E094E0928381832383348345835683BD
:101540002FDB10E0EDB7FEB737960FB6F894FEBF6D
:101550000FBEEDBF81E061E0A9D2812F29960FB6C1
:10156000F894DEBF0FBECDBFCF91DF911F910F91D9
:10157000FF90EF90DF90CF90BF90AF909F908F90B3
:101580007F906F900895FF920F931F93082FF42E72
:1015900081E06FEC70E041E0D8D2182F882381F40D
:1015A00000D00F92EDB7FEB7319681E0808385E4DD
:1015B00094E092838183F4DA0F900F900F9007C02C
:1015C00000931E06F092190681E080931206812F87
:1015D0001F910F91FF900895FC010097B9F0818150
:1015E0008295880F880F807C908190FB85F980938D
:1015F0007C0082818770806880937A0010927B00E3
:10160000838180937E0081E080931306809113068E
:10161000089520917E0030E0082E02C03595279570
:101620000A94E2F720FD0CC086EF95E09F938F931C
:1016300081E08F93B5DA0F900F900F9080E00895BE
:10164000ECE7F0E090818F71907E892B8083EAE750
:10165000F0E0808180648083808184FFFDCF809171
:10166000780090E0FB019183808320917900922B98
:101670008C3FF3E09F0728F4FB019183808381E096
:1016800008958BEF93E0FB019183808381E00895BF
:101690005058BB27AA270ED02FC120D130F025D11A
:1016A00020F031F49F3F11F41EF405C10EF4E095D3
:1016B000E7FBFBC0E92F31D180F3BA17620773074C
:1016C0008407950718F071F49EF549C10EF4E09572
:1016D0000B2EBA2FA02D0B01B90190010C01CA01EC
:1016E000A0011124FF27591B99F0593F50F4503E97
:1016F00068F11A16F040A22F232F342F4427585F89
:10170000F3CF469537952795A795F0405395C9F7A0
:101710007EF41F16BA0B620B730B840BBAF0915058
:10172000A1F0FF0FBB1F661F771F881FC2F70EC0F7
:10173000BA0F621F731F841F48F4879577956795CA
:10174000B795F7959E3F08F0B3CF9395880F08F0B3
:101750009927EE0F979587950895BEE304D008F476
:1017600090E80895BFE322273327A901DED058F17E
:101770009F5740F1B91738F1BFE3B91B9927B8500B
:101780003AF4660F771F881F991FB395D2F316C0DE
:10179000B8504AF0232F342F452F562F672F782F1C
:1017A0008827B850BAF7B85F49F08695779567955E
:1017B0005795479537952795BA95B9F70EF47ED08A
:1017C00088940895889460E070E0CB010895ADD0CE
:1017D00088F09F5790F0B92F9927B751A0F0D1F01A
:1017E000660F771F881F991F1AF0BA95C9F712C0A4
:1017F000B13081F0B4D0B1E00895B1C0672F782F37
:101800008827B85F39F0B93FCCF38695779567950F
:10181000B395D9F73EF490958095709561957F4F7B
:101820008F4F9F4F089597FB0EF448D001C0E89466
:10183000F92F96EBFF2381F0121613061406440BC2
:101840009395F69587957795679557954040FF2333
:10185000B9F71BC099270895882351F49850D2F7FF
:10186000872B762F652F542F432F322F20E0B1F393
:10187000121613061406440B88233AF09A95440F67
:10188000551F661F771F881FCAF755234AF4440F58
:10189000551F11F460FF04C06F5F7F4F8F4F9F4F44
:1018A000880F9695879597F9089597F99F6780E82F
:1018B00070E060E008959FEF80EC0895909580952A
:1018C0007095609550954095309521953F4F4F4FBD
:1018D0005F4F6F4F7F4F8F4F9F4F089500240A94A3
:1018E0001616170618060906089500240A941216FB
:1018F0001306140605060895092E0394000C11F42E
:10190000882352F0BB0F40F4BF2B11F460FF04C0DA
:101910006F5F7F4F8F4F9F4F089557FD9058440F33
:10192000551F59F05F3F71F04795880F97FB991F3E
:1019300061F09F3F79F087950895121613061406FB
:10194000551FF2CF4695F1DF08C016161706180688
:10195000991FF1CF86957105610508940895E89463
:10196000BB2766277727CB0197F908950BD0C4CF03
:10197000B5DF28F0BADF18F0952309F096CF9BCF9A
:101980001124EECFCADFA0F3959FD1F3950F50E05D
:10199000551F629FF001729FBB27F00DB11D639F21
:1019A000AA27F00DB11DAA1F649F6627B00DA11DC7
:1019B000661F829F2227B00DA11D621F739FB00D6D
:1019C000A11D621F839FA00D611D221F749F3327DD
:1019D000A00D611D231F849F600D211D822F762F76
:1019E0006A2F11249F5750408AF0E1F088234AF073
:1019F000EE0FFF1FBB1F661F771F881F91505040BF
:101A0000A9F79E3F510570F050CFAACF5F3FECF38E
:101A1000983EDCF3869577956795B795F795E795AA
:101A20009F5FC1F7FE2B880F911D9695879597F9BB
:101A30000895882319F08130D9F02EC080911606C0
:101A4000882361F1662351F0E1ECF0E08081806150
:101A5000808380911706811111C022C0E1ECF0E073
:101A600080818F7E80838091170681110EC01AC0FD
:101A7000809117068823C1F0662339F0E9ECF0E085
:101A800080818061808381E00895E9ECF0E08081CD
:101A90008F7E808381E0089581E0089580E008953D
:101AA00080E0089580E0089580E00895E82FF0E058
:101AB000EC5EF94F9081992399F1882319F08130D8
:101AC000D9F030C080911606882371F1662351F059
:101AD000E0ECF0E0808181608083809117068111C5
:101AE00011C024C0E0ECF0E080818E7F8083809183
:101AF000170681110EC01CC0809117068823D1F0F3
:101B0000662339F0E8ECF0E080818160808381E039
:101B10000895E8ECF0E080818E7F808381E0089575
:101B200080E0089581E0089580E0089580E00895C0
:101B300080E0089580E0089582E084BD15BC16BC65
:101B400017BC18BC80936E000895CF93E82FF0E087
:101B5000EC5EF94F4083882319F08130C9F030C022
:101B60007093C5006093C40088E98093C100413040
:101B700039F486E08093C20081E08093C00003C006
:101B800086E08093C20081E080931606C1E019C010
:101B90007093CD006093CC0088E98093C9004130F8
:101BA00039F486E08093CA0081E08093C80003C0C6
:101BB00086E08093CA0081E080931706C1E001C0EF
:101BC000C0E0BADF8C2FCF910895AF92BF92CF9231
:101BD000DF92EF92FF920F931F93CF93DF935B01FE
:101BE000882319F08130C1F173C0809116068823D3
:101BF00009F472C0211531054105510509F473C07E
:101C0000C12CD12C7601E0ECF0E084E196E061ECAF
:101C100070E0C6ECD0E0108115FFFDCFDC011C9117
:101C2000112359F0002329F0DB011C9111601C9352
:101C300004C0DB011C911E7F1C93D5011D915D0129
:101C40001883BFEFCB1ADB0AEB0AFB0AC216D306D6
:101C5000E406F50601F747C080911706882309F4CA
:101C60003FC02115310541055105E9F180E090E0C3
:101C7000DC01E8ECF0E00F2EF5E1EF2EF6E0FF2EB0
:101C8000F02D0F2EF9ECCF2ED12CF02D6EEC70E054
:101C9000108115FFFDCFE7011881112359F00023B2
:101CA00029F0E60118811160188304C0E60118814B
:101CB0001E7F1883E50119915E01EB0118830196DF
:101CC000A11DB11D82179307A407B50709F70BC023
:101CD00020E030E0A90107C020E030E0A90103C006
:101CE00020E030E0A901CA01B901DF91CF911F9135
:101CF0000F91FF90EF90DF90CF90BF90AF9008953D
:101D00000F93CF93DF931F92CDB7DEB76983E82F90
:101D1000F0E0EC5EF94F9081992351F001E021E071
:101D200030E040E050E0BE016F5F7F4F4EDF03C008
:101D300060E070E0CB010F90DF91CF910F9108959B
:101D40000F9300E042DF0F9108952F923F924F9240
:101D50005F926F927F928F929F92AF92BF92CF923B
:101D6000DF92EF92FF920F931F93CF93DF931B01AC
:101D700049015A01013208F0A2C0882321F08130C4
:101D800009F44FC0A0C080911606882309F49FC0B3
:101D9000211531054105510509F49DC0C12CD12CF7
:101DA0007601C0ECD0E015E0402E512C612C712C56
:101DB0000023D9F01092300615BDC301B2010E9474
:101DC00061022AE939E949EF50E4D0DD84D167BDE9
:101DD00016BC9091300604C0992311F015BC86C042
:101DE00088818823CCF715BC03C088818823ECF751
:101DF000E4E1F6E08081882319F0E1ECF0E08081F5
:101E0000E6ECF0E08081F10181931F01FFEFCF1A32
:101E1000DF0AEF0AFF0AC814D904EA04FB0441F6FA
:101E200065C080911706882309F459C02115310532
:101E30004105510509F457C0C12CD12C7601C8ECDD
:101E4000D0E015E0402E512C612C712C0023D9F0EC
:101E50001092300615BDC301B2010E9461022AE949
:101E600039E949EF50E482DD36D167BD16BC909167
:101E7000300604C0992311F015BC38C0888188232E
:101E8000CCF715BC03C088818823ECF7E5E1F6E0C8
:101E90008081882319F0E9ECF0E08081EEECF0E03D
:101EA0008081F10181931F01FFEFCF1ADF0AEF0A52
:101EB000FF0AC814D904EA04FB0441F617C0C12C78
:101EC000D12C760113C0C12CD12C76010FC0C12CAE
:101ED000D12C76010BC0C12CD12C760107C0C12CAE
:101EE000D12C760103C0C12CD12C7601C701B601DB
:101EF000DF91CF911F910F91FF90EF90DF90CF90E6
:101F0000BF90AF909F908F907F906F905F904F9019
:101F10003F902F9008950F9318DF0F9108950F931E
:101F200000E013DF0F9108951F920F920FB60F92EA
:101F300011248F9381E0809330068F910F900FBE14
:101F40000F901F9018951F920F920FB60F921124A9
:101F50000BB60F922F933F934F935F936F937F93A3
:101F60008F939F93AF93BF93EF93FF93E0912006DE
:101F7000F0912106309731F060912C0670912D067A
:101F800080E00995FF91EF91BF91AF919F918F9163
:101F90007F916F915F914F913F912F910F900BBE69
:101FA0000F900FBE0F901F9018951F920F920FB6B3
:101FB0000F9211240BB60F922F933F934F935F9381
:101FC0006F937F938F939F93AF93BF93EF93FF9301
:101FD000E0912606F0912706309731F060912406B3
:101FE0007091250681E00995FF91EF91BF91AF9126
:101FF0009F918F917F916F915F914F913F912F9121
:102000000F900BBE0F900FBE0F901F9018951F9250
:102010000F920FB60F9211240BB60F922F933F938E
:102020004F935F936F937F938F939F93AF93BF93E0
:10203000EF93FF93E0912206F0912306309731F061
:1020400060912A0670912B0680E00995FF91EF912F
:10205000BF91AF919F918F917F916F915F914F91C0
:102060003F912F910F900BBE0F900FBE0F901F90BE
:1020700018951F920F920FB60F9211240BB60F9264
:102080002F933F934F935F936F937F938F939F9380
:10209000AF93BF93EF93FF93E0912806F091290649
:1020A000309731F060912E0670912F0681E00995EE
:1020B000FF91EF91BF91AF919F918F917F916F9120
:1020C0005F914F913F912F910F900BBE0F900FBEDC
:1020D0000F901F9018957BDB6894B11141CC089547
:1020E000EE0FFF1F0590F491E02D0994A29FB0011F
:1020F000B39FC001A39F700D811D1124911DB29F3C
:10210000700D811D1124911D0895689401C0E894FB
:10211000F92FF12B0AF027C0A0E0B0E0E1E9F0E1EF
:1021200093C0092E05941AF479D0112392F4F0E8A3
:102130000F26FFEFE094F09400951095B094C094B2
:10214000D094A194BF0ACF0ADF0AEF0AFF0A0F0B4F
:102150001F0B13D007FC62D0CDB7DEB7ECE090C008
:10216000689401C0E8948F929F92CF93DF9305D03B
:10217000DF91CF919F908F90089588249924F40146
:10218000E401B0E49F93AA279A158B049C04ED0503
:10219000FE05CF05D007A10798F4AD2FDC2FCF2F78
:1021A000FE2FE92D982C892E982F872F762F652FBB
:1021B000542F432F322F2227B85031F7BF9127C019
:1021C0001B2EBF91BB27220F331F441F551F661FB5
:1021D000771F881F991F881C991CEE1FFF1FCC1F9B
:1021E000DD1FAA1FBB1F8A149B04EC05FD05CE054D
:1021F000DF05A007B10748F08A189B08EC09FD0924
:10220000CE09DF09A00BB10B21601A94E1F62EF480
:102210009401AF01BE01CD01000C08956095709549
:102220008095909530954095509521953F4F4F4F13
:102230005F4F6F4F7F4F8F4F9F4F08952F923F9269
:102240004F925F926F927F928F929F92AF92BF92C6
:10225000CF92DF92EF92FF920F931F93CF93DF9372
:10226000CDB7DEB7CA1BDB0B0FB6F894DEBF0FBECF
:10227000CDBF09942A88398848885F846E847D841C
:102280008C849B84AA84B984C884DF80EE80FD801E
:102290000C811B81AA81B981CE0FD11D0FB6F89494
:1022A000DEBF0FBECDBFED01089597FB10F8169469
:1022B00000080F93083098F00850232F342F452F33
:1022C000562F672F782F892F902DF4CF059497954F
:1022D00087957795679557954795379527950A95EB
:1022E000AAF70F9108950024A7FD00942A1730053E
:1022F0004005500560057005800590050895F89427
:02230000FFCF0D
:1023020058796D6B35765879667374206E6F7420C8
:10231200496E697469616C697A65640D0A00556E6B
:1023220061626C6520746F2064697361626C652000
:1023320072656365697665720D0A005472616E7327
:102342006D697474696E672041636B204D657373A8
:102352006167650D0A004661696C656420746F20CF
:102362007472616E736D6974204465737420416484
:1023720064726573730D0A004661696C656420744A
:102382006F207472616E736D697420427566666542
:10239200720D0A005472616E736D697474696E67AE
:1023A2002047656E6572616C204D65737361676568
:1023B2000D0A004661696C656420746F2074726155
:1023C2006E736D6974204D6573736167652049444E
:1023D2000D0A004661696C656420746F2074726135
:1023E2006E736D6974204C656E6774680D0A0046E1
:1023F20061696C656420746F2072656365697665D6
:102402002041636B204D6573736167650D0A00554A
:102412006E61626C6520746F20656E61626C65200E
:1024220072656365697665720D0A0047656E65724D
:10243200616C204D657373616765202D205761695A
:1024420074696E6720666F7220416464726573738B
:102452000D0A00496E76616C696420446573746983
:102462006E6174696F6E20416464726573732E0DC0
:102472000A0047656E6572616C204D657373616712
:1024820065202D20526563656976696E67204E6509
:1024920077204D6573736167650D0A004661696C4B
:1024A200656420746F2072656365697665204D6589
:1024B20073736167652049642E0D0A004D6573735D
:1024C200616765204964203D2025640D0A0046614C
:1024D200696C656420746F20726563656976652036
:1024E2004D657373616765204C656E6774682E0D68
:1024F2000A00496E73756666696369656E74205277
:1025020065636569766520427566666572202D2071
:10251200427566666572204C656E677468203D2060
:1025220025642C204D657373616765204C656E6769
:102532007468203D2025640D0A004661696C65645B
:1025420020746F207265636569766520656E7469B3
:102552007265206D6573736167652C2045787065BF
:1025620063746564204D657373616765204C656EA5
:10257200677468203D2025642C2052656365697666
:102582006564204D657373616765204C656E677481
:1025920068203D2025642E0D0A0041636B204D65A5
:1025A2007373616765202D2057616974696E6720B6
:1025B200666F7220416464726573730D0A00416331
:1025C2006B204D657373616765202D2052656365CD
:1025D2006976696E67204E6577204D657373616712
:1025E200650D0A00496E73756666696369656E7486
:1025F200205265636569766520427566666572205C
:102602000D0A004661696C656420746F207265630F
:102612006569766520656E74697265206D65737390
:102622006167652C205265636569766564204D6536
:102632007373616765204C656E677468203D202561
:10264200642E0D0A004661696C656420746F20690E
:102652006E697469616C697A6564205541525420CF
:10266200310D0A0006506572666F726D48616E64C4
:102672007368616B65202D205265636569766520FC
:1026820044617461204661696C65640D0A0050659D
:1026920072666F726D48616E647368616B65202D3E
:1026A20020526563656976652044617461204661E4
:1026B200696C6564202D20526563656976656420C6
:1026C2004C656E677468203D2025640D0A005065D4
:1026D20072666F726D48616E647368616B65202DFE
:1026E20020496E76616C69642056616C7565202D97
:1026F2002025640D0A00506572666F726D48616E26
:10270200647368616B65202D205472616E736D690C
:10271200742044617461204661696C65640D0A002D
:1027220048616E647368616B6520636F6D706C6580
:102732007465640D0A002D2D2D2D2D2D2D2D2D2D81
:102742002D2D2D2D2D2D2D0D0A00496E6974204140
:102752004443204661696C65640D0A00496E6974E0
:10276200205472616E736365697665722046616991
:102772006C65640D0A00506572666F726D696E67F2
:102782002048616E647368616B650D0A0048616E72
:10279200647368616B65204661696C65640D0A004B
:1027A2004472697665205243204361720D0A0046E5
:1027B20061696C656420746F207265636569766512
:1027C20020636F6D6D616E640D0A00496E76616CF7
:1027D2006964204C656E677468203D2025640D0A8B
:1027E2000043757272656E742050756C7365203D7E
:1027F2002025640D0A00414443204368616E6E65E2
:102802006C204E6F7420456E61626C65640D0A0027
:00000001FF
