S00D000052434361722E737265636C
S113000045C0000061C000005FC000005DC000008A
S11300105BC0000059C0000057C0000055C000007C
S113002053C0000051C000004FC00000ECC10000EC
S11300304BC0000049C0000047C0000045C000009C
S11300400C940A0941C000003FC000003DC00000FC
S11300500C94190939C000000C947D0935C00000C6
S113006033C0000031C000002FC000002DC00000CC
S11300700C944B0929C000000C94AF0925C0000062
S113008023C0000021C000001FC0000011241FBEB7
S1130090CFEFD0E4DEBFCDBF16E0A0E0B1E0E8EFE3
S11300A0F3E100E00BBF02C007900D92A031B1074D
S11300B0D9F726E0A0E1B6E001C01D92AF32B20745
S11300C0E1F794D00C94FA099BCF579A81EC809372
S11300D0B0008FE08093B10081E0809370009CE9D0
S11300E09093B4001092B3001092B2008093100663
S11300F00895CF93DF93CDB7DEB727970FB6F89463
S1130100DEBF0FBECDBF82E090E0A0E0B0E0898307
S11301109A83AB83BC8341E0BE016F5F7F4FCE0106
S1130120059643D3811103C025E634E040C089819C
S11301309A81AB81BC8182309105A105B10589F01A
S1130140BF93AF939F938F938EE894E09F938F9385
S113015081E08F93DAD10FB6F894DEBF0FBECDBF26
S113016014C08D819E818C3F23E0920781F09F9380
S11301708F938EEC94E09F938F9381E08F93C5D1FE
S11301800F900F900F900F900F9080E026C08DEF8E
S113019093E09E838D8321E042E050E060E070E0D4
S11301A0CE010596B9D181110DC026EF34E03F93FD
S11301B02F9391E09F938F83A8D10F900F900F906E
S11301C08F810BC080E295E09F938F9384E08F939F
S11301D09CD10F900F900F9081E027960FB6F89462
S11301E0DEBF0FBECDBFDF91CF9108953F924F92F6
S11301F05F926F927F928F929F92AF92BF92CF92B3
S1130200DF92EF92FF920F931F93CF93DF93CDB7BB
S1130210DEB72E970FB6F894DEBF0FBECDBF84E0D5
S113022090E0A0E0B0E08D839E83AF83B88745E083
S113023060E072E18AE790E067D186EA95E09F93F7
S11302408F9314E01F9361D186E395E09F938F937E
S11302501F935BD13ADF89818E7F89831A821B8247
S113026001E00C83CE010196CED40F900F900F9035
S11302700F900F900F90811103C08AE495E01AC08B
S113028041E06FE081E097D4811103C08CE595E0F3
S113029011C087B1806F87B986E795E09F938F93EC
S11302A01F9333D126DF0F900F900F90811123C03D
S11302B08DE895E09F938F930F9327D10F900F9024
S11302C00F9080E090E02E960FB6F894DEBF0FBE3C
S11302D0CDBFDF91CF911F910F91FF90EF90DF90F1
S11302E0CF90BF90AF909F908F907F906F905F90D2
S11302F04F903F90089580EA95E09F938F931F93CA
S113030004D10F900F900F908AEAA82EB12C01EE21
S113031015E094E0992E20EA822E30E5332E4BEC42
S1130320E42E45E0F42E5FEAC52E55E0D52E41E0DB
S1130330BE016B5F7F4FCE01099637D2811109C090
S1130340DF92CF9281E08F93E0D00F900F900F90C7
S1130350EECF8D819E81AF81B88584309105A10552
S1130360B10579F0BF93AF939F938F93FF92EF9270
S113037081E08F93CAD00FB6F894DEBF0FBECDBF15
S1130380D6CF69857A8580E090E059D02B013C0175
S113039020E030E04FEF53E4B3D0181614F438B82B
S11303A00CC020E030E04FEF53E4C301B20143D06E
S11303B087FF02C088B801C018B88B859C85B50139
S11303C00E94E6096D5F609364041F926F931F930C
S11303D00F939F929AD0BE01635F7F4F80E030D429
S11303E0BE01635F7F4F80E02BD421E042E050E008
S11303F060E070E0CE010D968FD00F900F900F90BB
S11304000F900F9094CF1F920F920FB60F9211245A
S11304108F939F9380911006882331F08CE99091FB
S11304206404891B8093B3009F918F910F900FBE3A
S11304300F901F90189540D008F481E00895E89437
S113044009C097FB3EF490958095709561957F4F18
S11304508F4F9F4F9923A9F0F92F96E9BB279395C6
S1130460F695879577956795B795F111F8CFFAF4D6
S1130470BB0F11F460FF1BC06F5F7F4F8F4F9F4F07
S113048016C0882311F096E911C0772321F09EE865
S1130490872F762F05C0662371F096E8862F70E0CB
S11304A060E02AF09A95660F771F881FDAF7880FA5
S11304B09695879597F90895990F0008550FAA0BFB
S11304C0E0E8FEEF16161706E807F907C0F0121663
S11304D01306E407F50798F0621B730B840B950B66
S11304E039F40A2661F0232B242B252B21F40895BB
S11304F00A2609F4A140A6958FEF811D811D089558
S1130500DBDF08F48FEF08950895CF93DF93CDB721
S1130510DEB7DF91CF9108952F923F924F925F9271
S11305206F927F928F929F92AF92BF92CF92DF92FF
S1130530EF92FF920F931F93DF93CF93CDB7DEB764
S11305402C970FB6F894DEBF0FBECDBF7C01498750
S11305505A876B877C87022F19821A821B821C821E
S113056080911106882369F400D00F9281E0EDB7E1
S1130570FEB7818380E091E093838283C6DF10E03D
S113058011C081E060E02AD5182F882379F400D0C7
S11305900F9281E0EDB7FEB781838EE191E0938302
S11305A08283B3DF0F900F900F90E2C0002331F5E8
S11305B000D00F9284E0EDB7FEB781838BE391E026
S11305C093838283A2DF0F900F900F9081E060915C
S11305D01D06EDD5162F662309F43DC080ED97E086
S11305E00197F1F729853A854B855C8581E0B70150
S11305F0FED5162F662309F0BBC06AC004E044E9A7
S1130600242E41E0342E30ED432E37E0532E29E0E2
S1130610622E712C6C0E7D1E95E0892E912C8C0E11
S11306209D1E5E010894A11CB11C8FEEC82E81E0B2
S1130630D82E00D00F92EDB7FEB701833382228209
S113064064DF0F900F900F9081E060911D06AFD58D
S1130650162F662349F400D00F9281E0EDB7FEB760
S1130660818386E591E09BCFC2010197F1F781E098
S113067068E176E024E030E040E050E0B8D5162FA1
S1130680662349F400D00F9281E0EDB7FEB7818371
S113069083EB91E084CF81E0B30124E030E040E0DB
S11306A050E0A5D5162F662349F400D00F9281E0BF
S11306B0EDB7FEB7818383ED91E071CF29853A854B
S11306C04B855C8581E0B70192D5162F662349F4EA
S11306D000D00F9281E0EDB7FEB7818388E791E007
S11306E05ECF84E090E0A0E0B0E08D839E83AF8392
S11306F0B887C501B40140E058D0182F882361F4AD
S113070000D00F92EDB7FEB70183D382C282FDDE23
S11307100F900F900F908DCF80911806909119062D
S1130720A0911A06B0911B060196A11DB11D298145
S11307303A814B815C81281739074A075B0729F006
S113074080911706882309F074CF80911806909140
S11307501906A0911A06B0911B060196A11DB11DA0
S11307608093180690931906A0931A06B0931B065B
S113077081E061E033D4812F2C960FB6F894DEBF6C
S11307800FBECDBFCF91DF911F910F91FF90EF90DE
S1130790DF90CF90BF90AF909F908F907F906F909D
S11307A05F904F903F902F9008956F927F928F9219
S11307B09F92BF92CF92DF92EF92FF920F931F937B
S11307C0DF93CF93CDB7DEB729970FB6F894DEBF8A
S11307D00FBECDBF3C016B01142F81E061E0FED35D
S11307E0B82E882381F400D00F9281E0ADB7BEB754
S11307F011968C9311978FE092E013969C938E93AD
S1130800129783DE30C0113009F022C100D00F925C
S113081084E0EDB7FEB781838BE292E09383828319
S113082074DE0F900F900F908E010F5F1F4F81E0C9
S1130830B80121E030E040E050E0CBD361307105F5
S113084081059105A1F000D00F9281E0ADB7BEB74C
S113085011968C93119783E592E013969C938E9353
S1130860129753DEBB240F900F900F908CC1998187
S113087080911C069817D9F600D00F9214E0EDB7BA
S1130880FEB7118382E792E0938382833EDE0F906A
S11308900F900F9081E060E0C4D352E0852E912C3C
S11308A08C0E9D1E81E0B40124E030E040E050E075
S11308B00AE0ACD4643071058105910559F000D08B
S11308C00F9281E0ADB7BEB711968C9311978CE966
S11308D092E0C3CFEDB7FEB737970FB6F894FEBFDB
S11308E00FBEEDBF3196ADB7BEB711961C938CEB1E
S11308F092E0928381838A819B81AC81BD818383D1
S11309009483A583B68301DEEDB7FEB737960FB6A1
S1130910F894FEBF0FBEEDBF81E0BE016A5F7F4F5A
S113092024E030E040E050E00AE070D46430710527
S11309308105910559F000D00F9281E0ADB7BEB7A3
S113094011968C9311978EEC92E087CFF601E0809C
S1130950F180028113812E813F8148855985E216F9
S1130960F3060407150760F58DB79EB70B970FB60E
S1130970F8949EBF0FBE8DBFEDB7FEB7319681E0F0
S1130980ADB7BEB711968C9382EF92E092838183C8
S1130990E382F48205831683278330874187528755
S11309A0B4DDF6011082118212821382BB248DB74A
S11309B09EB70B960FB6F8949EBF0FBE8DBFE3C0D3
S11309C081E0B3010AE022D49B01AC01D6016D930E
S11309D07D938D939C931397EE80FF8008851985F2
S11309E06E157F058007910701F1EDB7FEB73B97C0
S11309F00FB6F894FEBF0FBEEDBF319681E0ADB7E0
S1130A00BEB711968C938AE393E092838183E38249
S1130A10F48205831683278330874187528775DDE7
S1130A20BB24EDB7FEB73B96A9C08A819B81AC81FC
S1130A30BD810196A11DB11D8A839B83AC83BD83B7
S1130A40C40144E050E060E070E020E065DD9BC05C
S1130A5000D00F9284E0ADB7BEB711968C93119776
S1130A608AE993E013969C938E9312974EDD0F9030
S1130A700F900F907E010894E11CF11C81E0B701F6
S1130A8021E030E040E050E00AE0C0D3613071057D
S1130A908105910559F000D00F9281E0EDB7FEB7C2
S1130AA0818383E592E093838283DBCE9981809175
S1130AB01C06981719F700D00F9284E0ADB7BEB7A3
S1130AC011968C9311978EEB93E013969C938E93CF
S1130AD012971BDD0F900F900F9081E060E0A1D280
S1130AE0F60180819181A281B3810497A105B105AA
S1130AF0A8F400D00F9281E0ADB7BEB711968C93E5
S1130B00119784EE93E013969C938E931297FDDCD9
S1130B10F6011082118212821382A4CE81E0B30105
S1130B2024E030E040E050E00AE070D39B01AC01E7
S1130B30D6016D937D938D939C93139764307105C7
S1130B408105910501F1EDB7FEB737970FB6F8941B
S1130B50FEBF0FBEEDBF319681E0ADB7BEB71196B3
S1130B608C9383E094E0928381832383348345834D
S1130B705683CBDCBB24EDB7FEB737960FB6F8949B
S1130B80FEBF0FBEEDBF81E061E04BD28B2D2996F5
S1130B900FB6F894DEBF0FBECDBFCF91DF911F918A
S1130BA00F91FF90EF90DF90CF90BF909F908F9028
S1130BB07F906F900895FF920F931F93182F042F27
S1130BC081E06FEC70E041E05FD2F82E882379F485
S1130BD000D00F9281E0EDB7FEB7818385E494E005
S1130BE09383828392DC0F900F900F9007C0109331
S1130BF01C060093170681E0809311068F2D1F9128
S1130C000F91FF900895FC010097B9F081818295BE
S1130C10880F880F807C908190FB85F980937C00FD
S1130C2082818770806880937A0010927B00838130
S1130C3080937E0081E080931206809112060895CD
S1130C40FB0120917E0030E0082E02C035952795E7
S1130C500A94E2F720FD0CC086EF95E09F938F93F2
S1130C6081E08F9352DC0F900F900F9080E00895F5
S1130C7090917C008F71907E982B90937C00809152
S1130C807A00806480937A0080917A0084FFFCCF9C
S1130C908091780090E09183808320917900922B59
S1130CA08C3F23E0920710F08BEF93E091838083D5
S1130CB081E008955BD088F09F5790F0B92F992771
S1130CC0B751A0F0D1F0660F771F881F991F1AF053
S1130CD0BA95C9F712C0B13081F062D0B1E008957D
S1130CE05FC0672F782F8827B85F39F0B93FCCF3FE
S1130CF0869577956795B395D9F73EF49095809549
S1130D00709561957F4F8F4F9F4F089597F99F6717
S1130D1080E870E060E008959FEF80EC089500247F
S1130D200A941616170618060906089500240A944C
S1130D3012161306140605060895092E0394000CD2
S1130D4011F4882352F0BB0F40F4BF2B11F460FF61
S1130D5004C06F5F7F4F8F4F9F4F089557FD90588A
S1130D60440F551F59F05F3F71F04795880F97FB6B
S1130D70991F61F09F3F79F0879508951216130625
S1130D801406551FF2CF4695F1DF08C01616170654
S1130D901806991FF1CF8695710561050894089589
S1130DA0E894BB2766277727CB0197F908950BD0E2
S1130DB0C4CFB5DF28F0BADF18F0952309F0A6CF29
S1130DC0ABCF1124EECFCADFA0F3959FD1F3950FDB
S1130DD050E0551F629FF001729FBB27F00DB11DBB
S1130DE0639FAA27F00DB11DAA1F649F6627B00D4B
S1130DF0A11D661F829F2227B00DA11D621F739F34
S1130E00B00DA11D621F839FA00D611D221F749F41
S1130E103327A00D611D231F849F600D211D822F88
S1130E20762F6A2F11249F5750408AF0E1F08823CF
S1130E304AF0EE0FFF1FBB1F661F771F881F9150DC
S1130E405040A9F79E3F510570F060CFAACF5F3F95
S1130E50ECF3983EDCF3869577956795B795F7950F
S1130E60E7959F5FC1F7FE2B880F911D9695879597
S1130E7097F908954F925F926F927F928F929F920B
S1130E80AF92BF92CF92DF92EF92FF920F931F9394
S1130E90CF93DF93EB0149015A01882321F081307C
S1130EA009F441C080C080911506C12CD12C760173
S1130EB0882309F47BC015E0402E512C612C712C41
S1130EC0C814D904EA04FB0409F470C00023C9F06F
S1130ED010922E0615BDC301B201B3DA2AE939E92D
S1130EE049EF50E464DF6DD267BD16BC90912E06C5
S1130EF08091C00087FD03C09923D1F34DC015BC78
S1130F0004C08091C00087FFFCCF8091130681113B
S1130F108091C1008091C60089938FEFC81AD80AC6
S1130F20E80AF80ACDCF80911606C12CD12C76019F
S1130F30882309F43BC015E0402E512C612C712C00
S1130F400EC015BC8091140681118091C900809156
S1130F50CE0089938FEFC81AD80AE80AF80AC81491
S1130F60D904EA04FB0411F10023C1F010922E0607
S1130F7015BDC301B20165DA2AE939E949EF50E444
S1130F8016DF1FD267BD16BC90912E068091C80053
S1130F9087FDD7CF9923D1F315BC08C08091C80031
S1130FA087FFFCCFCFCFC12CD12C7601C701B6016E
S1130FB0DF91CF911F910F91FF90EF90DF90CF9031
S1130FC0BF90AF909F908F907F906F905F904F9065
S1130FD008950F9300E04EDF0F910895882319F0D0
S1130FE0813081F01CC080911506811102C080E01F
S1130FF008958091C100662311F0806101C08F7E45
S11310008093C10080911606882389F38091C900DA
S1131010662311F0806101C08F7E8093C90081E056
S11310200895E82FF0E0ED5EF94F9081911102C030
S113103080E00895882319F0813071F01AC08091FE
S113104015068823A9F38091C000662311F08160FE
S113105001C08E7F8093C00080911606882341F3DF
S11310608091C800662311F0816001C08E7F809357
S1131070C80081E0089582E084BD15BC16BC17BC8D
S113108018BC80936E000895CF93DF931F92CDB761
S1131090DEB7E82FF0E0ED5EF94F4083882319F0C6
S11310A0813099F024C07093C5006093C40088E92E
S11310B08093C10086E08093C200413011F44093D4
S11310C0C00081E08093150613C07093CD00609337
S11310D0CC0088E98093C90086E08093CA0041303F
S11310E011F44093C80081E08093160601C080E0AB
S11310F08983C1DF89810F90DF91CF9108950F9388
S1131100FB01882319F0813039F14AC0809115061A
S1131110882309F445C080E090E0DC01821793073E
S1131120A407B50709F43FC06091C00065FFFCCF78
S113113060911306662349F06091C100002311F009
S1131140616001C06E7F6093C10061916093C600CD
S11311500196A11DB11DE2CF80911606882301F1ED
S113116080E090E0DC0182179307A407B507D9F06B
S11311706091C80065FFFCCF60911406662349F0B6
S11311806091C900002311F0616001C06E7F60931B
S1131190C90061916093CE000196A11DB11DE3CFFA
S11311A020E030E0A901CA01B9010F9108950F931D
S11311B0CF93DF931F92CDB7DEB76983E82FF0E0BA
S11311C0ED5EF94F9081992351F001E021E030E088
S11311D040E050E0BE016F5F7F4F91DF03C060E0ED
S11311E070E0CB010F90DF91CF910F9108950F9391
S11311F000E085DF0F9108950F93013210F43ADE79
S113120003C060E070E0CB010F9108950F93F4DF09
S11312100F9108951F920F920FB60F9211248F937E
S113122081E080932E068F910F900FBE0F901F9038
S113123018951F920F920FB60F9211240BB60F92AE
S11312402F933F934F935F936F937F938F939F93CA
S1131250AF93BF93EF93FF93E0911E06F0911F06A7
S1131260309731F060912A0670912B0680E0099541
S1131270FF91EF91BF91AF919F918F917F916F916A
S11312805F914F913F912F910F900BBE0F900FBE26
S11312900F901F9018951F920F920FB60F92112462
S11312A00BB60F922F933F934F935F936F937F935C
S11312B08F939F93AF93BF93EF93FF93E091240693
S11312C0F0912506309731F0609122067091230643
S11312D081E00995FF91EF91BF91AF919F918F911B
S11312E07F916F915F914F913F912F910F900BBE22
S11312F00F900FBE0F901F9018951F920F920FB66C
S11313000F9211240BB60F922F933F934F935F9339
S11313106F937F938F939F93AF93BF93EF93FF93B9
S1131320E0912006F0912106309731F06091280673
S11313307091290680E00995FF91EF91BF91AF91DB
S11313409F918F917F916F915F914F913F912F91D9
S11313500F900BBE0F900FBE0F901F9018951F9209
S11313600F920FB60F9211240BB60F922F933F9347
S11313704F935F936F937F938F939F93AF93BF9399
S1131380EF93FF93E0912606F0912706309731F012
S113139060912C0670912D0681E00995FF91EF91E3
S11313A0BF91AF919F918F917F916F915F914F9179
S11313B03F912F910F900BBE0F900FBE0F901F9077
S11313C0189578DC6894B111ECCC0895AA1BBB1B6A
S11313D051E107C0AA1FBB1FA617B70710F0A61B31
S11313E0B70B881F991F5A95A9F780959095BC0152
S10B13F0CD010895F894FFCF2C
S11313F858796D6B35765879667374206E6F7420DE
S1131408496E697469616C697A65640D0A00556E80
S113141861626C6520746F2064697361626C652015
S113142872656365697665720D0A005472616E733C
S11314386D697474696E672041636B204D657373BD
S11314486167650D0A004661696C656420746F20E4
S11314587472616E736D6974204465737420416499
S113146864726573730D0A004661696C656420745F
S11314786F207472616E736D697420427566666557
S1131488720D0A005472616E736D697474696E67C3
S11314982047656E6572616C204D6573736167657D
S11314A80D0A004661696C656420746F207472616A
S11314B86E736D6974204D65737361676520494463
S11314C80D0A004661696C656420746F207472614A
S11314D86E736D6974204C656E6774680D0A0046F6
S11314E861696C656420746F2072656365697665EB
S11314F82041636B204D6573736167650D0A005560
S11315086E61626C6520746F20656E61626C652023
S113151872656365697665720D0A0047656E657262
S1131528616C204D657373616765202D205761696F
S113153874696E6720666F722041646472657373A0
S11315480D0A00496E76616C696420446573746998
S11315586E6174696F6E20416464726573732E0DD5
S11315680A0047656E6572616C204D657373616727
S113157865202D20526563656976696E67204E651E
S113158877204D6573736167650D0A004661696C60
S1131598656420746F2072656365697665204D659E
S11315A873736167652049642E0D0A004D65737372
S11315B8616765204964203D2025640D0A00466161
S11315C8696C656420746F2072656365697665204B
S11315D84D657373616765204C656E6774682E0D7D
S11315E80A00496E73756666696369656E7420528C
S11315F865636569766520427566666572202D2087
S1131608427566666572204C656E677468203D2075
S113161825642C204D657373616765204C656E677E
S11316287468203D2025640D0A004661696C656470
S113163820746F207265636569766520656E7469C8
S11316487265206D6573736167652C2045787065D4
S113165863746564204D657373616765204C656EBA
S1131668677468203D2025642C205265636569767B
S11316786564204D657373616765204C656E677496
S113168868203D2025642E0D0A0041636B204D65BA
S11316987373616765202D2057616974696E6720CB
S11316A8666F7220416464726573730D0A00416346
S11316B86B204D657373616765202D2052656365E2
S11316C86976696E67204E6577204D657373616727
S11316D8650D0A00496E73756666696369656E749B
S11316E82052656365697665204275666665722071
S11316F80D0A004661696C656420746F2072656325
S11317086569766520656E74697265206D657373A5
S11317186167652C205265636569766564204D654B
S11317287373616765204C656E677468203D202576
S1131738642E0D0A004661696C656420746F206923
S11317486E697469616C697A6564205541525420E4
S1131758310D0A0006506572666F726D48616E64D9
S11317687368616B65202D20526563656976652011
S113177844617461204661696C65640D0A005065B2
S113178872666F726D48616E647368616B65202D53
S113179820526563656976652044617461204661F9
S11317A8696C6564202D20526563656976656420DB
S11317B84C656E677468203D2025640D0A005065E9
S11317C872666F726D48616E647368616B65202D13
S11317D820496E76616C69642056616C7565202DAC
S11317E82025640D0A00506572666F726D48616E3B
S11317F8647368616B65202D205472616E736D6922
S1131808742044617461204661696C65640D0A0042
S113181848616E647368616B6520636F6D706C6595
S11318287465640D0A002D2D2D2D2D2D2D2D2D2D96
S11318382D2D2D2D2D2D2D0D0A00496E6974204155
S11318484443204661696C65640D0A00496E6974F5
S1131858205472616E7363656976657220466169A6
S11318686C65640D0A00506572666F726D696E6707
S11318782048616E647368616B650D0A0048616E87
S1131888647368616B65204661696C65640D0A0060
S11318984472697665205243204361720D0A0046FA
S11318A861696C656420746F207265636569766527
S11318B820636F6D6D616E640D0A00496E76616C0C
S11318C86964204C656E677468203D2025640D0AA0
S11318D80043757272656E742050756C7365203D93
S11318E82025640D0A00414443204368616E6E65F7
S11318F86C204E6F7420456E61626C65640D0A003D
S9030000FC
