S00F000050574D546573742E7372656381
S113000045C0000060C000005EC000005CC000008D
S11300105AC0000058C0000056C0000054C0000080
S113002052C0000050C000004EC0000039C10000A2
S11300304AC0000048C0000046C0000011C10000D2
S1130040A6C1000040C000003EC000003CC000004B
S1130050ADC1000038C000000DC2000034C0000073
S113006032C0000030C000002EC000002CC00000D0
S1130070CFC1000028C000002FC2000024C000002F
S113008022C0000020C000001EC0000011241FBEBA
S1130090CFEFD0E4DEBFCDBF11E0A0E0B1E0E8E6F1
S11300A0F5E000E00BBF02C007900D92A438B10741
S11300B0D9F721E0A4E8B1E001C01D92AB39B20741
S11300C0E1F702D04FC29CCFCF93DF9300D000D092
S11300D000D0CDB7DEB745E060E072E18AE790E09A
S11300E04ED180E091E09F938F9314E01F9348D109
S11300F08BE091E09F938F931F9342D178948981F1
S11301008E7F89831A821B8281E08C83CE010196C3
S1130110DFD087E090E047D02FEF89E698E12150C7
S113012080409040E1F700C000000F900F900F90C6
S11301300F900F900F909FE3E92EF12C07E111E04F
S113014024E0C22E1E821D82BE016B5F7F4F80E0C1
S1130150DCD0BE016B5F7F4F80E0D7D02D813E8124
S1130160C901B701EBD1D62E8FE0861710F480E1D8
S1130170D82E1F92DF923F932F931F930F93CF920A
S1130180FFD06D2D80E03BD06D2D81E038D06D2DFA
S113019082E035D06D2D83E032D00FB6F894DEBF07
S11301A00FBECDBFCFCF80918401882361F084E35B
S11301B091E09F938F9384E08F93E2D00F900F9000
S11301C00F9080E008958AB1806F8AB981EF80939F
S11301D080008093B00084E08093810086E0809367
S11301E0B10081E080936F008093700010928500CD
S11301F0109284001092B2008093840108950F93AA
S11302001F93CF93DF931F92CDB7DEB790918401F4
S11302109923F9F0082F10E01F926F931F928F9388
S11302208EE491E09F938F9384E08F936983A8D0A9
S1130230D801AB57BE4F69810FB6F894DEBF0FBE2D
S1130240CDBF613108F060E180EF861B8C9381E0C3
S113025001C080E00F90DF91CF911F910F9108951D
S11302601F920F920FB60F9211248F939F93809138
S11302708401882371F08091850190E09093890036
S1130280809388008091860190E090938B00809306
S11302908A009F918F910F900FBE0F901F90189519
S11302A01F920F920FB60F9211248F9380918401A5
S11302B0882341F0809187018093B3008091880165
S11302C08093B4008F910F900FBE0F901F901895DC
S11302D0FC010097B9F081818295880F880F807C9A
S11302E0908190FB85F980937C008281877080687F
S11302F080937A0010927B00838180937E0081E05A
S113030080938901809189010895FB0120917E00E9
S113031030E0082E02C0359527950A94E2F720FDB7
S11303200CC08AE691E09F938F9381E08F9328D04D
S11303300F900F900F9080E0089590917C008F7142
S1130340907E982B90937C0080917A0080648093B7
S11303507A0080917A0084FFFCCF8091780090E04D
S11303609183808320917900922B8C3F23E0920724
S113037010F08BEF93E09183808381E008950895DA
S1130380CF93DF93CDB7DEB7DF91CF9108951F925E
S11303900F920FB60F9211248F9381E080939A01EC
S11303A08F910F900FBE0F901F9018951F920F9270
S11303B00FB60F9211240BB60F922F933F934F93C6
S11303C05F936F937F938F939F93AF93BF93EF93B9
S11303D0FF93E0918A01F0918B01309731F06091A5
S11303E096017091970180E00995FF91EF91BF917B
S11303F0AF919F918F917F916F915F914F913F91B9
S11304002F910F900BBE0F900FBE0F901F90189559
S11304101F920F920FB60F9211240BB60F922F93C7
S11304203F934F935F936F937F938F939F93AF9378
S1130430BF93EF93FF93E0919001F0919101309776
S113044031F060918E0170918F0181E00995FF91E7
S1130450EF91BF91AF919F918F917F916F915F9138
S11304604F913F912F910F900BBE0F900FBE0F90A5
S11304701F9018951F920F920FB60F9211240BB66E
S11304800F922F933F934F935F936F937F938F9329
S11304909F93AF93BF93EF93FF93E0918C01F091FF
S11304A08D01309731F0609194017091950180E055
S11304B00995FF91EF91BF91AF919F918F917F919A
S11304C06F915F914F913F912F910F900BBE0F90C1
S11304D00FBE0F901F9018951F920F920FB60F9298
S11304E011240BB60F922F933F934F935F936F9307
S11304F07F938F939F93AF93BF93EF93FF93E09179
S11305009201F0919301309731F0609198017091CC
S1130510990181E00995FF91EF91BF91AF919F916E
S11305208F917F916F915F914F913F912F910F9098
S11305300BBE0F900FBE0F901F901895AA1BBB1BEC
S113054051E107C0AA1FBB1FA617B70710F0A61BCF
S1130550B70B881F991F5A95A9F780959095BC01F0
S10B0560CD010895F894FFCFCA
S113056850574D20546573740D0A002D2D2D2D2DD3
S11305782D2D2D2D0D0A004144432056616C7565BF
S1130588203D2025642C2050756C7365203D202562
S1130598640D0A0050574D20416C726561647920DE
S11305A8496E697469616C697A65640D0A00436807
S11305B8616E6E656C203D202564202D2050756C7D
S11305C87365203D2025640D0A0041444320436897
S11305D8616E6E656C204E6F7420456E61626C6549
S10705E8640D0A0090
S9030000FC
