:1000000045C0000060C000005EC000005CC0000091
:100010005AC0000058C0000056C0000054C0000084
:1000200052C0000050C000004EC000004CC0000094
:100030004AC0000048C0000046C0000044C00000A4
:100040004AC3000040C000003EC000003CC00000A9
:1000500051C3000038C00000B1C3000034C000002C
:1000600032C0000030C000002EC000002CC00000D4
:1000700073C3000028C00000D3C3000024C00000E8
:1000800022C0000020C000001EC0000011241FBEBE
:10009000CFEFD0E4DEBFCDBF13E0A0E0B1E0E8E8F1
:1000A000F8E000E00BBF02C007900D92AA3DB10737
:1000B000D9F723E0AAEDB3E001C01D92AE3EB2072E
:1000C000E1F702D0DFC39CCFCF93DF9300D000D005
:1000D000CDB7DEB745E060E072E18AE790E0F3D2A9
:1000E00080E091E09F938F9314E01F93EDD281E124
:1000F00091E09F938F931F93E7D28FE48C838EEFD1
:100100008B83AE014D5F5F4FBE016C5F7F4F80E020
:100110003CD00F900F900F900F900F900F9083E2B4
:10012000C82E81E0D82E9AE3E92E91E0F92E00E066
:1001300020E030E042E050E060E070E0CE01019667
:1001400082D28A818F9389818F93DF92CF921F937E
:10015000BBD289819A8101969A83898320E030E01D
:1001600042E050E060E070E0CE01019645D18A8126
:100170008F9389818F93FF92EF921F93A5D20FB631
:10018000F894DEBF0FBECDBFD2CF811120C0611564
:10019000710589F04115510571F0FB018081809353
:1001A000BA00FA0180818093BD0087B18C7F87B946
:1001B0001092DC0312C084E591E09F938F9381E05D
:1001C0008F9382D20F900F900F9080E0089581E07E
:1001D0008093DC0387B1836087B980E28093B800A5
:1001E0001092B90084E48093BC00FFEF20E782E026
:1001F000F15020408040E1F700C000001092DA0387
:1002000081E08093DB0308958091BC008F7580624C
:100210008093BC008091BC0080688093BC0080917A
:10022000BC0087FFFCCF8091BC008F758093BC0021
:100230008091DA039091B900987F882321F081E0C2
:10024000903121F404C081E0983009F080E00895F5
:100250008091BC008F7680618093BC008091BC004F
:1002600080688093BC008091BC0084FFFCCF08951F
:100270000F931F93CF932091DC03213011F4C8E238
:1002800001C0C8EBFC0180E090E0DC018A019B0129
:1002900001501109210931094C2F50E080179107B5
:1002A000A207B307B8F461916093BB006091BC00F2
:1002B00060686093BC006091BC0067FFFCCF6091F8
:1002C000B900687F70E064177507F1F40196A11D0D
:1002D000B11DE4CF8091DC03811101C0C0EC8081AD
:1002E0008093BB008091BC0080688093BC008091AB
:1002F000BC0087FFFCCF2091B900287F30E08C2F15
:1003000090E02817390799F08091B900887F1F92F3
:100310008F9383E791E09F938F9381E08F93D4D164
:100320000F900F900F900F900F9080E001C081E030
:10033000CF911F910F910895CF92DF92EF92FF928C
:100340000F93CF93DF9300D000D0CDB7DEB77C0101
:10035000690149835A836B837C8356DF49815A81C3
:100360006B817C81811108C08091B900887F1F92C8
:100370008F9389EA91E01DC01092DA03F601808123
:100380008E7F80838093BB008091BC0080688093C7
:10039000BC008091BC0087FFFCCF8091B900887FB2
:1003A000883199F08091B900887F1F928F9383EFF5
:1003B00091E09F938F9381E08F9386D10F900F9060
:1003C0000F900F900F9080E00BC0C70151DF00230A
:1003D00021F089833DDF898103C091E09093DA03A6
:1003E0000F900F900F900F90DF91CF910F91FF9092
:1003F000EF90DF90CF9008950F93E091DB03EE2311
:1004000009F448C0009709F445C0E091DC03E130ED
:1004100079F42115310551F48AE492E09F938F938A
:10042000EF9352D10F900F900F9034C085DF33C0FF
:100430002091BC0020682093BC002091BC0027FFC5
:10044000FCCF2091B900287F203AB1F02091B9006B
:10045000287F283AD9F08091B9001F928F938DE6BA
:1004600092E09F938F9381E08F932ED10F900F9006
:100470000F900F900F900EC02091BC002068209329
:10048000BC002091BC0027FFFCCFE0CF399AF0DE02
:10049000399801C080E00F910895CF92DF92EF92DA
:1004A000FF920F931F93FC018091DC03813011F4C4
:1004B00080E501C080E800E010E098016A017B015E
:1004C00091E0C91AD108E108F108482F50E00C1555
:1004D0001D052E053F05C0F49091BC0090689093D7
:1004E000BC009091BC0097FFFCCF6091B900687F81
:1004F00070E06417750719F59091BB0091930F5F39
:100500001F4F2F4F3F4FE3CF9091DC03913031F4D9
:100510008091BC008F738093BC0088E59091BC00F3
:1005200090689093BC009091BC0097FFFCCF209105
:10053000B900287F30E090E02817390799F08091C2
:10054000B900887F1F928F9387EA92E09F938F93E1
:1005500081E08F93B9D00F900F900F900F900F9074
:1005600080E004C08091BB00808381E09091BC005A
:100570009F7390649093BC001F910F91FF90EF9038
:10058000DF90CF900895CF92DF92EF92FF920F937A
:10059000CF93DF9300D000D0CDB7DEB77C016901E7
:1005A00049835A836B837C832FDE49815A816B8117
:1005B0007C81811108C08091B900887F1F928F9340
:1005C00089ED92E01DC01092DA03F601808181600E
:1005D00080838093BB008091BC0080688093BC00C6
:1005E0008091BC0087FFFCCF8091B900887F803468
:1005F00099F08091B900887F1F928F9382E293E0F7
:100600009F938F9381E08F935FD00F900F900F9007
:100610000F900F9080E00BC0C7013FDF002321F057
:10062000898316DE898103C091E09093DA030F90ED
:100630000F900F900F90DF91CF910F91FF90EF905F
:10064000DF90CF9008950F93E091DB03EE23C1F18B
:100650000097B1F1E091DC03E13089F42115310517
:1006600051F487E793E09F938F93EF932DD00F90F2
:100670000F900F9025C0399886DF399A22C02091BB
:10068000BC0020682093BC002091BC0027FFFCCF59
:100690002091B900287F203689F08091B9001F92FF
:1006A0008F9389E993E09F938F9381E08F930CD090
:1006B0000F900F900F900F900F9002C00F91EDCE02
:1006C00080E00F9108950895CF93DF93CDB7DEB703
:1006D000DF91CF9108951F920F920FB60F921124C0
:1006E0008F9381E08093ED038F910F900FBE0F9059
:1006F0001F9018951F920F920FB60F9211240BB6F0
:100700000F922F933F934F935F936F937F938F93AA
:100710009F93AF93BF93EF93FF93E091DD03F0912D
:10072000DE03309731F06091E9037091EA0380E0D5
:100730000995FF91EF91BF91AF919F918F917F911B
:100740006F915F914F913F912F910F900BBE0F9042
:100750000FBE0F901F9018951F920F920FB60F9219
:1007600011240BB60F922F933F934F935F936F9388
:100770007F938F939F93AF93BF93EF93FF93E091FA
:10078000E303F091E403309731F06091E10370915D
:10079000E20381E00995FF91EF91BF91AF919F91A5
:1007A0008F917F916F915F914F913F912F910F901A
:1007B0000BBE0F900FBE0F901F9018951F920F92B7
:1007C0000FB60F9211240BB60F922F933F934F93B6
:1007D0005F936F937F938F939F93AF93BF93EF93A9
:1007E000FF93E091DF03F091E003309731F06091E7
:1007F000E7037091E80380E00995FF91EF91BF91C5
:10080000AF919F918F917F916F915F914F913F91A8
:100810002F910F900BBE0F900FBE0F901F90189549
:100820001F920F920FB60F9211240BB60F922F93B7
:100830003F934F935F936F937F938F939F93AF9368
:10084000BF93EF93FF93E091E503F091E6033097B8
:1008500031F06091EB037091EC0381E00995FF9119
:10086000EF91BF91AF919F918F917F916F915F9128
:100870004F913F912F910F900BBE0F900FBE0F9095
:080880001F901895F894FFCFBA
:1008880054574920536C61766520546573740D0A7A
:10089800002D2D2D2D2D2D2D2D2D2D2D2D2D2D2DAD
:1008A8000D0A004461746120526563656976656468
:1008B800203D20307825780D0A0044617461205469
:1008C80072616E736D6974746564203D203078259B
:1008D800780D0A00496E6974545749202D20496ED5
:1008E80076616C696420506172616D6574657273BC
:1008F8000D0A005472616E736D6974202D20446175
:100908007461205472616E736D697373696F6E20C0
:100918004661696C6564202D205374617475732079
:100928003D20307825780D0A005477694D6173743D
:1009380065725472616E736D6974202D20537461F1
:10094800727420436F6E646974696F6E20547261AB
:100958006E736D697373696F6E204661696C656447
:10096800202D20537461747573203D2030782578CC
:100978000D0A005477694D61737465725472616E23
:10098800736D6974202D20536C6176652041646411
:100998007265737320616E642057726974652046AE
:1009A8006C6167205472616E736D697373696F6EE1
:1009B800204661696C6564202D20537461747573D9
:1009C800203D20307825780D0A00547769547261EB
:1009D8006E736D6974202D20496E76616C69642090
:1009E800506172616D65746572730D0A00547769A0
:1009F8005472616E736D6974202D20536C61766535
:100A08002052656164204E6F74205265717565735C
:100A1800746564206279204D6173746572202D209D
:100A2800307825780D0A0052656365697665202D52
:100A3800204461746120526563657074696F6E202B
:100A48004661696C6564202D205374617475732048
:100A58003D20307825780D0A005477694D6173740C
:100A6800657252656365697665202D2053746172DD
:100A78007420436F6E646974696F6E205472616E7E
:100A8800736D697373696F6E204661696C65642064
:100A98002D20537461747573203D20307825780DAE
:100AA8000A005477694D61737465725265636569AC
:100AB8007665202D20536C617665204164647265EB
:100AC800737320616E64205265616420466C6167AF
:100AD800205472616E736D697373696F6E2046611D
:100AE800696C6564202D20537461747573203D20F2
:100AF800307825780D0A0054776952656365697600
:100B080065202D20496E76616C69642050617261A0
:100B18006D65746572730D0A005477695265636573
:100B2800697665202D20536C61766520577269744B
:100B380065204E6F74205265717565737465642005
:100B48006279204D6173746572202D20537461742D
:0A0B5800757320307825780D0A002F
:00000001FF
