:1000000045C000000C940A0C0C943D0C0C94700C30
:100010005BC0000059C0000057C0000055C0000080
:1000200053C0000051C000004FC000004DC0000090
:100030004BC0000049C0000047C0000045C00000A0
:100040000C94A30C41C000003FC000003DC0000064
:100050000C94B20C39C000000C94160D35C0000091
:1000600033C0000031C000002FC000002DC00000D0
:100070000C94E40C29C000000C94480D25C000002D
:1000800023C0000021C000001FC0000011241FBEBB
:10009000CFEFD0E4DEBFCDBF1BE0A0E0B1E0E2E5F2
:1000A000FCE100E00BBF02C007900D92AC34B10739
:1000B000D9F72BE0ACE4BBE001C01D92AB3BB2072B
:1000C000E1F7B1D20C94270E9BCF81E080934C0BCB
:1000D0000895CF93DF9300D000D01F92CDB7DEB745
:1000E0001A82198285E48F7789838EE48D8380E17B
:1000F0008C8382E08B83CE010196CDD60F900F903A
:100100000F900F900F90DF91CF9108950F93CF93A1
:10011000DF9300D000D0CDB7DEB701E020E030E0C3
:1001200045E650E062E080E00E94810B89818E7F8D
:1001300089831A821B8287E08C83CE010196F0D4DA
:100140000F900F900F900F90DF91CF910F91089526
:10015000CF93DF93CDB7DEB7A1970FB6F894DEBF8C
:100160000FBECDBF81E0898389A31F8218861986BF
:1001700080EE8A8380ED8B8380EC8C8380EB8D8393
:1001800080EA8E831F86188A198A88E78A878B8778
:100190008C878D878E878FE08A8B8B8B8EE68C8BFE
:1001A0001E8A1D8A1A8E198E1E8E1D8E188E1F8A0B
:1001B00018A21F8E1C8E1B8ECE0101960E94220952
:1001C000A1960FB6F894DEBF0FBECDBFDF91CF91E1
:1001D0000895CF93DF9300D0CDB7DEB71A8219828E
:1001E000BE016F5F7F4F80E0B8D4BE016F5F7F4F6D
:1001F00080E0B3D489819A81009719F08B3F9340B6
:1002000079F70F900F90DF91CF910895CF93DF93FF
:1002100000D000D0CDB7DEB71A8219820E94730ACF
:100220008823E1F3CE0103964DD78B818F73823003
:1002300019F080E091E01CC0BE016D5F7F4FCE01E0
:1002400001967AD781110DC028E231E03F932F93B8
:1002500091E09F938C835DD40F900F900F908C81D1
:1002600022C089819A818D3F934061F080E591E0C1
:100270009F938F9381E08F934CD40F900F900F90AA
:1002800080E011C083E08F938DEF8F938BE791E037
:100290009F938F9384E08F933CD40F900F900F9097
:1002A0000F900F9081E00F900F900F900F90DF91C3
:1002B000CF9108951F93CF93DF9300D000D0CDB797
:1002C000DEB78CEF93E09A83898382E08B838EE99B
:1002D00091E09F938F9311E01F931BD4BE016D5F3C
:1002E0007F4FCE0101960E949A0A0F900F900F90B7
:1002F00081110CC020EC31E03F932F931F938C832E
:1003000008D40F900F900F908C810AC089EE91E075
:100310009F938F931F93FDD379DF0F900F900F90D2
:100320000F900F900F900F90DF91CF911F91089534
:10033000CF92DF92EF92FF92CF93DF936B017C011C
:10034000EA01233008F4BDC020E030E0A9012CD23E
:1003500087FDB7C020E030E044EB53E4C701B601AD
:100360004BD218160CF4ADC020E030E0A901C70153
:10037000B60142D287FD0CC020E030E040E751E4F6
:10038000C701B60111D218161CF06BE072E094C0E0
:1003900020E030E040E751E4C701B6012DD2181645
:1003A00064F420E030E046E952E4C701B601FCD134
:1003B00018161CF06DE072E07FC020E030E046E9E6
:1003C00052E4C701B60118D2181664F420E030E0F8
:1003D00042ED52E4C701B601E7D118161CF06EE0F9
:1003E00072E06AC020E030E042ED52E4C701B6019D
:1003F00003D2181664F420E030E045E253E4C7016C
:10040000B601D2D118161CF060E172E055C020E0B0
:1004100030E045E253E4C701B601EED1181664F4AA
:1004200020E030E043E453E4C701B601BDD1181623
:100430001CF063E172E040C020E030E043E453E4AC
:10044000C701B601D9D1181664F420E030E04FE7B7
:1004500053E4C701B601A8D118161CF065E172E09B
:100460002BC020E030E04FE753E4C701B601C4D110
:10047000181664F420E030E84EE853E4C701B601F2
:1004800093D118161CF069E172E016C020E030E844
:100490004EE853E4C701B601AFD118160CF075CF82
:1004A00020E030E84CEA53E4C701B6017DD11816CC
:1004B0000CF46BCF68E172E0CE010E94200E81E067
:1004C00001C080E0DF91CF91FF90EF90DF90CF905F
:1004D0000895CF93DF9300D01F92CDB7DEB7EFD34F
:1004E00060E080E004D46091730B7091740B809194
:1004F000750B9091760B23E0AE014F5F5F4F18DFD5
:100500008091760B8F938091750B8F938091740BF4
:100510008F938091730B8F938BE192E09F938F93D6
:1005200084E08F93F6D283E392E022D460E081E00E
:10053000DED3CE0101961CD40FB6F894DEBF0FBEF9
:10054000CDBF0F900F900F90DF91CF910895CF9373
:10055000DF93CDB7DEB7A9970FB6F894DEBF0FBE15
:10056000CDBF88E089A718A61FA208E211E080E0AD
:10057000E82E81E0F82EBE016F5D7F4F80E0EDD266
:10058000BE016F5D7F4F80E0E8D2BE016D5D7F4FA1
:1005900081E0E3D2BE016D5D7F4F81E0DED2BE011E
:1005A0006B5D7F4F82E0D9D2BE016B5D7F4F82E0F1
:1005B000D4D2BE01675D7F4FCE018196BBD793D762
:1005C0008823C9F2CE0189967DD589A5837061F013
:1005D000FF92EF9281E08F939CD2BE01675D7F4FC7
:1005E000CE010196A9D50DC0BE01675D7F4FCE013A
:1005F0000196A2D5811109C01F930F9381E08F93BB
:1006000088D20F900F900F90B6CF89819A81AB81DD
:10061000BC818093730B9093740BA093750BB09374
:10062000760B57DFA8CFCF9345E060E072E18AE711
:1006300090E06ED28DE392E09F938F93C4E0CF93CE
:1006400068D281E592E09F938F93CF9362D20E940C
:100650006A0B40E050E060E070E081E0D1D00F90A4
:100660000F900F900F900F900F90811103C085E6AF
:1006700092E005C02EDD811108C088E892E09F93CA
:100680008F9381E08F9345D277C019D360E080E0EB
:100690002ED38FEA92E06CD32FEF89E698E12150B8
:1006A00080409040E1F700C0000009D360E080E0A6
:1006B0001ED389EB92E05CD329DD811103C089EC64
:1006C00092E04EC045DD8AE093E09F938F93C4E0B3
:1006D000CF931FD2F4D260E080E009D385E293E0AB
:1006E00047D360E081E003D385E393E041D371DD3C
:1006F000E6D260E080E0FBD286E493E039D360E0AC
:1007000081E0F5D285E593E033D380914C0B1F92C5
:100710008F938DE593E09F938F93CF93FAD18DB70D
:100720009EB708960FB6F8949EBF0FBE8DBF8091FE
:100730004C0B811107C08FE19EE40197F1F700C0D7
:100740000000F5CF10924C0BBAD260E080E0CFD21F
:1007500089E693E00DD3AEDD811115C087E793E004
:100760009F938F9381E08F93D4D1A9D260E080E0F2
:10077000BED289EF92E0FCD20F900F900F9080E0F4
:1007800090E0CF9108959FEF29E688E191502040B5
:100790008040E1F700C0000092D260E080E0A7D284
:1007A00082E993E0E5D2D3DE03D008F481E0089536
:1007B000990F0008550FAA0BE0E8FEEF1616170672
:1007C000E807F907C0F012161306E407F50798F0DA
:1007D000621B730B840B950B39F40A2661F0232BF3
:1007E000242B252B21F408950A2609F4A140A6956F
:1007F0008FEF811D811D0895DBDF08F48FEF0895D1
:10080000811120C06115710589F04115510571F004
:10081000FB0180818093BA00FA0180818093BD0042
:1008200087B18C7F87B91092770B12C08CE993E067
:100830009F938F9381E08F936CD10F900F900F90C7
:1008400080E0089581E08093770B87B1836087B95A
:1008500080E28093B8001092B90084E48093BC00D9
:10086000FFEF20E782E0F15020408040E1F700C038
:10087000000010924D0B81E080934E0B0895809103
:10088000BC008F7580628093BC008091BC00806842
:100890008093BC008091BC0087FFFCCF8091BC009E
:1008A0008F758093BC0080914D0B9091B900987F1B
:1008B000882321F081E0903121F404C081E0983058
:1008C00009F080E008958091BC008F76806180936C
:1008D000BC008091BC0080688093BC008091BC000B
:1008E00084FFFCCF08950F931F93CF932091770B34
:1008F000213011F4C8E201C0C8EBFC0180E090E0B7
:10090000DC018A019B0101501109210931094C2F99
:1009100050E080179107A207B307B8F46191609384
:10092000BB006091BC0060686093BC006091BC003B
:1009300067FFFCCF6091B900687F70E064177507AE
:10094000F1F40196A11DB11DE4CF8091770B8111C7
:1009500001C0C0EC80818093BB008091BC008068A6
:100960008093BC008091BC0087FFFCCF2091B90030
:10097000287F30E08C2F90E02817390799F080917C
:10098000B900887F1F928F938BEB93E09F938F9397
:1009900081E08F93BED00F900F900F900F900F902B
:1009A00080E001C081E0CF911F910F910895CF9217
:1009B000DF92EF92FF920F93CF93DF9300D000D09E
:1009C000CDB7DEB77C01690149835A836B837C8391
:1009D00056DF49815A816B817C81811108C08091E9
:1009E000B900887F1F928F9381EF93E01DC0109212
:1009F0004D0BF60180818E7F80838093BB008091B8
:100A0000BC0080688093BC008091BC0087FFFCCF55
:100A10008091B900887F883199F08091B900887FF2
:100A20001F928F938BE394E09F938F9381E08F933A
:100A300070D00F900F900F900F900F9080E00BC030
:100A4000C70151DF002321F089833DDF898103C085
:100A500091E090934D0B0F900F900F900F90DF91BE
:100A6000CF910F91FF90EF90DF90CF9008950F936B
:100A7000E0914E0BEE2309F448C0009709F445C0FD
:100A8000E091770BE13079F42115310551F482E9D9
:100A900094E09F938F93EF933CD00F900F900F9023
:100AA00034C085DF33C02091BC0020682093BC0097
:100AB0002091BC0027FFFCCF2091B900287F203A6D
:100AC000B1F02091B900287F283AD9F08091B9007F
:100AD0001F928F9385EB94E09F938F9381E08F9388
:100AE00018D00F900F900F900F900F900EC0209184
:100AF000BC0020682093BC002091BC0027FFFCCFE5
:100B0000E0CF399AF0DE399801C080E00F91089566
:100B10000895CF93DF93CDB7DEB7DF91CF910895DE
:100B2000FC010097B9F081818295880F880F807C45
:100B3000908190FB85F980937C008281877080682A
:100B400080937A0010927B00838180937E0081E005
:100B500080934F0B80914F0B0895FB0120917E00F5
:100B600030E0082E02C0359527950A94E2F720FD63
:100B70000CC082E296E09F938F9381E08F93C9DF50
:100B80000F900F900F9080E0089590917C008F71EE
:100B9000907E982B90937C0080917A008064809363
:100BA0007A0080917A0084FFFCCF8091780090E0F9
:100BB0009183808320917900922B8C3F23E09207D0
:100BC00010F08BEF93E09183808381E00895EF92A2
:100BD000FF920F931F93CF93DF931F92CDB7DEB792
:100BE0007C01162F8091780B8E7F8093780BF70114
:100BF00080818460808300E028E73BE041E050E0B2
:100C000060E070E0C70133DF882379F0F70180816D
:100C10008B7F8083012F28E73BE041E050E060E0DC
:100C200070E0C70124DF81110CC02CE336E03F9354
:100C30002F9391E09F9389836CDF0F900F900F901B
:100C400089810F90DF91CF911F910F91FF90EF90CD
:100C500008951F93CF93DF9300D0CDB7DEB7182F41
:100C6000998160FB90F98091550B80FB93F9812F5E
:100C7000807F9D70982B998360E0CE0101964A8316
:100C8000A6DF4A81882351F01295107F99819F70C9
:100C9000912B9983642FCE01019699DF0F900F90CD
:100CA000DF91CF911F91089541E060E082E0D1DFB4
:100CB000EFE9FFE03197F1F700C000000895CF930E
:100CC00041E060E081E0C5DFC82FEEDF8C2FCF91DF
:100CD0000895811102C088E001C08CE0611182603A
:100CE000411181602093550B41E060E0B2CFCF937A
:100CF000DF93D82FC62F8091560B81110BC08DE545
:100D000096E09F938F9381E08F9303DF0F900F9076
:100D10000F9016C08091500BD81790F4603480F477
:100D200041E060E08C2F90E4D99F800D1124806811
:100D300090DF882331F0D093520BC093530B01C046
:100D400080E0DF91CF910895811102C084E001C05D
:100D500085E06111826041E060E07BCF811102C0DB
:100D600080E101C088E16111846041E060E071CF01
:100D70007F928F929F92AF92BF92CF92DF92EF922B
:100D8000FF920F931F93CF93DF932091560B211166
:100D90000CC08AE896E09F938F9381E08F93B9DE31
:100DA0000F900F900F9080E05EC0FC01019000203A
:100DB000E9F73197E81BF90B4F01A12CB12CEC019D
:100DC000C12CD12C760180E00BEA16E094E0792E5C
:100DD000C814D904EA04FB0408F045C09091530BF1
:100DE0008091510B981750F18091540B882321F07A
:100DF00060E081E0B3DF22C08091520B90E0019669
:100E00006091500B70E0F5D68093520B1092530B0B
:100E10001F921F9299279F938F931F930F937F92F7
:100E200078DE6091530B8091520B61DF8DB79EB7D6
:100E300007960FB6F8949EBF0FBE8DBF41E061E0EC
:100E4000899107DF882379F02091530B30E02F5FE1
:100E50003F4F2F7333272093530B9FEFC91AD90AA3
:100E6000E90AF90AB5CFDF91CF911F910F91FF9059
:100E7000EF90DF90CF90BF90AF909F908F907F903A
:100E80000895811102C080E201C088E2611184608E
:100E900041E060E0DECECF93DF93EC018B818823CD
:100EA000B9F18A818823A1F18C818093780B07DFC7
:100EB0008A818093500B9B819093510B823028F054
:100EC00088818F7D888381E001C080E0688165FB37
:100ED000662760F9D6DF888186FB222720F984FB0C
:100EE000442740F983FB662760F982FB882780F955
:100EF000F0DE8881682F61708695817025DF88819A
:100F000087FB882780F98093540B81E08093560BF0
:100F10008091560BDF91CF910895CF93DF931F926D
:100F2000CDB7DEB7811102C082EE01C081EE8983A8
:100F300017D621E030E040E050E0BE016F5F7F4F08
:100F4000CB0112D60FD60F90DF91CF910895CF929B
:100F5000DF92EF92FF920F931F93CF93DF93CDB762
:100F6000DEB7A1970FB6F894DEBF0FBECDBF8C01E0
:100F70007B01D42EFC018081803A99F48091990BF9
:100F800081110FC0FFE1F41760F0842FE1E0F0E081
:100F9000EC0FFD1FE80FF11D10828F5F8032B1F75B
:100FA00002C0C12C02C0CC24C394DAD521E030E0C9
:100FB00040E050E0B801C801D7D581110CC089ECE0
:100FC00096E09F938F9381E08F93A3DD0F900F9016
:100FD0000F9080E02DC02D2D30E040E050E0BE01AC
:100FE0006F5F7F4FC701C0D5882349F3CC2001F143
:100FF0004D2D50E081E090E08C0F9D1F840F951FD8
:1010000020E230E0241B350B442737FD4095542F58
:10101000BC01AAD581110CC029EC36E03F932F9377
:1010200091E09F9389A375DD0F900F900F9089A198
:1010300089A398D589A1A1960FB6F894DEBF0FBEFB
:10104000CDBFDF91CF911F910F91FF90EF90DF9077
:10105000CF900895EF92FF921F93CF93DF9300D02C
:10106000CDB7DEB77B01142F8A83998379D521E030
:1010700030E040E050E08A819981BC0175D5882339
:1010800051F0212F30E040E050E0B70189E79BE0CC
:101090006BD581110CC020E537E03F932F9391E091
:1010A0009F938A8336DD0F900F900F908A818A83F9
:1010B00059D58A810F900F90DF91CF911F91FF90AA
:1010C000EF9008950F931F93CF93DF931F92CDB7A7
:1010D000DEB78C018091630B811103C08CE697E031
:1010E00019C0F80110828091990B8823E1F080E605
:1010F000898341E0B801CE010196ACDF882321F05D
:10110000F8018081813290F0F801108280E005DFE3
:1011100085EA97E09F938F9381E08F93FADC0F909D
:101120000F900F9003C080E2F80180830F90DF9151
:10113000CF911F910F910895EF92FF920F931F93FC
:10114000CF93DF9300D0CDB7DEB77C018B018091C8
:10115000630B81110CC089EE97E09F938F9381E020
:101160008F93D7DC0F900F900F9080E027C01A82EA
:10117000CE010296A7DFF80120812F7330E08A812B
:101180008F7390E0821793078CF428E138E03F9347
:101190002F9384E08F93BDDC9A819F73F801808147
:1011A000807C892B80830F900F900F9081E689833C
:1011B000F8014081B701CE0101964CDF0F900F90EE
:1011C000DF91CF911F910F91FF90EF900895CF93F2
:1011D000DF931F92CDB7DEB78983CE0101963ADF48
:1011E0000F90DF91CF9108950F931F93CF93DF93CB
:1011F00000D0CDB7DEB7182F198280628A83CE0166
:101200000296A5DE082F41E0BE016F5F7F4F812F60
:10121000DEDF89811F928F931F921F9326E339E0AF
:101220003F932F9384E08F9374DC0FB6F894DEBF66
:101230000FBECDBF802F0F900F90DF91CF911F91E8
:101240000F910895EF92FF920F931F93CF93DF9327
:10125000CDB7DEB728970FB6F894DEBF0FBECDBF6F
:101260007C01009719F487E599E006C08091630B33
:10127000882359F08FE899E09F938F9381E08F93B3
:1012800048DC0F900F900F901FC1E9E7FBE08FEF54
:1012900081932BE0E939F207D9F73F9AF701848966
:1012A0009589892BD9F54798FFEF20E782E0F15027
:1012B00020408040E1F700C00000F70180A180934A
:1012C000990B848995899093620B8093610B868931
:1012D00097899093600B80935F0B808D918D909395
:1012E0005E0B80935D0B828D938D90935C0B80934E
:1012F0005B0B848D958D90935A0B8093590B868D43
:10130000978D9093580B8093570BCCD11886F7018B
:101310008081811119C081E0888716C0F701808D16
:10132000918D892B09F4BFCF848D958D892B09F47C
:10133000BACF01E020E030E049EF5AE062E082E01D
:10134000E0D18111B0CFC0C0888582608860888775
:1013500041E0BE01685F7F4F80E046DF18861F8254
:10136000F70180A1882311F081E08F8341E0BE0165
:10137000695F7F4F81E038DF81E08E8341E0BE010D
:101380006A5F7F4F82E030DFF701828991899F7029
:101390008295807F892B8D8341E0BE016B5F7F4FFB
:1013A00084E022DF41E0B7016D5E7F4F85E01CDF06
:1013B0008EE08C8341E0BE016C5F7F4F86E014DFDE
:1013C000F701718162815381448135812681978142
:1013D000808570939A0B60939B0B50939C0B40936A
:1013E0009D0B30939E0B20939F0B9093A00B8093AB
:1013F000A10B7093A20B6093A30B5093A40B40938B
:10140000A50B3093A60B2093A70B9093A80B80936A
:10141000A90B80A1882391F0808145E0811105C04E
:10142000B7016F5F7F4F8AE014C08701075F1F4FCE
:10143000B8018AE0D9DE45E0B8010AC045E0B7014D
:101440006F5F7F4F8AE0D0DE45E0B701675F7F4F77
:1014500080E1CADEF70180A181110AC08A81807C07
:1014600080628A8341E0BE016E5F7F4F81E1BCDE16
:10147000F70180A1882341F081E08B8341E0BE0128
:101480006D5F7F4F8CE1B0DE82E08983F70180A140
:10149000882311F086E0898341E0BE016F5F7F4FB2
:1014A0008DE1A2DE80E039DD81E037DDF70180816A
:1014B000811107C0479A83E091E00197F1F700C0DE
:1014C000000081E08093630B8091630B28960FB638
:1014D000F894DEBF0FBECDBFDF91CF911F910F916A
:1014E000FF90EF900895CF93DF931F92CDB7DEB7B3
:1014F00041E0BE016F5F7F4F87E069DE898186FF33
:1015000014C080E4898341E0BE016F5F7F4F87E0B4
:101510006BDE83EC99E09F938F9384E08F93F9DAED
:101520000F900F900F9081E001C080E00F90DF914D
:10153000CF9108951F93CF93DF9300D0CDB7DEB73F
:101540002091630B21110CC083ED99E09F938F9341
:1015500081E08F93DEDA0F900F900F9010E042C081
:1015600020EA2A83FB014081BC01CE010296EFDC18
:10157000182F479A2091590B30915A0B232B89F53C
:1015800041E0BE016F5F7F4F87E021DE898185FFEB
:1015900013C080E2898341E0BE016F5F7F4F87E027
:1015A00023DE23E03AE03F932F9384E08F93B1DA78
:1015B0000F900F900F9015C084FFE2CF80E18983D8
:1015C00041E0BE016F5F7F4F87E00EDE88E29AE068
:1015D0009F938F9381E08F939CDA0F900F900F90E1
:1015E00010E04798812F0F900F90DF91CF911F91BE
:1015F0000895CF93DF9300D0CDB7DEB741E0BE01B1
:101600006E5F7F4F87E0E3DD8A811F928F9384E5D1
:101610009AE09F938F9384E08F937BDA19828A817B
:101620000F900F900F900F900F9084FF0EC0E091DD
:10163000610BF091620B309741F080915F0B9091BC
:10164000600B09958981806189838A8186FF0EC03C
:10165000E0915D0BF0915E0B309741F080915B0B58
:1016600090915C0B09958981806489838A8185FFCB
:101670000EC0E091590BF0915A0B309741F08091D8
:10168000570B9091580B099589818062898341E0BD
:10169000BE016F5F7F4F87E0A7DD0F900F90DF9156
:1016A000CF910895CF93DF9300D000D01F92CDB794
:1016B000DEB781E089831A821B821C821D82CE01E3
:1016C000019618D20F900F900F900F900F90DF910E
:1016D000CF910895F894109269001DBA87E08CBBF1
:1016E000109268008FE08BBB10926B0010926C0020
:1016F00010926D0010927300789481E08093700BCB
:1017000008958F929F92AF92BF92CF92DF92EF9205
:10171000FF920F93CF93DF9300D0CDB7DEB76A016E
:1017200059019091700B911103C08EE69AE015C09B
:101730004115510519F483E99AE00FC0882E912CC8
:10174000880C991C94012659344F7901F9012081A4
:101750003181232B61F08EEA9AE09F938F9381E091
:101760008F93D7D90F900F900F9080E045C01F92B4
:101770008F934DEC5AE05F934F9394E09F936A836D
:101780008983C7D9F701D182C082F401EC59F44FA3
:10179000B182A082909169006A81082C01C0660F15
:1017A0000A94EAF7962B909369009DB321E030E00C
:1017B0008981082E01C0220F0A94EAF7922B9DBB63
:1017C0009CB3922B9CBB0F900F900F900F900F909B
:1017D000813049F018F0823059F00DC05298002342
:1017E00051F05A9A08C05398002329F05B9A03C01D
:1017F000529801112A9A81E00F900F90DF91CF91BA
:101800000F91FF90EF90DF90CF90BF90AF909F909F
:101810008F9008951F920F920FB60F9211240BB65E
:101820000F922F933F934F935F936F937F938F9379
:101830009F93AF93BF93EF93FF93F894E0916A0B5C
:10184000F0916B0B309729F08091640B9091650BB0
:1018500009957894FF91EF91BF91AF919F918F91EE
:101860007F916F915F914F913F912F910F900BBEA0
:101870000F900FBE0F901F9018951F920F920FB6EA
:101880000F9211240BB60F922F933F934F935F93B8
:101890006F937F938F939F93AF93BF93EF93FF9338
:1018A000F894E0916C0BF0916D0B309729F08091DA
:1018B000660B9091670B09957894FF91EF91BF911A
:1018C000AF919F918F917F916F915F914F913F91D8
:1018D0002F910F900BBE0F900FBE0F901F90189579
:1018E0001F920F920FB60F9211240BB60F922F93E7
:1018F0003F934F935F936F937F938F939F93AF9398
:10190000BF93EF93FF93F894E0916E0BF0916F0B00
:10191000309729F08091680B9091690B0995789424
:10192000FF91EF91BF91AF919F918F917F916F91B7
:101930005F914F913F912F910F900BBE0F900FBE73
:101940000F901F9018951F920F920FB60F921124AF
:101950008F9381E08093BA0B8F910F900FBE0F9001
:101960001F9018951F920F920FB60F9211240BB66D
:101970000F922F933F934F935F936F937F938F9328
:101980009F93AF93BF93EF93FF93E091AA0BF091D6
:10199000AB0B309731F06091B60B7091B70B80E0D4
:1019A0000995FF91EF91BF91AF919F918F917F9199
:1019B0006F915F914F913F912F910F900BBE0F90C0
:1019C0000FBE0F901F9018951F920F920FB60F9297
:1019D00011240BB60F922F933F934F935F936F9306
:1019E0007F938F939F93AF93BF93EF93FF93E09178
:1019F000B00BF091B10B309731F06091AE0B70915C
:101A0000AF0B81E00995FF91EF91BF91AF919F914D
:101A10008F917F916F915F914F913F912F910F9097
:101A20000BBE0F900FBE0F901F9018951F920F9234
:101A30000FB60F9211240BB60F922F933F934F9333
:101A40005F936F937F938F939F93AF93BF93EF9326
:101A5000FF93E091AC0BF091AD0B309731F06091BA
:101A6000B40B7091B50B80E00995FF91EF91BF9198
:101A7000AF919F918F917F916F915F914F913F9126
:101A80002F910F900BBE0F900FBE0F901F901895C7
:101A90001F920F920FB60F9211240BB60F922F9335
:101AA0003F934F935F936F937F938F939F93AF93E6
:101AB000BF93EF93FF93E091B20BF091B30B30978C
:101AC00031F06091B80B7091B90B81E00995FF91ED
:101AD000EF91BF91AF919F918F917F916F915F91A6
:101AE0004F913F912F910F900BBE0F900FBE0F9013
:101AF0001F901895FC011CBC84B18F7084B984813F
:101B000083708CBD848182FF02C081E08DBD8281A3
:101B1000882319F08CB584608CBD8181882319F0ED
:101B20008CB588608CBD8381882319F08CB5806268
:101B30008CBD8081882359F084B1806B84B98CB5C9
:101B400080618CBD2C9A81E08093710B01C0269A34
:101B50001EBC8CB580648CBD81E08093720B0895AF
:101B60002C9808952C9A0895CF92DF92EF92FF92CD
:101B7000FB016091720B611103C080EE9AE006C018
:101B80006091710B61110DC084E09BE09F938F9376
:101B900081E08F930E9489050F900F900F9080E055
:101BA00023C0211531054105510549F0009739F051
:101BB000309729F0DC01C12CD12C760103C08BE2D7
:101BC0009BE0E4CF8D918EBD0DB407FEFDCF8EB5A9
:101BD00081938FEFC81AD80AE80AF80AC216D3060A
:101BE000E406F50679F781E0FF90EF90DF90CF9063
:101BF000089597FB072E16F4009406D077FD08D0C1
:101C00000BD007FC05D03EF4909581959F4F089529
:101C1000709561957F4F0895AA1BBB1B51E107C0CA
:101C2000AA1FBB1FA617B70710F0A61BB70B881F6C
:101C3000991F5A95A9F780959095BC01CD010895FB
:101C4000FB01DC0101900D920020E1F70895F8946A
:021C5000FFCFC4
:101C5200436F6E6E656374546F436F707465722068
:101C62002D20496E76616C69642044617461204C58
:101C7200656E6774680D0A00436F6E6E6563745417
:101C82006F436F70746572202D20526563656976AB
:101C9200652044617461204661696C65640D0A00C7
:101CA200436F6E6E656374546F436F707465722018
:101CB2002D20496E76616C69642041636B6E6F778B
:101CC2006C6564676D656E740D0A00436F6E6E65B8
:101CD2006374546F436F70746572202D2041636B7F
:101CE2002056616C7565203D2025640D0A00436F06
:101CF2006E6E656374546F436F70746572202D202D
:101D02005472616E736D697420446174610D0A00CE
:101D1200436F6E6E656374546F436F7074657220A7
:101D22002D205472616E736D697420446174612058
:101D32004661696C65640D0A00436F6E6E6563747B
:101D4200546F436F70746572202D2057616974203F
:101D5200466F7220446174610D0A004E004E4500C8
:101D620053450053005357004E5700436F6D706147
:101D720073732048656164696E67203D2025662E75
:101D82000D0A00446972656374696F6E0052656D75
:101D92006F746520436F6E74726F6C6C65720D0A9E
:101DA200002D2D2D2D2D2D2D2D2D2D2D2D2D2D2D8E
:101DB2002D2D0D0A006D61696E202D20545749208A
:101DC200496E697469616C697A6174696F6E2046E3
:101DD20061696C65640D0A006D61696E202D204495
:101DE2006973706C617920496E697469616C697A92
:101DF2006174696F6E204661696C65640D0A0057F3
:101E0200656C636F6D65212100496E697469616C4F
:101E1200697A696E672E2E2E006D61696E202D2003
:101E2200496E70757420436F6E74726F6C6C65725C
:101E320020496E697469616C697A6174696F6E2098
:101E42004661696C65640D0A004F70657261746960
:101E52006F6E204661696C656400496E69746961E0
:101E62006C697A6174696F6E20436F6D706C657412
:101E720065640D0A00466C793A2053657420544813
:101E8200204C6F77005072673A2053657420544893
:101E9200204869676800507265737320456E7465E7
:101EA2007220546F00436F6E6E65637400466C61FE
:101EB20067203D2025640D0A00436F6E6E656374D2
:101EC200696E672E2E2E006D61696E202D2046618F
:101ED200696C656420746F20436F6E6E6563740D68
:101EE2000A00436F6E6E656374656400496E6974BF
:101EF200545749202D20496E76616C6964205061E7
:101F020072616D65746572730D0A005472616E734D
:101F12006D6974202D2044617461205472616E7366
:101F22006D697373696F6E204661696C6564202DFB
:101F320020537461747573203D20307825780D0A22
:101F4200005477694D61737465725472616E736D7A
:101F52006974202D20537461727420436F6E64691A
:101F620074696F6E205472616E736D697373696FF9
:101F72006E204661696C6564202D2053746174750E
:101F820073203D20307825780D0A005477694D6121
:101F9200737465725472616E736D6974202D20536F
:101FA2006C617665204164647265737320616E644E
:101FB20020577269746520466C6167205472616EA5
:101FC200736D697373696F6E204661696C65642015
:101FD2002D20537461747573203D20307825780D5F
:101FE2000A005477695472616E736D6974202D20F2
:101FF200496E76616C696420506172616D657465C9
:1020020072730D0A005477695472616E736D69744C
:10201200202D20536C6176652052656164204E6FDD
:102022007420526571756573746564206279204D00
:102032006173746572202D20307825780D0A005264
:10204200656365697665202D20446174612052655F
:1020520063657074696F6E204661696C6564202DDA
:1020620020537461747573203D20307825780D0AF1
:10207200005477694D617374657252656365697660
:1020820065202D20537461727420436F6E646974ED
:10209200696F6E205472616E736D697373696F6ECE
:1020A200204661696C6564202D20537461747573D8
:1020B200203D20307825780D0A005477694D6173F0
:1020C20074657252656365697665202D20536C6173
:1020D2007665204164647265737320616E64205278
:1020E20065616420466C6167205472616E736D692C
:1020F2007373696F6E204661696C6564202D20538D
:102102007461747573203D20307825780D0A00546F
:10211200776952656365697665202D20496E76611F
:102122006C696420506172616D65746572730D0A29
:102132000054776952656365697665202D20536C7A
:10214200617665205772697465204E6F74205265FE
:1021520071756573746564206279204D617374656D
:1021620072202D2053746174757320307825780D98
:102172000A00414443204368616E6E656C204E6FD5
:102182007420456E61626C65640D0A005472616E62
:10219200736D6974202D20547769205472616E73B7
:1021A2006D6974204661696C65640D0A004C434494
:1021B200536574437572736F72506F736974696F8C
:1021C2006E202D204C4344204E6F7420496E69745A
:1021D20069616C697A65640D0A004C434450726906
:1021E2006E74202D204C4344204E6F7420496E693A
:1021F2007469616C697A65640D0A00457863656586
:10220200646564204D6178204368617273202D20DB
:1022120025642C2025640D0A005472616E736D6969
:1022220074202D205472616E736665722046616956
:102232006C65640D0A005472616E736D697441635A
:102242006B5061796C6F6164202D205472616E73E2
:10225200636569766572204E6F7420496E69746990
:10226200616C697A65640D0A005472616E736D69FE
:102272007441636B5061796C6F6164202D204175EC
:10228200746F2041636B6E6F776C6564676D656E0A
:1022920074204E6F7420456E61626C65640D0A0095
:1022A20052656365697665202D205472616E73668E
:1022B2006572204661696C65640D0A004765745257
:1022C200656365697665645061796C6F61644C65BC
:1022D2006E677468202D205472616E73636569762F
:1022E2006572204E6F7420496E697469616C697AF7
:1022F20065640D0A004765745265636569766564B5
:102302005061796C6F61644C656E677468202D2032
:1023120052656164205278205061796C6F6164204B
:102322004C656E67746820526567697374657220C4
:102332004661696C65640D0A00526563656976657C
:102342005061796C6F6164202D205472616E7363E9
:102352006569766572204E6F7420496E6974696191
:102362006C697A65640D0A00526563656976655029
:1023720061796C6F6164202D205278205061796CF4
:102382006F6164204C656E677468204E6F74204DD7
:1023920061746368696E6720427566666572204C77
:1023A200656E6774680D0A004765744C6F737450EC
:1023B20061636B6574436F756E74202D2054726176
:1023C2006E73636569766572204E6F7420496E691B
:1023D2007469616C697A65640D0A004765744C6FB3
:1023E20073745061636B6574436F756E74202D2036
:1023F20052656164204F627365727665547820522B
:1024020065676973746572204661696C65640D0A5B
:102412000047657452657472616E736D69745061C0
:10242200636B6574436F756E74202D205472616EF8
:1024320073636569766572204E6F7420496E6974A4
:1024420069616C697A65640D0A0047657452657446
:1024520072616E736D69745061636B6574436F75FD
:102462006E74202D2052656164204F62736572760E
:102472006554782052656769737465722046616994
:102482006C65640D0A00526567204F666673657459
:10249200203D20307825782056616C7565203D20DE
:1024A200307825780D0A00496E69745472616E7332
:1024B200636569766572202D20496E636F7272655D
:1024C200637420496E697469616C697A6174696FB9
:1024D2006E20506172616D65746572730D0A0049F8
:1024E2006E69745472616E73636569766572202DCC
:1024F200205472616E7363656976657220416C72F5
:102502006561647920496E697469616C697A656490
:102512000D0A0044617461205265636569766564E1
:102522000D0A005472616E736D69745061796C6F3B
:102532006164202D205472616E73636569766572E1
:10254200204E6F7420496E697469616C697A6564A2
:102552000D0A005472616E736D69745061796C6F0B
:102562006164202D2044617461205472616E736D28
:1025720069747465640D0A005472616E736D6974D6
:102582005061796C6F6164202D204D617820526515
:102592002D7472616E736D69742052656163686532
:1025A200640D0A00495352202D20537461747573CF
:1025B20020526567203D20307825780D0A00457845
:1025C2007465726E616C20496E7465727275707496
:1025D200204E6F7420496E697469616C697A656412
:1025E2000D0A00496E76616C69642043616C6C620D
:1025F20061636B20436F6E746578740D0A00496ED7
:102602007465727275707420416C726561647920B0
:10261200526567697374657265640D0A0045787462
:1026220020496E74204E756D203D2025640D0A00F0
:102632005350495472616E73666572202D20535057
:1026420049204E6F7420496E697469616C697A65BC
:10265200640D0A005350495472616E7366657220AC
:102662002D20535049204E6F7420496E204D6173C6
:10267200746572204D6F64650D0A0053504954729F
:10268200616E73666572202D205350492042756633
:0C269200666572204572726F720D0A00BE
:00000001FF
