S0190000416363656C65726F6D65746572546573742E7372656330
S11300005CC0000078C0000076C0000074C000002E
S113001072C0000070C00000D3C100006CC00000BA
S11300206AC0000068C0000066C0000064C0000030
S113003062C0000060C000005EC000005CC0000040
S11300400C94C60958C0000056C0000054C00000FB
S11300500C94D50950C000000C94390A4CC000001F
S11300604AC0000048C0000046C0000044C0000070
S11300700C94070A40C000000C946B0A3CC00000BA
S11300803AC0000038C0000036C00000084AD73B20
S11300903BCE016E84BCBFFDC12F3D6C74319ABD53
S11300A056833DDA3D00C77F11BED9E4BB4C3E9177
S11300B06BAAAABE000000803F0011241FBECFEF30
S11300C0D0E4DEBFCDBF1AE0A0E0B1E0EAEEFCE18F
S11300D000E00BBF02C007900D92A83DB107D9F70D
S11300E02AE0A8EDBAE001C01D92A33FB207E1F7F0
S11300F003D00C94730E84CF4F925F926F927F92D1
S11301008F929F92AF92BF92CF92DF92EF92FF9223
S11301100F931F93CF93DF93CDB7DEB7A1970FB69D
S1130120F894DEBF0FBECDBF2FEF3CE281E391E038
S11301302150304080409040D9F700C0000045E095
S113014060E072E18AE790E07BD640E050E060E056
S113015070E081E07DD6882309F419C181E0C3D31E
S1130160882309F414C181E047D4882309F40FC11A
S113017084E58F8FCE014F9648D5882309F407C1B3
S113018080E78E8F2FE048E068E0CE014E96F9D5E7
S1130190882309F4FCC08FEF898F8CEF8A8F86E067
S11301A08B8F2AE0AE01475E5F4F61E081E05BD553
S11301B0882309F4ECC080E889A388A3BE01605EAB
S11301C07F4FCE018196E2D4882309F4E0C01092D7
S11301D0DB0A3D98459A80916D00806280936D00A2
S11301E0809168008460809368007894E6D18823C5
S11301F009F4CDC064E082E04BD4882309F4C7C07D
S113020087E091E09F938F9384E08F931AD60F90A9
S11302100F900F904AE6642E41E0742E0CE711E033
S11302205EE8E52E51E0F52E61EAC62E61E0D62E99
S1130230CE014D9638D18823D9F38D8D1F928F939B
S113024086E291E09F938F9384E08F93FAD50F9089
S11302500F900F900F900F908091DB0A811103C0D3
S11302608D8D87FFE5CF1092DB0ACE014C9649D1E4
S11302708823F1F28C8D8F731F928F9380E491E029
S11302809F938F9384E0B82EBF92DBD58C8D87FB30
S1130290882780F91F928F9384E591E09F938F9331
S11302A0BF92CFD50FB6F894DEBF0FBECDBF412CA1
S11302B094E0592E2BEBA22E21E0B22E35ED832EA5
S11302C031E0932E242D30E08C8D8F7390E028172D
S11302D039070CF0ADCFBE016F5F7F4F81E0ABD12A
S11302E0882309F452C08C818F938B818F938A81E8
S11302F08F9389818F937F926F925F92A2D5888525
S11303008F938F818F938E818F938D818F931F9382
S11303100F935F9296D58C858F938B858F938A8567
S11303208F9389858F93FF92EF925F928AD5888904
S11303308F938F858F938E858F938D858F93DF9287
S1130340CF925F927ED58C898F938B898F938A8984
S11303508F9389898F93BF92AF925F9272D50FB6B4
S1130360F894DEBF0FBECDBF888D8F938F898F9396
S11303708E898F938D898F939F928F925F9261D58F
S11303800FB6F894DEBF0FBECDBF43949BCF81E080
S113039090E0A1960FB6F894DEBF0FBECDBFDF91FB
S11303A0CF911F910F91FF90EF90DF90CF90BF906E
S11303B0AF909F908F907F906F905F904F90089533
S11303C01F920F920FB60F9211240BB60F922F9318
S11303D03F934F935F936F937F938F939F93AF93C9
S11303E0BF93EF93FF9382EF91E09F938F9384E009
S11303F08F9327D581E08093DB0A0F900F900F90A5
S1130400FF91EF91BF91AF919F918F917F916F91E8
S11304105F914F913F912F910F900BBE0F900FBEA4
S11304200F901F901895AF92BF92CF92DF92EF92E8
S1130430FF920F93CF93DF9300D0CDB7DEB78983BC
S11304405B0169017A0100E02CED3AE041E050E003
S113045060E070E0CE01019632D6811103C024E041
S113046032E00BC001E02CED3AE0B701A601C50172
S11304704DD781110CC02CE232E03F932F9391E0D1
S11304809F938A83DED40F900F900F908A810F90F0
S11304900F90DF91CF910F91FF90EF90DF90CF906D
S11304A0BF90AF900895CF93DF931F92CDB7DEB77F
S11304B02091D80A21110CC082E592E09F938F937A
S11304C081E08F93BED40F900F900F9080E015C001
S11304D021E030E040E050E0BC0180E3A4DF811182
S11304E00CC02FED32E03F932F9391E09F938983CB
S11304F0A8D40F900F900F9089810F90DF91CF9126
S11305000895CF93DF931F92CDB7DEB72091D80A19
S113051021110CC082E592E09F938F9381E08F9329
S113052090D40F900F900F9080E015C021E030E040
S113053040E050E0BC0189E376DF81110CC026E085
S113054033E03F932F9391E09F9389837AD40F9064
S11305500F900F9089810F90DF91CF910895CF93E1
S1130560DF931F92CDB7DEB72091D80A21110CC0BA
S113057082E592E09F938F9381E08F9362D40F90F2
S11305800F900F9080E015C026E030E040E050E08E
S1130590BC0182E348DF81110CC029E533E03F93BD
S11305A02F9391E09F9389834CD40F900F900F90D9
S11305B089810F90DF91CF910895EF92FF920F936D
S11305C01F93CF93DF93CDB7DEB727970FB6F89479
S11305D0DEBF0FBECDBFCE01079693DF8823E9F0BF
S11305E0F12C0AE713E0EE24E3942F2D30E08F8101
S11305F08F7390E02817390774F4CE010196AFDFAA
S1130600811107C01F930F93EF921BD40F900F908B
S11306100F90F394EACF81E001C080E027960FB6F3
S1130620F894DEBF0FBECDBFDF91CF911F910F9124
S1130630FF90EF9008952F923F924F925F926F92A6
S11306407F928F929F92AF92BF92CF92DF92EF925E
S1130650FF920F931F93CF93DF93CDB7DEB76297CB
S11306600FB6F894DEBF0FBECDBF082F1B018091DB
S1130670D80A81110CC082E592E09F938F9381E0A8
S11306808F93DFD30F900F900F9010E0DEC026E021
S113069030E040E050E0BE016F5F7F4F82E3C3DE95
S11306A0182F81110BC089E593E09F938F9381E00C
S11306B08F93C7D30F900F900F90C7C069817A8131
S11306C0882777FD8095982F0E94CC0B20E030E09E
S11306D040E85BE30E94840C4B015C01F101608300
S11306E07183828393836B817C81882777FD8095D6
S11306F0982F0E94CC0B20E030E040E85BE30E949E
S1130700840C6B017C01F101648375838683978378
S11307106D817E81882777FD8095982F0E94CC0B70
S113072020E030E040E85BE30E94840C2B013C01B4
S1130730F1016087718782879387A5019401C501C0
S1130740B4010E94840C6F83788789879A87A701F4
S11307509601C701B6010E94840C6B877C878D8744
S11307609E87A3019201C301B2010E94840C6F878A
S1130770788B898B9A8B9B01AC016B857C858D85ED
S11307809E85DCD60E94EB0C9B01AC01C501B40133
S113079048D74B015C01F101648775878687978789
S11307A02F85388949895A896F81788589859A8501
S11307B0C5D60E94EB0C9B01AC01C701B60131D731
S11307C06B017C01F101608B718B828B938B2B8588
S11307D03C854D855E856F81788589859A85AED601
S11307E00E94EB0CA30192011CD72B013C01F101E7
S11307F0648B758B868B978B013039F520EE3EE246
S113080045E652E4C501B4010E94840CF1016487F9
S113081075878687978720EE3EE245E652E4C70156
S1130820B6010E94840CF101608B718B828B938BD7
S113083020EE3EE245E652E4C301B2010E94840C7C
S1130840F101648B758B868B978B812F62960FB623
S1130850F894DEBF0FBECDBFDF91CF911F910F91F2
S1130860FF90EF90DF90CF90BF90AF909F908F90CC
S11308707F906F905F904F903F902F900895CF930B
S1130880DF9300D0CDB7DEB721E030E040E050E0A8
S1130890BE016F5F7F4F80E0C6DD81110DC021EB8B
S11308A033E03F932F9391E09F938A83CAD20F90B2
S11308B00F900F908A8112C09981953E79F01F9212
S11308C09F938CED93E09F938F9381E08F93B9D2A4
S11308D00F900F900F900F900F9080E00F900F905B
S11308E0DF91CF910895882311F093E501C09DE134
S11308F0292F220F8091DC0A8170822B8093DC0ADD
S11309001F929F938CE094E09F938F9384E08F9346
S113091098D2B5DF0F900F900F900F900F9088230F
S113092019F091E09093D80A0895AF92BF92CF92B4
S1130930DF92EF92FF920F931F93CF93DF93182FC1
S1130940EB0169017A01C90101960E94430D5C0122
S1130950009709F444C0FC011193A601BE01CF0124
S11309600E946A0E01E02CED3AE0B701A6014F5F48
S11309705F4F6F4F7F4FC501A2D3082F81110AC06B
S113098024E234E03F932F9381E08F935AD20F9067
S11309900F900F90C5010E94DB0D88811F928F93E9
S11309A02AE434E03F932F9384E0B82EBF9249D2D7
S11309B0A7019601BE01812F36DD88811F928F9396
S11309C02EE534E03F932F93BF923BD28DB79EB771
S11309D00A960FB6F8949EBF0FBE8DBF01C000E00B
S11309E0802FDF91CF911F910F91FF90EF90DF90B7
S11309F0CF90BF90AF9008951F93CF93DF9300D013
S1130A00CDB7DEB7182F8091D80A81110CC082E5CA
S1130A1092E09F938F9381E08F9313D20F900F9066
S1130A200F9080E02FC021E030E040E050E0BE01B4
S1130A306F5F7F4F8DE2F7DC811103C020E734E064
S1130A4014C091E0111190E0898190FB83F98983AE
S1130A5021E030E040E050E0BE016F5F7F4F8DE267
S1130A6064DF81110DC026E934E03F932F9391E0B8
S1130A709F938A83E6D10F900F900F908A8102C0D2
S1130A80109306010F900F90DF91CF911F9108955D
S1130A900F931F93CF93DF9300D01F92CDB7DEB790
S1130AA0182F062F8091D80A882321F080910601FF
S1130AB0811103C088EC94E006C0123071F46430F4
S1130AC061F087E095E09F938F9381E08F93B9D194
S1130AD00F900F900F9080E051C021E030E040E093
S1130AE050E0BE016E5F7F4F8CE29DDC811103C03C
S1130AF02CE235E039C019821130A9F040F01230EF
S1130B00C1F48A818F7E8A8388E0898312C09A81A6
S1130B1089E0890F8F70863018F080E595E0D3CF97
S1130B20892F806102C08A818F7E8A830370086363
S1130B30098321E030E040E050E0BE016E5F7F4F6A
S1130B408CE2F3DE811103C029E735E00DC021E01A
S1130B5030E040E050E0BE016F5F7F4F8DE2E5DEA4
S1130B6081110CC020EA35E03F932F9391E09F93CD
S1130B708B8367D10F900F900F908B810F900F9004
S1130B800F90DF91CF911F910F9108950F931F93B1
S1130B90CF93DF931F92CDB7DEB78B012091D80A94
S1130BA021110CC082E592E09F938F9381E08F9393
S1130BB048D10F900F900F9080E021C021E030E0E9
S1130BC040E050E0BC018FE2B0DE811103C029ECAB
S1130BD035E00BC021E030E040E050E0B8018EE2A7
S1130BE0A4DE81110CC020EF35E03F932F9391E0F8
S1130BF09F93898326D10F900F900F9089810F9036
S1130C00DF91CF911F910F910895CF93DF931F929E
S1130C10CDB7DEB72091D80A21110CC082E592E04D
S1130C209F938F9381E08F930CD10F900F900F902F
S1130C3080E015C021E030E040E050E0BC0188E3F2
S1130C4074DE81110CC02AE136E03F932F9391E0CA
S1130C509F938983F6D00F900F900F9089810F9006
S1130C60DF91CF910895FF920F931F93CF93DF935A
S1130C7000D01F92CDB7DEB78A01F22E9091D80A28
S1130C8091110CC082E592E09F938F9381E08F9342
S1130C90D8D00F900F900F9080E06AC09A8198602E
S1130CA060FB95F983709876982B9F7B9A8321E05B
S1130CB030E040E050E0BE016E5F7F4F81E335DEFF
S1130CC0811103C022E436E049C021E030E040E075
S1130CD050E0BE016F5F7F4F8CE2A5DB811103C042
S1130CE02CE235E03BC09F2D9F708981807F892B4A
S1130CF0898321E030E040E050E0BE016F5F7F4F28
S1130D008CE213DE811103C02DE636E027C021E01A
S1130D1030E040E050E0B8018EE107DE811103C00D
S1130D2020E936E01BC021E030E040E050E0B801AB
S1130D306F5F7F4F8FE1F9DD811103C02DEB36E04A
S1130D400DC0B8016E5F7F4F21E030E040E050E01D
S1130D5080E2EBDD81110CC02AEE36E03F932F9345
S1130D6091E09F938B836DD00F900F900F908B81A8
S1130D700F900F900F90DF91CF911F910F91FF90E3
S1130D800895CF93DF9300D000D0CDB7DEB7698349
S1130D904A832B832091D80A21110CC082E592E06A
S1130DA09F938F9381E08F934CD00F900F900F906F
S1130DB080E03FC021E030E040E050E0BC0187E249
S1130DC0B4DD811103C027E137E029C021E030E020
S1130DD040E050E0BE016F5F7F4F84E2A6DD8111E9
S1130DE003C024E437E01BC021E030E040E050E0E1
S1130DF0BE016E5F7F4F85E298DD811103C02EE650
S1130E0037E00DC021E030E040E050E0BE016D5F0E
S1130E107F4F86E28ADD81110CC02AE937E03F93D7
S1130E202F9391E09F938C830CD00F900F900F9091
S1130E308C810F900F900F900F90DF91CF910895B8
S1130E400895CF93DF93CDB7DEB7DF91CF910895A7
S1130E50811120C06115710589F04115510571F0AA
S1130E60FB0180818093BA00FA0180818093BD00E8
S1130E7087B18C7F87B91092DD0A12C081E598E0B2
S1130E809F938F9381E08F93DCDF0F900F900F90EF
S1130E9080E0089581E08093DD0A87B1836087B99B
S1130EA080E28093B8001092B90084E48093BC007F
S1130EB0FFEF20E782E0F15020408040E1F700C0DE
S1130EC000001092D90A81E08093DA0A0895809193
S1130ED0BC008F7580628093BC008091BC008068E8
S1130EE08093BC008091BC0087FFFCCF8091BC0044
S1130EF08F758093BC008091D90A9091B900987F36
S1130F00882321F081E0903121F404C081E09830FD
S1130F1009F080E008958091BC008F768061809311
S1130F20BC008091BC0080688093BC008091BC00B0
S1130F3084FFFCCF08950F931F93CF932091DD0A74
S1130F40213011F4C8E201C0C8EBFC0180E090E05C
S1130F50DC018A019B0101501109210931094C2F3F
S1130F6050E080179107A207B307B8F4619160932A
S1130F70BB006091BC0060686093BC006091BC00E1
S1130F8067FFFCCF6091B900687F70E06417750754
S1130F90F1F40196A11DB11DE4CF8091DD0A811108
S1130FA001C0C0EC80818093BB008091BC0080684C
S1130FB08093BC008091BC0087FFFCCF2091B900D6
S1130FC0287F30E08C2F90E02817390799F0809122
S1130FD0B900887F1F928F9380E798E09F938F9347
S1130FE081E08F932EDF0F900F900F900F900F9052
S1130FF080E001C081E0CF911F910F910895CF92BD
S1131000DF92EF92FF920F93CF93DF9300D000D043
S1131010CDB7DEB77C01690149835A836B837C8336
S113102056DF49815A816B817C81811108C080918E
S1131030B900887F1F928F9386EA98E01DC01092B2
S1131040D90AF60180818E7F80838093BB008091D2
S1131050BC0080688093BC008091BC0087FFFCCFFB
S11310608091B900887F883199F08091B900887F98
S11310701F928F9380EF98E09F938F9381E08F93DB
S1131080E0DE0F900F900F900F900F9080E00BC058
S1131090C70151DF002321F089833DDF898103C02B
S11310A091E09093D90A0F900F900F900F90DF91D9
S11310B0CF910F91FF90EF90DF90CF9008950F9311
S11310C0E091DA0AEE2309F448C0009709F445C018
S11310D0E091DD0AE13079F42115310551F487E41A
S11310E099E09F938F93EF93ACDE0F900F900F9046
S11310F034C085DF33C02091BC0020682093BC003D
S11311002091BC0027FFFCCF2091B900287F203A12
S1131110B1F02091B900287F283AD9F08091B90024
S11311201F928F938AE699E09F938F9381E08F9328
S113113088DE0F900F900F900F900F900EC02091AB
S1131140BC0020682093BC002091BC0027FFFCCF8A
S1131150E0CF399AF0DE399801C080E00F9108950C
S1131160CF92DF92EF92FF920F931F93FC01809135
S1131170DD0A813011F480E501C080E800E010E070
S113118098016A017B0191E0C91AD108E108F108CC
S1131190482F50E00C151D052E053F05C0F4909115
S11311A0BC0090689093BC009091BC0097FFFCCF6A
S11311B06091B900687F70E06417750719F5909124
S11311C0BB0091930F5F1F4F2F4F3F4FE3CF909181
S11311D0DD0A913031F48091BC008F738093BC00A0
S11311E088E59091BC0090689093BC009091BC00FD
S11311F097FFFCCF2091B900287F30E090E02817BA
S1131200390799F08091B900887F1F928F9384EAFF
S113121099E09F938F9381E08F9313DE0F900F904B
S11312200F900F900F9080E004C08091BB008083EA
S113123081E09091BC009F7390649093BC001F91D7
S11312400F91FF90EF90DF90CF900895CF92DF92AF
S1131250EF92FF920F93CF93DF9300D000D0CDB7DE
S1131260DEB77C01690149835A836B837C832FDE5B
S113127049815A816B817C81811108C08091B900B8
S1131280887F1F928F9386ED99E01DC01092D90A32
S1131290F6018081816080838093BB008091BC00D3
S11312A080688093BC008091BC0087FFFCCF809154
S11312B0B900887F803499F08091B900887F1F92AB
S11312C08F938FE19AE09F938F9381E08F93B9DDA1
S11312D00F900F900F900F900F9080E00BC0C701FC
S11312E03FDF002321F0898316DE898103C091E06A
S11312F09093D90A0F900F900F900F90DF91CF9198
S11313000F91FF90EF90DF90CF9008950F93E091AD
S1131310DA0AEE23C1F10097B1F1E091DD0AE13080
S113132089F42115310551F484E79AE09F938F9352
S1131330EF9387DD0F900F900F9025C0399886DFCB
S1131340399A22C02091BC0020682093BC002091CF
S1131350BC0027FFFCCF2091B900287F203689F0FC
S11313608091B9001F928F9386E99AE09F938F939F
S113137081E08F9366DD0F900F900F900F900F9088
S113138002C00F91EDCE80E00F9108951F920F924D
S11313900FB60F9211248F9381E08093EE0A8F9100
S11313A00F900FBE0F901F9018951F920F920FB6BB
S11313B00F9211240BB60F922F933F934F935F9389
S11313C06F937F938F939F93AF93BF93EF93FF9309
S11313D0E091DE0AF091DF0A309731F06091EA0A79
S11313E07091EB0A80E00995FF91EF91BF91AF9165
S11313F09F918F917F916F915F914F913F912F9129
S11314000F900BBE0F900FBE0F901F9018951F9258
S11314100F920FB60F9211240BB60F922F933F9396
S11314204F935F936F937F938F939F93AF93BF93E8
S1131430EF93FF93E091E40AF091E50A309731F0DD
S11314406091E20A7091E30A81E00995FF91EF91BE
S1131450BF91AF919F918F917F916F915F914F91C8
S11314603F912F910F900BBE0F900FBE0F901F90C6
S113147018951F920F920FB60F9211240BB60F926C
S11314802F933F934F935F936F937F938F939F9388
S1131490AF93BF93EF93FF93E091E00AF091E10AD9
S11314A0309731F06091E80A7091E90A80E009957B
S11314B0FF91EF91BF91AF919F918F917F916F9128
S11314C05F914F913F912F910F900BBE0F900FBEE4
S11314D00F901F9018951F920F920FB60F92112420
S11314E00BB60F922F933F934F935F936F937F931A
S11314F08F939F93AF93BF93EF93FF93E091E60A8B
S1131500F091E70A309731F06091EC0A7091ED0A9E
S113151081E00995FF91EF91BF91AF919F918F91D8
S11315207F916F915F914F913F912F910F900BBEDF
S11315300F900FBE0F901F9018955058BB27AA27E5
S11315400ED0A1C192D130F097D120F031F49F3F59
S113155011F41EF462C10EF4E095E7FB58C1E92FC3
S1131560A3D180F3BA17620773078407950718F0AD
S113157071F49EF5BBC10EF4E0950B2EBA2FA02D8D
S11315800B01B90190010C01CA01A0011124FF272C
S1131590591B99F0593F50F4503E68F11A16F04027
S11315A0A22F232F342F4427585FF3CF4695379526
S11315B02795A795F0405395C9F77EF41F16BA0BEB
S11315C0620B730B840BBAF09150A1F0FF0FBB1F99
S11315D0661F771F881FC2F70EC0BA0F621F731FE2
S11315E0841F48F4879577956795B795F7959E3F3F
S11315F008F0B3CF9395880F08F09927EE0F9795CD
S11316008795089532D158F080E891E009F49EEF6F
S113161033D128F040E851E059F45EEF09C0FDC031
S113162065C1E92FE07840D168F3092E052AC1F39A
S1131630261737074807590738F00E2E07F8E02514
S113164069F0E025E0640AC0EF6307F8009407FA44
S1131650DB01B9019D01DC01CA01AD01EF9341D069
S113166012D10AD05F91552331F02BED3FE049E4CC
S113167050FD49EC63CF0895DF93DD27B92FBF7781
S113168040E85FE31616170648075B0710F4D92FE6
S113169034D19F938F937F936F93DBD1ECE8F0E089
S11316A0BFD0F1D02F913F914F915F9139D1DD237C
S11316B049F09058A2EA2AED3FE049EC5FE3D07884
S11316C05D274DDFDF91DFC0D7D040F0CED030F0C2
S11316D021F45F3F19F09BC0511109C19EC0E4D0B1
S11316E098F39923C9F35523B1F3951B550BBB27E5
S11316F0AA2762177307840738F09F5F5F4F220F92
S1131700331F441FAA1FA9F333D00E2E3AF0E0E88A
S113171030D091505040E695001CCAF729D0FE2FD6
S113172027D0660F771F881FBB1F26173707480768
S1131730AB07B0E809F0BB0B802DBF01FF2793581E
S11317405F4F2AF09E3F510568F061C0D0C05F3FF3
S1131750ECF3983EDCF3869577956795B795F79506
S11317609F5FC9F7880F911D9695879597F90895FE
S1131770E1E0660F771F881FBB1F6217730784079A
S1131780BA0720F0621B730B840BBA0BEE1F88F7A9
S1131790E0950895E89409C097FB3EF490958095F0
S11317A0709561957F4F8F4F9F4F9923A9F0F92F23
S11317B096E9BB279395F695879577956795B795A1
S11317C0F111F8CFFAF4BB0F11F460FF1BC06F5F87
S11317D07F4F8F4F9F4F16C0882311F096E911C099
S11317E0772321F09EE8872F762F05C0662371F0BA
S11317F096E8862F70E060E02AF09A95660F771FCE
S1131800881FDAF7880F9695879597F9089597F9C1
S11318109F6780E870E060E008959FEF80EC089592
S1131820DF93CF931F930F93FF92EF92DF927B018D
S11318308C01689405C0DA2EEF0172D0FE01E894A1
S1131840A5912591359145915591AEF3EF0187DE30
S1131850FE019701A801DA9479F7DF90EF90FF90E9
S11318600F911F91CF91DF91089500240A941616C9
S1131870170618060906089500240A94121613067A
S1131880140605060895092E0394000C11F4882308
S113189052F0BB0F40F4BF2B11F460FF04C06F5F24
S11318A07F4F8F4F9F4F089557FD9058440F551FFA
S11318B059F05F3F71F04795880F97FB991F61F0CE
S11318C09F3F79F087950895121613061406551F45
S11318D0F2CF4695F1DF08C0161617061806991FB1
S11318E0F1CF86957105610508940895E894BB27A6
S11318F066277727CB0197F908959B01AC0160E037
S113190070E080E89FE3A8C00BD0BDCFAEDF28F025
S1131910B3DF18F0952309F07ACF7FCF1124E7CFF6
S1131920C3DFA0F3959FD1F3950F50E0551F629F3D
S1131930F001729FBB27F00DB11D639FAA27F00D24
S1131940B11DAA1F649F6627B00DA11D661F829F4B
S11319502227B00DA11D621F739FB00DA11D621F30
S1131960839FA00D611D221F749F3327A00D611D4D
S1131970231F849F600D211D822F762F6A2F11242F
S11319809F5750408AF0E1F088234AF0EE0FFF1F82
S1131990BB1F661F771F881F91505040A9F79E3FB9
S11319A0510570F034CFA3CF5F3FECF3983EDCF3E6
S11319B0869577956795B795F795E7959F5FC1F7F6
S11319C0FE2B880F911D9695879597F9089511F42C
S11319D00EF423CF43C070DFD0F39923D9F3CEF3B1
S11319E09F57550B87FF48D00024A0E640EA90019A
S11319F080585695979528F4805C660F771F881F4A
S1131A0020F026173707480730F4621B730B840B4A
S1131A10202931294A2BA69517940794202531258E
S1131A204A2758F7660F771F881F20F026173707B5
S1131A30480730F4620B730B840B200D311D411DDC
S1131A40A09581F7B901842F9158880F96958795B1
S1131A5008959B01AC0158CF42DE15CF9F3F31F072
S1131A60915020F4879577956795B795880F911DC8
S1131A709695879597F9089591505040660F771F72
S1131A80881FD2F70895CF93DF938230910510F425
S1131A9082E090E0E091F10AF091F20A20E030E077
S1131AA0A0E0B0E0309739F14081518148175907DF
S1131AB0B8F04817590771F482819381109729F07F
S1131AC013969C938E9312972CC09093F20A809352
S1131AD0F10A27C02115310531F04217530718F0D8
S1131AE0A901DB0101C0EF019A01BD01DF01028000
S1131AF0F381E02DD7CF21153105F9F0281B390BDF
S1131B002430310580F48A819B816115710521F0AF
S1131B10FB019383828304C09093F20A8093F10AB9
S1131B20FE01329644C0FE01E20FF31F81939193AC
S1131B3022503109398328833AC02091EF0A309129
S1131B40F00A232B41F420910201309103013093D8
S1131B50F00A2093EF0A2091000130910101211530
S1131B60310541F42DB73EB7409104015091050170
S1131B70241B350BE091EF0AF091F00AE217F3070A
S1131B80A0F42E1B3F0B2817390778F0AC014E5FE9
S1131B905F4F2417350748F04E0F5F1F5093F00A2C
S1131BA04093EF0A8193919302C0E0E0F0E0CF010B
S1131BB0DF91CF910895CF93DF93009709F487C005
S1131BC0FC01329713821282C091F10AD091F20A79
S1131BD0209781F420813181280F391F8091EF0AE9
S1131BE09091F00A8217930779F5F093F00AE09345
S1131BF0EF0A6DC0DE0120E030E0AE17BF0750F4FD
S1131C0012964D915C9113979D014115510509F16F
S1131C10DA01F3CFB383A28340815181840F951FEE
S1131C208A179B0771F48D919C911197840F951FCE
S1131C3002969183808312968D919C91139793833E
S1131C4082832115310529F4F093F20AE093F10A15
S1131C503EC0D9011396FC93EE9312974D915D917A
S1131C60A40FB51FEA17FB0779F480819181840FD3
S1131C70951F0296D90111969C938E93828193812C
S1131C8013969C938E931297E0E0F0E08A819B81F7
S1131C90009719F0FE01EC01F9CFCE0102962881DC
S1131CA03981820F931F2091EF0A3091F00A28178F
S1131CB0390769F4309729F41092F20A1092F10A64
S1131CC002C013821282D093F00AC093EF0ADF910C
S1131CD0CF910895FB01DC0102C001900D924150A7
S10D1CE05040D8F70895F894FFCFA0
S1131CEA0000F30A200001416363656C65726F6D3D
S1131CFA6574657220536574757020436F6D706CDA
S1131D0A6574650D0A00496E746572727570742083
S1131D1A536F75726365203D20307825780D0A006B
S1131D2A4669666F20456E7472696573203D202585
S1131D3A640D0A004669666F2054726967676572A2
S1131D4A6564203D2025640D0A0058204178697392
S1131D5A20416363203D20256667090059204178A4
S1131D6A697320416363203D2025666709005A2070
S1131D7A4178697320416363203D202566670D0A13
S1131D8A005820417869732054696C74203D2025D9
S1131D9A662064656772656573090059204178692C
S1131DAA732054696C74203D20256620646567722B
S1131DBA65657309005A20417869732054696C7403
S1131DCA203D20256620646567726565730D0A0DDA
S1131DDA0A00496E74657272757074204669726578
S1131DEA640D0A004661696C656420746F2074721C
S1131DFA616E736D697420526567697374657220C4
S1131E0A416464726573732E200D0A004661696C1D
S1131E1A656420746F2072657472696576652052F0
S1131E2A656769737465722056616C75652E200D39
S1131E3A0A00416363656C65726F6D65746572202F
S1131E4A6E6F7420696E697469616C697A65642E4F
S1131E5A200D0A004661696C656420746F207072F3
S1131E6A6F6772616D20465245452046414C4C20AD
S1131E7A5448524553484F4C4420726567697374F9
S1131E8A65722E200D0A004661696C656420746FC0
S1131E9A2070726F6772616D2046726565204661B3
S1131EAA6C6C205468726573686F6C642054696D35
S1131EBA652072656769737465722E200D0A00467F
S1131ECA61696C656420746F207265616420494E8F
S1131EDA5420534F5552434520726567697374659C
S1131EEA722E200D0A004661696C656420746F20A5
S1131EFA72656164204649464F20535441545553F0
S1131F0A2072656769737465722E200D0A00466132
S1131F1A696C656420746F2072656164204143545E
S1131F2A2054415020537461747573207265676933
S1131F3A737465722E200D0A004661696C6564200B
S1131F4A746F20726561642044617461205265670C
S1131F5A69737465722E200D0A0052656164696E94
S1131F6A672064617461206661696C6564207768BE
S1131F7A696C6520617474656D7074696E67207428
S1131F8A6F20666C757368204649464F2E200D0AE9
S1131F9A004661696C656420746F2072656164200F
S1131FAA416363656C65726F6D657465722044651F
S1131FBA766963652049642E200D0A0041636365CE
S1131FCA6C65726F6D6574657220446576696365C4
S1131FDA20496420646F6573206E6F74206D617488
S1131FEA636820307825782E200D0A0044657669C6
S1131FFA63652041646472657373203D20307825DB
S113200A780D0A004661696C656420746F207472E5
S113201A616E736D697420526567697374657220A1
S113202A56616C75652E200D0A00577269747465C1
S113203A6E2056616C7565203078257809005265E2
S113204A61642056616C756520307825780D0A0024
S113205A4661696C656420746F20726561642050FE
S113206A6F7765722043544C20726567697374658F
S113207A722E200D0A004661696C656420746F2013
S113208A706C61636520416363656C65726F6D652D
S113209A74657220696E207374616E646279206D4E
S11320AA6F64652E200D0A00416363656C65726F67
S11320BA6D65746572206E6F7420696E69746961E6
S11320CA6C697A6564206F72206974206973206E62
S11320DA6F7420696E207374616E646279206D6F07
S11320EA64652E200D0A00496E76616C6964205776
S11320FA616B657570204672657175656E637920CA
S113210A53656C65637465642E0D0A004661696CD7
S113211A656420746F2072656164204257205241BD
S113212A54452072656769737465722E200D0A001E
S113213A496E76616C6964204461746120526174E9
S113214A6520666F72204C6F7720506F7765722016
S113215A4D6F64652E200D0A004661696C65642022
S113216A746F2070726F6772616D204257205241FA
S113217A54452052656769737465722E200D0A00EE
S113218A4661696C656420746F2070726F6772614E
S113219A6D20506F7765722043544C2052656769ED
S11321AA737465722E200D0A004661696C65642099
S11321BA746F2070726F6772616D20494E54204D9E
S11321CA41502052656769737465722E200D0A00A6
S11321DA4661696C656420746F2070726F677261FE
S11321EA6D20494E5420454E41424C452052656764
S11321FA69737465722E200D0A004661696C656400
S113220A20746F2070726F6772616D204649464F61
S113221A2043544C2052656769737465722E200DED
S113222A0A004661696C656420746F2070726F6776
S113223A72616D204441544120464F524D4154200D
S113224A52656769737465722E200D0A00466169C6
S113225A6C656420746F2073657420425720524160
S113226A54452072656769737465722E200D0A00DD
S113227A4661696C656420746F2070726F6772615D
S113228A6D2044415441204F46465345542058201A
S113229A52656769737465722E200D0A0046616976
S11322AA6C656420746F2070726F6772616D20446C
S11322BA415441204F46465345542059205265679C
S11322CA69737465722E200D0A004661696C65642F
S11322DA20746F2070726F6772616D20444154419B
S11322EA204F4646534554205A20526567697374F1
S11322FA65722E200D0A004661696C656420746F4C
S113230A2070726F6772616D2041435420494E41B7
S113231A43542043544C2052656769737465722E82
S113232A200D0A004661696C656420746F2070721E
S113233A6F6772616D205448524553482041435493
S113234A2052656769737465722E200D0A0046610E
S113235A696C656420746F2070726F6772616D2096
S113236A54485245534820494E41435420526567C4
S113237A69737465722E200D0A004661696C65647E
S113238A20746F2070726F6772616D2054494D45D5
S113239A20494E4143542052656769737465722E0D
S11323AA200D0A004661696C656420746F207365A8
S11323BA742054415020415845532072656769730B
S11323CA7465722E200D0A004661696C6564207476
S11323DA6F20736574204475726174696F6E20721C
S11323EA656769737465722E200D0A004661696C0B
S11323FA656420746F20736574204C6174656E6320
S113240A792072656769737465722E200D0A004615
S113241A61696C656420746F207365742057696EF2
S113242A646F772072656769737465722E200D0A6A
S113243A00496E6974545749202D20496E76616C9F
S113244A696420506172616D65746572730D0A0066
S113245A5472616E736D6974202D20446174612015
S113246A5472616E736D697373696F6E2046616924
S113247A6C6564202D20537461747573203D20307B
S113248A7825780D0A005477694D6173746572541E
S113249A72616E736D6974202D2053746172742095
S11324AA436F6E646974696F6E205472616E736DE2
S11324BA697373696F6E204661696C6564202D20A7
S11324CA537461747573203D20307825780D0A00A1
S11324DA5477694D61737465725472616E736D6970
S11324EA74202D20536C617665204164647265738F
S11324FA7320616E6420577269746520466C616743
S113250A205472616E736D697373696F6E204661CC
S113251A696C6564202D20537461747573203D20A1
S113252A307825780D0A005477695472616E736D98
S113253A6974202D20496E76616C69642050617239
S113254A616D65746572730D0A005477695472611A
S113255A6E736D6974202D20536C61766520526503
S113256A6164204E6F742052657175657374656475
S113257A206279204D6173746572202D203078258C
S113258A780D0A0052656365697665202D204461D9
S113259A746120526563657074696F6E204661695F
S11325AA6C6564202D20537461747573203D20304A
S11325BA7825780D0A005477694D617374657252EF
S11325CA656365697665202D2053746172742043AE
S11325DA6F6E646974696F6E205472616E736D698B
S11325EA7373696F6E204661696C6564202D20538C
S11325FA7461747573203D20307825780D0A00546F
S113260A77694D617374657252656365697665208D
S113261A2D20536C6176652041646472657373205E
S113262A616E64205265616420466C61672054724D
S113263A616E736D697373696F6E204661696C6547
S113264A64202D20537461747573203D20307825DD
S113265A780D0A0054776952656365697665202D99
S113266A20496E76616C696420506172616D65748B
S113267A6572730D0A0054776952656365697665F4
S113268A202D20536C617665205772697465204E3B
S113269A6F7420526571756573746564206279205C
S11326AA4D6173746572202D20537461747573209F
S10B26BA307825780D0A0000B8
S9030000FC
