S012000051756164636F707465722E73726563FA
S11300006BC000000C94210A0C94540A0C94870AC7
S113001081C000007FC000007DC000007BC00000E4
S113002079C0000077C0000075C000002EC5000034
S113003071C000006FC000006DC0000006C5000064
S1130040D0C3000067C00000ACC3000063C0000060
S1130050D7C300005FC0000037C400005BC00000CD
S113006059C0000057C0000055C0000053C0000034
S1130070F9C300004FC0000059C400004BC0000089
S113008049C0000047C0000045C00000084AD73BF3
S11300903BCE016E84BCBFFDC12F3D6C74319ABD53
S11300A056833DDA3D00C77F11BED9E4BB4C3E9177
S11300B06BAAAABE000000803F05A84CCDB2D44E66
S11300C0B93836A9020C50B9918688083CA6AAAA68
S11300D02ABE000000803F0011241FBECFEFD0E4F1
S11300E0DEBFCDBF15E1A0E0B1E0ECEDFAE300E046
S11300F00BBF02C007900D92A83DB107D9F726E1C6
S1130100A8EDB5E101C01D92A535B207E1F7F1D222
S11301100C946C1D75CFCF93DF93CDB7DEB72797C3
S11301200FB6F894DEBF0FBECDBF81E00E94D00FA2
S1130130811102C080E057C081E00E945D108823D5
S1130140C9F31D82CE0105960E946C11882391F398
S113015080E78C832FE048E068E0CE0104960E949B
S11301602C12882339F38FEF89838CEF8A8386E0FE
S11301708B832AE0AE014F5F5F4F61E080E00E9415
S11301809C118823B9F280E88F838E83BE016A5F55
S11301907F4FCE0107960E942B11882359F23D9878
S11301A0459A80916D00806280936D008091680013
S11301B084608093680078940E942F0E882309F449
S11301C0B9CF64E082E00E94AB10882309F4B2CF77
S11301D087E091E09F938F9384E08F93FBD20F90FD
S11301E00F900F9081E027960FB6F894DEBF0FBEF4
S11301F0CDBFDF91CF910895FF920F931F93CF93BB
S1130200DF931F92CDB7DEB78C01CE0101960E9419
S11302109F0D811102C080E07EC089811F928F935F
S113022086E291E09F938F9384E0F82EFF92D2D2DE
S113023089810F900F900F900F900F9087FFEBCF55
S1130240B80181E00E946E0E882329F3F8018381AE
S11302508F9382818F9381818F9380818F9380E4A8
S113026091E09F938F93FF92B5D2F80187818F938A
S113027086818F9385818F9384818F9382E591E02A
S11302809F938F93FF92A6D2F80183858F938285E3
S11302908F9381858F9380858F9384E691E09F93DC
S11302A08F93FF9297D2F80187858F9386858F93DA
S11302B085858F9384858F9387E791E09F938F93B0
S11302C0FF9288D2F80183898F9382898F938189E1
S11302D08F9380898F9381E991E09F938F93FF920D
S11302E079D20FB6F894DEBF0FBECDBFF80187896F
S11302F08F9386898F9385898F9384898F938BEAD3
S113030091E09F938F93FF9265D20FB6F894DEBF6E
S11303100FBECDBF81E00F90DF91CF911F910F9160
S1130320FF900895CF93DF93CDB7DEB7A1970FB6B3
S1130330F894DEBF0FBECDBF198281E089A31F826E
S11303401886198688E78A838B838C838D838E83B2
S11303501F86188A198A80EE8A8780ED8B8780EC45
S11303608C8780EB8D8780EA8E878FE08A8B8B8BDE
S11303708EE68C8B1E8A1D8A1A8E198E1E8E1D8EF9
S1130380188E1F8A1C8E1B8E18A21F8ECE010196FA
S113039051D5A1960FB6F894DEBF0FBECDBFDF9145
S11303A0CF910895CF93DF9300D000D0CDB7DEB7BF
S11303B082E08B838DEF93E09A838983BE016D5F26
S11303C07F4FCE01019616D485E085BD16BC1092F0
S11303D0D8151092D9157FD6811111C08091D815E6
S11303E08823C9F388EC91E09F938F9381E08F93E6
S11303F0F1D10E9485180F900F900F9016C015BC74
S1130400CE01039657D48B818F73823081F01F9273
S11304108F9387ED91E09F938F9381E08F93DAD14F
S11304200F900F900F900F900F9080E02DC01A82C4
S11304301982BE016D5F7F4FCE01019675D4811183
S11304400DC02DE032E03F932F9391E09F938C8376
S1130450C1D10F900F900F908C8116C089819A8121
S11304608C3F23E0920729F09F938F9386E392E0D9
S1130470D2CF81E892E09F938F9384E08F93AAD1A7
S11304800F900F900F9081E00F900F900F900F90AE
S1130490DF91CF91089514BC15BC16BC17BC18BCD1
S11304A081E080936E000895CF92DF92EF92FF92E5
S11304B00F931F93CF93DF93CDB7DEB7E4970FB6B7
S11304C0F894DEBF0FBECDBF1FA618AA19AA1AAA98
S11304D0CE01019691DE811103C027E932E028C0E4
S11304E0CE0149960E942D15811103C02CEB32E0F8
S11304F01FC080EE92E09F938F9384E0F82EFF92CA
S113050069D109891A892B893C894D855E856F8556
S11305107889CE018B966C01EE24E39442970E9475
S11305208D120F900F900F9081110CC021EF32E0CB
S11305303F932F9391E09F938CAB4CD10F900F90EE
S11305400F901BC088E193E09F938F93FF9242D159
S113055088E08BABBE016D5C7F4FCE018B964AD396
S113056026E333E03F932F93FF928CAB33D10F906C
S11305700F900F900F900F900F908CA9E4960FB6E8
S1130580F894DEBF0FBECDBFDF91CF911F910F91C5
S1130590FF90EF90DF90CF9008957F928F929F927B
S11305A0AF92BF92CF92DF92EF92FF920F931F937D
S11305B0CF93DF93CDB7DEB7A1970FB6F894DEBF24
S11305C00FBECDBF95E0792E2FEFE22E21E0F22E63
S11305D034E0932E0FE813E04DE6C42E43E0D42E0E
S11305E08824839451E5A52E53E0B52E5DDF75BCB8
S11305F016BC1092D8151092D9156DD5811124C04E
S11306008091D8158823C9F388EC91E09F938F9348
S113061081E08F93DFD00E9485180F900F900F9088
S1130620A1960FB6F894DEBF0FBECDBFDF91CF9178
S11306301F910F91FF90EF90DF90CF90BF90AF90FC
S11306409F908F907F90089515BCCE01819632D3F0
S113065089A1982F9F73282F277091F01F929F9341
S1130660BF92AF928F92B6D0BE016F5D7F4FCE0125
S113067001965AD30F900F900F900F900F90B6CF12
S11306801F928F93FF92EF929F92A4D0BE016F5D51
S11306907F4FCE01019648D30F900F900F900F908B
S11306A00F90811108C0DF92CF928F9293D00F9058
S11306B00F900F909BCF8E818F938D818F938C8120
S11306C08F938B818F938A818F9389818F931F93CB
S11306D00F939F927FD04D815E816B817C81898154
S11306E09A810E94BE160FB6F894DEBF0FBECDBF2E
S11306F07DCF0F93CF9345E060E072E18AE790E00D
S113070068D087EB93E09F938F93C4E0CF9362D03C
S113071084EC93E09F938F93CF935CD040E050E0C0
S113072060E070E081E026D70F900F900F900F905B
S11307300F900F90882379F1E4D5F4DDC82F81114F
S113074003C028ED33E01AC0E6DCC82F811103C0D2
S113075023E034E013C001E023E044E060E080E003
S11307600E941016C82F811103C020E334E006C094
S113077019DEC82F81110BC02CE534E03F932F9371
S113078081E08F9327D00F900F900F9005C000D178
S113079082DE03DF01C0C0E08C2F90E0CF910F9187
S11307A008951F920F920FB60F9211248F93809188
S11307B0D915803429F481E08093D81515BC03C081
S11307C08F5F8093D9158F910F900FBE0F901F905C
S11307D018950895CF93DF93CDB7DEB7DF91CF910E
S11307E008951F920F920FB60F9211248F9381E0F8
S11307F0809317168F910F900FBE0F901F9018952E
S11308001F920F920FB60F9211240BB60F922F93D3
S11308103F934F935F936F937F938F939F93AF9384
S1130820BF93EF93FF93E0910716F091081630976A
S113083031F0609113167091141680E00995FF91C0
S1130840EF91BF91AF919F918F917F916F915F9144
S11308504F913F912F910F900BBE0F900FBE0F90B1
S11308601F9018951F920F920FB60F9211240BB67A
S11308700F922F933F934F935F936F937F938F9335
S11308809F93AF93BF93EF93FF93E0910D16F09175
S11308900E16309731F060910B1670910C1681E0B2
S11308A00995FF91EF91BF91AF919F918F917F91A6
S11308B06F915F914F913F912F910F900BBE0F90CD
S11308C00FBE0F901F9018951F920F920FB60F92A4
S11308D011240BB60F922F933F934F935F936F9313
S11308E07F938F939F93AF93BF93EF93FF93E09185
S11308F00916F0910A16309731F060911116709133
S1130900121680E00995FF91EF91BF91AF919F91ED
S11309108F917F916F915F914F913F912F910F90A4
S11309200BBE0F900FBE0F901F9018951F920F9241
S11309300FB60F9211240BB60F922F933F934F9340
S11309405F936F937F938F939F93AF93BF93EF9333
S1130950FF93E0910F16F0911016309731F06091EB
S113096015167091161681E00995FF91EF91BF91CC
S1130970AF919F918F917F916F915F914F913F9133
S11309802F910F900BBE0F900FBE0F901F901895D4
S11309908091DA15882361F086E794E09F938F9322
S11309A084E08F9317DF0F900F900F9080E00895ED
S11309B08AB1806F8AB981EF809380008093B00000
S11309C084E08093810086E08093B10081E080938D
S11309D06F00809370001092850010928400109232
S11309E0B2008093DA1508950F931F93CF93DF938A
S11309F01F92CDB7DEB79091DA159923F9F0082F3D
S1130A0010E01F926F931F928F9380E994E09F935D
S1130A108F9384E08F936983DDDED801A552BA4EAB
S1130A2069810FB6F894DEBF0FBECDBF613108F007
S1130A3060E180EF861B8C9381E001C080E00F9021
S1130A40DF91CF911F910F9108951F920F920FB6CE
S1130A500F9211248F939F938091DA15882371F05C
S1130A608091DB1590E090938900809388008091B9
S1130A70DC1590E090938B0080938A009F918F9176
S1130A800F900FBE0F901F9018951F920F920FB6E4
S1130A900F9211248F938091DA15882341F080916D
S1130AA0DD158093B3008091DE158093B4008F919F
S1130AB00F900FBE0F901F901895CF93DF931F9246
S1130AC0CDB7DEB7811102C082EE01C081EE898309
S1130AD0D0D321E030E040E050E0BE016F5F7F4FB3
S1130AE0CB01CBD3C8D30F90DF91CF910895CF9290
S1130AF0DF92EF92FF920F931F93CF93DF93CDB7C3
S1130B00DEB7A1970FB6F894DEBF0FBECDBF8C0140
S1130B107B01D42EFC018081803A99F480913816AF
S1130B2081110FC0FFE1F41760F0842FE1E0F0E0E1
S1130B30EC0FFD1FE80FF11D10828F5F8032B1F7BB
S1130B4002C0C12C02C0CC24C39493D321E030E072
S1130B5040E050E0B801C80190D381110CC08CEA88
S1130B6094E09F938F9381E08F9334DE0F900F90E6
S1130B700F9080E02DC02D2D30E040E050E0BE010C
S1130B806F5F7F4FC70179D3882349F3CC2001F1EC
S1130B904D2D50E081E090E08C0F9D1F840F951F38
S1130BA020E230E0241B350B442737FD4095542FB9
S1130BB0BC0163D381110CC02CEA34E03F932F9322
S1130BC091E09F9389A306DE0F900F900F9089A167
S1130BD089A351D389A1A1960FB6F894DEBF0FBEA5
S1130BE0CDBFDF91CF911F910F91FF90EF90DF90D8
S1130BF0CF900895CF93DF931F92CDB7DEB72091A6
S1130C00EB15211103C089EC94E006C0209138163D
S1130C1021110CC08CEF94E09F938F9381E08F930C
S1130C20D9DD0F900F900F9080E008C028EA298347
S1130C30FB014081BC01CE01019659DF0F90DF9189
S1130C40CF910895EF92FF921F93CF93DF9300D03B
S1130C50CDB7DEB77B01142F8A8399830AD321E0B1
S1130C6030E040E050E08A819981BC0106D38823BA
S1130C7051F0212F30E040E050E0B70188E196E1E7
S1130C80FCD281110CC023E335E03F932F9391E014
S1130C909F938A839FDD0F900F900F908A818A83A0
S1130CA0EAD28A810F900F90DF91CF911F91FF902C
S1130CB0EF9008950F931F93CF93DF931F92CDB7B7
S1130CC0DEB78C018091EB15811103C08FE495E0B0
S1130CD019C0F8011082809138168823E1F080E66B
S1130CE0898341E0B801CE010196ACDF882321F06D
S1130CF0F8018081813290F0F801108280E0DDDE1D
S1130D0088E895E09F938F9381E08F9363DD0F9044
S1130D100F900F9003C080E2F80180830F90DF9161
S1130D20CF911F910F910895EF92FF920F931F930C
S1130D30CF93DF9300D0CDB7DEB77C018B018091D8
S1130D40EB1581110CC08CEC95E09F938F9381E09F
S1130D508F9340DD0F900F900F9080E027C01A8290
S1130D60CE010296A7DFF80120812F7330E08A813B
S1130D708F7390E0821793078CF42BEF35E03F9349
S1130D802F9384E08F9326DD9A819F73F8018081ED
S1130D90807C892B80830F900F900F9081E689834C
S1130DA0F8014081B701CE0101964CDF0F900F90FE
S1130DB0DF91CF911F910F91FF90EF900895CF9302
S1130DC0DF931F92CDB7DEB78983CE0101963ADF58
S1130DD00F90DF91CF9108950F931F93CF93DF93DB
S1130DE000D0CDB7DEB7182F198280628A83CE0176
S1130DF002967DDE082F41E0BE016F5F7F4F812F99
S1130E00DEDF89811F928F931F921F9329E137E0C0
S1130E103F932F9384E08F93DDDC0FB6F894DEBF0D
S1130E200FBECDBF802F0F900F90DF91CF911F91F8
S1130E300F910895EF92FF920F931F93CF93DF9337
S1130E40CDB7DEB728970FB6F894DEBF0FBECDBF7F
S1130E507C01009719F48AE397E006C08091EB15B2
S1130E60882359F082E797E09F938F9381E08F93D3
S1130E70B1DC0F900F900F901FC1E8E1F6E18FEF06
S1130E80819326E1E833F207D9F73F9AF701848981
S1130E909589892BD9F54798FFEF20E782E0F15037
S1130EA020408040E1F700C00000F70180A180935A
S1130EB03816848995899093EA158093E915868973
S1130EC097899093E8158093E715808D918D909381
S1130ED0E6158093E515828D938D9093E4158093A8
S1130EE0E315848D958D9093E2158093E115868D9D
S1130EF0978D9093E0158093DF156DD11886F701D7
S1130F008081811119C081E0888716C0F701808D26
S1130F10918D892B09F4BFCF848D958D892B09F48C
S1130F20BACF01E020E030E042E958E062E082E03C
S1130F30FFD18111B0CFC0C0888582608860888766
S1130F4041E0BE01685F7F4F80E046DF18861F8264
S1130F50F70180A1882311F081E08F8341E0BE0175
S1130F60695F7F4F81E038DF81E08E8341E0BE011D
S1130F706A5F7F4F82E030DFF701828991899F7039
S1130F808295807F892B8D8341E0BE016B5F7F4F0B
S1130F9084E022DF41E0B7016D5E7F4F85E01CDF16
S1130FA08EE08C8341E0BE016C5F7F4F86E014DFEE
S1130FB0F701718162815381448135812681978152
S1130FC080857093391660933A1650933B1640937C
S1130FD03C1630933D1620933E1690933F16809313
S1130FE040167093411660934216509343164093F3
S1130FF044163093451620934616909347168093D3
S1131000481680A1882391F0808145E0811105C0B4
S1131010B7016F5F7F4F8AE014C08701075F1F4FDE
S1131020B8018AE0D9DE45E0B8010AC045E0B7015D
S11310306F5F7F4F8AE0D0DE45E0B701675F7F4F87
S113104080E1CADEF70180A181110AC08A81807C17
S113105080628A8341E0BE016E5F7F4F81E1BCDE26
S1131060F70180A1882341F081E08B8341E0BE0138
S11310706D5F7F4F8CE1B0DE82E08983F70180A150
S1131080882311F086E0898341E0BE016F5F7F4FC2
S11310908DE1A2DE80E011DD81E00FDDF7018081CA
S11310A0811107C0479A83E091E00197F1F700C0EE
S11310B0000081E08093EB158091EB1528960FB624
S11310C0F894DEBF0FBECDBFDF91CF911F910F917A
S11310D0FF90EF900895CF93DF931F92CDB7DEB7C3
S11310E041E0BE016F5F7F4F87E069DE898186FF43
S11310F014C080E4898341E0BE016F5F7F4F87E0C5
S11311006BDE86EA97E09F938F9384E08F9362DB94
S11311100F900F900F9081E001C080E00F90DF915D
S1131120CF910895CF93DF9300D0CDB7DEB741E0E0
S1131130BE016E5F7F4F87E042DE8A811F928F93EC
S113114087E398E09F938F9384E08F9343DB198226
S11311508A810F900F900F900F900F9084FF0EC014
S1131160E091E915F091EA15309741F08091E71587
S11311709091E81509958981806189838A8186FF28
S11311800EC0E091E515F091E615309741F080919D
S1131190E3159091E41509958981806489838A8196
S11311A085FF0EC0E091E115F091E215309741F012
S11311B08091DF159091E01509958981806289837A
S11311C041E0BE016F5F7F4F87E006DE0F900F9016
S11311D0DF91CF910895CF93DF9300D000D01F9279
S11311E0CDB7DEB781E089831A821B821C821D82FF
S11311F0CE01019608D00F900F900F900F900F9092
S1131200DF91CF910895FC011CBC84B18F7084B927
S1131210848183708CBD848182FF02C081E08DBD96
S11312208281882319F08CB584608CBD81818823E8
S113123019F08CB588608CBD8381882319F08CB536
S113124080628CBD8081882359F084B1806B84B91D
S11312508CB580618CBD2C9A81E08093EC1501C023
S1131260269A1EBC8CB580648CBD81E08093ED15FC
S113127008952C9808952C9A0895CF92DF92EF92B6
S1131280FF92FB016091ED15611103C081E598E0C7
S113129006C06091EC1561110CC085E798E09F933E
S11312A08F9381E08F9396DA0F900F900F9080E0E8
S11312B023C0211531054105510549F0009739F046
S11312C0309729F0DC01C12CD12C760103C08CE9C4
S11312D098E0E5CF8D918EBD0DB407FEFDCF8EB5A0
S11312E081938FEFC81AD80AE80AF80AC216D306FF
S11312F0E406F50679F781E0FF90EF90DF90CF9058
S11313000895F894109269001DBA87E08CBB10927E
S113131068008FE08BBB10926B0010926C001092EF
S11313206D0010927300789481E08093FA1508950B
S11313308F929F92AF92BF92CF92DF92EF92FF92E1
S11313400F93CF93DF9300D0CDB7DEB76A01590175
S11313509091FA15911103C08DEB98E015C04115D9
S1131360510519F482EE98E00FC0882E912C880C58
S1131370991C94012C503A4E7901F9012081318154
S1131380232B61F08DEF98E09F938F9381E08F93EF
S113139021DA0F900F900F9080E045C01F928F9339
S11313A04CE159E05F934F9394E09F936A83898360
S11313B011DAF701D182C082F401E251FA4EB1820E
S11313C0A082909169006A81082C01C0660F0A947A
S11313D0EAF7962B909369009DB321E030E0898170
S11313E0082E01C0220F0A94EAF7922B9DBB9CB3EE
S11313F0922B9CBB0F900F900F900F900F90813009
S113140049F018F0823059F00DC05298002351F081
S11314105A9A08C05398002329F05B9A03C0529843
S113142001112A9A81E00F900F90DF91CF910F91D3
S1131430FF90EF90DF90CF90BF90AF909F908F90F0
S113144008951F920F920FB60F9211240BB60F92AC
S11314502F933F934F935F936F937F938F939F93B8
S1131460AF93BF93EF93FF93F894E091F415F09149
S1131470F515309729F08091EE159091EF150995A7
S11314807894FF91EF91BF91AF919F918F917F914C
S11314906F915F914F913F912F910F900BBE0F90E1
S11314A00FBE0F901F9018951F920F920FB60F92B8
S11314B011240BB60F922F933F934F935F936F9327
S11314C07F938F939F93AF93BF93EF93FF93F8947E
S11314D0E091F615F091F715309729F08091F01509
S11314E09091F11509957894FF91EF91BF91AF9187
S11314F09F918F917F916F915F914F913F912F9128
S11315000F900BBE0F900FBE0F901F9018951F9257
S11315100F920FB60F9211240BB60F922F933F9395
S11315204F935F936F937F938F939F93AF93BF93E7
S1131530EF93FF93F894E091F815F091F915309733
S113154029F08091F2159091F31509957894FF9103
S1131550EF91BF91AF919F918F917F916F915F9127
S11315604F913F912F910F900BBE0F900FBE0F9094
S11315701F901895811120C06115710589F04115DE
S1131580510571F0FB0180818093BA00FA018081DA
S11315908093BD0087B18C7F87B91092491612C021
S11315A08FE299E09F938F9381E08F9313D90F90EB
S11315B00F900F9080E0089581E08093491687B1E1
S11315C0836087B980E28093B8001092B90084E404
S11315D08093BC00FFEF20E782E0F1502040804080
S11315E0E1F700C000001092FB1581E08093FC1528
S11315F008958091BC008F7580628093BC008091B7
S1131600BC0080688093BC008091BC0087FFFCCF45
S11316108091BC008F758093BC008091FB159091E4
S1131620B900987F882321F081E0903121F404C02F
S113163081E0983009F080E008958091BC008F76B5
S113164080618093BC008091BC0080688093BC0062
S11316508091BC0084FFFCCF08950F931F93CF9318
S113166020914916213011F4C8E201C0C8EBFC01F5
S113167080E090E0DC018A019B01015011092109FD
S113168031094C2F50E080179107A207B307B8F433
S113169061916093BB006091BC0060686093BC0082
S11316A06091BC0067FFFCCF6091B900687F70E077
S11316B064177507F1F40196A11DB11DE4CF809163
S11316C04916811101C0C0EC80818093BB008091D8
S11316D0BC0080688093BC008091BC0087FFFCCF75
S11316E02091B900287F30E08C2F90E0281739072B
S11316F099F08091B900887F1F928F938EE499E0CE
S11317009F938F9381E08F9365D80F900F900F90E4
S11317100F900F9080E001C081E0CF911F910F9155
S11317200895CF92DF92EF92FF920F93CF93DF93BE
S113173000D000D0CDB7DEB77C01690149835A835C
S11317406B837C8356DF49815A816B817C81811153
S113175008C08091B900887F1F928F9384E899E034
S11317601DC01092FB15F60180818E7F80838093CB
S1131770BB008091BC0080688093BC008091BC0059
S113178087FFFCCF8091B900887F883199F08091E0
S1131790B900887F1F928F938EEC99E09F938F936B
S11317A081E08F9317D80F900F900F900F900F90A8
S11317B080E00BC0C70151DF002321F089833DDFA6
S11317C0898103C091E09093FB150F900F900F90C7
S11317D00F90DF91CF910F91FF90EF90DF90CF901A
S11317E008950F93E091FC15EE2309F44AC0009785
S11317F009F447C0E0914916E13081F4211531051F
S113180059F485E29AE09F938F93EF930E94EA0341
S11318100F900F900F9035C084DF34C02091BC002E
S113182020682093BC002091BC0027FFFCCF2091AE
S1131830B900287F203AB9F02091B900287F283ACE
S1131840E1F08091B9001F928F9388E49AE09F930E
S11318508F9381E08F930E94EA030F900F900F9073
S11318600F900F900EC02091BC0020682093BC0004
S11318702091BC0027FFFCCFDFCF399AEEDE3998E8
S113188001C080E00F910895CF92DF92EF92FF9212
S11318900F931F93FC0180914916813011F480E568
S11318A001C080E800E010E098016A017B0191E04A
S11318B0C91AD108E108F108482F50E00C151D059C
S11318C02E053F05C0F49091BC0090689093BC0035
S11318D09091BC0097FFFCCF6091B900687F70E0E5
S11318E06417750719F59091BB0091930F5F1F4F13
S11318F02F4F3F4FE3CF90914916913031F48091AF
S1131900BC008F738093BC0088E59091BC00906804
S11319109093BC009091BC0097FFFCCF2091B9003C
S1131920287F30E090E028173907A1F08091B900B2
S1131930887F1F928F9382E89AE09F938F9381E030
S11319408F930E94EA030F900F900F900F900F90C7
S113195080E004C08091BB00808381E09091BC0052
S11319609F7390649093BC001F910F91FF90EF9030
S1131970DF90CF900895CF92DF92EF92FF920F9372
S1131980CF93DF9300D000D0CDB7DEB77C016901DF
S113199049835A836B837C832CDE49815A816B8112
S11319A07C81811108C08091B900887F1F928F9338
S11319B084EB9AE01DC01092FB15F60180818160D2
S11319C080838093BB008091BC0080688093BC00BE
S11319D08091BC0087FFFCCF8091B900887F803460
S11319E0A1F08091B900887F1F928F938DEF9AE0C8
S11319F09F938F9381E08F930E94EA030F900F903F
S1131A000F900F900F9080E00BC0C7013DDF0023C3
S1131A1021F0898312DE898103C091E09093FB1544
S1131A200F900F900F900F90DF91CF910F91FF9037
S1131A30EF90DF90CF9008950F93E091FC15EE2383
S1131A40D1F10097C1F1E0914916E13091F42115EB
S1131A50310559F482E59BE09F938F93EF930E94A5
S1131A60EA030F900F900F9026C0399884DF399ABB
S1131A7023C02091BC0020682093BC002091BC00AE
S1131A8027FFFCCF2091B900287F203691F0809168
S1131A90B9001F928F9384E79BE09F938F9381E01B
S1131AA08F930E94EA030F900F900F900F900F9066
S1131AB002C00F91E9CE80E00F910895AF92BF92DA
S1131AC0CF92DF92EF92FF920F93CF93DF9300D0E8
S1131AD0CDB7DEB789835B0169017A0100E02AE4AE
S1131AE036E141E050E060E070E0CE01019679DE3D
S1131AF0811103C025EB3BE00BC001E02AE436E191
S1131B00B701A601C50198DF81110DC02DED3BE0A1
S1131B103F932F9391E09F938A830E94EA030F904F
S1131B200F900F908A810F900F90DF91CF910F91BA
S1131B30FF90EF90DF90CF90BF90AF900895CF9338
S1131B40DF931F92CDB7DEB72091FD1521110DC093
S1131B5083E09CE09F938F9381E08F930E94EA033C
S1131B600F900F900F9080E016C021E030E040E02D
S1131B7050E0BC0180E3A2DF81110DC020E93CE00C
S1131B803F932F9391E09F9389830E94EA030F90E0
S1131B900F900F9089810F90DF91CF910895CF938B
S1131BA0DF931F92CDB7DEB72091FD1521110DC033
S1131BB083E09CE09F938F9381E08F930E94EA03DC
S1131BC00F900F900F9080E016C021E030E040E0CD
S1131BD050E0BC0189E372DF81110DC027EB3CE0CA
S1131BE03F932F9391E09F9389830E94EA030F9080
S1131BF00F900F9089810F90DF91CF910895CF932B
S1131C00DF931F92CDB7DEB72091FD1521110DC0D2
S1131C1083E09CE09F938F9381E08F930E94EA037B
S1131C200F900F900F9080E016C026E030E040E067
S1131C3050E0BC0182E342DF81110DC02AE03DE0A7
S1131C403F932F9391E09F9389830E94EA030F901F
S1131C500F900F9089810F90DF91CF910895EF92AB
S1131C60FF920F931F93CF93DF93CDB7DEB72797E0
S1131C700FB6F894DEBF0FBECDBFCE0107968FDF3F
S1131C808823F1F0F12C0BE21DE0EE24E3942F2DD8
S1131C9030E08F818F7390E0281739077CF4CE01F0
S1131CA00196ADDF811108C01F930F93EF920E943C
S1131CB0EA030F900F900F90F394E9CF81E001C0F5
S1131CC080E027960FB6F894DEBF0FBECDBFDF913C
S1131CD0CF911F910F91FF90EF9008952F923F9213
S1131CE04F925F926F927F928F929F92AF92BF9228
S1131CF0CF92DF92EF92FF920F931F93CF93DF93D4
S1131D00CDB7DEB762970FB6F894DEBF0FBECDBF76
S1131D10082F1B018091FD1581110DC083E09CE00B
S1131D209F938F9381E08F930E94EA030F900F900B
S1131D300F9010E0E5C026E030E040E050E0BE0146
S1131D406F5F7F4F82E3BADE182F81110CC08AE0E7
S1131D509DE09F938F9381E08F930E94EA030F90FD
S1131D600F900F90CDC069817A81882777FD809587
S1131D70982F0E944F1A20E030E040E85BE30E9475
S1131D80681B4B015C01F10160837183828393833F
S1131D906B817C81882777FD8095982F0E944F1A4C
S1131DA020E030E040E85BE30E94681B6B017C01AB
S1131DB0F10164837583868397836D817E8188278F
S1131DC077FD8095982F0E944F1A20E030E040E87C
S1131DD05BE30E94681B2B013C01F1016087718762
S1131DE082879387A5019401C501B4010E94681BF1
S1131DF06F83788789879A87A7019601C701B601FF
S1131E000E94681B6B877C878D879E87A301920144
S1131E10C301B2010E94681B6F87788B898B9A8BF0
S1131E209B01AC016B857C858D859E850E94E7189E
S1131E300E94D51B9B01AC01C501B4010E945A1933
S1131E404B015C01F10164877587868797872F852D
S1131E50388949895A896F81788589859A850E944C
S1131E60E7180E94D51B9B01AC01C701B6010E9473
S1131E705A196B017C01F101608B718B828B938BFE
S1131E802B853C854D855E856F81788589859A850E
S1131E900E94E7180E94D51BA30192010E945A19BF
S1131EA02B013C01F101648B758B868B978B013080
S1131EB039F520EE3EE245E652E4C501B4010E9444
S1131EC0681BF101648775878687978720EE3EE259
S1131ED045E652E4C701B6010E94681BF101608B1C
S1131EE0718B828B938B20EE3EE245E652E4C30174
S1131EF0B2010E94681BF101648B758B868B978BF2
S1131F00812F62960FB6F894DEBF0FBECDBFDF916E
S1131F10CF911F910F91FF90EF90DF90CF90BF90E2
S1131F20AF909F908F907F906F905F904F903F9075
S1131F302F900895CF93DF9300D0CDB7DEB721E083
S1131F4030E040E050E0BE016F5F7F4F80E0B6DDDF
S1131F5081110EC022E63DE03F932F9391E09F93C1
S1131F608A830E94EA030F900F900F908A8113C016
S1131F709981953E81F01F929F938DE89DE09F93F8
S1131F808F9381E08F930E94EA030F900F900F903C
S1131F900F900F9080E00F900F90DF91CF910895F4
S1131FA0882311F093E501C09DE1292F220F809130
S1131FB04A168170822B80934A161F929F938DEB51
S1131FC09DE09F938F9384E08F930E94EA03B2DF96
S1131FD00F900F900F900F900F90882319F091E0BD
S1131FE09093FD150895AF92BF92CF92DF92EF9236
S1131FF0FF920F931F93CF93DF93182FEB01690187
S11320007A01C90101960E943C1C5C01009709F405
S113201047C0FC011193A601BE01CF010E94631DBC
S113202001E02AE436E1B701A6014F5F5F4F6F4F2D
S11320307F4FC501D6DB082F81110BC025ED3DE094
S11320403F932F9381E08F930E94EA030F900F90A8
S11320500F90C5010E94D41C88811F928F932BEF8F
S11320603DE03F932F9384E0B82EBF920E94EA0391
S1132070A7019601BE01812F21DD88811F928F93D4
S11320802FE03EE03F932F93BF920E94EA038DB767
S11320909EB70A960FB6F8949EBF0FBE8DBF01C0BF
S11320A000E0802FDF91CF911F910F91FF90EF906F
S11320B0DF90CF90BF90AF9008951F93CF93DF939D
S11320C000D0CDB7DEB7182F8091FD1581110DC05A
S11320D083E09CE09F938F9381E08F930E94EA03B7
S11320E00F900F900F9080E030C021E030E040E08E
S11320F050E0BE016F5F7F4F8DE2E0DC811103C0D1
S113210021E23EE014C091E0111190E0898190FB3E
S113211083F9898321E030E040E050E0BE016F5F45
S11321207F4F8DE260DF81110EC027E43EE03F93D4
S11321302F9391E09F938A830E94EA030F900F905C
S11321400F908A8102C0109306010F900F90DF91C7
S1132150CF911F9108950F931F93CF93DF9300D0D6
S11321601F92CDB7DEB7182F062F8091FD15882357
S113217021F080910601811103C089E79EE006C029
S1132180123079F4643069F088EB9EE09F938F936A
S113219081E08F930E94EA030F900F900F9080E0EC
S11321A052C021E030E040E050E0BE016E5F7F4F5E
S11321B08CE284DC811103C02DED3EE039C019822C
S11321C01130A9F040F01230C1F48A818F7E8A83E5
S11321D088E0898312C09A8189E0890F8F708630E4
S11321E018F081E09FE0D2CF892F806102C08A81FC
S11321F08F7E8A8303700863098321E030E040E026
S113220050E0BE016E5F7F4F8CE2EDDE811103C0B2
S11322102AE23FE00DC021E030E040E050E0BE01A2
S11322206F5F7F4F8DE2DFDE81110DC021E53FE05E
S11322303F932F9391E09F938B830E94EA030F9027
S11322400F900F908B810F900F900F90DF91CF9193
S11322501F910F9108950F931F93CF93DF931F92B4
S1132260CDB7DEB78B012091FD1521110DC083E0A0
S11322709CE09F938F9381E08F930E94EA030F90D9
S11322800F900F9080E022C021E030E040E050E069
S1132290BC018FE2A8DE811103C02AE73FE00BC036
S11322A021E030E040E050E0B8018EE29CDE811194
S11322B00DC021EA3FE03F932F9391E09F938983E0
S11322C00E94EA030F900F900F9089810F90DF9185
S11322D0CF911F910F910895CF93DF931F92CDB7A4
S11322E0DEB72091FD1521110DC083E09CE09F9382
S11322F08F9381E08F930E94EA030F900F900F90C9
S113230080E016C021E030E040E050E0BC0188E30A
S11323106ADE81110DC02BEC3FE03F932F9391E0D7
S11323209F9389830E94EA030F900F900F908981F5
S11323300F90DF91CF910895FF920F931F93CF9346
S1132340DF9300D01F92CDB7DEB78A01F22E9091B1
S1132350FD1591110DC083E09CE09F938F9381E064
S11323608F930E94EA030F900F900F9080E06BC050
S11323709A81986060FB95F983709876982B9F7B7F
S11323809A8321E030E040E050E0BE016E5F7F4F71
S113239081E329DE811103C023EF3FE049C021E03E
S11323A030E040E050E0BE016F5F7F4F8CE286DB9F
S11323B0811103C02DED3EE03BC09F2D9F708981AC
S11323C0807F892B898321E030E040E050E0BE012A
S11323D06F5F7F4F8CE207DE811103C02EE130E195
S11323E027C021E030E040E050E0B8018EE1FBDDA1
S11323F0811103C021E430E11BC021E030E040E062
S113240050E0B8016F5F7F4F8FE1EDDD811103C0B4
S11324102EE630E10DC0B8016E5F7F4F21E030E061
S113242040E050E080E2DFDD81110DC02BE930E1B6
S11324303F932F9391E09F938B830E94EA030F9025
S11324400F900F908B810F900F900F90DF91CF9191
S11324501F910F91FF900895CF93DF9300D000D088
S1132460CDB7DEB769834A832B832091FD152111F3
S11324700DC083E09CE09F938F9381E08F930E9433
S1132480EA030F900F900F9080E040C021E030E00D
S113249040E050E0BC0187E2A6DD811103C028ECD6
S11324A030E129C021E030E040E050E0BE016F5F40
S11324B07F4F84E298DD811103C025EF30E11BC01A
S11324C021E030E040E050E0BE016E5F7F4F85E2E6
S11324D08ADD811103C02FE131E10DC021E030E03C
S11324E040E050E0BE016D5F7F4F86E27CDD8111EC
S11324F00DC02BE431E13F932F9391E09F938C83A4
S11325000E94EA030F900F900F908C810F900F9010
S11325100F900F90DF91CF9108953F924F925F9269
S11325206F927F928F929F92AF92BF92CF92DF92DF
S1132530EF92FF920F931F93CF93DF93CDB7DEB744
S113254062970FB6F894DEBF0FBECDBF9A8B898B0E
S1132550480159013E2C8601892B09F4DAC0C114C3
S1132560D10409F4D6C06A017B01F7FAF094F7F8B4
S1132570F094C701B601F5D62B013C01C701B601A1
S11325800E94CB1B69837A838B839C83C501B4012E
S1132590E8D66D837E838F839887C501B4010E943A
S11325A0CB1B69877A878B879C87A989BA891A96F6
S11325B0CD90DD90ED90FC901D971E968D919D9190
S11325C00D90BC91A02D8D879E87AF87B88B2D81F0
S11325D03E814F815885C701B6010E94681B4B019B
S11325E05C0129853A854B855C856D857E858F8563
S11325F098890E94681B9B01AC01C501B401E6D512
S11326004B015C01E989FA8926813781408551852E
S1132610C301B2010E94681B2B013C0129813A814C
S11326204B815C81C701B6010E94681B29853A85EC
S11326304B855C850E94681B9B01AC01C301B20100
S1132640C6D56B017C0129813A814B815C816D8502
S11326507E858F8598890E94681B2D813E814F81DC
S113266058850E94681B9B01AC01C701B601AFD518
S1132670A50194011FD62BED3FE049E450E4A7D512
S11326806B017C0120E030E0A90167D62BED3FE02F
S113269049EC50E487FF04C0C701B60198D513C0C4
S11326A0C701B6010E945D1B181634F0F801C08200
S11326B0D182E282F3820DC02BED3FE049EC50E47D
S11326C0C701B60183D5D8016D937D938D939C93F7
S11326D01397F80120813181428153816BED7FE0B2
S11326E089EC90E473D5F1E03F1639F0D8016D938D
S11326F07D938D939C9313970AC020EE3EE245E6AA
S113270052E4E6D7F801608371838283938381E086
S113271001C080E062960FB6F894DEBF0FBECDBF55
S1132720DF91CF911F910F91FF90EF90DF90CF90A9
S1132730BF90AF909F908F907F906F905F904F90DD
S11327403F900895AF92BF92CF92DF92EF92FF92A3
S11327500F93CF93DF9300D0CDB7DEB789835B01AE
S113276069017A0100E02BE436E141E050E060E0E9
S113277070E0CE01019635D8811103C025EB3BE012
S11327800BC001E02BE436E1B701A601C50154D921
S113279081110DC02DED3BE03F932F9391E09F936A
S11327A08A830E94EA030F900F900F908A810F9002
S11327B00F90DF91CF910F91FF90EF90DF90CF902A
S11327C0BF90AF9008951F93CF93DF9300D0CDB700
S11327D0DEB721E030E040E050E0BE016F5F7F4FA4
S11327E080E0B0DF811102C080E046C089811F9281
S11327F08F9382E092E19F938F9314E01F930E9442
S1132800EA0321E030E040E050E0BE016F5F7F4F1B
S113281081E098DF0F900F900F900F900F90882316
S113282019F389811F928F9388E192E19F938F938B
S11328301F930E94EA0321E030E040E050E0BE0133
S11328406F5F7F4F82E07EDF0F900F900F900F90AD
S11328500F90882389F099811F929F932EE232E191
S11328603F932F931F938A830E94EA030F900F9044
S11328700F900F900F908A810F900F90DF91CF915E
S11328801F9108950F931F93CF93DF93CDB7DEB7B6
S113289027970FB6F894DEBF0FBECDBF8C0126E09C
S11328A030E040E050E0BE016F5F7F4F83E04ADFDD
S11328B081110EC020E432E13F932F9391E09F9366
S11328C08F830E94EA030F900F900F908F8119C09D
S11328D0298130E0322F22279A81292BF801318374
S11328E020832B8130E0322F22279C81292B3583B2
S11328F024832D8130E0322F22279E81292B33839C
S1132900228327960FB6F894DEBF0FBECDBFDF91AA
S1132910CF911F910F9108956F927F928F929F9202
S1132920AF92BF92DF92EF92FF920F931F93CF93D8
S1132930DF931F92CDB7DEB7962F172F49015A01A7
S1132940EDB6FEB6BA01A9014F5F5F4F6F4F7F4FDF
S11329502DB73EB7241B350B0FB6F8943EBF0FBE00
S11329602DBFADB7BEB711963D01EDB7FEB781835C
S1132970A92FB12F00E010E09801081519052A05C8
S11329803B0559F00F5F1F4F2F4F3F4FDD90C301A1
S1132990800F911FFC01D082F0CF01E02BE436E1DF
S11329A0C3010E94F10B81110DC025EB3BE03F9365
S11329B02F9391E09F9389830E94EA030F900F90D5
S11329C00F9089810FB6F894FEBE0FBEEDBE0F9036
S11329D0DF91CF911F910F91FF90EF90DF90BF9007
S11329E0AF909F908F907F906F900895CF93DF93D7
S11329F000D0CDB7DEB721E030E040E050E0BE01CA
S1132A006F5F7F4F89E09EDE811103C021E632E1D2
S1132A1012C0898180FF1BC08260898321E030E07D
S1132A2040E050E0BE016F5F7F4F89E075DF8111A8
S1132A300FC02FE732E13F932F9391E09F938A8356
S1132A400E94EA030F900F900F908A8101C080E0EA
S1132A500F900F90DF91CF9108951F93CF93DF9341
S1132A60EC018091FE15811103C08DE992E106C04D
S1132A7080914C16882331F08EEB92E19F938F93D3
S1132A8081E04BC0B3DF882309F442C0CE01FADEF3
S1132A90182F81110CC081EF92E19F938F9384E0F2
S1132AA08F930E94EA030F900F900F903DC06881AE
S1132AB07981882777FD8095982FF1D420E030E044
S1132AC04AEF5EE305D66E837F83888799876A81A0
S1132AD07B81882777FD8095982FE1D420E030E032
S1132AE04AEF5EE3F5D56A877B878C879D876C8187
S1132AF07D81882777FD8095982FD1D420E030E020
S1132B004AEF5EE3E5D56E877F87888B998B0CC08F
S1132B1080E193E19F938F9384E08F930E94EA0373
S1132B200F900F900F9010E0812FDF91CF911F91A4
S1132B300895CF93DF9300D0CDB7DEB7198221E09B
S1132B4030E040E050E0BE016F5F7F4F8AE0FADD85
S1132B50811103C020E833E11FC08981883479F0F2
S1132B601F928F938CEA93E19F938F9381E08F93CD
S1132B700E94EA030F900F900F900F900F9021E0A6
S1132B8030E040E050E0BE016F5F7F4F8BE0DADD64
S1132B9081110EC02DED33E13F932F9391E09F936C
S1132BA08A830E94EA030F900F900F908A8133C0AA
S1132BB08981843379F01F928F9389E094E19F9304
S1132BC08F9381E08F930E94EA030F900F900F90F0
S1132BD00F900F9021E030E040E050E0BE016F5FC5
S1132BE07F4F8CE0AFDD811103C02AE334E1D4CF01
S1132BF09981933381F01F929F9386E694E19F938A
S1132C008F9381E08F930E94EA030F900F900F90AF
S1132C100F900F9080E00F900F90DF91CF91089567
S1132C20CF92DF92EF92FF920F931F93CF93DF9394
S1132C3000D01F92CDB7DEB7F82ED62EC42EE22ECA
S1132C4090914B1691709C6390934B168091FE1556
S1132C50882309F182E0898321E030E040E050E0FC
S1132C60BE016F5F7F4F58DE182F811103C027E923
S1132C7034E167C080E88B8321E030E040E050E03D
S1132C80BE016D5F7F4F80E047DE182F811112C0B7
S1132C902AEC34E156C04DDF882309F461C0E1E039
S1132CA0F5E1FF93EF9384E08F930E94EA030F9082
S1132CB00F900F908F2D8370898321E030E040E0E6
S1132CC050E0BE016F5F7F4F82E026DE182F811136
S1132CD003C02BE135E135C0F0924C160295000F8C
S1132CE0007E0A8321E030E040E050E0BE016E5FE8
S1132CF07F4F81E011DE182F811103C02AE335E1F3
S1132D0020C04C2D4770440F440F8B81807E9D2D35
S1132D109370842B892B2E2D23702295220F207ED5
S1132D208F79822B8B8321E030E040E050E0BE01BC
S1132D306D5F7F4F80E0F0DD182F81110CC02DE511
S1132D4035E13F932F9381E08F930E94EA030F9024
S1132D500F900F9006C037DD81E08093FE1501C00F
S1132D6010E0812F0F900F900F90DF91CF911F9162
S1132D700F91FF90EF90DF90CF9008952F923F92A4
S1132D804F925F926F927F928F929F92AF92BF9277
S1132D90CF92DF92EF92FF920F931F93CF93DF9323
S1132DA0CDB7DEB7A4970FB6F894DEBF0FBECDBF84
S1132DB05B018A01BC0180E090E06FD320E030E049
S1132DC04AEA52E4D1D26B017C0160934D167093B0
S1132DD04E1680934F1690935016B50180E090E004
S1132DE05CD320E030E04FEF53E4F0D19B01AC0121
S1132DF0EED120E030E04FE754E4B6D22B013C01A1
S1132E00B80180E090E049D320E030E04FEF53E494
S1132E10DDD19B01AC01DBD120E030E04FE754E48D
S1132E20A3D24B015C0120E030E040E85DE3C70140
S1132E30B6014ED46B017C019B01AC01C301B2010C
S1132E4047D46D8F7E8F8F8F98A3A7019601C501FC
S1132E50B4013ED469A37AA38BA39CA3BE016F5F84
S1132E607F4F81E00E946E0E811124C087E992E0B9
S1132E709F938F9381E08F930E94EA0380910316BE
S1132E8090910416A0910516B091061689839A8331
S1132E90AB83BC838091FF1590910016A09101161D
S1132EA0B09102168D839E83AF83B8870F900F90E5
S1132EB00F9018C089819A81AB81BC8180930316DD
S1132EC090930416A0930516B09306168D819E81E7
S1132ED0AF81B8858093FF1590930016A0930116D7
S1132EE0B093021680914D16898F90914E169A8F49
S1132EF080914F168B8F909150169C8F20E030E07C
S1132F0040E85DE3B98DAA8D6B2F7A2FE1D36B0175
S1132F107C0120E030E040E05FE369817A818B81CD
S1132F209C81D6D3A7019601D3D3962E872E782ED3
S1132F30692EA4019301852F942FA32FB22F898387
S1132F409A83AB83BC8320E030E040E05FE36D8193
S1132F507E818F819885BCD3A7019601B9D3562E63
S1132F60472E382E292EA2019101852F942FA32FAD
S1132F70B22F8D839E83AF83B887B401C301272FFB
S1132F80362F492F582FBD8DAE8DFF8DE8A16B2FA5
S1132F907A2F8F2F9E2F1AD15B016C01B201C101D0
S1132FA0272F362F492F582FB9A1AAA1FBA1ECA195
S1132FB06B2F7A2F8F2F9E2F09D17B018C011F93AA
S1132FC08F93FF926F93DF92CF92BF92AF922F9223
S1132FD03F924F925F926F927F928F929F928CA1B9
S1132FE08F939BA19F938AA18F9399A19F9388A16B
S1132FF08F939F8D9F938E8D8F939D8D9F938C8D9B
S11330008F939B8D9F938A8D8F93998D9F9380E847
S113301095E19F938F9384E08F930E94EA0320911C
S11330204D1630914E1640914F16509150166A2D00
S11330307B2D8C2D9D2DCBD02E2D3F2D402F512F10
S1133040C5D08BD080E00E94F40420914D163091BD
S11330504E1640914F16509150166A2D7B2D8C2D93
S11330609D2DB5D02E2D3F2D402F512FB0D075D092
S113307081E00E94F4042A2D3B2D4C2D5D2D60919E
S11330804D1670914E1680914F16909150169ED009
S11330902E2D3F2D402F512F99D05FD082E00E94DA
S11330A0F4042A2D3B2D4C2D5D2D60914D1670910D
S11330B04E1680914F169091501688D02E2D3F2D8C
S11330C0402F512F84D049D083E00E94F4040FB6DE
S11330D0F894DEBF0FBECDBFA4960FB6F894DEBF42
S11330E00FBECDBFDF91CF911F910F91FF90EF9055
S11330F0DF90CF90BF90AF909F908F907F906F9014
S11331005F904F903F902F90089560914D1670916D
S11331104E1680914F169091501693D1C62FCC2302
S1133120D9F06C2F80E00E94F4046C2F81E00E949F
S1133130F4046C2F82E00E94F4046C2F83E00E945C
S1133140F4042FEF80E792E0215080409040E1F7B3
S113315000C00000C150E3CFFFCFAF92BF92CF9227
S1133160DF92EF92FF920F931F935B016C0164D186
S11331707B018C0194D19B01AC01C601B50126D021
S113318020E030E040E05FE3E8D087FD14C0C601F2
S1133190B50120E030E040E050E0DFD0882334F493
S11331A00894E108F1080109110905C00894E11C1B
S11331B0F11C011D111DB701C8011F910F91FF9052
S11331C0EF90DF90CF90BF90AF9008955058BB27F9
S11331D0AA270ED027C2F0D130F0F5D120F031F477
S11331E09F3F11F41EF4C0C10EF4E095E7FBB6C195
S11331F0E92F3AD280F3BA17620773078407950759
S113320018F071F49EF552C20EF4E0950B2EBA2F0D
S1133210A02D0B01B90190010C01CA01A0011124D8
S1133220FF27591B99F0593F50F4503E68F11A1684
S1133230F040A22F232F342F4427585FF3CF469515
S113324037952795A795F0405395C9F77EF41F1637
S1133250BA0B620B730B840BBAF09150A1F0FF0F01
S1133260BB1F661F771F881FC2F70EC0BA0F621FED
S1133270731F841F48F4879577956795B795F795DD
S11332809E3F08F0B3CF9395880F08F09927EE0F6F
S113329097958795089590D158F080E891E009F4C6
S11332A09EEF91D128F040E851E059F45EEF09C057
S11332B05BC1FCC1E92FE078D7D168F3092E052A58
S11332C0C1F3261737074807590738F00E2E07F8B9
S11332D0E02569F0E025E0640AC0EF6307F8009494
S11332E007FADB01B9019D01DC01CA01AD01EF93CD
S11332F04AD098D10AD05F91552331F02BED3FE0AD
S113330049E450FD49EC63CF0895DF93DD27B92FDD
S1133310BF7740E85FE31616170648075B0710F40B
S1133320D92FCFD19F938F937F936F937CD2ECE867
S1133330F0E01DD177D12F913F914F915F91D4D17E
S1133340DD2349F09058A2EA2AED3FE049EC5FE31F
S1133350D0785D274DDFDF9165C1DCD008F481E0D2
S1133360089539D1E3956FC10CD05CC12CD140F0E4
S113337023D130F021F45F3F19F0F0C0511197C10F
S1133380F3C072D198F39923C9F35523B1F3951B74
S1133390550BBB27AA2762177307840738F09F5F72
S11333A05F4F220F331F441FAA1FA9F333D00E2EE1
S11333B03AF0E0E830D091505040E695001CCAF74E
S11333C029D0FE2F27D0660F771F881FBB1F261713
S11333D037074807AB07B0E809F0BB0B802DBF01E6
S11333E0FF2793585F4F2AF09E3F510568F0B6C0FF
S11333F05EC15F3FECF3983EDCF386957795679565
S1133400B795F7959F5FC9F7880F911D9695879596
S113341097F90895E1E0660F771F881FBB1F6217B5
S113342073078407BA0720F0621B730B840BBA0B73
S1133430EE1F88F7E095089504D06894B11137C160
S113344008951AD188F09F5790F0B92F9927B75152
S1133450A0F0D1F0660F771F881F991F1AF0BA9554
S1133460C9F712C0B13081F021D1B1E008951EC175
S1133470672F782F8827B85F39F0B93FCCF386954A
S113348077956795B395D9F73EF4909580957095A7
S113349061957F4F8F4F9F4F0895E89409C097FB24
S11334A03EF490958095709561957F4F8F4F9F4F17
S11334B09923A9F0F92F96E9BB279395F69587955B
S11334C077956795B795F111F8CFFAF4BB0F11F41E
S11334D060FF1BC06F5F7F4F8F4F9F4F16C08823C5
S11334E011F096E911C0772321F09EE8872F762FFB
S11334F005C0662371F096E8862F70E060E02AF03C
S11335009A95660F771F881FDAF7880F9695879527
S113351097F90895990F0008550FAA0BE0E8FEEFFC
S113352016161706E807F907C0F012161306E40783
S1133530F50798F0621B730B840B950B39F40A267C
S113354061F0232B242B252B21F408950A2609F45A
S1133550A140A6958FEF811D811D089597F99F675E
S113356080E870E060E008959FEF80EC0895DF93B9
S1133570CF931F930F93FF92EF92DF927B018C0105
S1133580689405C0DA2EEF01AFD0FE01E894A5914E
S11335902591359145915591AEF3EF0129DEFE0158
S11335A09701A801DA9479F7DF90EF90FF900F91DB
S11335B01F91CF91DF91089500240A9416161706DF
S11335C018060906089500240A9412161306140610
S11335D005060895C9CF50D0E8F3E894E0E0BB278E
S11335E09F57F0F02AED3FE049EC06C0EE0FBB0F09
S11335F0661F771F881F28F0B23A62077307840793
S113360028F0B25A620B730B840BE3959A9572F708
S1133610803830F49A95BB0F661F771F881FD2F746
S1133620904806C1092E0394000C11F4882352F02B
S1133630BB0F40F4BF2B11F460FF04C06F5F7F4FDA
S11336408F4F9F4F0895EF93E0FF06C0A2EA2AED43
S11336503FE049EC5FEBCCDDE5DF0F90039401FC28
S11336609058E9EBF0E0F7C057FD9058440F551F10
S113367059F05F3F71F04795880F97FB991F61F0F0
S11336809F3F79F087950895121613061406551F67
S1133690F2CF4695F1DF08C0161617061806991FD3
S11336A0F1CF86957105610508940895E894BB27C8
S11336B066277727CB0197F908952CDF08F48FEF5D
S11336C008959B01AC0160E070E080E89FE34CCE7C
S11336D00BD0A8CF71DF28F076DF18F0952309F01E
S11336E03DCF42CF1124E3CFBFDFA0F3959FD1F3A9
S11336F0950F50E0551F629FF001729FBB27F00D9C
S1133700B11D639FAA27F00DB11DAA1F649F6627F0
S1133710B00DA11D661F829F2227B00DA11D621F3F
S1133720739FB00DA11D621F839FA00D611D221FF9
S1133730749F3327A00D611D231F849F600D211DDD
S1133740822F762F6A2F11249F5750408AF0E1F080
S113375088234AF0EE0FFF1FBB1F661F771F881FC9
S113376091505040A9F79E3F510570F0F7CE9FCF7E
S11337705F3FECF3983EDCF3869577956795B795B4
S1133780F795E7959F5FC1F7FE2B880F911D9695DE
S1133790879597F908959F931EDF0F9007FCEE5FBE
S11337A052CF11F40EF4E0CE41C066DFD0F399237A
S11337B0D9F3CEF39F57550B87FF46D00024A0E6DC
S11337C040EA900180585695979528F4805C660FDE
S11337D0771F881F20F026173707480730F4621B2D
S11337E0730B840B202931294A2BA695179407942F
S11337F0202531254A2758F7660F771F881F20F0A8
S113380026173707480730F4620B730B840B200D1F
S1133810311D411DA09581F7B901842F9158880F5E
S11338209695879508959B01AC0152CF9F3F31F047
S1133830915020F4879577956795B795880F911DDA
S11338409695879597F9089591505040660F771F84
S1133850881FD2F708959F938F937F936F93FF935D
S1133860EF939B01AC0134DFEF91FF9180DE2F9148
S11338703F914F915F912CCFCF93DF93823091058D
S113388010F482E090E0E0915316F091541620E099
S113389030E0A0E0B0E0309739F140815181481721
S11338A05907B8F04817590771F48281938110972A
S11338B029F013969C938E9312972CC090935416D0
S11338C08093531627C02115310531F04217530751
S11338D018F0A901DB0101C0EF019A01BD01DF016C
S11338E00280F381E02DD7CF21153105F9F0281B93
S11338F0390B2430310580F48A819B81611571056F
S113390021F0FB019383828304C090935416809327
S11339105316FE01329644C0FE01E20FF31F819359
S1133920919322503109398328833AC0209151164A
S113393030915216232B41F420910201309103015E
S113394030935216209351162091000130910101B9
S11339502115310541F42DB73EB740910401509132
S11339600501241B350BE0915116F0915216E21714
S1133970F307A0F42E1B3F0B2817390778F0AC018E
S11339804E5F5F4F2417350748F04E0F5F1F50936B
S11339905216409351168193919302C0E0E0F0E0F7
S11339A0CF01DF91CF910895CF93DF93009709F46E
S11339B087C0FC01329713821282C0915316D091B2
S11339C05416209781F420813181280F391F80916A
S11339D05116909152168217930779F5F093521667
S11339E0E09351166DC0DE0120E030E0AE17BF0752
S11339F050F412964D915C9113979D014115510518
S1133A0009F1DA01F3CFB383A28340815181840F9A
S1133A10951F8A179B0771F48D919C911197840FC0
S1133A20951F02969183808312968D919C91139792
S1133A30938382832115310529F4F0935416E0937E
S1133A4053163EC0D9011396FC93EE9312974D91F1
S1133A505D91A40FB51FEA17FB0779F4808191816A
S1133A60840F951F0296D90111969C938E9382819F
S1133A70938113969C938E931297E0E0F0E08A81F1
S1133A809B81009719F0FE01EC01F9CFCE0102965B
S1133A9028813981820F931F20915116309152163B
S1133AA02817390769F4309729F4109254161092A4
S1133AB0531602C013821282D0935216C093511629
S1133AC0DF91CF910895FB01DC0102C001900D92BA
S10F3AD041505040D8F70895F894FFCFFF
S1133ADC00005516200001416363656C65726F6DBF
S1133AEC6574657220536574757020436F6D706CCA
S1133AFC6574650D0A00496E746572727570742074
S1133B0C536F75726365203D20307825780D0A005B
S1133B1C58204178697320416363203D20256667F2
S1133B2C090059204178697320416363203D2025A5
S1133B3C666709005A204178697320416363203D0C
S1133B4C202566670D0A0058204178697320546952
S1133B5C6C74203D20256620646567726565730965
S1133B6C005920417869732054696C74203D2025D8
S1133B7C66206465677265657309005A204178692B
S1133B8C732054696C74203D20256620646567722B
S1133B9C6565730D0A0D0A005369676E616C204CE0
S1133BAC6F73742E0D0A00506572666F726D4861E6
S1133BBC6E647368616B65202D20496E76616C6947
S1133BCC642044617461204C656E6774682C204CCD
S1133BDC656E677468203D2025640D0A005065727B
S1133BEC666F726D48616E647368616B65202D201D
S1133BFC5265636569766520446174612046616928
S1133C0C6C65640D0A00506572666F726D48616E66
S1133C1C647368616B65202D2052656365697665F4
S1133C2C642076616C7565206E6F742065717561A6
S1133C3C6C20746F20414443204D41582056414C14
S1133C4C55452C2056616C7565203D2025640D0A64
S1133C5C0048616E647368616B6520636F6D706C92
S1133C6C657465640D0A004661696C656420746F43
S1133C7C207265616420416363656C65726F6D6568
S1133C8C74657220446174612E0D0A004661696C7E
S1133C9C656420746F2072656164204D61676E6584
S1133CAC746F6D6574657220446174612E0D0A0025
S1133CBC4D6167204461746120526561642E0D0A64
S1133CCC004661696C656420746F2063616C637574
S1133CDC6C61746520636F6D7061737320686561CA
S1133CEC64696E672E0D0A00436F6D7061737320E7
S1133CFC48656164696E672043616C63756C6174BB
S1133D0C65642E0D0A0041636B205061796C6F6100
S1133D1C64205472616E736D69747465642E0D0A3B
S1133D2C00496E76616C69642044617461204C6551
S1133D3C6E677468202D2025642E0D0A00466C795C
S1133D4C436F70746572202D2052656365697665C6
S1133D5C2044617461204661696C65640D0A0054E9
S1133D6C68726F74746C65203D2025642C20584156
S1133D7C786973203D2025642C205941786973207F
S1133D8C3D2025640D0A0051756164636F70746580
S1133D9C720D0A002D2D2D2D2D2D2D2D2D2D2D2D6E
S1133DAC2D2D2D2D2D0D0A006D61696E202D2054A5
S1133DBC72616E736D697474657220496E6974698D
S1133DCC616C697A6174696F6E204661696C6564B3
S1133DDC0D0A006D61696E202D20416363656C656D
S1133DEC726F6D6574657220496E697469616C6972
S1133DFC7A6174696F6E204661696C65640D0A00A2
S1133E0C6D61696E202D204D61676E65746F6D65F3
S1133E1C74657220496E697469616C697A6174693C
S1133E2C6F6E204661696C65640D0A006D61696E84
S1133E3C202D2048616E647368616B65204661694E
S1133E4C6C65640D0A0050574D20416C72656164B9
S1133E5C7920496E697469616C697A65640D0A002C
S1133E6C4368616E6E656C203D202564202D2050C6
S1133E7C756C7365203D2025640D0A005472616EC7
S1133E8C736D6974202D205472616E736665722093
S1133E9C4661696C65640D0A005472616E736D69D8
S1133EAC7441636B5061796C6F6164202D20547282
S1133EBC616E73636569766572204E6F7420496E0A
S1133ECC697469616C697A65640D0A005472616E77
S1133EDC736D697441636B5061796C6F6164202DEF
S1133EEC204175746F2041636B6E6F776C656467EA
S1133EFC6D656E74204E6F7420456E61626C6564E2
S1133F0C0D0A0052656365697665202D2054726133
S1133F1C6E73666572204661696C65640D0A0047B0
S1133F2C657452656365697665645061796C6F611B
S1133F3C644C656E677468202D205472616E7363D3
S1133F4C6569766572204E6F7420496E6974696177
S1133F5C6C697A65640D0A0047657452656365691A
S1133F6C7665645061796C6F61644C656E677468D6
S1133F7C202D2052656164205278205061796C6F39
S1133F8C6164204C656E677468205265676973744C
S1133F9C6572204661696C65640D0A00526563653F
S1133FAC6976655061796C6F6164202D205472615F
S1133FBC6E73636569766572204E6F7420496E6901
S1133FCC7469616C697A65640D0A0052656365698C
S1133FDC76655061796C6F6164202D205278205085
S1133FEC61796C6F6164204C656E677468204E6FE8
S1133FFC74204D61746368696E67204275666665EA
S113400C72204C656E6774680D0A004765744C6FBA
S113401C73745061636B6574436F756E74202D20DB
S113402C5472616E73636569766572204E6F742089
S113403C496E697469616C697A65640D0A00476537
S113404C744C6F73745061636B6574436F756E74E9
S113405C202D2052656164204F627365727665541D
S113406C78205265676973746572204661696C6562
S113407C640D0A0047657452657472616E736D69E0
S113408C745061636B6574436F756E74202D20548A
S113409C72616E73636569766572204E6F74204924
S11340AC6E697469616C697A65640D0A004765749C
S11340BC52657472616E736D69745061636B65746F
S11340CC436F756E74202D2052656164204F6273AA
S11340DC65727665547820526567697374657220CD
S11340EC4661696C65640D0A00526567204F66660B
S11340FC736574203D20307825782056616C756585
S113410C203D20307825780D0A00496E697454726C
S113411C616E73636569766572202D20496E636FD9
S113412C727265637420496E697469616C697A6131
S113413C74696F6E20506172616D65746572730D74
S113414C0A00496E69745472616E736365697665AD
S113415C72202D205472616E7363656976657220CA
S113416C416C726561647920496E697469616C692A
S113417C7A65640D0A004461746120526563656953
S113418C7665640D0A005472616E736D69745061C6
S113419C796C6F6164202D205472616E7363656950
S11341AC766572204E6F7420496E697469616C690E
S11341BC7A65640D0A005472616E736D6974506192
S11341CC796C6F6164202D20446174612054726198
S11341DC6E736D69747465640D0A005472616E7348
S11341EC6D69745061796C6F6164202D204D617818
S11341FC2052652D7472616E736D69742052656101
S113420C636865640D0A00495352202D2053746170
S113421C74757320526567203D20307825780D0A1B
S113422C005350495472616E73666572202D20538D
S113423C5049204E6F7420496E697469616C697AB7
S113424C65640D0A005350495472616E736665724D
S113425C202D20535049204E6F7420496E204D61FF
S113426C73746572204D6F64650D0A005350495484
S113427C72616E73666572202D205350492042750D
S113428C66666572204572726F720D0A0045787409
S113429C65726E616C20496E7465727275707420EF
S11342AC4E6F7420496E697469616C697A65640D2A
S11342BC0A00496E76616C69642043616C6C6261BE
S11342CC636B20436F6E746578740D0A00496E74C9
S11342DC65727275707420416C72656164792052D8
S11342EC6567697374657265640D0A00457874209A
S11342FC496E74204E756D203D2025640D0A0049CD
S113430C6E6974545749202D20496E76616C69642A
S113431C20506172616D65746572730D0A0054727C
S113432C616E736D6974202D204461746120547224
S113433C616E736D697373696F6E204661696C6528
S113434C64202D20537461747573203D20307825BE
S113435C780D0A005477694D6173746572547261F7
S113436C6E736D6974202D20537461727420436FC5
S113437C6E646974696F6E205472616E736D6973C7
S113438C73696F6E204661696C6564202D205374CB
S113439C61747573203D20307825780D0A005477AC
S11343AC694D61737465725472616E736D697420B6
S11343BC2D20536C6176652041646472657373209F
S11343CC616E6420577269746520466C6167205471
S11343DC72616E736D697373696F6E204661696C7B
S11343EC6564202D20537461747573203D203078DE
S11343FC25780D0A005477695472616E736D697473
S113440C202D20496E76616C696420506172616D57
S113441C65746572730D0A005477695472616E7316
S113442C6D6974202D20536C61766520526561642E
S113443C204E6F74205265717565737465642062C7
S113444C79204D6173746572202D20307825780D98
S113445C0A0052656365697665202D204461746198
S113446C20526563657074696F6E204661696C6572
S113447C64202D20537461747573203D203078258D
S113448C780D0A005477694D6173746572526563D3
S113449C65697665202D20537461727420436F6EA8
S11344AC646974696F6E205472616E736D69737391
S11344BC696F6E204661696C6564202D20537461AC
S11344CC747573203D20307825780D0A0054776973
S11344DC4D617374657252656365697665202D2030
S11344EC536C617665204164647265737320616EEC
S11344FC64205265616420466C6167205472616E5D
S113450C736D697373696F6E204661696C656420A1
S113451C2D20537461747573203D20307825780DEB
S113452C0A0054776952656365697665202D2049C4
S113453C6E76616C696420506172616D657465722C
S113454C730D0A0054776952656365697665202D8D
S113455C20536C617665205772697465204E6F74B4
S113456C20526571756573746564206279204D61A0
S113457C73746572202D20537461747573203078B4
S113458C25780D0A004661696C656420746F20748B
S113459C72616E736D6974205265676973746572A8
S11345AC20416464726573732E200D0A00466169A0
S11345BC6C656420746F207265747269657665200D
S11345CC52656769737465722056616C75652E202B
S11345DC0D0A00416363656C65726F6D6574657279
S11345EC206E6F7420696E697469616C697A656494
S11345FC2E200D0A004661696C656420746F20706E
S113460C726F6772616D20465245452046414C4C91
S113461C205448524553484F4C4420726567697383
S113462C7465722E200D0A004661696C65642074F1
S113463C6F2070726F6772616D20467265652046DB
S113464C616C6C205468726573686F6C6420546977
S113465C6D652072656769737465722E200D0A008E
S113466C4661696C656420746F20726561642049CD
S113467C4E5420534F5552434520726567697374E9
S113468C65722E200D0A004661696C656420746F96
S113469C2072656164204649464F20535441545559
S11346AC532072656769737465722E200D0A004677
S11346BC61696C656420746F207265616420414388
S11346CC542054415020537461747573207265677F
S11346DC69737465722E200D0A004661696C6564F9
S11346EC20746F207265616420446174612052658A
S11346FC6769737465722E200D0A005265616469D2
S113470C6E672064617461206661696C65642077EE
S113471C68696C6520617474656D7074696E67206A
S113472C746F20666C757368204649464F2E200DB5
S113473C0A004661696C656420746F20726561645B
S113474C20416363656C65726F6D6574657220449A
S113475C65766963652049642E200D0A0041636304
S113476C656C65726F6D65746572204465766963FA
S113477C6520496420646F6573206E6F74206D61CD
S113478C74636820307825782E200D0A00446576F1
S113479C6963652041646472657373203D203078CD
S11347AC25780D0A004661696C656420746F207469
S11347BC72616E736D697420526567697374657286
S11347CC2056616C75652E200D0A0057726974743D
S11347DC656E2056616C7565203078257809005219
S11347EC6561642056616C756520307825780D0AF6
S11347FC004661696C656420746F20726561642085
S113480C506F7765722043544C20726567697374DA
S113481C65722E200D0A004661696C656420746F04
S113482C20706C61636520416363656C65726F6DA8
S113483C6574657220696E207374616E646279208C
S113484C6D6F64652E200D0A00416363656C65729F
S113485C6F6D65746572206E6F7420696E6974690E
S113486C616C697A6564206F7220697420697320A5
S113487C6E6F7420696E207374616E646279206D3E
S113488C6F64652E200D0A00496E76616C69642094
S113489C57616B657570204672657175656E6379C9
S11348AC2053656C65637465642E0D0A004661695A
S11348BC6C656420746F20726561642042572052C9
S11348CC4154452072656769737465722E200D0A14
S11348DC00496E76616C6964204461746120526194
S11348EC746520666F72204C6F7720506F776572F9
S11348FC204D6F64652E200D0A004661696C656459
S113490C20746F2070726F6772616D204257205251
S113491C4154452052656769737465722E200D0AE3
S113492C004661696C656420746F2070726F6772E5
S113493C616D20506F7765722043544C205265672B
S113494C69737465722E200D0A004661696C656486
S113495C20746F2070726F6772616D20494E542001
S113496C4D41502052656769737465722E200D0A8F
S113497C004661696C656420746F2070726F677295
S113498C616D20494E5420454E41424C45205265A0
S113499C6769737465722E200D0A004661696C6533
S11349AC6420746F2070726F6772616D2046494683
S11349BC4F2043544C2052656769737465722E20E2
S11349CC0D0A004661696C656420746F2070726F07
S11349DC6772616D204441544120464F524D4154FD
S11349EC2052656769737465722E200D0A00466146
S11349FC696C656420746F2073657420425720526F
S1134A0C4154452072656769737465722E200D0AD2
S1134A1C004661696C656420746F2070726F6772F4
S1134A2C616D2044415441204F464653455420580F
S1134A3C2052656769737465722E200D0A004661F5
S1134A4C696C656420746F2070726F6772616D207D
S1134A5C44415441204F46465345542059205265F5
S1134A6C6769737465722E200D0A004661696C6562
S1134A7C6420746F2070726F6772616D20444154AE
S1134A8C41204F4646534554205A2052656769735A
S1134A9C7465722E200D0A004661696C656420747D
S1134AAC6F2070726F6772616D2041435420494EC0
S1134ABC4143542043544C205265676973746572A6
S1134ACC2E200D0A004661696C656420746F207099
S1134ADC726F6772616D20544852455348204143AC
S1134AEC542052656769737465722E200D0A004652
S1134AFC61696C656420746F2070726F6772616D8C
S1134B0C2054485245534820494E41435420526541
S1134B1C6769737465722E200D0A004661696C65B1
S1134B2C6420746F2070726F6772616D2054494DEC
S1134B3C4520494E4143542052656769737465722C
S1134B4C2E200D0A004661696C656420746F207315
S1134B5C657420544150204158455320726567694F
S1134B6C737465722E200D0A004661696C656420AD
S1134B7C746F20736574204475726174696F6E2050
S1134B8C72656769737465722E200D0A004661693B
S1134B9C6C656420746F20736574204C6174656E4D
S1134BAC63792072656769737465722E200D0A002F
S1134BBC4661696C656420746F2073657420576951
S1134BCC6E646F772072656769737465722E200D3D
S1134BDC0A00434F4E464947205245472041203D49
S1134BEC20307825780D0A00434F4E464947205211
S1134BFC45472042203D20307825780D0A004D4F42
S1134C0C444520524547203D20307825780D0A0034
S1134C1C4661696C656420746F207265616420441C
S1134C2C6174612072656769737465722E200D0A54
S1134C3C004661696C656420746F20726561642040
S1134C4C537461747573205265672E200D0A0046E7
S1134C5C61696C656420746F206C6F636B20537492
S1134C6C61747573205265672E200D0A004D6167BF
S1134C7C6E65746F6D65746572206E6F7420496E09
S1134C8C697469616C697A65642E200D0A004D6142
S1134C9C676E65746F6D65746572206E6F742069D0
S1134CAC6E20434F4E54494E554F5553204D45415C
S1134CBC535552454D454E54204D6F64652E0D0A87
S1134CCC0052656164696E6720484D43353838334A
S1134CDC4C2044617461204661696C65640D0A0062
S1134CEC44617461206E6F742072656164792079FB
S1134CFC65742E200D0A004D61676E65746F6D65C9
S1134D0C746572206E6F7420696E2053494E474C43
S1134D1C45204D4541535552454D454E54204D6FFC
S1134D2C64652E0D0A004661696C656420746F20FD
S1134D3C696E6974696174652053696E676C65206A
S1134D4C4D6561737572656D656E742E200D0A0068
S1134D5C4661696C656420746F2072656164204DD2
S1134D6C61676E65746F6D657465722044657669F0
S1134D7C636520496420412E200D0A004D61676E45
S1134D8C65746F6D6574657220446576696365201E
S1134D9C4964204120646F6573206E6F74206D61CB
S1134DAC74636820307825782E200D0A00466169DA
S1134DBC6C656420746F2072656164204D61676E4C
S1134DCC65746F6D657465722044657669636520DE
S1134DDC496420422E200D0A004D61676E65746F84
S1134DEC6D65746572204465766963652049642039
S1134DFC4220646F6573206E6F74206D61746368F8
S1134E0C20307825782E200D0A004661696C656483
S1134E1C20746F2072656164204D61676E65746FD8
S1134E2C6D657465722044657669636520496420F8
S1134E3C432E200D0A004D61676E65746F6D6574A9
S1134E4C6572204465766963652049642043206457
S1134E5C6F6573206E6F74206D6174636820307895
S1134E6C25782E200D0A004661696C656420746FE8
S1134E7C2070726F6772616D204D4F44452052450E
S1134E8C4720746F2073746F70206D656173757235
S1134E9C656D656E742E200D0A004661696C65643F
S1134EAC20746F2070726F6772616D20436F6E6631
S1134EBC696720526567204120746F2073746F708A
S1134ECC206D6561737572656D656E742E200D0AA7
S1134EDC0044657669636520494420436865636BC7
S1134EEC205061737365642E0D0A004661696C650C
S1134EFC6420746F2070726F6772616D204D4F4423
S1134F0C45205245472E200D0A004661696C6564A4
S1134F1C20746F2070726F6772616D20434F4E4620
S1134F2C49472052454720422E200D0A004661690C
S1134F3C6C656420746F2070726F6772616D2043AE
S1134F4C4F4E4649472052454720412E200D0A001A
S1134F5C546850756C7365203D2025662C20585080
S1134F6C756C7365203D2025662C205950756C7327
S1134F7C65203D2025662C2041636358203D202567
S1134F8C662C2041636359203D2025662C205854FF
S1134F9C696C74203D2025662C205954696C74204E
S10B4FAC3D2025660D0A0000FA
S9030000FC
