S00F00004C4344546573742E73726563A2
S113000045C0000061C000005FC000005DC000008A
S11300105BC0000059C0000057C0000055C000007C
S113002053C0000051C000004FC000004DC000008C
S11300304BC0000049C0000047C0000045C000009C
S113004043C0000041C000003FC000003DC00000AC
S11300503BC0000039C0000037C0000035C00000BC
S113006033C0000031C000002FC000002DC00000CC
S11300702BC0000029C0000027C0000025C00000DC
S113008023C0000021C000001FC0000011241FBEB7
S1130090CFEFD0E4DEBFCDBF13E0A0E0B1E0E4EDEC
S11300A0F0E100E00BBF02C007900D92AC3EB10737
S11300B0D9F723E0ACEEB3E001C01D92A53FB2072F
S11300C0E1F703D00C9468089BCFCF93DF931F9282
S11300D0CDB7DEB745E060E072E18AE790E00BD08F
S11300E08EEF8983CE01019643D480E090E00F9097
S11300F0DF91CF9108950F932091EC0321110CC04F
S11301004093F30300E120E835E2AB01BC0180E059
S113011062D481E08093EC030F910895FC01019077
S11301200020E9F731979F01281B390B40E050E08C
S1130130BC0180E096C408958F929F92AF92BF92C3
S1130140CF92DF92EF92FF920F931F93CF93DF939F
S1130150CDB7DEB7DA950FB6F894DEBF0FBECDBFCC
S1130160022F932EA42EB52EC62ED72EE82EF92EAE
S113017010E0812C202F392D4A2D5B2D6C2D7D2DE7
S11301808E2D9F2DAFE098D709F080F4E1E0F0E0E8
S1130190EC0FFD1FE10FF11D0083082D982CA82CF6
S11301A0B82CC82CD82CE82CF82C1BC0E1E0F0E0CB
S11301B0EC0FFD1FE10FF11D802F8F708083202F26
S11301C0392D4A2D5B2D6C2D7D2D8E2D9F2D04E018
S11301D057D7022F932EA42EB52EC62ED72EE82E37
S11301E0F92EE12FF0E0A1E0B0E0AC0FBD1FAE0F9F
S11301F0BF1F8C918A3020F0FD01895A808308C08A
S113020021E030E02C0F3D1FE20FF31F805D80835F
S11302101F5F202F392D4A2D5B2D6C2D7D2D8E2DAA
S11302209F2DA82D49D709F0A5CF112391F0612F57
S113023070E06150710981E090E08C0F9D1F680FA0
S1130240791F21E030E040E050E080E00AD4115012
S113025071F7D3950FB6F894DEBF0FBECDBFDF9113
S1130260CF911F910F91FF90EF90DF90CF90BF90AF
S1130270AF909F908F9008952F923F924F925F92EC
S11302806F927F928F929F92AF92BF92CF92DF92A2
S1130290EF92FF920F931F93CF93DF93CDB7DEB707
S11302A0C250D1400FB6F894DEBF0FBECDBFCF5FB2
S11302B0DE4F2883C150D140232E342E452E562E96
S11302C0672E782E892E912CCF5FDE4F2881C15066
S11302D0D140322D432D542D652D762D872D982D0B
S11302E0A9E0EAD609F040F4FE01E90DF11D822FE0
S11302F0805D8183939448C00F2EFAE0AF2EF02DD9
S1130300B12CC12CD12CE12CF12C00E010E0CF5FFA
S1130310DE4F2881C150D140322D432D542D652DFF
S1130320762D872D982D05D6CE5FDE4F2883C250BB
S1130330D140CF5FDE4F2881C150D140322D432DB3
S1130340542D652D762D872D982DF5D5CF5FDE4F55
S11303502883C150D140232E342E452E562E672E8D
S1130360782E892EE1E0F0E0EC0FFD1FE90DF11D80
S1130370CE5FDE4FA881C250D140A05DA08393948C
S1130380A0E09AD609F0A0CF992091F0692D70E0F1
S11303906150710981E090E08C0F9D1F680F791FF7
S11303A021E030E040E050E080E05BD39A9471F7C4
S11303B0CE5FDE4F0FB6F894DEBF0FBECDBFDF9128
S11303C0CF911F910F91FF90EF90DF90CF90BF904E
S11303D0AF909F908F907F906F905F904F903F90E1
S11303E02F9008952F923F924F925F926F927F9237
S11303F08F929F92AF92BF92CF92DF92EF92FF9231
S11304000F931F93CF93DF93CDB7DEB7C350D14083
S11304100FB6F894DEBF0FBECDBFCE5FDE4F28838C
S1130420C250D140832E742E652E562E472E382E60
S1130430292E8DE2CF5FDE4F8883C150D140832DBA
S1130440A0E03AD614F521E030E040E050E0BE01EF
S11304506F5F7E4F80E005D3CE5FDE4F2881C250B0
S1130460D140382D472D562D652D742D832D922D79
S1130470BED5CE5FDE4F2883C250D140832E742E6A
S1130480652E562E472E382E292E912CCE5FDE4F08
S11304902881C250D140382D472D562D652D742DFD
S11304A0832D922DA9E008D609F044F4FE01E90D4C
S11304B0F11D822F805D8183939448C00F2EFAE052
S11304C0AF2EF02DB12CC12CD12CE12CF12C00E05D
S11304D010E0CE5FDE4F2881C250D140382D472D29
S11304E0562D652D742D832D922DF8D4CD5FDE4FBE
S11304F02883C350D140CE5FDE4F2881C250D14003
S1130500382D472D562D652D742D832D922DE8D42D
S1130510CE5FDE4F2883C250D140832E742E652EC9
S1130520562E472E382E292EE1E0F0E0EC0FFD1F69
S1130530E90DF11DCD5FDE4FA881C350D140A05D10
S1130540A0839394A0E0B8D509F0A0CF992091F0AE
S1130550692D70E06150710981E090E08C0F9D1F5E
S1130560680F791F21E030E040E050E080E079D26C
S11305709A9471F7CD5FDE4F0FB6F894DEBF0FBECD
S1130580CDBFDF91CF911F910F91FF90EF90DF903E
S1130590CF90BF90AF909F908F907F906F905F901F
S11305A04F903F902F9008953F924F925F926F9299
S11305B07F928F929F92AF92BF92CF92DF92EF92EF
S11305C0FF920F931F93CF93DF931F92CDB7DEB7A4
S11305D00E891F898091EC03882309F416C1809148
S11305E0F3039D89892309F410C17E0128E1E20EF9
S11305F0F11CF8012081222309F407C1412CD12CDC
S113060033243394512C253229F0D11005C04110E4
S113061003C0EAC00F5F1F4FF80180818C3609F4D4
S1130620D6C028F4833669F08436E9F0E6C085370D
S113063009F45BC0883709F492C0833709F0DDC040
S1130640CBC05701F2E0AF0EB11CF7018081898362
S113065021E030E040E050E0BE016F5F7F4F852D28
S113066000D27501CAC0DD20D9F06701F4E0CF0ED5
S1130670D11CF70180819181A281B3814C015D017C
S1130680BB0C8808982C5401282F392F4A2F5B2F34
S1130690682D782D882D982DA5DE7601D52CADC03A
S11306A0442089F05701F8E0AF0EB11CF701208116
S11306B0318142815381648175818681978192DE83
S11306C07501452C9AC05701F2E0AF0EB11CF70139
S11306D031812081932F990F990B492F592F692F1D
S11306E0792F892F7FDE750188C0DD20B9F03701AD
S11306F0F4E06F0E711CF70180819181A281B381B6
S11307004C015D01282F392D4A2D5B2D652D752D4A
S1130710852D952DB1DD7301D52C6FC0442079F062
S1130720F701208188E0E80EF11C31814281538178
S113073064817581868197819FDD452C5EC0F701B8
S113074040815181E2E0EE0EF11C242F352F452D1E
S1130750552D652D752D852D952D8EDD4EC0DD20F5
S1130760A9F0F70180819181A281B381F4E0EF0EB9
S1130770F11C3C014D01282F372D482D592D652D95
S1130780752D852D952DD8DCD52C37C0442079F0D6
S1130790F701208188E0E80EF11C31814281538108
S11307A06481758186819781C7DC452C26C0F70159
S11307B040815181E2E0EE0EF11C242F352F452DAE
S11307C0552D652D752D852D952DB6DC16C0DD2096
S11307D099F0432CD52C11C0F70180819181F2E06E
S11307E0EF0EF11C9BDC09C021E030E040E050E05A
S11307F0B801852D36D101C0D32CC8010196F8016A
S11308002181222311F08C01FECE0F90DF91CF9134
S11308101F910F91FF90EF90DF90CF90BF90AF901A
S11308209F908F907F906F905F904F903F9008952E
S1130830EF92FF920F931F93CF93DF9300D0CDB726
S1130840DEB7F82EE42E8A8181708E648A839981C2
S1130850946060FB90F98091ED0380FB93F98F2DF8
S1130860807F9D70982B998300E09E012E5F3F4FFF
S113087041E050E060E070E0CE010196BAD2182F5A
S113088081110BC020E031E03F932F9381E08F93DF
S11308908BDE0F900F900F9020C0FF0CFF0CFF0C0D
S11308A0FF0C89818F70F82AF9820E2D9E012E5F2C
S11308B03F4F41E050E060E070E0CE01019699D2F4
S11308C0182F81110AC020E031E03F932F9381E07B
S11308D08F936ADE0F900F900F90812F0F900F90DF
S11308E0DF91CF911F910F91FF90EF900895809128
S11308F0EE03882329F041E060E081E099CF089578
S113090080E008958091EE03882329F041E060E0BF
S113091082E08ECF089580E008959091EE039923AC
S113092079F0811102C088E001C08CE0611182601D
S1130930411181602093ED0341E060E079CF089597
S113094080E00895811102C084E001C085E0611156
S1130950826041E060E06CCF0895811102C080E2C2
S113096001C088E26111846041E060E061CF0895D4
S11309701F93CF93DF93EC0140E050E060E070E020
S113098081E0D1D0182F882309F1888187FB2227A1
S113099020F984FB442740F983FB662760F982FB36
S11309A0882780F9BADF888186FB662760F985FB92
S11309B0882780F9D2DF8881682F617086958170DD
S11309C0C1DF95DF9FDF81E08093EE03812FDF910C
S11309D0CF911F910895CF92DF92EF92FF920F93E0
S11309E0882319F08130A9F035C01092C50083E343
S11309F08093C40088E98093C10086E08093C2009C
S1130A00083019F482E08093C00081E08093EF0302
S1130A1022C01092CD00029F6001039FD00C1124CC
S1130A20E12CF12CCB01BA01A701960135D221505A
S1130A3031092093CC0088E98093C90086E0809333
S1130A40CA00083019F482E08093C80081E08093E2
S1130A50F00301C080E00F91FF90EF90DF90CF9002
S1130A600895EF92FF921F93CF93DF937B01882326
S1130A7019F0813021F144C08091EF03882309F4F7
S1130A8043C0211531054105510509F444C080E0F6
S1130A9090E0DC01C0ECD0E066EC70E0188115FF5A
S1130AA0FDCFF70111917F01FB0110830196A11D78
S1130AB0B11D82179307A407B50781F72CC0809155
S1130AC0F003882329F1211531054105510519F158
S1130AD080E090E0DC01C8ECD0E06EEC70E01881BE
S1130AE015FFFDCFF70111917F01FB0110830196E2
S1130AF0A11DB11D82179307A407B50781F70BC089
S1130B0020E030E0A90107C020E030E0A90103C0E3
S1130B1020E030E0A901CA01B901DF91CF911F9112
S1130B20FF90EF900895811120C06115710589F03F
S1130B304115510571F0FB0180818093BA00FA01DF
S1130B4080818093BD0087B18C7F87B91092F403B4
S1130B5012C085E691E09F938F9381E08F9324DD0B
S1130B600F900F900F9080E0089581E08093F4033C
S1130B7087B1836087B980E28093B8001092B9008E
S1130B8084E48093BC001092F10381E08093F2032B
S1130B900895ECEBF0E080818F7580628083808122
S1130BA08068808380818823ECF7ECEBF0E080811F
S1130BB08F7580838091F103882341F09091B9006F
S1130BC0987F81E0903149F080E008959091B900D8
S1130BD0987F81E0983009F080E00895ECEBF0E034
S1130BE080818F768061808380818068808380812A
S1130BF084FFFDCF08958F929F92AF92BF92DF92B0
S1130C00EF92FF920F931F93CF93DF932091F403FE
S1130C10213029F40F2EF8E2DF2EF02D04C00F2E20
S1130C20F8EBDF2EF02D4A015B0121E0821A9108D6
S1130C30A108B10881149104A104B104E1F1DC011B
S1130C4000E010E098014BEB50E0ECEBF0E00F2EED
S1130C50F9EBEF2EF12CF02D6D2D70E08D91EA0162
S1130C60888380818068808380818823ECF7E70112
S1130C708881887F90E08617970799F08091B90062
S1130C80887F1F928F9384E891E09F938F9381E0F4
S1130C908F938ADC0F900F900F900F900F9080E04D
S1130CA03BC0CD010F5F1F4F2F4F3F4F0815190554
S1130CB02A053B0598F22091F403211104C00F2E5C
S1130CC0F0ECDF2EF02DFC0180818093BB00ECEB77
S1130CD0F0E080818068808380818823ECF7209114
S1130CE0B900287F30E08D2D90E02817390799F05E
S1130CF08091B900887F1F928F9384E891E09F933D
S1130D008F9381E08F9350DC0F900F900F900F9092
S1130D100F9080E001C081E0DF91CF911F910F918E
S1130D20FF90EF90DF90BF90AF909F908F900895C9
S1130D30AF92BF92CF92DF92EF92FF920F93CF9335
S1130D40DF935C016A017B01E90123DF811113C098
S1130D508091B900887F1F928F938AEB91E09F93D3
S1130D608F9381E08F9320DC0F900F900F900F9062
S1130D700F90C0E033C01092F10388818E7F888386
S1130D808093BB00ECEBF0E08081806880838081FD
S1130D908823ECF78091B900887F883199F080919D
S1130DA0B900887F1F928F9384E092E09F938F9382
S1130DB081E08F93F9DB0F900F900F900F900F90BD
S1130DC0C0E00CC0B701A601C50115DFC82F002380
S1130DD011F004DF03C081E08093F1038C2FDF91D5
S1130DE0CF910F91FF90EF90DF90CF90BF90AF9095
S1130DF008950F93E091F203EE2309F448C000979D
S1130E0009F447C0E091F403E13089F42115310578
S1130E1061F48BE592E09F938F9381E08F93C4DB21
S1130E200F900F900F9080E035C082DF33C0ECEB61
S1130E30F0E020812068208320812223ECF7209198
S1130E40B900287F203A41F4ECEBF0E020812068DF
S1130E50208320812223ECF72091B900287F283AAF
S1130E6091F08091B9001F928F938EE792E09F9347
S1130E708F9381E08F9398DB0F900F900F900F90DA
S1130E800F9080E007C0399AB6DE399803C080E03D
S1130E9001C080E00F910895A1E21A2EAA1BBB1B8A
S1130EA0FD010DC0AA1FBB1FEE1FFF1FA217B30732
S1130EB0E407F50720F0A21BB30BE40BF50B661F48
S1130EC0771F881F991F1A9469F76095709580950C
S1130ED090959B01AC01BD01CF010895689401C0B8
S1130EE0E894F92FF12B0AF027C0A0E0B0E0EAE77C
S1130EF0F7E093C0092E05941AF479D0112392F4E3
S1130F00F0E80F26FFEFE094F09400951095B0946C
S1130F10C094D094A194BF0ACF0ADF0AEF0AFF0A53
S1130F200F0B1F0B13D007FC62D0CDB7DEB7ECE07C
S1130F3090C0689401C0E8948F929F92CF93DF93FE
S1130F4005D0DF91CF919F908F90089588249924A4
S1130F50F401E401B0E49F93AA279A158B049C043E
S1130F60ED05FE05CF05D007A10798F4AD2FDC2FC2
S1130F70CF2FFE2FE92D982C892E982F872F762F8F
S1130F80652F542F432F322F2227B85031F7BF91AA
S1130F9027C01B2EBF91BB27220F331F441F551F91
S1130FA0661F771F881F991F881C991CEE1FFF1F3F
S1130FB0CC1FDD1FAA1FBB1F8A149B04EC05FD0573
S1130FC0CE05DF05A007B10748F08A189B08EC0995
S1130FD0FD09CE09DF09A00BB10B21601A94E1F6DB
S1130FE02EF49401AF01BE01CD01000C089560956B
S1130FF070958095909530954095509521953F4FEB
S11310004F4F5F4F6F4F7F4F8F4F9F4F08952F92DA
S11310103F924F925F926F927F928F929F92AF9284
S1131020BF92CF92DF92EF92FF920F931F93CF93D1
S1131030DF93CDB7DEB7CA1BDB0B0FB6F894DEBF68
S11310400FBECDBF09942A88398848885F846E848E
S11310507D848C849B84AA84B984C884DF80EE80D8
S1131060FD800C811B81AA81B981CE0FD11D0FB6E1
S1131070F894DEBF0FBECDBFED01089597FB10F8C5
S1131080169400080F93083098F00850232F342F3B
S1131090452F562F672F782F892F902DF4CF059445
S11310A0979587957795679557954795379527959C
S11310B00A95AAF70F9108950024A7FD00942A1712
S11310C030054005500560057005800590050895BC
S10710D0F894FFCFBE
S11310D44C434453656E64202D2054776920547224
S11310E4616E736D6974204661696C65640D0A00F0
S11310F44C434452656365697665202D20547769B1
S1131104205472616E736D6974204661696C656400
S11311140D0A004C434452656365697665202D20AD
S11311245477692052656365697665204661696C04
S113113465640D0A00496E6974545749202D204989
S11311446E76616C696420506172616D6574657258
S1131154730D0A005472616E736D6974202D2044FA
S1131164617461205472616E736D697373696F6E17
S1131174204661696C6564202D2053746174757311
S1131184203D20307825780D0A005477694D617329
S11311947465725472616E736D6974202D20537476
S11311A461727420436F6E646974696F6E20547243
S11311B4616E736D697373696F6E204661696C65E2
S11311C464202D20537461747573203D2030782578
S11311D4780D0A005477694D6173746572547261B1
S11311E46E736D6974202D20536C6176652041649F
S11311F4647265737320616E642057726974652028
S1131204466C6167205472616E736D697373696FA0
S11312146E204661696C6564202D20537461747575
S113122473203D20307825780D0A00547769547270
S1131234616E736D6974202D20496E76616C6964E6
S113124420506172616D65746572730D0A00547780
S1131254695472616E736D6974202D20536C6176C8
S1131264652052656164204E6F7420526571756502
S113127473746564206279204D6173746572202DE2
S113128420307825780D0A005265636569766520F7
S11312942D204461746120526563657074696F6EB6
S11312A4204661696C6564202D20537461747573E0
S11312B4203D20307825780D0A005477694D6173F8
S11312C474657252656365697665202D2053746173
S11312D4727420436F6E646974696F6E2054726112
S11312E46E736D697373696F6E204661696C6564AE
S11312F4202D20537461747573203D203078257833
S11313040D0A005477694D6173746572526563659F
S1131314697665202D20536C61766520416464727E
S113132465737320616E64205265616420466C6148
S113133467205472616E736D697373696F6E2046AE
S113134461696C6564202D20537461747573203D48
S113135420307825780D0A005477695265636569ED
S11313647665202D20496E76616C69642050617223
S1131374616D65746572730D0A005477695265630F
S113138465697665202D20536C61766520577269F2
S11313947465204E6F742052657175657374656449
S11313A4206279204D6173746572202D2053746119
S10F13B474757320307825780D0A000051
S9030000FC
