:100000005BC0000077C0000075C0000073C0000036
:1000100071C000006FC000006DC000006BC0000028
:1000200069C0000067C0000065C0000054C1000046
:1000300061C000005FC000005DC000005BC0000048
:1000400031C3000057C0000055C0000053C000007D
:1000500038C300004FC0000098C300004BC0000030
:1000600049C0000047C0000045C0000043C0000078
:100070005AC300003FC00000BAC300003BC00000EC
:1000800039C0000037C0000035C0000062077407A7
:100090004B0837084B084B084B084B084B082A08FD
:1000A0004B084B084B084B084B084B082F084B08D4
:1000B000B6074B084B08F20711241FBECFEFD0E460
:1000C000DEBFCDBF11E0A0E0B1E0E6E4F7E100E083
:1000D0000BBF02C007900D92AE37B107D9F721E0F0
:1000E000AEE7B1E001C01D92A639B207E1F717D023
:1000F0000C94A10B85CF579A81EC8093B00086E0D9
:100100008093B10081E08093700090910001909500
:100110009093B3001092B20080937E0108956F9285
:100120007F928F929F92AF92BF92CF92DF92EF9287
:10013000FF920F931F93CF93DF931F92CDB7DEB73C
:1001400045E060E072E18AE790E083D38BE391E0E1
:100150009F938F9314E01F9370D681E091E09F935B
:100160008F931F936AD6C7DF789440E063E370E013
:1001700081E0CFD00F900F900F900F900F900F90C5
:10018000882309F48CC087B1806F87B985E391E03B
:100190009F938F9384E08F9350D60F900F900F9082
:1001A0000F2EFDE5EF2EF1E0FF2EF02D6894BB241D
:1001B000B2F80F2EF2E26F2EF02D0F2EFCE6CF2EAE
:1001C000F1E0DF2EF02D0F2EF0EA8F2EF02D0F2E06
:1001D000F0E59F2EF02D0F2EF7E1AF2EF02D0F2E14
:1001E000FCE07F2EF02D04E411E021E030E040E05F
:1001F00050E0BE016F5F7F4F81E04FD261307105EB
:100200008105910549F01F930F9381E08F9315D6D7
:100210000F900F900F90E9CF89811F928F93FF92DB
:10022000EF92BF920AD60F900F900F900F900F9001
:1002300089818333D1F028F4813349F0823351F03E
:1002400025C08533F9F0E0F08633F1F01FC0A092AD
:100250000001CBCF809100018D3020F08150809340
:100260000001C3CF70920001C0CF809100018232A3
:1002700020F48F5F80930001B8CF60920001B5CF6A
:1002800098B8B3CF88B8B1CF18B8AFCFDF92CF92BC
:1002900081E08F93D2D50F900F900F90A6CF85E17C
:1002A00091E09F938F9381E08F93C7D580E090E09A
:1002B0000F900F900F900F90DF91CF911F910F91A2
:1002C000FF90EF90DF90CF90BF90AF909F908F9076
:1002D0007F906F9008951F920F920FB60F92112486
:1002E0008F9380917E01882329F080910001809571
:1002F0008093B3008F910F900FBE0F901F901895B1
:1003000082E084BD15BC16BC17BC18BC80936E007F
:100310000895CF93E82FF0E0E158FE4F4083882303
:1003200019F08130C9F030C07093C5006093C400EB
:1003300088E98093C100413039F486E08093C2009F
:1003400081E08093C00003C086E08093C20081E01A
:1003500080938101C1E019C07093CD006093CC00FF
:1003600088E98093C900413039F486E08093CA005F
:1003700081E08093C80003C086E08093CA0081E0DA
:1003800080938201C1E001C0C0E0BADF8C2FCF9121
:100390000895AF92BF92CF92DF92EF92FF920F93A8
:1003A0001F93CF93DF935B01882319F08130C1F154
:1003B00073C080918101882309F472C02115310531
:1003C0004105510509F473C0C12CD12C7601E0EC34
:1003D000F0E08FE791E061EC70E0C6ECD0E01081D6
:1003E00015FFFDCFDC011C91112359F0002329F0EA
:1003F000DB011C9111601C9304C0DB011C911E7F6A
:100400001C93D5011D915D011883BFEFCB1ADB0A48
:10041000EB0AFB0AC216D306E406F50601F747C04D
:1004200080918201882309F43FC0211531054105DF
:100430005105E9F180E090E0DC01E8ECF0E00F2EFE
:10044000F0E8EF2EF1E0FF2EF02D0F2EF9ECCF2E7D
:10045000D12CF02D6EEC70E0108115FFFDCFE7017F
:100460001881112359F0002329F0E6011881116049
:10047000188304C0E60118811E7F1883E5011991D5
:100480005E01EB0118830196A11DB11D8217930730
:10049000A407B50709F70BC020E030E0A90107C0A9
:1004A00020E030E0A90103C020E030E0A901CA014A
:1004B000B901DF91CF911F910F91FF90EF90DF90E5
:1004C000CF90BF90AF9008950F9300E062DF0F913F
:1004D00008952F923F924F925F926F927F928F92E8
:1004E0009F92AF92BF92CF92DF92EF92FF920F93C3
:1004F0001F93CF93DF931B0149015A01013208F08A
:10050000A0C0882321F0813009F44EC09EC08091A4
:100510008101882309F49DC021153105410551054C
:1005200009F49BC0C12CD12C7601C0ECD0E015E0C1
:10053000402E512C612C712C0023D1F0109294018B
:1005400015BDC301B2019CD62AE939E949EF50E44F
:1005500095D75FD667BD16BC9091940104C09923CE
:1005600011F015BC85C088818823CCF715BC03C069
:1005700088818823ECF7EFE7F1E08081882319F088
:10058000E1ECF0E08081E6ECF0E08081F101819324
:100590001F01FFEFCF1ADF0AEF0AFF0AC814D904C0
:1005A000EA04FB0449F664C080918201882309F4BF
:1005B00058C0211531054105510509F456C0C12C1B
:1005C000D12C7601C8ECD0E015E0402E512C612CE6
:1005D000712C0023D1F01092940115BDC301B2011A
:1005E0004FD62AE939E949EF50E448D712D667BD1A
:1005F00016BC9091940104C0992311F015BC38C029
:1006000088818823CCF715BC03C088818823ECF748
:10061000E0E8F1E08081882319F0E9ECF0E08081E6
:10062000EEECF0E08081F10181931F01FFEFCF1A22
:10063000DF0AEF0AFF0AC814D904EA04FB0449F6EA
:1006400017C0C12CD12C760113C0C12CD12C76013E
:100650000FC0C12CD12C76010BC0C12CD12C76013E
:1006600007C0C12CD12C760103C0C12CD12C76013E
:10067000C701B601DF91CF911F910F91FF90EF90CD
:10068000DF90CF90BF90AF909F908F907F906F90B2
:100690005F904F903F902F9008950F9300E019DFE7
:1006A0000F9108951F920F920FB60F9211248F93FE
:1006B00081E0809394018F910F900FBE0F901F9057
:1006C00018951F920F920FB60F9211240BB60F922E
:1006D0002F933F934F935F936F937F938F939F934A
:1006E000AF93BF93EF93FF93E0918401F091850165
:1006F000309731F0609190017091910180E00995FF
:10070000FF91EF91BF91AF919F918F917F916F91E9
:100710005F914F913F912F910F900BBE0F900FBEA5
:100720000F901F9018951F920F920FB60F921124E1
:100730000BB60F922F933F934F935F936F937F93DB
:100740008F939F93AF93BF93EF93FF93E0918A01B1
:10075000F0918B01309731F060918801709189019F
:1007600081E00995FF91EF91BF91AF919F918F919A
:100770007F916F915F914F913F912F910F900BBEA1
:100780000F900FBE0F901F9018951F920F920FB6EB
:100790000F9211240BB60F922F933F934F935F93B9
:1007A0006F937F938F939F93AF93BF93EF93FF9339
:1007B000E0918601F0918701309731F060918E01D0
:1007C00070918F0180E00995FF91EF91BF91AF91FA
:1007D0009F918F917F916F915F914F913F912F9159
:1007E0000F900BBE0F900FBE0F901F9018951F9289
:1007F0000F920FB60F9211240BB60F922F933F93C7
:100800004F935F936F937F938F939F93AF93BF9318
:10081000EF93FF93E0918C01F0918D01309731F0CF
:10082000609192017091930181E00995FF91EF91A0
:10083000BF91AF919F918F917F916F915F914F91F8
:100840003F912F910F900BBE0F900FBE0F901F90F6
:10085000189580918301811109C04093950140E072
:1008600063E370E056DD81E0809383010895FC012D
:1008700001900020E9F731979F01281B390B40E0D8
:1008800050E0BC0180E020CE08958F929F92AF92FD
:10089000BF92CF92DF92EF92FF920F931F93CF936D
:1008A000DF93CDB7DEB7DA950FB6F894DEBF0FBE93
:1008B000CDBF022F932EA42EB52EC62ED72EE82EF6
:1008C000F92E10E0812C202F392D4A2D5B2D6C2D17
:1008D0007D2D8E2D9F2DAFE028D709F080F4E1E02B
:1008E000F0E0EC0FFD1FE10FF11D0083082D982CA7
:1008F000A82CB82CC82CD82CE82CF82C1BC0E1E074
:10090000F0E0EC0FFD1FE10FF11D802F8F70808351
:10091000202F392D4A2D5B2D6C2D7D2D8E2D9F2D59
:1009200004E0E7D6022F932EA42EB52EC62ED72E86
:10093000E82EF92EE12FF0E0A1E0B0E0AC0FBD1FF2
:10094000AE0FBF1F8C918A3020F0FD01895A808341
:1009500008C021E030E02C0F3D1FE20FF31F805D47
:1009600080831F5F202F392D4A2D5B2D6C2D7D2D0F
:100970008E2D9F2DA82DD9D609F0A5CF112391F04A
:10098000612F70E06150710981E090E08C0F9D1F34
:10099000680F791F21E030E040E050E080E094DD16
:1009A000115071F7D3950FB6F894DEBF0FBECDBFCF
:1009B000DF91CF911F910F91FF90EF90DF90CF903B
:1009C000BF90AF909F908F9008952F923F924F923B
:1009D0005F926F927F928F929F92AF92BF92CF92CF
:1009E000DF92EF92FF920F931F93CF93DF93CDB7D8
:1009F000DEB7C250D1400FB6F894DEBF0FBECDBFF8
:100A0000CF5FDE4F2883C150D140232E342E452E98
:100A1000562E672E782E892E912CCF5FDE4F28819F
:100A2000C150D140322D432D542D652D762D872D6B
:100A3000982DA9E07AD609F040F4FE01E90DF11DE8
:100A4000822F805D8183939448C00F2EFAE0AF2EF1
:100A5000F02DB12CC12CD12CE12CF12C00E010E0B8
:100A6000CF5FDE4F2881C150D140322D432D542D10
:100A7000652D762D872D982D95D5CE5FDE4F288359
:100A8000C250D140CF5FDE4F2881C150D140322DBE
:100A9000432D542D652D762D872D982D85D5CF5F2F
:100AA000DE4F2883C150D140232E342E452E562EA2
:100AB000672E782E892EE1E0F0E0EC0FFD1FE90DA6
:100AC000F11DCE5FDE4FA881C250D140A05DA08352
:100AD0009394A0E02AD609F0A0CF992091F0692D37
:100AE00070E06150710981E090E08C0F9D1F680FEC
:100AF000791F21E030E040E050E080E0E5DC9A94AE
:100B000071F7CE5FDE4F0FB6F894DEBF0FBECDBFDC
:100B1000DF91CF911F910F91FF90EF90DF90CF90D9
:100B2000BF90AF909F908F907F906F905F904F900D
:100B30003F902F9008956F927F928F929F92AF92E5
:100B4000BF92CF92DF92EF92FF920F931F93CF93BA
:100B5000DF9300D01F92CDB7DEB76B017C018EE230
:100B60008A838DE28B8320E030E0A901C701B601C2
:100B700012D388236CF421E030E040E050E0BE0165
:100B80006D5F7F4F80E0A0DCF7FAF094F7F8F09407
:100B9000C701B60104D3622E732E842E952EA62E85
:100BA000B72E082F192F66D39B01AC01C701B601E0
:100BB0008DD26B017C01262D372D482D592D6A2DA4
:100BC0007B2D802F912F01DF21E030E040E050E0CD
:100BD000BE016E5F7F4F80E077DC20E030E0A9014E
:100BE000C701B601D8D2882349F120E030E040E2C5
:100BF00051E4C701B60142D46B017C010FD3162F1B
:100C000070E080E090E03CD39B01AC01C701B601ED
:100C10005DD26B017C01105D198321E030E040E082
:100C200050E0BE016F5F7F4F80E04EDC20E030E09F
:100C3000A901C701B601AFD28111D7CF80E3898363
:100C400021E030E040E050E0BE016F5F7F4F80E088
:100C50003BDC0F900F900F90DF91CF911F910F9180
:100C6000FF90EF90DF90CF90BF90AF909F908F90CC
:100C70007F906F9008952F923F924F925F926F9264
:100C80007F928F929F92AF92BF92CF92DF92EF921C
:100C9000FF920F931F93CF93DF93CDB7DEB7C3506F
:100CA000D1400FB6F894DEBF0FBECDBFCE5FDE4F92
:100CB0002883C250D140832E742E652E562E472E87
:100CC000382E292E8DE2CF5FDE4F8883C150D14070
:100CD000832DA0E02AD514F521E030E040E050E07B
:100CE000BE016F5F7E4F80E0EFDBCE5FDE4F28817D
:100CF000C250D140382D472D562D652D742D832D92
:100D0000922DAED4CE5FDE4F2883C250D140832EC9
:100D1000742E652E562E472E382E292E912CCE5FFE
:100D2000DE4F2881C250D140382D472D562D652DDC
:100D3000742D832D922DA9E0F8D409F044F4FE011E
:100D4000E90DF11D822F805D8183939448C00F2EA1
:100D5000FAE0AF2EF02DB12CC12CD12CE12CF12CCE
:100D600000E010E0CE5FDE4F2881C250D140382D28
:100D7000472D562D652D742D832D922DE8D3CD5FF3
:100D8000DE4F2883C350D140CE5FDE4F2881C25052
:100D9000D140382D472D562D652D742D832D922D44
:100DA000D8D3CE5FDE4F2883C250D140832E742E1D
:100DB000652E562E472E382E292EE1E0F0E0EC0F5E
:100DC000FD1FE90DF11DCD5FDE4FA881C350D1405D
:100DD000A05DA0839394A0E0A8D409F0A0CF9920AF
:100DE00091F0692D70E06150710981E090E08C0F05
:100DF0009D1F680F791F21E030E040E050E080E067
:100E000063DB9A9471F7CD5FDE4F0FB6F894DEBFC7
:100E10000FBECDBFDF91CF911F910F91FF90EF904B
:100E2000DF90CF90BF90AF909F908F907F906F900A
:100E30005F904F903F902F9008953F924F925F9216
:100E40006F927F928F929F92AF92BF92CF92DF92DA
:100E5000EF92FF920F931F93CF93DF931F92CDB723
:100E6000DEB70E891F8980918301882309F41BC195
:100E7000809195019D89892309F415C17E0128E19E
:100E8000E20EF11CF8012081222309F40CC1412C4F
:100E9000D12C512C33243394253229F0D11005C0A4
:100EA000411003C0EFC00F5F1F4FF801808190E039
:100EB000FC01E356F109E631F10508F0ECC0EA5B0C
:100EC000FF4F3FC35701F2E0AF0EB11CF701808125
:100ED000898321E030E040E050E0BE016F5F7F4F4A
:100EE000852DF2DA7501D7C0DD20D9F06701F4E075
:100EF000CF0ED11CF70180819181A281B3814C0179
:100F00005D01BB0C8808982C5401282F392F4A2FDB
:100F10005B2F682D782D882D982DADDE7601D52C90
:100F2000BAC0442089F05701F8E0AF0EB11CF701B8
:100F300020813181428153816481758186819781CD
:100F40009ADE7501452CA7C05701F2E0AF0EB11C27
:100F5000F70131812081932F990F990B492F592F38
:100F6000692F792F892F87DE750195C0DD20B9F0B3
:100F70003701F4E06F0E711CF70180819181A2812D
:100F8000B3814C015D01282F392D4A2D5B2D652D34
:100F9000752D852D952D19DD7301D52C7CC0442030
:100FA00089F05701F8E0AF0EB11CF70120813181C3
:100FB00042815381648175818681978106DD750147
:100FC000452C69C0F70140815181F2E0EF0EF11C20
:100FD000242F352F452D552D652D752D852D952DBE
:100FE000F4DC59C0DD20A9F0F70180819181A28154
:100FF000B38124E0E20EF11C3C014D01282F372D76
:10100000482D592D652D752D852D952D3EDCD52C22
:1010100042C0442079F0F701208188E0E80EF11CFD
:1010200031814281538164817581868197812DDC74
:10103000452C31C0F70140815181E2E0EE0EF11CF8
:10104000242F352F452D552D652D752D852D952D4D
:101050001CDC21C0DD20F1F0432CD52C1CC0F70195
:1010600080819181F2E0EF0EF11C01DC14C0F701E8
:10107000608171818281938124E0E20EF11C5BDD4D
:10108000D52C09C021E030E040E050E0B801852DCA
:101090001BDA01C0D32CC8010196F801218122235B
:1010A00011F08C01F9CE0F90DF91CF911F910F912C
:1010B000FF90EF90DF90CF90BF90AF909F908F9078
:1010C0007F906F905F904F903F9008955058BB274E
:1010D000AA270ED099C18AD130F08FD120F031F4F7
:1010E0009F3F11F41EF46FC10EF4E095E7FB65C15C
:1010F000E92F9BD180F3BA1762077307840795071E
:1011000018F071F49EF5B3C10EF4E0950B2EBA2FD2
:10111000A02D0B01B90190010C01CA01A0011124FD
:10112000FF27591B99F0593F50F4503E68F11A16A9
:10113000F040A22F232F342F4427585FF3CF46953A
:1011400037952795A795F0405395C9F77EF41F165C
:10115000BA0B620B730B840BBAF09150A1F0FF0F26
:10116000BB1F661F771F881FC2F70EC0BA0F621F12
:10117000731F841F48F4879577956795B795F79502
:101180009E3F08F0B3CF9395880F08F09927EE0F94
:10119000979587950895EDD008F481E00895BEE312
:1011A00004D008F490E80895BFE322273327A9016B
:1011B00044D158F19F5740F1B91738F1BFE3B91B3B
:1011C0009927B8503AF4660F771F881F991FB39577
:1011D000D2F316C0B8504AF0232F342F452F562F84
:1011E000672F782F8827B850BAF7B85F49F08695EF
:1011F000779567955795479537952795BA95B9F798
:101200000EF4E4D088940895889460E070E0CB01F7
:10121000089504D06894B1112BC108950ED188F0BF
:101220009F5790F0B92F9927B751A0F0D1F0660FD2
:10123000771F881F991F1AF0BA95C9F712C0B130ED
:1012400081F015D1B1E0089512C1672F782F88275A
:10125000B85F39F0B93FCCF3869577956795B3952C
:10126000D9F73EF490958095709561957F4F8F4F9B
:101270009F4F089597FB0EF4A9D03EC0E89409C093
:1012800097FB3EF490958095709561957F4F8F4FB9
:101290009F4F9923A9F0F92F96E9BB279395F695CF
:1012A000879577956795B795F111F8CFFAF4BB0F4D
:1012B00011F460FF1BC06F5F7F4F8F4F9F4F16C0B1
:1012C000882311F096E911C0772321F09EE8872F3B
:1012D000762F05C0662371F096E8862F70E060E0F7
:1012E0002AF09A95660F771F881FDAF7880F969570
:1012F000879597F90895E894F92F96EBFF2381F0ED
:10130000121613061406440B9395F6958795779558
:10131000679557954040FF23B9F71BC0992708955B
:10132000882351F49850D2F7872B762F652F542FAE
:10133000432F322F20E0B1F3121613061406440B8C
:1013400088233AF09A95440F551F661F771F881F10
:10135000CAF755234AF4440F551F11F460FF04C027
:101360006F5F7F4F8F4F9F4F880F9695879597F9A7
:101370000895990F0008550FAA0BE0E8FEEF161626
:101380001706E807F907C0F012161306E407F50779
:1013900098F0621B730B840B950B39F40A2661F0ED
:1013A000232B242B252B21F408950A2609F4A14090
:1013B000A6958FEF811D811D089597F99F6780E89D
:1013C00070E060E008959FEF80EC0895909580951F
:1013D0007095609550954095309521953F4F4F4FB2
:1013E0005F4F6F4F7F4F8F4F9F4F089500240A9498
:1013F0001616170618060906089500240A941216F0
:101400001306140605060895092E0394000C11F422
:10141000882352F0BB0F40F4BF2B11F460FF04C0CF
:101420006F5F7F4F8F4F9F4F089557FD9058440F28
:10143000551F59F05F3F71F04795880F97FB991F33
:1014400061F09F3F79F087950895121613061406F0
:10145000551FF2CF4695F1DF08C01616170618067D
:10146000991FF1CF86957105610508940895E89458
:10147000BB2766277727CB0197F908950BD0C4CFF8
:10148000B5DF28F0BADF18F0952309F096CF9BCF8F
:101490001124EECFCADFA0F3959FD1F3950F50E052
:1014A000551F629FF001729FBB27F00DB11D639F16
:1014B000AA27F00DB11DAA1F649F6627B00DA11DBC
:1014C000661F829F2227B00DA11D621F739FB00D62
:1014D000A11D621F839FA00D611D221F749F3327D2
:1014E000A00D611D231F849F600D211D822F762F6B
:1014F0006A2F11249F5750408AF0E1F088234AF068
:10150000EE0FFF1FBB1F661F771F881F91505040B3
:10151000A9F79E3F510570F050CFAACF5F3FECF383
:10152000983EDCF3869577956795B795F795E7959F
:101530009F5FC1F7FE2B880F911D9695879597F9B0
:101540000895EE0FFF1F0590F491E02D0994689423
:1015500001C0E894F92FF12B0AF027C0A0E0B0E019
:10156000E3EBFAE093C0092E05941AF479D0112325
:1015700092F4F0E80F26FFEFE094F09400951095B8
:10158000B094C094D094A194BF0ACF0ADF0AEF0AA6
:10159000FF0A0F0B1F0B13D007FC62D0CDB7DEB7CD
:1015A000ECE090C0689401C0E8948F929F92CF9332
:1015B000DF9305D0DF91CF919F908F90089588247D
:1015C0009924F401E401B0E49F93AA279A158B04AF
:1015D0009C04ED05FE05CF05D007A10798F4AD2FBB
:1015E000DC2FCF2FFE2FE92D982C892E982F872FB7
:1015F000762F652F542F432F322F2227B85031F7E3
:10160000BF9127C01B2EBF91BB27220F331F441F42
:10161000551F661F771F881F991F881C991CEE1F76
:10162000FF1FCC1FDD1FAA1FBB1F8A149B04EC05E4
:10163000FD05CE05DF05A007B10748F08A189B0815
:10164000EC09FD09CE09DF09A00BB10B21601A944A
:10165000E1F62EF49401AF01BE01CD01000C089516
:101660006095709580959095309540955095219511
:101670003F4F4F4F5F4F6F4F7F4F8F4F9F4F08959B
:101680002F923F924F925F926F927F928F929F9292
:10169000AF92BF92CF92DF92EF92FF920F931F9380
:1016A000CF93DF93CDB7DEB7CA1BDB0B0FB6F89431
:1016B000DEBF0FBECDBF09942A88398848885F8471
:1016C0006E847D848C849B84AA84B984C884DF80E2
:1016D000EE80FD800C811B81AA81B981CE0FD11DC6
:1016E0000FB6F894DEBF0FBECDBFED01089597FB96
:1016F00010F8169400080F93083098F00850232F24
:10170000342F452F562F672F782F892F902DF4CF08
:10171000059497958795779567955795479537954C
:1017200027950A95AAF70F9108950024A7FD009424
:101730002A173005400550056005700580059005A5
:061740000895F894FFCFAC
:10174600172D2D2D2D2D2D2D2D2D2D2D2D2D2D2DD9
:101756002D2D0D0A005541525420303120496E6915
:101766007469616C697A6174696F6E206661696C0F
:1017760065640D0A00447269766520524320436110
:10178600720D0A00496E76616C696420436F6D6D57
:10179600616E64204C656E6774680D0A00436F6D58
:1017A6006D616E64203D2025640D0A00496E7661E8
:0E17B6006C696420436F6D6D616E640D0A00F6
:00000001FF
