:100000005BC000000C9480110C94B3110C94E611A9
:1000100071C000006FC000006DC000006BC0000028
:1000200069C0000067C0000065C0000063C0000038
:1000300061C000005FC000005DC000005BC0000048
:100040000C94021557C0000055C0000053C00000BA
:100050000C9411154FC000000C9475154BC0000096
:1000600049C0000047C0000045C0000043C0000078
:100070000C9443153FC000000C94A7153BC0000032
:1000800039C0000037C0000035C000009D09B0092C
:10009000880A730A880A880A880A880A880A660A07
:1000A000880A880A880A880A880A880A6B0A880ADD
:1000B000F209880A880A2E0A11241FBECFEFD0E465
:1000C000DEBFCDBF1BE0A0E0B1E0E8E2FFE200E070
:1000D0000BBF02C007900D92AC33B107D9F72BE0EC
:1000E000ACE3BBE001C01D92A03BB207E1F7FED23A
:1000F0000C94921785CF81E080933C0B0895CF93A9
:10010000DF9300D000D01F92CDB7DEB71A821982DC
:1001100085E48F7789838EE48D8380E18C8382E010
:100120008B83CE0101960E94760C0F900F900F905A
:100130000F900F90DF91CF9108950F93CF93DF939E
:1001400000D000D0CDB7DEB701E020E030E04BE7D3
:1001500050E062E080E00E94DE1089818E7F89831A
:100160001A821B8287E08C83CE0101960E94A30A2B
:100170000F900F900F900F90DF91CF910F910895F6
:10018000CF93DF93CDB7DEB7A1970FB6F894DEBF5C
:100190000FBECDBF81E0898389A31F82188619868F
:1001A00080EE8A8380ED8B8380EC8C8380EB8D8363
:1001B00080EA8E831F86188A198A88E78A878B8748
:1001C0008C878D878E878FE08A8B8B8B8EE68C8BCE
:1001D0001E8A1D8A1A8E198E1E8E1D8E188E1F8ADB
:1001E00018A21F8E1C8E1B8ECE0101960E94750ECA
:1001F000A1960FB6F894DEBF0FBECDBFDF91CF91B1
:100200000895CF93DF9300D0CDB7DEB71A8219825D
:10021000BE016F5F7F4F80E00E94C00ABE016F5F2A
:100220007F4F80E00E94C00A89819A81009719F06F
:100230008B3F934069F70F900F90DF91CF91089516
:100240001F93CF93DF9300D01F92CDB7DEB71A82F2
:1002500019820E94D00F8823E1F3CE0103960E94F9
:10026000AB0D8B818F73823069F080E091E09F93BA
:100270008F9381E08F930E9457090F900F900F90FA
:1002800010E038C0BE016D5F7F4FCE0101960E9425
:10029000EF0D182F81110CC028E231E03F932F930E
:1002A00081E08F930E9457090F900F900F9022C00A
:1002B00089819A818D3F934061F080E591E09F9321
:1002C0008F9381E08F93F3D70F900F900F9010E0F2
:1002D00011C083E08F938DEF8F938BE791E09F9315
:1002E0008F9384E08F93E3D70F900F900F900F9030
:1002F0000F9011E0812F0F900F900F90DF91CF9111
:100300001F9108951F93CF93DF9300D01F92CDB715
:10031000DEB78CEF93E09A83898382E08B838EE94A
:1003200091E09F938F9381E08F93C1D7BE016D5F62
:100330007F4FCE0101960E94F70F182F0F900F905C
:100340000F9081110BC020EC31E03F932F9381E09F
:100350008F93ADD70F900F900F900CC089EE91E066
:100360009F938F9381E08F93A2D76ADF182F0F900E
:100370000F900F90812F0F900F900F90DF91CF91E2
:100380001F910895CF92DF92EF92FF92CF93DF9368
:100390006B017C01EA01233008F4DEC020E030E08C
:1003A000A90185D288230CF4D9C020E030E044EBC9
:1003B00053E4C701B601A3D218160CF4D1C020E053
:1003C00030E0A901C701B6019AD288237CF020E071
:1003D00030E040E751E4C701B60169D2181634F0A5
:1003E0008EE490E09983888381E0BBC020E030E018
:1003F00040E751E4C701B60182D218168CF420E020
:1004000030E046E952E4C701B60151D2181644F073
:100410008EE495E4A0E088839983AA8381E0A1C05B
:1004200020E030E046E952E4C701B60168D2181670
:100430007CF420E030E042ED52E4C701B60137D24F
:10044000181634F085E490E09983888381E089C0B0
:1004500020E030E042ED52E4C701B60150D2181658
:100460008CF420E030E045E253E4C701B6011FD22E
:10047000181644F083E595E4A0E088839983AA8365
:1004800081E06FC020E030E045E253E4C701B601EF
:1004900036D218167CF420E030E043E453E4C70180
:1004A000B60105D2181634F083E590E0998388836D
:1004B00081E057C020E030E043E453E4C701B601D7
:1004C0001ED218168CF420E030E04FE753E4C70149
:1004D000B601EDD1181644F083E597E5A0E08883D6
:1004E0009983AA8381E03DC020E030E04FE753E4E8
:1004F000C701B60104D218167CF420E030E84EE8BB
:1005000053E4C701B601D3D1181634F087E590E063
:100510009983888381E025C020E030E84EE853E4E9
:10052000C701B601ECD118168CF420E030E84CEA93
:1005300053E4C701B601BBD1181644F08EE497E529
:10054000A0E088839983AA8381E00BC08EE490E0C9
:100550009983888381E005C080E003C080E001C00A
:1005600080E0DF91CF91FF90EF90DF90CF900895E2
:10057000CF93DF9300D01F92CDB7DEB70E947B0BE5
:1005800060E080E00E94940B6091660B7091670BB5
:100590008091680B9091690B23E0AE014F5F5F4F34
:1005A000F1DE8091690B8F938091680B8F9380911E
:1005B000670B8F938091660B8F938BE092E09F93F4
:1005C0008F9384E08F9373D683E292E00E94DA0BDC
:1005D00060E081E00E94940BCE0101960E94DA0B4C
:1005E0000FB6F894DEBF0FBECDBF0F900F900F90E7
:1005F000DF91CF910895CF93DF93CDB7DEB7A99761
:100600000FB6F894DEBF0FBECDBF88E08983198690
:1006100018868E010E5F1F4FA02EB12E0E5F1F4F4A
:100620000F2EF8E2CF2EF1E0DF2EF02D0F2EF0E0AE
:10063000EF2EF1E0FF2EF02D6A2D7B2D80E0A0D76C
:100640006A2D7B2D80E09CD7B80181E099D7B80155
:1006500081E096D7BE016A5F7F4F82E091D7BE01ED
:100660006A5F7F4F82E08CD7BE016F5F7F4F8A2D1C
:100670009B2D0E94F70F0E94D00F8823E9F2CE0134
:1006800001960E94AB0D8981837081F0FF92EF92F9
:1006900081E08F930CD6BE016F5F7F4FCE010A962B
:1006A0000E94EF0D0F900F900F90C6CFBE016F5FAD
:1006B0007F4FCE010A960E94EF0D811109C0DF9293
:1006C000CF9281E08F93F3D50F900F900F90B4CF1E
:1006D0004A855B856C857D854093660B5093670BDF
:1006E0006093680B7093690B43DFA6CFCF9345E00F
:1006F00060E072E18AE790E0C8D28DE292E09F93D9
:100700008F93C4E0CF93D3D581E492E09F938F93EE
:10071000CF93CDD50E94C71040E050E060E070E07C
:1007200081E0F1D00F900F900F900F900F900F90ED
:1007300081110BC085E592E09F938F9381E08F93A9
:10074000B6D50F900F900F90AEC0D9DC81110BC0C1
:1007500088E792E09F938F9381E08F93A8D50F90C5
:100760000F900F90A0C0C7D760E080E0DDD78FE981
:1007700092E00E94DA0B2FEF89E698E12150804049
:100780009040E1F700C00000B6D760E080E0CCD731
:1007900089EA92E00E94DA0BD0DC811112C089EB69
:1007A00092E09F938F9381E08F9381D5A4D760E0EF
:1007B00080E0BAD789EE92E0FDD70F900F900F90AE
:1007C00072C0DEDC8AEF92E09F938F93C4E0CF93F8
:1007D0006ED591D760E080E0A7D785E193E0EAD7B6
:1007E00060E081E0A1D785E293E0E4D70ADD83D71A
:1007F00060E080E099D786E393E0DCD760E081E0B9
:1008000093D785E493E0D6D780913C0B1F928F93CA
:100810008DE493E09F938F93CF9349D58DB79EB787
:1008200008960FB6F8949EBF0FBE8DBF80913C0B0B
:1008300081110AC08FE19EE40197F1F700C000002A
:1008400080913C0B8823B1F310923C0B54D760E0AD
:1008500080E06AD789E593E0ADD754DD811112C0FD
:1008600087E693E09F938F9381E08F9320D543D7C2
:1008700060E080E059D789EE92E09CD70F900F900E
:100880000F9011C09FEF29E688E1915020408040F1
:10089000E1F700C000002FD760E080E045D782E894
:1008A00093E088D7A8DE80E090E0CF91089503D050
:1008B00008F481E00895990F0008550FAA0BE0E8AD
:1008C000FEEF16161706E807F907C0F01216130612
:1008D000E407F50798F0621B730B840B950B39F452
:1008E0000A2661F0232B242B252B21F408950A26B8
:1008F00009F4A140A6958FEF811D811D0895DBDFCE
:1009000008F48FEF0895811120C06115710589F0F9
:100910004115510571F0FB0180818093BA00FA0105
:1009200080818093BD0087B18C7F87B910926A0B5C
:1009300012C08CE893E09F938F9381E08F93B7D49C
:100940000F900F900F9080E0089581E080936A0BE4
:1009500087B1836087B980E28093B8001092B900B4
:1009600084E48093BC00FFEF20E782E0F150204058
:100970008040E1F700C0000010923D0B81E08093C1
:100980003E0B0895ECEBF0E080818F7580628083F0
:1009900080818068808380818823ECF7ECEBF0E035
:1009A00080818F75808380913D0B882341F09091E9
:1009B000B900987F81E0903149F080E008959091EE
:1009C000B900987F81E0983009F080E00895ECEB61
:1009D000F0E080818F768061808380818068808371
:1009E000808184FFFDCF08958F929F92AF92BF9236
:1009F000DF92EF92FF920F931F93CF93DF9320919B
:100A00006A0B213029F40F2EF8E2DF2EF02D04C0FE
:100A10000F2EF8EBDF2EF02D4A015B0121E0821A48
:100A20009108A108B10881149104A104B104E1F175
:100A3000DC0100E010E098014BEB50E0ECEBF0E063
:100A40000F2EF9EBEF2EF12CF02D6D2D70E08D9126
:100A5000EA01888380818068808380818823ECF725
:100A6000E7018881887F90E08617970799F0809149
:100A7000B900887F1F928F938BEA93E09F938F93A7
:100A800081E08F9314D40F900F900F900F900F90E0
:100A900080E03BC0CD010F5F1F4F2F4F3F4F081528
:100AA00019052A053B0598F220916A0B211104C013
:100AB0000F2EF0ECDF2EF02DFC0180818093BB0027
:100AC000ECEBF0E080818068808380818823ECF704
:100AD0002091B900287F30E08D2D90E0281739074C
:100AE00099F08091B900887F1F928F938BEA93E0F1
:100AF0009F938F9381E08F93DAD30F900F900F9095
:100B00000F900F9080E001C081E0DF91CF911F91A5
:100B10000F91FF90EF90DF90BF90AF909F908F90DC
:100B20000895AF92BF92CF92DF92EF92FF920F9310
:100B3000CF93DF935C016A017B01E90123DF81111F
:100B400013C08091B900887F1F928F9381EE93E04C
:100B50009F938F9381E08F93AAD30F900F900F9064
:100B60000F900F90C0E033C010923D0B88818E7FB4
:100B700088838093BB00ECEBF0E080818068808309
:100B800080818823ECF78091B900887F883199F0C3
:100B90008091B900887F1F928F938BE294E09F939E
:100BA0008F9381E08F9383D30F900F900F900F90CE
:100BB0000F90C0E00CC0B701A601C50115DFC82F1A
:100BC000002311F004DF03C081E080933D0B8C2FE4
:100BD000DF91CF910F91FF90EF90DF90CF90BF907A
:100BE000AF9008950F93E0913E0BEE2309F448C0B7
:100BF000009709F447C0E0916A0BE13089F42115B0
:100C0000310561F482E894E09F938F9381E08F93A4
:100C10004ED30F900F900F9080E035C082DF33C02D
:100C2000ECEBF0E020812068208320812223ECF788
:100C30002091B900287F203A41F4ECEBF0E02081CC
:100C40002068208320812223ECF72091B900287F9F
:100C5000283A91F08091B9001F928F9385EA94E031
:100C60009F938F9381E08F9322D30F900F900F90DB
:100C70000F900F9080E007C0399AB6DE399803C014
:100C800080E001C080E00F91089580913F0B8111B9
:100C90000AC040936B0B40E063E370E00E943014A5
:100CA00081E080933F0B0895FC0101900020E9F75B
:100CB00031979F01281B390B40E050E0BC0180E0D8
:100CC0000C94FD1408958F929F92AF92BF92CF9291
:100CD000DF92EF92FF920F931F93CF93DF93CDB7E5
:100CE000DEB7DA950FB6F894DEBF0FBECDBF022F88
:100CF000932EA42EB52EC62ED72EE82EF92E10E058
:100D0000812C202F392D4A2D5B2D6C2D7D2D8E2D84
:100D10009F2DAFE00E94721709F080F4E1E0F0E04F
:100D2000EC0FFD1FE10FF11D0083082D982CA82C5E
:100D3000B82CC82CD82CE82CF82C1CC0E1E0F0E032
:100D4000EC0FFD1FE10FF11D802F8F708083202F8E
:100D5000392D4A2D5B2D6C2D7D2D8E2D9F2D04E080
:100D60000E945617022F932EA42EB52EC62ED72ED4
:100D7000E82EF92EE12FF0E0A1E0B0E0AC0FBD1FAE
:100D8000AE0FBF1F8C918A3020F0FD01895A8083FD
:100D900008C021E030E02C0F3D1FE20FF31F805D03
:100DA00080831F5F202F392D4A2D5B2D6C2D7D2DCB
:100DB0008E2D9F2DA82D0E94721709F0A2CF11230E
:100DC00099F0612F70E06150710981E090E08C0F23
:100DD0009D1F680F791F21E030E040E050E080E087
:100DE0000E94FD14115069F7D3950FB6F894DEBF39
:100DF0000FBECDBFDF91CF911F910F91FF90EF906C
:100E0000DF90CF90BF90AF909F908F9008952F92DA
:100E10003F924F925F926F927F928F929F92AF928A
:100E2000BF92CF92DF92EF92FF920F931F93CF93D7
:100E3000DF93CDB7DEB7C250D1400FB6F894DEBF16
:100E40000FBECDBFCF5FDE4F2883C150D140232ED0
:100E5000342E452E562E672E782E892E912CCF5F5C
:100E6000DE4F2881C150D140322D432D542D652DA8
:100E7000762D872D982DA9E00E94721709F040F475
:100E8000FE01E90DF11D822F805D818393944BC09B
:100E90000F2EFAE0AF2EF02DB12CC12CD12CE12C6D
:100EA000F12C00E010E0CF5FDE4F2881C150D1402F
:100EB000322D432D542D652D762D872D982D0E9492
:100EC000AF16CE5FDE4F2883C250D140CF5FDE4FDA
:100ED0002881C150D140322D432D542D652D762DC2
:100EE000872D982D0E94B116CF5FDE4F2883C15009
:100EF000D140232E342E452E562E672E782E892E45
:100F0000E1E0F0E0EC0FFD1FE90DF11DCE5FDE4FDB
:100F1000A881C250D140A05DA0839394A0E00E941C
:100F2000721709F09CCF992099F0692D70E06150FB
:100F3000710981E090E08C0F9D1F680F791F21E0FF
:100F400030E040E050E080E00E94FD149A9469F7A0
:100F5000CE5FDE4F0FB6F894DEBF0FBECDBFDF9180
:100F6000CF911F910F91FF90EF90DF90CF90BF90A6
:100F7000AF909F908F907F906F905F904F903F9039
:100F80002F9008956F927F928F929F92AF92BF920F
:100F9000CF92DF92EF92FF920F931F93CF93DF9345
:100FA00000D01F92CDB7DEB76B017C018EE28A8341
:100FB0008DE28B8320E030E0A901C701B60177DC28
:100FC000882374F421E030E040E050E0BE016D5F22
:100FD0007F4F80E00E94FD14F7FAF094F7F8F09448
:100FE000C701B6010E947E12622E732E842E952EAA
:100FF000A62EB72E082F192F0E94E4129B01AC01D8
:10100000C701B6010E9419126B017C01262D372DF4
:10101000482D592D6A2D7B2D802F912FF8DE21E050
:1010200030E040E050E0BE016E5F7F4F80E00E9404
:10103000FD1420E030E0A901C701B60138DC8823A7
:1010400071F120E030E040E251E4C701B6010E94B6
:10105000C4136B017C010E94B812162F70E080E06F
:1010600090E00E94EA129B01AC01C701B6010E9408
:1010700019126B017C01105D198321E030E040E022
:1010800050E0BE016F5F7F4F80E00E94FD1420E0C2
:1010900030E0A901C701B6010ADC8111D2CF80E39B
:1010A000898321E030E040E050E0BE016F5F7F4F78
:1010B00080E00E94FD140F900F900F90DF91CF9170
:1010C0001F910F91FF90EF90DF90CF90BF90AF9066
:1010D0009F908F907F906F9008952F923F924F92A4
:1010E0005F926F927F928F929F92AF92BF92CF92B8
:1010F000DF92EF92FF920F931F93CF93DF93CDB7C1
:10110000DEB7C350D1400FB6F894DEBF0FBECDBFDF
:10111000CE5FDE4F2883C250D140832E742E652EC1
:10112000562E472E382E292E8DE2CF5FDE4F888334
:10113000C150D140832DA0E00E94721724F521E018
:1011400030E040E050E0BE016F5F7E4F80E00E94E3
:10115000FD14CE5FDE4F2881C250D140382D472D7F
:10116000562D652D742D832D922D0E940D17CE5F67
:10117000DE4F2883C250D140832E742E652E562E0A
:10118000472E382E292E912CCE5FDE4F2881C2505B
:10119000D140382D472D562D652D742D832D922D40
:1011A000A9E00E94721709F044F4FE01E90DF11D57
:1011B000822F805D818393944BC00F2EFAE0AF2E77
:1011C000F02DB12CC12CD12CE12CF12C00E010E041
:1011D000CE5FDE4F2881C250D140382D472D562D8D
:1011E000652D742D832D922D0E948416CD5FDE4FC8
:1011F0002883C350D140CE5FDE4F2881C250D140FA
:10120000382D472D562D652D742D832D922D0E943E
:101210008616CE5FDE4F2883C250D140832E742EB7
:10122000652E562E472E382E292EE1E0F0E0EC0FE9
:10123000FD1FE90DF11DCD5FDE4FA881C350D140E8
:10124000A05DA0839394A0E00E94721709F09CCF48
:10125000992099F0692D70E06150710981E090E06A
:101260008C0F9D1F680F791F21E030E040E050E0B7
:1012700080E00E94FD149A9469F7CD5FDE4F0FB6AF
:10128000F894DEBF0FBECDBFDF91CF911F910F91BC
:10129000FF90EF90DF90CF90BF90AF909F908F9096
:1012A0007F906F905F904F903F902F9008953F9266
:1012B0004F925F926F927F928F929F92AF92BF9266
:1012C000CF92DF92EF92FF920F931F93CF93DF9312
:1012D0001F92CDB7DEB70E891F8980913F0B8823FF
:1012E00009F41EC180916B0B9D89892309F418C1F3
:1012F0007E0128E1E20EF11CF8012081222309F48D
:101300000FC1412CD12C512C33243394253229F098
:10131000D11005C0411003C0F1C00F5F1F4FF8018D
:10132000808190E0FC01E356F109E631F10508F017
:10133000EFC0EA5BFF4F0C947E165701F2E0AF0E50
:10134000B11CF7018081898321E030E040E050E06A
:10135000BE016F5F7F4F852D0E94FD147501D8C0BF
:10136000DD20D9F06701F4E0CF0ED11CF7018081B8
:101370009181A281B3814C015D01BB0C8808982C3E
:101380005401282F392F4A2F5B2F682D782D882D57
:10139000982DA3DE7601D52CBBC0442089F05701DF
:1013A000F8E0AF0EB11CF7012081318142815381F9
:1013B000648175818681978190DE7501452CA8C076
:1013C0005701F2E0AF0EB11CF70131812081932F5C
:1013D000990F990B492F592F692F792F892F7DDE6E
:1013E000750196C0DD20B9F03701F4E06F0E711C75
:1013F000F70180819181A281B3814C015D01282F89
:10140000392D4A2D5B2D652D752D852D952DFFDCF4
:101410007301D52C7DC0442089F05701F8E0AF0E50
:10142000B11CF70120813181428153816481758132
:1014300086819781ECDC7501452C6AC0F7014081FB
:101440005181F2E0EF0EF11C242F352F452D552D43
:10145000652D752D852D952DDADC5AC0DD20A9F07E
:10146000F70180819181A281B38124E0E20EF11C19
:101470003C014D01282F372D482D592D652D752DF7
:10148000852D952D20DCD52C43C0442079F0F70123
:10149000208188E0E80EF11C318142815381648112
:1014A0007581868197810FDC452C32C0F701408120
:1014B0005181E2E0EE0EF11C242F352F452D552DE4
:1014C000652D752D852D952DFEDB22C0DD20F9F0D3
:1014D000432CD52C1DC0F70180819181F2E0EF0EE5
:1014E000F11CE2DB15C0F70160817181828193817B
:1014F00024E0E20EF11C46DDD52C0AC021E030E0EC
:1015000040E050E0B801852D0E94FD1401C0D32CAD
:10151000C8010196F8012181222311F08C01F6CE39
:101520000F90DF91CF911F910F91FF90EF90DF907F
:10153000CF90BF90AF909F908F907F906F905F9073
:101540004F903F900895FC010097B9F081818295FA
:10155000880F880F807C908190FB85F980937C00B8
:1015600082818770806880937A0010927B008381EB
:1015700080937E0081E08093400B8091400B089522
:1015800020917E0030E0082E02C0359527950A9400
:10159000E2F720FD0CC082E196E09F938F9381E0FB
:1015A0008F9385DE0F900F900F9080E00895ECE709
:1015B000F0E090818F71907E892B8083EAE7F0E0E4
:1015C000808180648083808184FFFDCF809178005A
:1015D00090E0FB019183808320917900922B8C3FD6
:1015E000F3E09F0728F4FB019183808381E0089555
:1015F0008BEF93E0FB019183808381E00895FF925C
:101600000F931F93CF93DF93EC01F62E80916C0B19
:101610008E7F80936C0B88818460888300E02CE649
:101620003BE041E050E060E070E0CE01DBDA182FF3
:1016300081110BC02CE236E03F932F9381E08F9312
:1016400036DE0F900F900F9019C088818B7F8883B2
:101650000F2D2CE63BE041E050E060E070E0CE0171
:10166000C1DA182F81110AC02CE236E03F932F9384
:1016700081E08F931CDE0F900F900F90812FDF91F0
:10168000CF911F910F91FF9008950F931F93CF93C8
:10169000DF931F92CDB7DEB7182F042F998160FB1F
:1016A00090F98091460B80FB93F9812F807F9D708C
:1016B000982B998360E0CE010196A1DF882351F039
:1016C0001295107F89818F70182B1983602FCE019E
:1016D000019695DF0F90DF91CF911F910F910895A3
:1016E00041E060E082E0D1DFEFE9FFE03197F1F720
:1016F00000C000000895CF9341E060E081E0C5DFC5
:10170000C82FEEDF8C2FCF910895811102C088E0A1
:1017100001C08CE061118260411181602093460B11
:1017200041E060E0B2CF0895CF93DF93C82FD62F6A
:101730008091470B81110CC08DE496E09F938F93AD
:1017400081E08F93B4DD0F900F900F9080E019C06F
:101750008091410BC81790F4603490F441E060E050
:101760008D2F90E4C99F800D112480688EDF88231F
:1017700041F0C093430BD093440B03C080E001C001
:1017800080E0DF91CF910895811102C084E001C013
:1017900085E06111826041E060E077CF08958111BA
:1017A00002C080E101C088E16111846041E060E035
:1017B0006CCF08957F928F929F92AF92BF92CF92FB
:1017C000DF92EF92FF920F931F93CF93DF932091BD
:1017D000470B21110CC08AE796E09F938F9381E01D
:1017E0008F9365DD0F900F900F9080E066C0FC0135
:1017F00001900020E9F731974F01881A990AA12C2E
:10180000B12C81149104A104B10409F455C0EC0178
:10181000C12CD12C76010BE916E06894772472F87C
:101820009091440B8091420B981758F18091450B91
:10183000882321F060E081E0B2DF23C08091430B78
:1018400090E001966091410B70E00E946B168093CE
:10185000430B1092440B1F921F9299279F938F93D3
:101860001F930F937F9223DD6091440B8091430B74
:101870005BDF8DB79EB707960FB6F8949EBF0FBE7D
:101880008DBF41E061E0899100DF8823B1F02091B4
:10189000440B30E02F5F3F4F2F7330782093440B81
:1018A0009FEFC91AD90AE90AF90AC814D904EA0447
:1018B000FB0408F4B5CF01C080E0DF91CF911F9108
:1018C0000F91FF90EF90DF90CF90BF90AF909F90DF
:1018D0008F907F900895811102C080E201C088E25C
:1018E0006111846041E060E0D0CE0895CF93DF9332
:1018F000EC018B818823B9F18A818823A1F18C8145
:1019000080936C0BF8DE8A818093410B9B819093CE
:10191000420B823028F088818F7D888381E001C06E
:1019200080E0688165FB662760F9D5DF888186FBEA
:10193000222720F984FB442740F983FB662760F9BE
:1019400082FB882780F9E1DE8881682F61708695A7
:1019500081701ADF888187FB882780F98093450B87
:1019600081E08093470B8091470BDF91CF910895E1
:10197000CF93DF931F92CDB7DEB7811103C082EE04
:10198000898302C081EE89830E940F1621E030E036
:1019900040E050E0BE016F5F7F4FCB010E94131605
:1019A0000E9411160F90DF91CF910895CF92DF9290
:1019B000EF92FF920F931F93CF93DF93CDB7DEB7D4
:1019C000A0970FB6F894DEBF0FBECDBF8C017B0190
:1019D000D42EFC018081803AC1F480918D0B81115D
:1019E00016C081E0FFE1F41708F480E0C82E8823D8
:1019F00079F08D2DE1E0F0E0EC0FFD1FE80FF11D17
:101A000010828F5F8032B1F703C0C12C01C0C12C9E
:101A10000E940F1621E030E040E050E0B801C8011C
:101A20000E941316182F81110BC029EB36E03F934B
:101A30002F9381E08F933BDC0F900F900F903AC073
:101A40002D2D30E040E050E0BE016F5F7F4FC701B9
:101A50000E941316182F81110BC029EB36E03F931B
:101A60002F9381E08F9323DC0F900F900F9022C073
:101A7000CC2001F14D2D50E081E090E08C0F9D1FB6
:101A8000840F951F20E230E0241B350B442737FDDF
:101A90004095542FBC010E941316182F81110AC0C3
:101AA00029EB36E03F932F9381E08F9300DC0F907A
:101AB0000F900F900E941116812FA0960FB6F894E8
:101AC000DEBF0FBECDBFDF91CF911F910F91FF9071
:101AD000EF90DF90CF900895FF920F931F93CF93D5
:101AE000DF93EC018B01F42E0E940F1621E030E011
:101AF00040E050E0BE01CE010E941316C82F8111B4
:101B00000BC020E437E03F932F9381E08F93CFDB2E
:101B10000F900F900F9016C02F2D30E040E050E056
:101B2000B8018DE69BE00E941316C82F81110AC0F0
:101B300020E437E03F932F9381E08F93B8DB0F9041
:101B40000F900F900E9411168C2FDF91CF911F9153
:101B50000F91FF9008950F931F93CF93DF931F92E0
:101B6000CDB7DEB78C018091540B81110BC08CE591
:101B700097E09F938F9381E08F9399DB0F900F9065
:101B80000F9027C0F801108280918D0B8823E1F01F
:101B900080E6898341E0B801CE0101969DDF88236C
:101BA00021F0F80180818132A0F0F801108280E0FC
:101BB000DFDE85E997E09F938F9381E08F9377DB5A
:101BC0000F900F900F9005C0F8018081807C80629B
:101BD00080830F90DF91CF911F910F910895EF9225
:101BE000FF920F931F93CF93DF9300D0CDB7DEB753
:101BF0007C018B018091540B81110CC089ED97E021
:101C00009F938F9381E08F9352DB0F900F900F90F3
:101C100080E027C01982CE0101969DDFF801208166
:101C20002F7330E089818F7390E0821793078CF4D3
:101C300088E098E09F938F9384E08F9338DB9981BD
:101C40009F73F8018081807C892B80830F900F9097
:101C50000F9081E68A83F8014081B701CE01029698
:101C60003BDF0F900F90DF91CF911F910F91FF906D
:101C7000EF900895CF93DF931F92CDB7DEB789839E
:101C8000CE01019629DF0F90DF91CF9108950F9338
:101C90001F93CF93DF9300D0CDB7DEB7182F1A82F2
:101CA00080628983CE01019681DE082F41E0BE016A
:101CB0006E5F7F4F812FDEDF8A811F928F931F928D
:101CC0001F9326E239E03F932F9384E08F93EFDA5E
:101CD0000FB6F894DEBF0FBECDBF802F0F900F90D0
:101CE000DF91CF911F910F910895EF92FF920F9383
:101CF0001F93CF93DF93CDB7DEB728970FB6F89435
:101D0000DEBF0FBECDBF7C01009759F487E499E098
:101D10009F938F9381E08F93CADA0F900F900F906B
:101D200030C18091540B882359F08FE799E09F933D
:101D30008F9381E08F93BBDA0F900F900F9021C1AA
:101D4000EDE6FBE02DE83BE08FEF8193E217F30730
:101D5000E1F73F9AF70184899589892B99F0808D65
:101D6000918D892B79F0848D958D892B59F001E027
:101D700020E030E046E550E162E082E01FD28823B7
:101D800009F4FFC04798FFEF20E782E0F1502040C0
:101D90008040E1F700C00000F70180A180938D0B27
:101DA000848995899093530B8093520B86899789E8
:101DB0009093510B8093500B808D918D90934F0B8E
:101DC00080934E0B828D938D90934D0B80934C0B93
:101DD000848D958D90934B0B80934A0B868D978DB8
:101DE0009093490B8093480BBAD11982F7018081F7
:101DF000811102C0816089838981826088608983C2
:101E000041E0BE016F5F7F4F80E041DF19821A829F
:101E1000F70180A1882321F080E0807C81608A83A3
:101E200041E0BE016E5F7F4F81E031DF81E08B8357
:101E300041E0BE016D5F7F4F82E029DFF7018289BB
:101E400091899F708295807F892B8C8341E0BE01B0
:101E50006C5F7F4F84E01BDF41E0B7016D5E7F4F19
:101E600085E015DF8EE08D8341E0BE016B5F7F4F23
:101E700086E00DDFF70171816281538144813581F4
:101E8000268197818085EEE8FBE070836183528331
:101E900043833483258396838783F701718162812D
:101EA000538144813581268197818085E6E9FBE075
:101EB000708361835283438334832583968387832E
:101EC000F70180A18823B1F08081811107C045E02E
:101ED000B7016F5F7F4F8AE0DADE18C045E0870107
:101EE000075F1F4FB8018AE0D2DE45E0B80180E10C
:101EF000CEDE0CC045E0B7016F5F7F4F8AE0C7DEE2
:101F000045E0B701675F7F4F80E1C1DEF70180A147
:101F100081110EC08F81807C80628F8341E0BE0181
:101F2000695F7F4F81E1B3DEF70180A1882341F033
:101F300081E08E8341E0BE016A5F7F4F8CE1A7DEC6
:101F400082E08887F70180A1882319F082E084600D
:101F5000888741E0BE01685F7F4F8DE198DE80E0B9
:101F600007DD81E005DDF7018081811107C0479A17
:101F700083E091E00197F1F700C0000081E08093D9
:101F8000540B8091540B28960FB6F894DEBF0FBE09
:101F9000CDBFDF91CF911F910F91FF90EF900895EA
:101FA000CF93DF931F92CDB7DEB741E0BE016F5FE5
:101FB0007F4F87E05FDE898186FF14C080E48983DC
:101FC00041E0BE016F5F7F4F87E061DE83EB99E008
:101FD0009F938F9384E08F936AD90F900F900F9007
:101FE00081E001C080E00F90DF91CF9108951F93B1
:101FF000CF93DF9300D0CDB7DEB72091540B2111E2
:102000000CC083EC99E09F938F9381E08F934FD91D
:102010000F900F900F9010E042C020EA2983FB013F
:102020004081BC01CE010196C1DC182F479A209156
:102030004A0B30914B0B232B89F541E0BE016E5FBB
:102040007F4F87E017DE9A8195FF13C080E28A8375
:1020500041E0BE016E5F7F4F87E019DE23EF39E07C
:102060003F932F9384E08F9322D90F900F900F907E
:1020700015C094FFE2CF80E18A8341E0BE016E5F2C
:102080007F4F87E004DE88E19AE09F938F9381E0A1
:102090008F930DD90F900F900F9010E04798812FDC
:1020A0000F900F90DF91CF911F910895CF93DF9301
:1020B00000D0CDB7DEB741E0BE016F5F7F4F87E054
:1020C000D9DD89811F928F9384E49AE09F938F9347
:1020D00084E08F93ECD81A8289810F900F900F9033
:1020E0000F900F9084FF0EC0E091520BF091530BB4
:1020F000309741F08091500B9091510B09958A8156
:1021000080618A83898186FF0EC0E0914E0BF09139
:102110004F0B309741F080914C0B90914D0B0995EE
:102120008A8180648A83898185FF0EC0E0914A0B91
:10213000F0914B0B309741F08091480B9091490BF7
:1021400009958A8180628A8341E0BE016E5F7F4F7C
:1021500087E09DDD0F900F90DF91CF910895CF9391
:10216000DF9300D000D01F92CDB7DEB781E0898326
:102170001A821B821C821D82CE0101961AD50F90F5
:102180000F900F900F900F90DF91CF910895F894DA
:10219000109269001DBA87E08CBB109268008FE036
:1021A0008BBB10926B0010926C0010926D0010921D
:1021B0007300789481E08093610B0895BF92CF9271
:1021C000DF92EF92FF920F931F93CF93DF93182F1D
:1021D000B62EEA0169018091610B81110CC08EE578
:1021E0009AE09F938F9381E08F9361D80F900F9027
:1021F0000F9080E07BC0209761F483E89AE09F9382
:102200008F9381E08F9353D80F900F900F9080E0C1
:102210006DC0E12EF12CF701EE0FFF1FE55AF44FD0
:1022200040815181452B61F08EE99AE09F938F9315
:1022300081E08F933CD80F900F900F9080E056C0B4
:102240001F921F938DEB9AE09F938F9384E08F935F
:102250002ED89701220F331FF901E55AF44FD1838D
:10226000C083F901EB5AF44FD182C082E9E6F0E075
:10227000E0808B2D90E0AC0102C0440F551F2A95E1
:10228000E2F79A012E2920838DB321E030E0012E60
:1022900002C0220F331F0A94E2F7822B8DBB8CB34E
:1022A000282B2CBB0F900F900F900F900F90113098
:1022B00051F018F0123069F012C05298002389F0E2
:1022C0005A9A81E013C05398002369F05B9A81E029
:1022D0000DC05298002349F02A9A81E007C081E09E
:1022E00005C081E003C081E001C081E0DF91CF91B2
:1022F0001F910F91FF90EF90DF90CF90BF900895C6
:102300001F920F920FB60F9211240BB60F922F93BC
:102310003F934F935F936F937F938F939F93AF936D
:10232000BF93EF93FF93F894E0915B0BF0915C0BFC
:10233000309729F08091550B9091560B0995789420
:10234000FF91EF91BF91AF919F918F917F916F918D
:102350005F914F913F912F910F900BBE0F900FBE49
:102360000F901F9018951F920F920FB60F92112485
:102370000BB60F922F933F934F935F936F937F937F
:102380008F939F93AF93BF93EF93FF93F894E09154
:102390005D0BF0915E0B309729F08091570B909177
:1023A000580B09957894FF91EF91BF91AF919F9150
:1023B0008F917F916F915F914F913F912F910F90EE
:1023C0000BBE0F900FBE0F901F9018951F920F928B
:1023D0000FB60F9211240BB60F922F933F934F938A
:1023E0005F936F937F938F939F93AF93BF93EF937D
:1023F000FF93F894E0915F0BF091600B309729F018
:102400008091590B90915A0B09957894FF91EF9117
:10241000BF91AF919F918F917F916F915F914F91FC
:102420003F912F910F900BBE0F900FBE0F901F90FA
:1024300018955058BB27AA270ED06CC15DD130F03B
:1024400062D120F031F49F3F11F41EF442C10EF42A
:10245000E095E7FB38C1E92F6ED180F3BA17620728
:1024600073078407950718F071F49EF586C10EF482
:10247000E0950B2EBA2FA02D0B01B90190010C0194
:10248000CA01A0011124FF27591B99F0593F50F4AC
:10249000503E68F11A16F040A22F232F342F442704
:1024A000585FF3CF469537952795A795F0405395FC
:1024B000C9F77EF41F16BA0B620B730B840BBAF0CC
:1024C0009150A1F0FF0FBB1F661F771F881FC2F737
:1024D0000EC0BA0F621F731F841F48F4879577954B
:1024E0006795B795F7959E3F08F0B3CF9395880F02
:1024F00008F09927EE0F979587950895BEE304D0CD
:1025000008F490E80895BFE322273327A9011BD1DF
:1025100058F19F5740F1B91738F1BFE3B91B99271C
:10252000B8503AF4660F771F881F991FB395D2F3FE
:1025300016C0B8504AF0232F342F452F562F672F3F
:10254000782F8827B850BAF7B85F49F08695779505
:1025500067955795479537952795BA95B9F70EF42E
:10256000BBD088940895889460E070E0CB01089512
:10257000EAD088F09F5790F0B92F9927B751A0F073
:10258000D1F0660F771F881F991F1AF0BA95C9F707
:1025900012C0B13081F0F1D0B1E00895EEC0672FE4
:1025A000782F8827B85F39F0B93FCCF386957795B7
:1025B0006795B395D9F73EF49095809570956195A0
:1025C0007F4F8F4F9F4F089597FB0EF485D03EC0ED
:1025D000E89409C097FB3EF49095809570956195BD
:1025E0007F4F8F4F9F4F9923A9F0F92F96E9BB2773
:1025F0009395F695879577956795B795F111F8CFEF
:10260000FAF4BB0F11F460FF1BC06F5F7F4F8F4F59
:102610009F4F16C0882311F096E911C0772321F04F
:102620009EE8872F762F05C0662371F096E8862FE7
:1026300070E060E02AF09A95660F771F881FDAF73E
:10264000880F9695879597F90895E894F92F96EB5A
:10265000FF2381F0121613061406440B9395F6958A
:1026600087957795679557954040FF23B9F71BC02D
:1026700099270895882351F49850D2F7872B762F05
:10268000652F542F432F322F20E0B1F3121613067B
:102690001406440B88233AF09A95440F551F661F81
:1026A000771F881FCAF755234AF4440F551F11F4AA
:1026B00060FF04C06F5F7F4F8F4F9F4F880F9695CD
:1026C000879597F9089597F99F6780E870E060E033
:1026D00008959FEF80EC0895909580957095609592
:1026E00050954095309521953F4F4F4F5F4F6F4F1D
:1026F0007F4F8F4F9F4F089500240A941616170698
:1027000018060906089500240A94121613061406E2
:1027100005060895092E0394000C11F4882352F045
:10272000BB0F40F4BF2B11F460FF04C06F5F7F4FFD
:102730008F4F9F4F089557FD9058440F551F59F0E4
:102740005F3F71F04795880F97FB991F61F09F3F9E
:1027500079F087950895121613061406551FF2CFC7
:102760004695F1DF08C0161617061806991FF1CF17
:1027700086957105610508940895E894BB2766273E
:102780007727CB0197F908950BD0C4CFB5DF28F098
:10279000BADF18F0952309F096CF9BCF1124EECF26
:1027A000CADFA0F3959FD1F3950F50E0551F629FAC
:1027B000F001729FBB27F00DB11D639FAA27F00D9A
:1027C000B11DAA1F649F6627B00DA11D661F829FC1
:1027D0002227B00DA11D621F739FB00DA11D621FA6
:1027E000839FA00D611D221F749F3327A00D611DC3
:1027F000231F849F600D211D822F762F6A2F1124A5
:102800009F5750408AF0E1F088234AF0EE0FFF1FF7
:10281000BB1F661F771F881F91505040A9F79E3F2E
:10282000510570F050CFAACF5F3FECF3983EDCF338
:10283000869577956795B795F795E7959F5FC1F76B
:10284000FE2B880F911D9695879597F9089582E044
:1028500084BD15BC16BC17BC18BC80936E000895CF
:10286000CF934093AC0B882319F08130C9F030C06E
:102870007093C5006093C40088E98093C100413023
:1028800039F486E08093C20081E08093C00003C0E9
:1028900086E08093C20081E08093620BC1E019C0A2
:1028A0007093CD006093CC0088E98093C9004130DB
:1028B00039F486E08093CA0081E08093C80003C0A9
:1028C00086E08093CA0081E08093630BC1E001C081
:1028D000C0E0BDDF8C2FCF910895CF92DF92EF92B1
:1028E000FF920F931F93CF93DF936B01882319F00F
:1028F0008130C1F16CC08091620B882309F46BC0F8
:10290000211531054105510509F46CC080E090E0C6
:10291000DC01C0ECD0E00F2EF1ECEF2EF12CF02D0D
:1029200066EC70E0188115FFFDCF1091AC0B112300
:1029300059F0002329F0F70110811160108304C0C1
:10294000F70110811E7F1083F60111916F01FB01C9
:1029500010830196A11DB11D82179307A407B50727
:1029600009F740C08091630B8823C9F12115310517
:1029700041055105B9F180E090E0DC01C8ECD0E000
:102980000F2EF9ECEF2EF12CF02D6EEC70E018818B
:1029900015FFFDCF1091AC0B112359F0002329F046
:1029A000F70110811160108304C0F70110811E7FB0
:1029B0001083F60111916F01FB0110830196A11D97
:1029C000B11D82179307A407B50709F70BC020E0D4
:1029D00030E0A90107C020E030E0A90103C020E0F9
:1029E00030E0A901CA01B901DF91CF911F910F9188
:1029F000FF90EF90DF90CF9008950F9300E06DDF90
:102A00000F9108951F920F920FB60F9211248F937A
:102A100081E08093AF0B8F910F900FBE0F901F90AE
:102A200018951F920F920FB60F9211240BB60F92AA
:102A30002F933F934F935F936F937F938F939F93C6
:102A4000AF93BF93EF93FF93E0919E0BF0919F0B99
:102A5000309731F06091AA0B7091AB0B80E0099533
:102A6000FF91EF91BF91AF919F918F917F916F9166
:102A70005F914F913F912F910F900BBE0F900FBE22
:102A80000F901F9018951F920F920FB60F9211245E
:102A90000BB60F922F933F934F935F936F937F9358
:102AA0008F939F93AF93BF93EF93FF93E091A40B0A
:102AB000F091A50B309731F06091A20B7091A30BB0
:102AC00081E00995FF91EF91BF91AF919F918F9117
:102AD0007F916F915F914F913F912F910F900BBE1E
:102AE0000F900FBE0F901F9018951F920F920FB668
:102AF0000F9211240BB60F922F933F934F935F9336
:102B00006F937F938F939F93AF93BF93EF93FF93B5
:102B1000E091A00BF091A10B309731F06091A80BE0
:102B20007091A90B80E00995FF91EF91BF91AF9152
:102B30009F918F917F916F915F914F913F912F91D5
:102B40000F900BBE0F900FBE0F901F9018951F9205
:102B50000F920FB60F9211240BB60F922F933F9343
:102B60004F935F936F937F938F939F93AF93BF9395
:102B7000EF93FF93E091A60BF091A70B309731F004
:102B80006091AD0B7091AE0B81E00995FF91EF91D3
:102B9000BF91AF919F918F917F916F915F914F9175
:102BA0003F912F910F900BBE0F900FBE0F901F9073
:102BB0001895FC011CBC84B18F7084B9848183702A
:102BC0008CBD848182FF02C081E08DBD828188231B
:102BD00019F08CB584608CBD8181882319F08CB587
:102BE00088608CBD8381882319F08CB580628CBD90
:102BF0008081882359F084B1806B84B98CB5806161
:102C00008CBD2C9A81E08093640B01C0269A1EBC77
:102C10008CB580648CBD81E08093650B08952C9801
:102C200008952C9A0895CF92DF92EF92FF92FB01C4
:102C30006091650B61110DC080ED9AE09F938F93B9
:102C400081E08F930E9457090F900F900F9080E0C2
:102C50003DC06091640B61110DC084EF9AE09F93B9
:102C60008F9381E08F930E9457090F900F900F90E0
:102C700080E02CC0211531054105510521F0009758
:102C800011F0309769F48BE19BE09F938F9381E083
:102C90008F930E9457090F900F900F9080E016C0FD
:102CA000DC01C12CD12C76018D918EBD0DB407FEB7
:102CB000FDCF8EB581938FEFC81AD80AE80AF80ABB
:102CC000C216D306E406F50679F781E0FF90EF908F
:102CD000DF90CF90089597FB072E16F4009406D04E
:102CE00077FD08D00BD107FC05D03EF49095819577
:102CF0009F4F0895709561957F4F0895EE0FFF1FC8
:102D00000590F491E02D0994689401C0E894F92F9E
:102D1000F12B0AF027C0A0E0B0E0E0E9F6E193C0B3
:102D2000092E05941AF479D0112392F4F0E80F26B5
:102D3000FFEFE094F09400951095B094C094D09477
:102D4000A194BF0ACF0ADF0AEF0AFF0A0F0B1F0B7D
:102D500013D007FC62D0CDB7DEB7ECE090C068942A
:102D600001C0E8948F929F92CF93DF9305D0DF91BB
:102D7000CF919F908F90089588249924F401E401C5
:102D8000B0E49F93AA279A158B049C04ED05FE05D9
:102D9000CF05D007A10798F4AD2FDC2FCF2FFE2F42
:102DA000E92D982C892E982F872F762F652F542F59
:102DB000432F322F2227B85031F7BF9127C01B2E47
:102DC000BF91BB27220F331F441F551F661F771F5C
:102DD000881F991F881C991CEE1FFF1FCC1FDD1F29
:102DE000AA1FBB1F8A149B04EC05FD05CE05DF0559
:102DF000A007B10748F08A189B08EC09FD09CE0925
:102E0000DF09A00BB10B21601A94E1F62EF49401B6
:102E1000AF01BE01CD01000C0895609570958095BD
:102E2000909530954095509521953F4F4F4F5F4F6E
:102E30006F4F7F4F8F4F9F4F08952F923F924F922A
:102E40005F926F927F928F929F92AF92BF92CF923A
:102E5000DF92EF92FF920F931F93CF93DF93CDB743
:102E6000DEB7CA1BDB0B0FB6F894DEBF0FBECDBFBB
:102E700009942A88398848885F846E847D848C848C
:102E80009B84AA84B984C884DF80EE80FD800C8195
:102E90001B81AA81B981CE0FD11D0FB6F894DEBF78
:102EA0000FBECDBFED01089597FB10F816940008F2
:102EB0000F93083098F00850232F342F452F562FAA
:102EC000672F782F892F902DF4CF059497958795AC
:102ED0007795679557954795379527950A95AAF75A
:102EE0000F9108950024A7FD00942A17300540058E
:102EF000500560057005800590050895AA1BBB1B51
:102F000051E107C0AA1FBB1FA617B70710F0A61BE9
:102F1000B70B881F991F5A95A9F780959095BC010A
:082F2000CD010895F894FFCFE4
:102F2800436F6E6E656374546F436F70746572207F
:102F38002D20496E76616C69642044617461204C6F
:102F4800656E6774680D0A00436F6E6E656374542E
:102F58006F436F70746572202D20526563656976C2
:102F6800652044617461204661696C65640D0A00DE
:102F7800436F6E6E656374546F436F70746572202F
:102F88002D20496E76616C69642041636B6E6F77A2
:102F98006C6564676D656E740D0A00436F6E6E65CF
:102FA8006374546F436F70746572202D2041636B96
:102FB8002056616C7565203D2025640D0A00436F1D
:102FC8006E6E656374546F436F70746572202D2044
:102FD8005472616E736D697420446174610D0A00E6
:102FE800436F6E6E656374546F436F7074657220BF
:102FF8002D205472616E736D697420446174612070
:103008004661696C65640D0A00436F6E6E65637492
:10301800546F436F70746572202D20576169742056
:10302800466F7220446174610D0A00436F6D7061D0
:1030380073732048656164696E67203D2025662E9C
:103048000D0A00446972656374696F6E0052656D9C
:103058006F746520436F6E74726F6C6C65720D0AC5
:10306800002D2D2D2D2D2D2D2D2D2D2D2D2D2D2DB5
:103078002D2D0D0A006D61696E202D2054574920B1
:10308800496E697469616C697A6174696F6E20460A
:1030980061696C65640D0A006D61696E202D2044BC
:1030A8006973706C617920496E697469616C697AB9
:1030B8006174696F6E204661696C65640D0A00571A
:1030C800656C636F6D65212100496E697469616C77
:1030D800697A696E672E2E2E006D61696E202D202B
:1030E800496E70757420436F6E74726F6C6C657284
:1030F80020496E697469616C697A6174696F6E20C0
:103108004661696C65640D0A004F70657261746987
:103118006F6E204661696C656400496E6974696107
:103128006C697A6174696F6E20436F6D706C657439
:1031380065640D0A00466C793A205365742054483A
:10314800204C6F77005072673A20536574205448BA
:10315800204869676800507265737320456E74650E
:103168007220546F00436F6E6E65637400466C6125
:1031780067203D2025640D0A00436F6E6E656374F9
:10318800696E672E2E2E006D61696E202D204661B6
:10319800696C656420746F20436F6E6E6563740D8F
:1031A8000A00436F6E6E656374656400496E6974E6
:1031B800545749202D20496E76616C69642050610E
:1031C80072616D65746572730D0A005472616E7375
:1031D8006D6974202D2044617461205472616E738E
:1031E8006D697373696F6E204661696C6564202D23
:1031F80020537461747573203D20307825780D0A4A
:10320800005477694D61737465725472616E736DA1
:103218006974202D20537461727420436F6E646941
:1032280074696F6E205472616E736D697373696F20
:103238006E204661696C6564202D20537461747535
:1032480073203D20307825780D0A005477694D6148
:10325800737465725472616E736D6974202D205396
:103268006C617665204164647265737320616E6475
:1032780020577269746520466C6167205472616ECC
:10328800736D697373696F6E204661696C6564203C
:103298002D20537461747573203D20307825780D86
:1032A8000A005477695472616E736D6974202D2019
:1032B800496E76616C696420506172616D657465F0
:1032C80072730D0A005477695472616E736D697474
:1032D800202D20536C6176652052656164204E6F05
:1032E8007420526571756573746564206279204D28
:1032F8006173746572202D20307825780D0A00528C
:10330800656365697665202D204461746120526586
:1033180063657074696F6E204661696C6564202D01
:1033280020537461747573203D20307825780D0A18
:10333800005477694D617374657252656365697687
:1033480065202D20537461727420436F6E64697414
:10335800696F6E205472616E736D697373696F6EF5
:10336800204661696C6564202D20537461747573FF
:10337800203D20307825780D0A005477694D617317
:1033880074657252656365697665202D20536C619A
:103398007665204164647265737320616E6420529F
:1033A80065616420466C6167205472616E736D6953
:1033B8007373696F6E204661696C6564202D2053B4
:1033C8007461747573203D20307825780D0A005497
:1033D800776952656365697665202D20496E766147
:1033E8006C696420506172616D65746572730D0A51
:1033F8000054776952656365697665202D20536CA2
:10340800617665205772697465204E6F7420526525
:1034180071756573746564206279204D6173746594
:1034280072202D2053746174757320307825780DBF
:103438000A00414443204368616E6E656C204E6FFC
:103448007420456E61626C65640D0A005472616E89
:10345800736D6974202D20547769205472616E73DE
:103468006D6974204661696C65640D0A004C4344BB
:10347800536574437572736F72506F736974696FB3
:103488006E202D204C4344204E6F7420496E697481
:1034980069616C697A65640D0A004C43445072692D
:1034A8006E74202D204C4344204E6F7420496E6961
:1034B8007469616C697A65640D0A004578636565AD
:1034C800646564204D6178204368617273202D2003
:1034D80025642C2025640D0A005472616E736D6991
:1034E80074202D205472616E73666572204661697E
:1034F8006C65640D0A005472616E736D6974416382
:103508006B5061796C6F6164202D205472616E7309
:10351800636569766572204E6F7420496E697469B7
:10352800616C697A65640D0A005472616E736D6925
:103538007441636B5061796C6F6164202D20417513
:10354800746F2041636B6E6F776C6564676D656E31
:1035580074204E6F7420456E61626C65640D0A00BC
:1035680052656365697665202D205472616E7366B5
:103578006572204661696C65640D0A00476574527E
:10358800656365697665645061796C6F61644C65E3
:103598006E677468202D205472616E736365697656
:1035A8006572204E6F7420496E697469616C697A1E
:1035B80065640D0A004765745265636569766564DC
:1035C8005061796C6F61644C656E677468202D205A
:1035D80052656164205278205061796C6F61642073
:1035E8004C656E67746820526567697374657220EC
:1035F8004661696C65640D0A0052656365697665A4
:103608005061796C6F6164202D205472616E736310
:103618006569766572204E6F7420496E69746961B8
:103628006C697A65640D0A00526563656976655050
:1036380061796C6F6164202D205278205061796C1B
:103648006F6164204C656E677468204E6F74204DFE
:1036580061746368696E6720427566666572204C9E
:10366800656E6774680D0A004765744C6F73745013
:1036780061636B6574436F756E74202D205472619D
:103688006E73636569766572204E6F7420496E6942
:103698007469616C697A65640D0A004765744C6FDA
:1036A80073745061636B6574436F756E74202D205D
:1036B80052656164204F6273657276655478205252
:1036C80065676973746572204661696C65640D0A83
:1036D8000047657452657472616E736D69745061E8
:1036E800636B6574436F756E74202D205472616E20
:1036F80073636569766572204E6F7420496E6974CC
:1037080069616C697A65640D0A004765745265746D
:1037180072616E736D69745061636B6574436F7524
:103728006E74202D2052656164204F627365727635
:1037380065547820526567697374657220466169BB
:103748006C65640D0A00526567204F666673657480
:10375800203D20307825782056616C7565203D2005
:10376800307825780D0A00496E69745472616E7359
:10377800636569766572202D20496E636F72726584
:10378800637420496E697469616C697A6174696FE0
:103798006E20506172616D65746572730D0A00491F
:1037A8006E69745472616E73636569766572202DF3
:1037B800205472616E7363656976657220416C721C
:1037C8006561647920496E697469616C697A6564B8
:1037D8000D0A004461746120526563656976656409
:1037E8000D0A005472616E736D69745061796C6F63
:1037F8006164202D205472616E7363656976657209
:10380800204E6F7420496E697469616C697A6564C9
:103818000D0A005472616E736D69745061796C6F32
:103828006164202D2044617461205472616E736D4F
:1038380069747465640D0A005472616E736D6974FD
:103848005061796C6F6164202D204D61782052653C
:103858002D7472616E736D69742052656163686559
:10386800640D0A00495352202D20537461747573F6
:1038780020526567203D20307825780D0A0045786C
:103888007465726E616C20496E74657272757074BD
:10389800204E6F7420496E697469616C697A656439
:1038A8000D0A00496E76616C69642043616C6C6234
:1038B80061636B20436F6E746578740D0A00496EFE
:1038C8007465727275707420416C726561647920D8
:1038D800526567697374657265640D0A004578748A
:1038E80020496E74204E756D203D2025640D0A0018
:1038F8005350495472616E73666572202D2053507F
:1039080049204E6F7420496E697469616C697A65E3
:10391800640D0A005350495472616E7366657220D3
:103928002D20535049204E6F7420496E204D6173ED
:10393800746572204D6F64650D0A005350495472C6
:10394800616E73666572202D20535049204275665A
:0C395800666572204572726F720D0A00E5
:00000001FF
