S00F0000414443546573742E73726563AD
S113000045C0000060C000005EC000005CC000008D
S11300105AC0000058C0000056C0000054C0000080
S113002052C0000050C000004EC000004CC0000090
S11300304AC0000048C0000046C0000044C00000A0
S1130040FAC0000040C000003EC000003CC00000F8
S113005001C1000038C0000061C1000034C00000CC
S113006032C0000030C000002EC000002CC00000D0
S113007023C1000028C0000083C1000024C0000088
S113008022C0000020C000001EC0000011241FBEBA
S1130090CFEFD0E4DEBFCDBF11E0A0E0B1E0E8EEE9
S11300A0F3E000E00BBF02C007900D92A833B10744
S11300B0D9F721E0A8E3B1E001C01D92AA34B20748
S11300C0E1F702D08FC19CCFCF93DF93CDB7DEB7DA
S11300D02A970FB6F894DEBF0FBECDBF45E060E0AF
S11300E072E18AE790E09FD089818E7F89831A82AA
S11300F01B8287E08C83CE0101963ED000E011E0A4
S113010084E0F82E1A86198618861F821E821D82A4
S1130110BE01675F7F4F80E04CD0BE01675F7F4FB9
S113012080E047D0BE01695F7F4F81E042D0BE01CD
S1130130695F7F4F81E03DD0BE016B5F7F4F82E0FE
S113014038D0BE016B5F7F4F82E033D08E818F93B6
S11301508D818F9388858F938F818F938A858F93D9
S113016089858F931F930F93FF925ED00FB6F894F7
S1130170DEBF0FBECDBFC6CFFC010097B9F08181B1
S11301808295880F880F807C908190FB85F98093FD
S11301907C0082818770806880937A0010927B0053
S11301A0838180937E0081E08093380180913801BF
S11301B00895FB0120917E0030E0082E02C03595A1
S11301C027950A94E2F720FD0CC08DE191E09F93FE
S11301D08F9381E08F9328D00F900F900F9080E041
S11301E0089590917C008F71907E982B90937C0061
S11301F080917A00806480937A0080917A0084FFF1
S1130200FCCF8091780090E09183808320917900E5
S1130210922B8C3F23E0920710F08BEF93E09183B5
S1130220808381E008950895CF93DF93CDB7DEB73F
S1130230DF91CF9108951F920F920FB60F92112460
S11302408F9381E0809349018F910F900FBE0F909F
S11302501F9018951F920F920FB60F9211240BB690
S11302600F922F933F934F935F936F937F938F934B
S11302709F93AF93BF93EF93FF93E0913901F09174
S11302803A01309731F0609145017091460180E068
S11302900995FF91EF91BF91AF919F918F917F91BC
S11302A06F915F914F913F912F910F900BBE0F90E3
S11302B00FBE0F901F9018951F920F920FB60F92BA
S11302C011240BB60F922F933F934F935F936F9329
S11302D07F938F939F93AF93BF93EF93FF93E0919B
S11302E03F01F0914001309731F060913D017091F0
S11302F03E0181E00995FF91EF91BF91AF919F91EC
S11303008F917F916F915F914F913F912F910F90BA
S11303100BBE0F900FBE0F901F9018951F920F9257
S11303200FB60F9211240BB60F922F933F934F9356
S11303305F936F937F938F939F93AF93BF93EF9349
S1130340FF93E0913B01F0913C01309731F06091D3
S113035043017091440180E00995FF91EF91BF91B1
S1130360AF919F918F917F916F915F914F913F9149
S11303702F910F900BBE0F900FBE0F901F901895EA
S11303801F920F920FB60F9211240BB60F922F9358
S11303903F934F935F936F937F938F939F93AF9309
S11303A0BF93EF93FF93E0914101F09142013097A5
S11303B031F0609147017091480181E00995FF9106
S11303C0EF91BF91AF919F918F917F916F915F91C9
S11303D04F913F912F910F900BBE0F900FBE0F9036
S10B03E01F901895F894FFCF5B
S11303E84144432050203D2025642C2058203D20A2
S11303F825642C2059203D2025640D0A00414443DE
S1130408204368616E6E656C204E6F7420456E6182
S10B0418626C65640D0A00002A
S9030000FC
