S0190000416363656C65726F6D65746572546573742E7372656330
S113000072C000008EC000008CC000008AC00000D6
S113001088C0000086C0000002C2000082C0000048
S113002080C000007EC000007CC000007AC00000D8
S113003078C0000076C0000074C0000072C00000E8
S11300400C941F106EC000006CC000006AC0000059
S11300500C942E1066C000000C94921062C0000034
S113006060C000005EC000005CC000005AC0000018
S11300700C94601056C000000C94C41052C00000D0
S113008050C000004EC000004CC00000320B440BB6
S11300901B0C070C1B0C1B0C1B0C1B0C1B0CFA0B5A
S11300A01B0C1B0C1B0C1B0C1B0C1B0CFF0B1B0C31
S11300B0860B1B0C1B0CC20B084AD73B3BCE016EB4
S11300C084BCBFFDC12F3D6C74319ABD56833DDAAB
S11300D03D00C77F11BED9E4BB4C3E916BAAAABEBA
S11300E0000000803F0011241FBECFEFD0E4DEBF2C
S11300F0CDBF1AE0A0E0B1E0ECE5FDE200E00BBF0B
S113010002C007900D92A83DB107D9F72AE0A8EDE7
S1130110BAE001C01D92A83FB207E1F703D00C94E6
S1130120AC166ECF4F925F926F927F928F929F9296
S1130130AF92BF92CF92DF92EF92FF920F931F93F1
S1130140CF93DF93CDB7DEB7A1970FB6F894DEBF98
S11301500FBECDBF2FEF3CE281E391E02150304050
S113016080409040D9F700C0000045E060E072E1B3
S11301708AE790E028D740E050E060E070E081E05A
S11301800E94360C882309F431C181E0E8D3882326
S113019009F42CC181E06ED4882309F427C184E5D5
S11301A08E83CE010696B0D5882309F41FC180E75B
S11301B08F832FE048E068E0CE01079689D6882334
S11301C009F414C18FEF8B838CEF8C8386E08D83CD
S11301D02AE0AE014D5F5F4F61E081E0BDD5882329
S11301E009F404C180E889838A83BE016E5F7F4F6E
S11301F0CE01019647D5882309F4F8C01092DE0A8F
S11302003D98459AEDE6F0E0808180628083E8E6DF
S1130210F0E08081846080837894FFD1882309F49E
S1130220E5C064E082E07CD4882309F4DFC087E081
S113023091E09F938F9384E08F930E94EC0A0F9038
S11302400F900F900F2EFAE68F2EF1E09F2EF02DD7
S11302500F2EFCE7AF2EF1E0BF2EF02D0F2EFEE89F
S1130260CF2EF1E0DF2EF02D0F2EF1EA6F2EF1E00C
S11302707F2EF02DCE01089654D18823D9F388859A
S11302801F928F9386E291E09F938F9384E08F93E4
S11302900E94EC0A0F900F900F900F900F90809196
S11302A0DE0A811103C08885882324F71092DE0AB0
S11302B0CE01099660D18823E9F289858F731F9254
S11302C08F9380E491E09F938F9314E01F930E9497
S11302D0EC0A898587FB882780F91F928F9384E530
S11302E091E09F938F931F930E94EC0A89858F73EB
S11302F00FB6F894DEBF0FBECDBF09F4BBCF512CAF
S11303006894442442F80F2EFBEBEF2EF1E0FF2E0D
S1130310F02D05ED11E0BE01665F7F4F81E0C0D195
S1130320882309F458C08D858F938C858F938B8592
S11303308F938A858F939F928F924F920E94EC0A9B
S113034089898F9388898F938F858F938E858F93D7
S1130350BF92AF924F920E94EC0A8D898F938C8941
S11303608F938B898F938A898F93DF92CF924F9249
S11303700E94EC0A898D8F93888D8F938F898F9338
S11303808E898F937F926F924F920E94EC0A8D8D8B
S11303908F938C8D8F938B8D8F938A8D8F93FF92F8
S11303A0EF924F920E94EC0A0FB6F894DEBF0FBE94
S11303B0CDBF89A18F9388A18F938F8D8F938E8DBD
S11303C08F931F930F934F920E94EC0A0FB6F894E9
S11303D0DEBF0FBECDBF5394252D30E089858F73CA
S11303E090E0281739070CF496CF44CF81E090E0D1
S11303F0A1960FB6F894DEBF0FBECDBFDF91CF91AB
S11304001F910F91FF90EF90DF90CF90BF90AF902E
S11304109F908F907F906F905F904F9008951F9260
S11304200F920FB60F9211240BB60F922F933F9396
S11304304F935F936F937F938F939F93AF93BF93E8
S1130440EF93FF9382EF91E09F938F9384E08F93D8
S11304500E94EC0A81E08093DE0A0F900F900F90C7
S1130460FF91EF91BF91AF919F918F917F916F9188
S11304705F914F913F912F910F900BBE0F900FBE44
S11304800F901F901895AF92BF92CF92DF92EF9288
S1130490FF920F931F93CF93DF931F92CDB7DEB7D5
S11304A089835B0169017A0100E02FED3AE041E0C4
S11304B050E060E070E0CE0101960E94A50D182F77
S11304C081110CC024E032E03F932F9381E08F939D
S11304D00E94EC0A0F900F900F9016C001E02FEDD0
S11304E03AE0B701A601C5010E94000F182F81113F
S11304F00BC02CE232E03F932F9381E08F930E9454
S1130500EC0A0F900F900F90812F0F90DF91CF91F5
S11305101F910F91FF90EF90DF90CF90BF90AF901D
S11305200895CF932091D80A21110DC082E592E05D
S11305309F938F9381E08F930E94EC0A0F900F900A
S11305400F90C0E015C021E030E040E050E0BC0175
S113055080E399DFC82F81110BC02FED32E03F9368
S11305602F9381E08F930E94EC0A0F900F900F90CD
S11305708C2FCF910895CF932091D80A21110DC0CB
S113058082E592E09F938F9381E08F930E94EC0A1F
S11305900F900F900F90C0E015C021E030E040E0D4
S11305A050E0BC0189E36FDFC82F81110BC026E046
S11305B033E03F932F9381E08F930E94EC0A0F90D6
S11305C00F900F908C2FCF910895CF932091D80A3C
S11305D021110CC082E592E09F938F9381E08F9369
S11305E0FBD70F900F900F90C0E014C026E030E0CE
S11305F040E050E0BC0182E346DFC82F81110AC00D
S113060029E533E03F932F9381E08F93E5D70F9053
S11306100F900F908C2FCF910895EF92FF920F932C
S11306201F93CF93DF93CDB7DEB727970FB6F89418
S1130630DEBF0FBECDBFCE0101969DDF8823F1F052
S113064089818F73E9F0F12C0AE713E0EE24E39437
S1130650CE010296BADF811107C01F930F93EF9268
S1130660BBD70F900F900F90F3942F2D30E089811A
S11306708F7390E0281739075CF304C080E003C04F
S113068081E001C081E027960FB6F894DEBF0FBE6B
S1130690CDBFDF91CF911F910F91FF90EF900895FF
S11306A02F923F924F925F926F927F928F929F927E
S11306B0AF92BF92CF92DF92EF92FF920F931F936C
S11306C0CF93DF93CDB7DEB762970FB6F894DEBF52
S11306D00FBECDBF082F1B018091D80A81110CC019
S11306E082E592E09F938F9381E08F9375D70F906B
S11306F00F900F9010E0E4C026E030E040E050E0BE
S1130700BE016F5F7F4F82E3BEDE182F81110BC0E5
S113071089E593E09F938F9381E08F935DD70F904A
S11307200F900F90CDC069817A81882777FD8095DD
S1130730982F0E94931220E030E040E85BE30E948F
S1130740BD134B015C01F101608371838283938348
S11307506B817C81882777FD8095982F0E94931266
S113076020E030E040E85BE30E94BD136B017C01B4
S1130770F10164837583868397836D817E818827E5
S113078077FD8095982F0E94931220E030E040E896
S11307905BE30E94BD132B013C01F101608771876B
S11307A082879387A5019401C501B4010E94BD13FA
S11307B06F83788789879A87A7019601C701B60155
S11307C00E94BD136B877C878D879E87A30192014E
S11307D0C301B2010E94BD136F87788B898B9A8BFA
S11307E09B01AC016B857C858D859E850E94F710ED
S11307F00E9424149B01AC01C501B4010E946A113A
S11308004B015C01F10164877587868797872F8583
S1130810388949895A896F81788589859A850E94A2
S1130820F7100E9424149B01AC01C701B6010E9479
S11308306A116B017C01F101608B718B828B938B4C
S11308402B853C854D855E856F81788589859A8564
S11308500E94F7100E942414A30192010E946A11BD
S11308602B013C01F101648B758B868B978B0130D6
S113087039F520EE3EE245E652E4C501B4010E949A
S1130880BD13F101648775878687978720EE3EE262
S113089045E652E4C701B6010E94BD13F101608B25
S11308A0718B828B938B20EE3EE245E652E4C301CA
S11308B0B2010E94BD13F101648B758B868B978BFB
S11308C0812F62960FB6F894DEBF0FBECDBFDF91C5
S11308D0CF911F910F91FF90EF90DF90CF90BF9039
S11308E0AF909F908F907F906F905F904F903F90CC
S11308F02F9008951F93CF93DF931F92CDB7DEB748
S113090021E030E040E050E0BE016F5F7F4F80E0C7
S1130910BADD182F81110BC021EB33E03F932F93E5
S113092081E08F9359D60F900F900F9012C0898158
S1130930853E79F01F928F938CED93E09F938F9374
S113094081E08F9349D60F900F900F900F900F90E6
S113095010E0812F0F90DF91CF911F91089588238C
S113096011F083E501C08DE1282F220F9091DF0A59
S11309709170922B9093DF0A1F928F938CE094E0F6
S11309809F938F9384E08F9327D6B4DF0F900F90BB
S11309900F900F900F90882319F091E09093D80A4C
S11309A00895AF92BF92CF92DF92EF92FF920F938E
S11309B01F93CF93DF93182F5B0169017A01C9015B
S11309C001960E947C15EC01009709F446C0FC01D5
S11309D01193A601B501CF010E94A31601E02FEDEA
S11309E03AE0B701A6014F5F5F4F6F4F7F4FCE01D3
S11309F00E94A50D082F81110AC024E234E03F9320
S1130A002F9381E08F93E8D50F900F900F90CE0134
S1130A100E941416F50180811F928F932AE434E01A
S1130A203F932F93C4E0CF93D7D5A7019601B50187
S1130A30812F29DDF50180811F928F932EE534E00B
S1130A403F932F93CF93C8D58DB79EB70A960FB611
S1130A50F8949EBF0FBE8DBF01C000E0802FDF91D0
S1130A60CF911F910F91FF90EF90DF90CF90BF90A7
S1130A70AF9008950F931F93CF93DF931F92CDB739
S1130A80DEB7082F9091D80A91110CC082E592E04C
S1130A909F938F9381E08F939FD50F900F900F902A
S1130AA010E037C021E030E040E050E0BE016F5F6D
S1130AB07F4F8DE2E8DC182F81110BC020E734E072
S1130AC03F932F9381E08F9387D50F900F900F90D2
S1130AD020C091E0011190E0898190FB83F9898322
S1130AE021E030E040E050E0BE016F5F7F4F8DE2D7
S1130AF058DF182F81110BC026E934E03F932F9360
S1130B0081E08F9369D50F900F900F9002C00093EE
S1130B100601812F0F90DF91CF911F910F910895BE
S1130B20FF920F931F93CF93DF9300D0CDB7DEB71F
S1130B30082FF62E8091D80A882321F0809106018F
S1130B4081110CC088EC94E09F938F9381E08F9384
S1130B5043D50F900F900F9010E08BC0023079F4C2
S1130B6084E0681761F087E095E09F938F9381E0BC
S1130B708F9332D50F900F900F9010E07AC021E040
S1130B8030E040E050E0BE016F5F7F4F8CE27BDCE1
S1130B90182F81110BC02CE235E03F932F9381E095
S1130BA08F931AD50F900F900F9063C01A82013063
S1130BB009F118F0023051F12FC08981875F8F70DD
S1130BC0863060F080E595E09F938F9381E08F936A
S1130BD003D50F900F900F9010E04BC08981806176
S1130BE089839A81947C8F2D83709863F92EF82AD7
S1130BF0FA8212C089818F7E89839A81947C8F2D99
S1130C0083709863F92EF82AFA8206C089818F7E50
S1130C1089838A8188608A8321E030E040E050E063
S1130C20BE016F5F7F4F8CE2BCDE182F81110BC0B9
S1130C3029E735E03F932F9381E08F93CDD40F9034
S1130C400F900F9016C021E030E040E050E0BE016C
S1130C506E5F7F4F8DE2A5DE182F81110AC020EA56
S1130C6035E03F932F9381E08F93B6D40F900F908C
S1130C700F90812F0F900F90DF91CF911F910F91C3
S1130C80FF9008951F93CF93DF93EB012091D80A2F
S1130C9021110CC082E592E09F938F9381E08F93A2
S1130CA09BD40F900F900F9010E029C021E030E00A
S1130CB040E050E0BC018FE274DE182F81110BC0BC
S1130CC029EC35E03F932F9381E08F9385D40F90E7
S1130CD00F900F9014C021E030E040E050E0BE01DE
S1130CE08EE25FDE182F81110AC020EF35E03F93BA
S1130CF02F9381E08F9370D40F900F900F90812FDA
S1130D00DF91CF911F910895CF932091D80A21119B
S1130D100CC082E592E09F938F9381E08F935CD423
S1130D200F900F900F90C0E014C021E030E040E03D
S1130D3050E0BC0188E335DEC82F81110AC02AE1E6
S1130D4036E03F932F9381E08F9346D40F900F901A
S1130D500F908C2FCF910895EF92FF920F931F93D2
S1130D60CF93DF9300D0CDB7DEB78A01E22E909106
S1130D70D80A91110CC082E592E09F938F9381E091
S1130D808F932AD40F900F900F90F12C97C09981D4
S1130D90986060FB95F983709876892B8F7B8983A3
S1130DA021E030E040E050E0BE016F5F7F4F81E31F
S1130DB0F8DDF82E81110BC022E436E03F932F9327
S1130DC081E08F9309D40F900F900F9077C021E0AA
S1130DD030E040E050E0BE016E5F7F4F8CE253DBB9
S1130DE0F82E81110BC02CE235E03F932F9381E064
S1130DF08F93F2D30F900F900F9060C08E2D8F7051
S1130E009A81907FE92EE82AEA8221E030E040E0EE
S1130E1050E0BE016E5F7F4F8CE2C3DDF82E81117E
S1130E200BC02DE636E03F932F9381E08F93D4D30C
S1130E300F900F900F9042C021E030E040E050E06E
S1130E40B8018EE1AEDDF82E81110BC020E936E049
S1130E503F932F9381E08F93BFD30F900F900F9008
S1130E602DC021E030E040E050E0B8016F5F7F4FDB
S1130E708FE197DDF82E81110BC02DEB36E03F9307
S1130E802F9381E08F93A8D30F900F900F9016C0EB
S1130E90B8016E5F7F4F21E030E040E050E080E237
S1130EA080DDF82E81110AC02AEE36E03F932F939D
S1130EB081E08F9391D30F900F900F908F2D0F900F
S1130EC00F90DF91CF911F910F91FF90EF900895B4
S1130ED01F93CF93DF9300D01F92CDB7DEB7698302
S1130EE04A832B832091D80A21110CC082E592E019
S1130EF09F938F9381E08F936FD30F900F900F90F8
S1130F0010E059C021E030E040E050E0BC0187E24D
S1130F1048DD182F81110BC027E137E03F932F9351
S1130F2081E08F9359D30F900F900F9044C021E02C
S1130F3030E040E050E0BE016F5F7F4F84E231DD7E
S1130F40182F81110BC024E437E03F932F9381E0E5
S1130F508F9342D30F900F900F902DC021E030E07B
S1130F6040E050E0BE016E5F7F4F85E21ADD182F2E
S1130F7081110BC02EE637E03F932F9381E08F93CE
S1130F802BD30F900F900F9016C021E030E040E07B
S1130F9050E0BE016D5F7F4F86E203DD182F8111A3
S1130FA00AC02AE937E03F932F9381E08F9314D34B
S1130FB00F900F900F90812F0F900F900F90DF9153
S1130FC0CF911F9108958091D90A811109C040934E
S1130FD0E00A40E063E370E060D781E08093D90ADF
S1130FE00895FC0101900020E9F731979F01281B27
S1130FF0390B40E050E0BC0180E00C941A100895D5
S11310008F929F92AF92BF92CF92DF92EF92FF9214
S11310100F931F93CF93DF93CDB7DEB7DA950FB657
S1131020F894DEBF0FBECDBF022F932EA42EB52E93
S1131030C62ED72EE82EF92E10E0812C202F392D24
S11310404A2D5B2D6C2D7D2D8E2D9F2DAFE00E94A2
S1131050701509F080F4E1E0F0E0EC0FFD1FE10F02
S1131060F11D0083082D982CA82CB82CC82CD82C42
S1131070E82CF82C1CC0E1E0F0E0EC0FFD1FE10FC0
S1131080F11D802F8F708083202F392D4A2D5B2DE9
S11310906C2D7D2D8E2D9F2D04E00E945415022F62
S11310A0932EA42EB52EC62ED72EE82EF92EE12F80
S11310B0F0E0A1E0B0E0AC0FBD1FAE0FBF1F8C91FC
S11310C08A3020F0FD01895A808308C021E030E095
S11310D02C0F3D1FE20FF31F805D80831F5F202FC5
S11310E0392D4A2D5B2D6C2D7D2D8E2D9F2DA82DF8
S11310F00E94701509F0A2CF112391F0612F70E0C6
S11311006150710981E090E08C0F9D1F680F791F79
S113111021E030E040E050E080E08CD7115071F7DE
S1131120D3950FB6F894DEBF0FBECDBFDF91CF913C
S11311301F910F91FF90EF90DF90CF90BF90AF90F1
S11311409F908F9008952F923F924F925F926F924B
S11311507F928F929F92AF92BF92CF92DF92EF9243
S1131160FF920F931F93CF93DF93CDB7DEB7C25097
S1131170D1400FB6F894DEBF0FBECDBFCF5FDE4FB8
S11311802883C150D140232E342E452E562E672E4F
S1131190782E892E912CCF5FDE4F2881C150D1400B
S11311A0322D432D542D652D762D872D982DA9E0B4
S11311B00E94701509F040F4FE01E90DF11D822F23
S11311C0805D818393944BC00F2EFAE0AF2EF02DF7
S11311D0B12CC12CD12CE12CF12C00E010E0CF5F1C
S11311E0DE4F2881C150D140322D432D542D652D21
S11311F0762D872D982D0E94AD14CE5FDE4F288367
S1131200C250D140CF5FDE4F2881C150D140322D32
S1131210432D542D652D762D872D982D0E94AF14C6
S1131220CF5FDE4F2883C150D140232E342E452E6C
S1131230562E672E782E892EE1E0F0E0EC0FFD1F8C
S1131240E90DF11DCE5FDE4FA881C250D140A05DF3
S1131250A0839394A0E00E94701509F09CCF99207C
S113126091F0692D70E06150710981E090E08C0F7C
S11312709D1F680F791F21E030E040E050E080E0DE
S1131280D9D69A9471F7CE5FDE4F0FB6F894DEBFCD
S11312900FBECDBFDF91CF911F910F91FF90EF90C3
S11312A0DF90CF90BF90AF909F908F907F906F9082
S11312B05F904F903F902F9008956F927F928F92FE
S11312C09F92AF92BF92CF92DF92EF92FF920F93D1
S11312D01F93CF93DF9300D01F92CDB7DEB76B017E
S11312E07C018EE28A838DE28B8320E030E0A901C9
S11312F0C701B6010E94BD1188236CF421E030E0DF
S113130040E050E0BE016D5F7F4F80E093D6F7FA76
S1131310F094F7F8F094C701B6010E942712622EE8
S1131320732E842E952EA62EB72E082F192F0E94C9
S11313308D129B01AC01C701B60158D76B017C012A
S1131340262D372D482D592D6A2D7B2D802F912F39
S1131350FADE21E030E040E050E0BE016E5F7F4FF6
S113136080E068D620E030E0A901C701B6010E9400
S1131370BD11882361F120E030E040E251E4C7016F
S1131380B6010E94BD136B017C010E946112162FED
S113139070E080E090E00E9493129B01AC01C701D1
S11313A0B60124D76B017C01105D198321E030E084
S11313B040E050E0BE016F5F7F4F80E03BD620E00D
S11313C030E0A901C701B601D8D78111D4CF80E399
S11313D0898321E030E040E050E0BE016F5F7F4F41
S11313E080E028D60F900F900F90DF91CF911F913E
S11313F00F91FF90EF90DF90CF90BF90AF909F90B0
S11314008F907F906F9008952F923F924F925F92AA
S11314106F927F928F929F92AF92BF92CF92DF9200
S1131420EF92FF920F931F93CF93DF93CDB7DEB765
S1131430C350D1400FB6F894DEBF0FBECDBFCE5F10
S1131440DE4F2883C250D140832E742E652E562E33
S1131450472E382E292E8DE2CF5FDE4F8883C15070
S1131460D140832DA0E00E9470151CF521E030E0EE
S113147040E050E0BE016F5F7E4F80E0DBD5CE5F81
S1131480DE4F2881C250D140382D472D562D652D71
S1131490742D832D922D0E940B15CE5FDE4F288371
S11314A0C250D140832E742E652E562E472E382ED0
S11314B0292E912CCE5FDE4F2881C250D140382D89
S11314C0472D562D652D742D832D922DA9E00E9454
S11314D0701509F044F4FE01E90DF11D822F805DC1
S11314E0818393944BC00F2EFAE0AF2EF02DB12CD4
S11314F0C12CD12CE12CF12C00E010E0CE5FDE4FAA
S11315002881C250D140382D472D562D652D742D7C
S1131510832D922D0E948214CD5FDE4F2883C35009
S1131520D140CE5FDE4F2881C250D140382D472DA7
S1131530562D652D742D832D922D0E948414CE5F1B
S1131540DE4F2883C250D140832E742E652E562E32
S1131550472E382E292EE1E0F0E0EC0FFD1FE90DB7
S1131560F11DCD5FDE4FA881C350D140A05DA083A3
S11315709394A0E00E94701509F09CCF992091F0FB
S1131580692D70E06150710981E090E08C0F9D1F1E
S1131590680F791F21E030E040E050E080E04AD558
S11315A09A9471F7CD5FDE4F0FB6F894DEBF0FBE8D
S11315B0CDBFDF91CF911F910F91FF90EF90DF90FE
S11315C0CF90BF90AF909F908F907F906F905F90DF
S11315D04F903F902F9008953F924F925F926F9259
S11315E07F928F929F92AF92BF92CF92DF92EF92AF
S11315F0FF920F931F93CF93DF931F92CDB7DEB764
S11316000E891F898091D90A882309F41CC180910D
S1131610E00A9D89892309F416C17E0128E1E20EBE
S1131620F11CF8012081222309F40DC1412CD12C95
S1131630512C33243394253229F0D11005C04110A4
S113164003C0F0C00F5F1F4FF801808190E0FC01E0
S1131650E356F109E631F10508F0EDC0EA5BFF4F0E
S11316600C947C145701F2E0AF0EB11CF701808199
S1131670898321E030E040E050E0BE016F5F7F4F9E
S1131680852DD8D47501D7C0DD20D9F06701F4E0E9
S1131690CF0ED11CF70180819181A281B3814C01CD
S11316A05D01BB0C8808982C5401282F392F4A2F30
S11316B05B2F682D782D882D982DA6DE7601D52CEC
S11316C0BAC0442089F05701F8E0AF0EB11CF7010D
S11316D02081318142815381648175818681978122
S11316E093DE7501452CA7C05701F2E0AF0EB11C83
S11316F0F70131812081932F990F990B492F592F8D
S1131700692F792F892F80DE750195C0DD20B9F00E
S11317103701F4E06F0E711CF70180819181A28181
S1131720B3814C015D01282F392D4A2D5B2D652D88
S1131730752D852D952D07DD7301D52C7CC0442096
S113174089F05701F8E0AF0EB11CF7012081318117
S1131750428153816481758186819781F4DC7501AE
S1131760452C69C0F70140815181F2E0EF0EF11C74
S1131770242F352F452D552D652D752D852D952D12
S1131780E2DC59C0DD20A9F0F70180819181A281BA
S1131790B38124E0E20EF11C3C014D01282F372DCA
S11317A0482D592D652D752D852D952D29DCD52C8C
S11317B042C0442079F0F701208188E0E80EF11C52
S11317C0318142815381648175818681978118DCDE
S11317D0452C31C0F70140815181E2E0EE0EF11C4D
S11317E0242F352F452D552D652D752D852D952DA2
S11317F007DC21C0DD20F1F0432CD52C1CC0F701FF
S113180080819181F2E0EF0EF11CEBDB14C0F70153
S1131810608171818281938124E0E20EF11C4DDDAF
S1131820D52C09C021E030E040E050E0B801852D1E
S113183001D401C0D32CC8010196F80121812223CF
S113184011F08C01F8CE0F90DF91CF911F910F9181
S1131850FF90EF90DF90CF90BF90AF909F908F90CC
S11318607F906F905F904F903F900895811120C0BA
S11318706115710589F04115510571F0FB018081F5
S11318808093BA00FA0180818093BD0087B18C7F78
S113189087B91092E10A12C081E598E09F938F9373
S11318A081E08F9399DE0F900F900F9080E0089560
S11318B081E08093E10A87B1836087B980E28093F5
S11318C0B8001092B90084E48093BC00FFEF20E7D5
S11318D082E0F15020408040E1F700C00000109207
S11318E0DA0A81E08093DB0A0895ECEBF0E0808172
S11318F08F75806280838081806880838081882363
S1131900ECF7ECEBF0E080818F7580838091DA0A4C
S1131910882341F09091B900987F81E0903149F09B
S113192080E008959091B900987F81E0983009F0A3
S113193080E00895ECEBF0E080818F768061808315
S1131940808180688083808184FFFDCF08958F9299
S11319509F92AF92BF92DF92EF92FF920F931F93E9
S1131960CF93DF932091E10A213029F40F2EF8E27E
S1131970DF2EF02D04C00F2EF8EBDF2EF02D4A01E0
S11319805B0121E0821A9108A108B1088114910435
S1131990A104B104E1F1DC0100E010E098014BEB9B
S11319A050E0ECEBF0E00F2EF9EBEF2EF12CF02DE4
S11319B06D2D70E08D91EA01888380818068808339
S11319C080818823ECF7E7018881887F90E086177F
S11319D0970799F08091B900887F1F928F9380E7D1
S11319E098E09F938F9381E08F93F6DD0F900F9093
S11319F00F900F900F9080E03BC0CD010F5F1F4F01
S1131A002F4F3F4F081519052A053B0598F22091E1
S1131A10E10A211104C00F2EF0ECDF2EF02DFC01A1
S1131A2080818093BB00ECEBF0E080818068808350
S1131A3080818823ECF72091B900287F30E08D2D38
S1131A4090E02817390799F08091B900887F1F9298
S1131A508F9380E798E09F938F9381E08F93BCDD11
S1131A600F900F900F900F900F9080E001C081E0D5
S1131A70DF91CF911F910F91FF90EF90DF90BF9076
S1131A80AF909F908F900895AF92BF92CF92DF92C4
S1131A90EF92FF920F93CF93DF935C016A017B0176
S1131AA0E90123DF811113C08091B900887F1F925F
S1131AB08F9386EA98E09F938F9381E08F938CDDD8
S1131AC00F900F900F900F900F90C0E033C01092C2
S1131AD0DA0A88818E7F88838093BB00ECEBF0E088
S1131AE080818068808380818823ECF78091B900AD
S1131AF0887F883199F08091B900887F1F928F93F5
S1131B0080EF98E09F938F9381E08F9365DD0F9032
S1131B100F900F900F900F90C0E00CC0B701A6017A
S1131B20C50115DFC82F002311F004DF03C081E0D5
S1131B308093DA0A8C2FDF91CF910F91FF90EF9071
S1131B40DF90CF90BF90AF9008950F93E091DB0AA0
S1131B50EE2309F448C0009709F447C0E091E10A74
S1131B60E13089F42115310561F487E499E09F930C
S1131B708F9381E08F9330DD0F900F900F9080E072
S1131B8035C082DF33C0ECEBF0E020812068208395
S1131B9020812223ECF72091B900287F203A41F4D8
S1131BA0ECEBF0E020812068208320812223ECF7F5
S1131BB02091B900287F283A91F08091B9001F92B2
S1131BC08F938AE699E09F938F9381E08F9304DD4E
S1131BD00F900F900F900F900F9080E007C0399AEC
S1131BE0B6DE399803C080E001C080E00F9108950B
S1131BF08F929F92AF92BF92DF92EF92FF920F93D8
S1131C001F93CF93DF932091E10A213029F40F2E03
S1131C10F0E5DF2EF02D03C06894DD24D7F84A01E7
S1131C205B0121E0821A9108A108B1088114910492
S1131C30A104B104E1F1DC0100E010E09801ECEB57
S1131C40F0E00F2EF9EBEF2EF12CF02D6D2D70E05E
S1131C504BEB50E080818068808380818823ECF79F
S1131C60E7018881887F90E08617970799F0809133
S1131C70B900887F1F928F9384EA99E09F938F9392
S1131C8081E08F93A9DC0F900F900F900F900F902D
S1131C9080E043C0EA0188818D93CD010F5F1F4F1F
S1131CA02F4F3F4F081519052A053B0598F220913F
S1131CB0E10A213049F4ECEBF0E020812F7320831A
S1131CC00F2EF8E5DF2EF02DECEBF0E020812068FC
S1131CD0208320812223ECF74091B900487F50E013
S1131CE02D2D30E04217530799F08091B900887F79
S1131CF01F928F9384EA99E09F938F9381E08F934F
S1131D006BDC0F900F900F900F900F9080E005C048
S1131D102091BB00FC01208381E0ECEBF0E090819A
S1131D209F7390649083DF91CF911F910F91FF90E7
S1131D30EF90DF90BF90AF909F908F900895AF92F7
S1131D40BF92CF92DF92EF92FF920F93CF93DF93E4
S1131D505C016A017B01E901C8DD811113C0809136
S1131D60B900887F1F928F9386ED99E09F938F939C
S1131D7081E08F9331DC0F900F900F900F900F90B4
S1131D80C0E033C01092DA0A88818160888380932E
S1131D90BB00ECEBF0E08081806880838081882345
S1131DA0ECF78091B900887F803499F08091B90074
S1131DB0887F1F928F938FE19AE09F938F9381E0A6
S1131DC08F930ADC0F900F900F900F900F90C0E04C
S1131DD00CC0B701A601C5010BDFC82F002311F009
S1131DE0A9DD03C081E08093DA0A8C2FDF91CF91C3
S1131DF00F91FF90EF90DF90CF90BF90AF90089538
S1131E000F93E091DB0AEE23D1F10097D1F1E09139
S1131E10E10AE13099F42115310561F484E79AE08F
S1131E209F938F9381E08F93D7DB0F900F900F9048
S1131E3080E028C0399883DF399A24C0ECEBF0E0C5
S1131E4020812068208320812223ECF72091B9008F
S1131E50287F203691F08091B9001F928F9386E9F4
S1131E609AE09F938F9381E08F93B6DB0F900F904E
S1131E700F900F900F9080E005C0BADE03C080E0A1
S1131E8001C080E00F91089582E084BD15BC16BCAA
S1131E9017BC18BC80936E000895CF934093F00A4A
S1131EA0882319F08130C9F030C07093C500609365
S1131EB0C40088E98093C100413039F486E08093FE
S1131EC0C20081E08093C00003C086E08093C2001A
S1131ED081E08093DC0AC1E019C07093CD00609367
S1131EE0CC0088E98093C900413039F486E08093BE
S1131EF0CA0081E08093C80003C086E08093CA00D2
S1131F0081E08093DD0AC1E001C0C0E0BDDF8C2F19
S1131F10CF910895CF92DF92EF92FF920F931F9388
S1131F20CF93DF936B01882319F08130C1F16CC02A
S1131F308091DC0A882309F46BC021153105410521
S1131F40510509F46CC080E090E0DC01C0ECD0E005
S1131F500F2EF1ECEF2EF12CF02D66EC70E01881D1
S1131F6015FFFDCF1091F00A112359F0002329F039
S1131F70F70110811160108304C0F70110811E7FE6
S1131F801083F60111916F01FB0110830196A11DCD
S1131F90B11D82179307A407B50709F740C08091C4
S1131FA0DD0A8823C9F12115310541055105B9F12F
S1131FB080E090E0DC01C8ECD0E00F2EF9ECEF2ECD
S1131FC0F12CF02D6EEC70E0188115FFFDCF10910F
S1131FD0F00A112359F0002329F0F7011081116050
S1131FE0108304C0F70110811E7F1083F601119144
S1131FF06F01FB0110830196A11DB11D8217930788
S1132000A407B50709F70BC020E030E0A90107C019
S113201020E030E0A90103C020E030E0A901CA01BA
S1132020B901DF91CF911F910F91FF90EF90DF9055
S1132030CF9008950F9300E06DDF0F9108951F92E4
S11320400F920FB60F9211248F9381E08093F30ABD
S11320508F910F900FBE0F901F9018951F920F92A3
S11320600FB60F9211240BB60F922F933F934F93F9
S11320705F936F937F938F939F93AF93BF93EF93EC
S1132080FF93E091E20AF091E30A309731F0609116
S1132090EE0A7091EF0A80E00995FF91EF91BF91EC
S11320A0AF919F918F917F916F915F914F913F91EC
S11320B02F910F900BBE0F900FBE0F901F9018958D
S11320C01F920F920FB60F9211240BB60F922F93FB
S11320D03F934F935F936F937F938F939F93AF93AC
S11320E0BF93EF93FF93E091E80AF091E90A3097E8
S11320F031F06091E60A7091E70A81E00995FF9159
S1132100EF91BF91AF919F918F917F916F915F916B
S11321104F913F912F910F900BBE0F900FBE0F90D8
S11321201F9018951F920F920FB60F9211240BB6A1
S11321300F922F933F934F935F936F937F938F935C
S11321409F93AF93BF93EF93FF93E091E40AF091D1
S1132150E50A309731F06091EC0A7091ED0A80E065
S11321600995FF91EF91BF91AF919F918F917F91CD
S11321706F915F914F913F912F910F900BBE0F90F4
S11321800FBE0F901F9018951F920F920FB60F92CB
S113219011240BB60F922F933F934F935F936F933A
S11321A07F938F939F93AF93BF93EF93FF93E091AC
S11321B0EA0AF091EB0A309731F06091F10A7091DC
S11321C0F20A81E00995FF91EF91BF91AF919F9140
S11321D08F917F916F915F914F913F912F910F90CC
S11321E00BBE0F900FBE0F901F9018955058BB2731
S11321F0AA270ED081C272D230F077D220F031F407
S11322009F3F11F41EF432C20EF4E095E7FB28C29E
S1132210E92F83D280F3BA176207730784079507FF
S113222018F071F49EF59BC20EF4E0950B2EBA2FB4
S1132230A02D0B01B90190010C01CA01A0011124C8
S1132240FF27591B99F0593F50F4503E68F11A1674
S1132250F040A22F232F342F4427585FF3CF469505
S113226037952795A795F0405395C9F77EF41F1627
S1132270BA0B620B730B840BBAF09150A1F0FF0FF1
S1132280BB1F661F771F881FC2F70EC0BA0F621FDD
S1132290731F841F48F4879577956795B795F795CD
S11322A09E3F08F0B3CF9395880F08F09927EE0F5F
S11322B097958795089512D258F080E891E009F433
S11322C09EEF13D228F040E851E059F45EEF09C0C4
S11322D0CDC145C2E92FE07820D268F3092E052A42
S11322E0C1F3261737074807590738F00E2E07F8A9
S11322F0E02569F0E025E0640AC0EF6307F8009484
S113230007FADB01B9019D01DC01CA01AD01EF93BC
S113231045D0F2D10AD05F91552331F02BED3FE047
S113232049E450FD49EC63CF0895DF93DD27B92FCD
S1132330BF7740E85FE31616170648075B0710F4FB
S1132340D92F14D29F938F937F936F93BBD2E8EBD3
S1132350F0E09FD1D1D12F913F914F915F9119D24C
S1132360DD2349F09058A2EA2AED3FE049EC5FE30F
S1132370D0785D274DDFDF91BFC14ED108F481E0F5
S11323800895B3D140F0AAD130F021F45F3F19F0A1
S113239067C15111E5C16AC1C0D198F39923C9F34A
S11323A05523B1F3951B550BBB27AA276217730757
S11323B0840738F09F5F5F4F220F331F441FAA1F0B
S11323C0A9F333D00E2E3AF0E0E830D091505040CB
S11323D0E695001CCAF729D0FE2F27D0660F771F79
S11323E0881FBB1F261737074807AB07B0E809F05B
S11323F0BB0B802DBF01FF2793585F4F2AF09E3FF0
S1132400510568F02DC1ACC15F3FECF3983EDCF39D
S1132410869577956795B795F7959F5FC9F7880F68
S1132420911D9695879597F90895E1E0660F771FBA
S1132430881FBB1F621773078407BA0720F0621B4B
S1132440730B840BBA0BEE1F88F7E0950895BEE377
S113245004D008F490E80895BFE322273327A901A4
S113246064D158F19F5740F1B91738F1BFE3B91B54
S11324709927B8503AF4660F771F881F991FB395B0
S1132480D2F316C0B8504AF0232F342F452F562FBD
S1132490672F782F8827B850BAF7B85F49F0869528
S11324A0779567955795479537952795BA95B9F7D1
S11324B00EF4DFD088940895889460E070E0CB0136
S11324C0089533D188F09F5790F0B92F9927B751C9
S11324D0A0F0D1F0660F771F881F991F1AF0BA95E4
S11324E0C9F712C0B13081F03AD1B1E0089537C1D3
S11324F0672F782F8827B85F39F0B93FCCF38695DA
S113250077956795B395D9F73EF490958095709536
S113251061957F4F8F4F9F4F089597FB0EF4A9D07D
S11325203EC0E89409C097FB3EF490958095709561
S113253061957F4F8F4F9F4F9923A9F0F92F96E90B
S1132540BB279395F695879577956795B795F11180
S1132550F8CFFAF4BB0F11F460FF1BC06F5F7F4F1D
S11325608F4F9F4F16C0882311F096E911C077232F
S113257021F09EE8872F762F05C0662371F096E838
S1132580862F70E060E02AF09A95660F771F881F07
S1132590DAF7880F9695879597F90895E894F92FB7
S11325A096EBFF2381F0121613061406440B939541
S11325B0F69587957795679557954040FF23B9F72A
S11325C01BC099270895882351F49850D2F7872B7C
S11325D0762F652F542F432F322F20E0B1F312169C
S11325E013061406440B88233AF09A95440F551F9A
S11325F0661F771F881FCAF755234AF4440F551FD7
S113260011F460FF04C06F5F7F4F8F4F9F4F880F9F
S11326109695879597F90895990F0008550FAA0B79
S1132620E0E8FEEF16161706E807F907C0F01216E1
S11326301306E407F50798F0621B730B840B950BE4
S113264039F40A2661F0232B242B252B21F4089539
S11326500A2609F4A140A6958FEF811D811D0895D6
S113266097F99F6780E870E060E008959FEF80EC41
S11326700895909580957095609550954095309506
S113268021953F4F4F4F5F4F6F4F7F4F8F4F9F4F5E
S11326900895DF93CF931F930F93FF92EF92DF92EE
S11326A07B018C01689405C0DA2EEF0172D0FE0123
S11326B0E894A5912591359145915591AEF3EF019B
S11326C0A7DDFE019701A801DA9479F7DF90EF9076
S11326D0FF900F911F91CF91DF91089500240A94E8
S11326E01616170618060906089500240A941216E9
S11326F01306140605060895092E0394000C11F41C
S1132700882352F0BB0F40F4BF2B11F460FF04C0C8
S11327106F5F7F4F8F4F9F4F089557FD9058440F21
S1132720551F59F05F3F71F04795880F97FB991F2C
S113273061F09F3F79F087950895121613061406E9
S1132740551FF2CF4695F1DF08C016161706180676
S1132750991FF1CF86957105610508940895E89451
S1132760BB2766277727CB0197F908959B01AC0116
S113277060E070E080E89FE3A8C00BD0BDCFAEDF7F
S113278028F0B3DF18F0952309F06ACF6FCF112436
S1132790E7CFC3DFA0F3959FD1F3950F50E0551F0A
S11327A0629FF001729FBB27F00DB11D639FAA27A2
S11327B0F00DB11DAA1F649F6627B00DA11D661FF1
S11327C0829F2227B00DA11D621F739FB00DA11D12
S11327D0621F839FA00D611D221F749F3327A00DCC
S11327E0611D231F849F600D211D822F762F6A2F68
S11327F011249F5750408AF0E1F088234AF0EE0FED
S1132800FF1FBB1F661F771F881F91505040A9F7F9
S11328109E3F510570F024CFA3CF5F3FECF3983E69
S1132820DCF3869577956795B795F795E7959F5F60
S1132830C1F7FE2B880F911D9695879597F90895FA
S113284011F40EF413CF43C070DFD0F39923D9F3FE
S1132850CEF39F57550B87FF48D00024A0E640EAEB
S1132860900180585695979528F4805C660F771FE1
S1132870881F20F026173707480730F4621B730BB4
S1132880840B202931294A2BA695179407942025D7
S113289031254A2758F7660F771F881F20F026171F
S11328A03707480730F4620B730B840B200D311D7E
S11328B0411DA09581F7B901842F9158880F9695F1
S11328C0879508959B01AC0158CF66DD15CF9F3FD6
S11328D031F0915020F4879577956795B795880FD7
S11328E0911D9695879597F9089591505040660FDC
S11328F0771F881FD2F70895EE0FFF1F0590F491FC
S1132900E02D0994689401C0E894F92FF12B0AF0A2
S113291027C0A0E0B0E0EEE8F4E193C0092E0594EE
S11329201AF479D0112392F4F0E80F26FFEFE09423
S1132930F09400951095B094C094D094A194BF0ADB
S1132940CF0ADF0AEF0AFF0A0F0B1F0B13D007FC95
S113295062D0CDB7DEB7ECE090C0689401C0E894D3
S11329608F929F92CF93DF9305D0DF91CF919F9069
S11329708F90089588249924F401E401B0E49F938E
S1132980AA279A158B049C04ED05FE05CF05D007F4
S1132990A10798F4AD2FDC2FCF2FFE2FE92D982C13
S11329A0892E982F872F762F652F542F432F322F60
S11329B02227B85031F7BF9127C01B2EBF91BB27E8
S11329C0220F331F441F551F661F771F881F991F2F
S11329D0881C991CEE1FFF1FCC1FDD1FAA1FBB1FE5
S11329E08A149B04EC05FD05CE05DF05A007B1079D
S11329F048F08A189B08EC09FD09CE09DF09A00BF1
S1132A00B10B21601A94E1F62EF49401AF01BE01DA
S1132A10CD01000C08956095709580959095309542
S1132A204095509521953F4F4F4F5F4F6F4F7F4FCC
S1132A308F4F9F4F08952F923F924F925F926F92C4
S1132A407F928F929F92AF92BF92CF92DF92EF923A
S1132A50FF920F931F93CF93DF93CDB7DEB7CA1BBB
S1132A60DB0B0FB6F894DEBF0FBECDBF09942A88E6
S1132A70398848885F846E847D848C849B84AA848E
S1132A80B984C884DF80EE80FD800C811B81AA811B
S1132A90B981CE0FD11D0FB6F894DEBF0FBECDBFE6
S1132AA0ED01089597FB10F8169400080F93083071
S1132AB098F00850232F342F452F562F672F782F47
S1132AC0892F902DF4CF05949795879577956795E1
S1132AD057954795379527950A95AAF70F91089525
S1132AE00024A7FD00942A17300540055005600511
S1132AF07005800590050895CF93DF93823091058A
S1132B0010F482E090E0E091F60AF091F70A20E0F8
S1132B1030E0A0E0B0E0309739F1408151814817AE
S1132B205907B8F04817590771F4828193811097B7
S1132B3029F013969C938E9312972CC09093F70AC6
S1132B408093F60A27C02115310531F04217530747
S1132B5018F0A901DB0101C0EF019A01BD01DF01F9
S1132B600280F381E02DD7CF21153105F9F0281B20
S1132B70390B2430310580F48A819B8161157105FC
S1132B8021F0FB019383828304C09093F70A80931E
S1132B90F60AFE01329644C0FE01E20FF31F819350
S1132BA0919322503109398328833AC02091F40A41
S1132BB03091F50A232B41F4209102013091030155
S1132BC03093F50A2093F40A209100013091010119
S1132BD02115310541F42DB73EB7409104015091C0
S1132BE00501241B350BE091F40AF091F50AE21774
S1132BF0F307A0F42E1B3F0B2817390778F0AC011C
S1132C004E5F5F4F2417350748F04E0F5F1F5093F8
S1132C10F50A4093F40A8193919302C0E0E0F0E056
S1132C20CF01DF91CF910895CF93DF93009709F4FB
S1132C3087C0FC01329713821282C091F60AD091A8
S1132C40F70A209781F420813181280F391F809160
S1132C50F40A9091F50A8217930779F5F093F50A2F
S1132C60E093F40A6DC0DE0120E030E0AE17BF0748
S1132C7050F412964D915C9113979D0141155105A5
S1132C8009F1DA01F3CFB383A28340815181840F28
S1132C90951F8A179B0771F48D919C911197840F4E
S1132CA0951F02969183808312968D919C91139720
S1132CB0938382832115310529F4F093F70AE09375
S1132CC0F60A3EC0D9011396FC93EE9312974D91E8
S1132CD05D91A40FB51FEA17FB0779F480819181F8
S1132CE0840F951F0296D90111969C938E9382812D
S1132CF0938113969C938E931297E0E0F0E08A817F
S1132D009B81009719F0FE01EC01F9CFCE010296E8
S1132D1028813981820F931F2091F40A3091F50A9A
S1132D202817390769F4309729F41092F70A10929A
S1132D30F60A02C013821282D093F50AC093F40AF1
S1132D40DF91CF910895FB01DC0102C001900D9247
S10F2D5041505040D8F70895F894FFCF8C
S1132D5C0000F80A200001416363656C65726F6DB5
S1132D6C6574657220536574757020436F6D706C57
S1132D7C6574650D0A00496E746572727570742001
S1132D8C536F75726365203D20307825780D0A00E9
S1132D9C4669666F20456E7472696573203D202503
S1132DAC640D0A004669666F205472696767657220
S1132DBC6564203D2025640D0A0058204178697310
S1132DCC20416363203D2025666709005920417822
S1132DDC697320416363203D2025666709005A20EE
S1132DEC4178697320416363203D202566670D0A91
S1132DFC005820417869732054696C74203D202557
S1132E0C66206465677265657309005920417869A9
S1132E1C732054696C74203D2025662064656772A8
S1132E2C65657309005A20417869732054696C7480
S1132E3C203D20256620646567726565730D0A0D57
S1132E4C0A00496E746572727570742046697265F5
S1132E5C640D0A004661696C656420746F20747299
S1132E6C616E736D69742052656769737465722041
S1132E7C416464726573732E200D0A004661696C9B
S1132E8C656420746F20726574726965766520526E
S1132E9C656769737465722056616C75652E200DB7
S1132EAC0A00416363656C65726F6D6574657220AD
S1132EBC6E6F7420696E697469616C697A65642ECD
S1132ECC200D0A004661696C656420746F20707271
S1132EDC6F6772616D20465245452046414C4C202B
S1132EEC5448524553484F4C442072656769737477
S1132EFC65722E200D0A004661696C656420746F3E
S1132F0C2070726F6772616D204672656520466130
S1132F1C6C6C205468726573686F6C642054696DB2
S1132F2C652072656769737465722E200D0A0046FC
S1132F3C61696C656420746F207265616420494E0C
S1132F4C5420534F55524345207265676973746519
S1132F5C722E200D0A004661696C656420746F2022
S1132F6C72656164204649464F205354415455536D
S1132F7C2072656769737465722E200D0A004661B0
S1132F8C696C656420746F207265616420414354DC
S1132F9C20544150205374617475732072656769B1
S1132FAC737465722E200D0A004661696C65642089
S1132FBC746F20726561642044617461205265678A
S1132FCC69737465722E200D0A0052656164696E12
S1132FDC672064617461206661696C65642077683C
S1132FEC696C6520617474656D7074696E672074A6
S1132FFC6F20666C757368204649464F2E200D0A67
S113300C004661696C656420746F2072656164208C
S113301C416363656C65726F6D657465722044659C
S113302C766963652049642E200D0A00416363654B
S113303C6C65726F6D657465722044657669636541
S113304C20496420646F6573206E6F74206D617405
S113305C636820307825782E200D0A004465766943
S113306C63652041646472657373203D2030782558
S113307C780D0A004661696C656420746F20747263
S113308C616E736D6974205265676973746572201F
S113309C56616C75652E200D0A005772697474653F
S11330AC6E2056616C756520307825780900526560
S11330BC61642056616C756520307825780D0A00A2
S11330CC4661696C656420746F207265616420507C
S11330DC6F7765722043544C20726567697374650D
S11330EC722E200D0A004661696C656420746F2091
S11330FC706C61636520416363656C65726F6D65AB
S113310C74657220696E207374616E646279206DCB
S113311C6F64652E200D0A00416363656C65726FE4
S113312C6D65746572206E6F7420696E6974696163
S113313C6C697A6564206F72206974206973206EDF
S113314C6F7420696E207374616E646279206D6F84
S113315C64652E200D0A00496E76616C69642057F3
S113316C616B657570204672657175656E63792047
S113317C53656C65637465642E0D0A004661696C55
S113318C656420746F20726561642042572052413B
S113319C54452072656769737465722E200D0A009C
S11331AC496E76616C696420446174612052617467
S11331BC6520666F72204C6F7720506F7765722094
S11331CC4D6F64652E200D0A004661696C656420A0
S11331DC746F2070726F6772616D20425720524178
S11331EC54452052656769737465722E200D0A006C
S11331FC4661696C656420746F2070726F677261CC
S113320C6D20506F7765722043544C20526567696A
S113321C737465722E200D0A004661696C65642016
S113322C746F2070726F6772616D20494E54204D1B
S113323C41502052656769737465722E200D0A0023
S113324C4661696C656420746F2070726F6772617B
S113325C6D20494E5420454E41424C4520526567E1
S113326C69737465722E200D0A004661696C65647D
S113327C20746F2070726F6772616D204649464FDF
S113328C2043544C2052656769737465722E200D6B
S113329C0A004661696C656420746F2070726F67F4
S11332AC72616D204441544120464F524D4154208B
S11332BC52656769737465722E200D0A0046616944
S11332CC6C656420746F20736574204257205241DE
S11332DC54452072656769737465722E200D0A005B
S11332EC4661696C656420746F2070726F677261DB
S11332FC6D2044415441204F464653455420582098
S113330C52656769737465722E200D0A00466169F3
S113331C6C656420746F2070726F6772616D2044E9
S113332C415441204F464653455420592052656719
S113333C69737465722E200D0A004661696C6564AC
S113334C20746F2070726F6772616D204441544118
S113335C204F4646534554205A205265676973746E
S113336C65722E200D0A004661696C656420746FC9
S113337C2070726F6772616D2041435420494E4135
S113338C43542043544C2052656769737465722E00
S113339C200D0A004661696C656420746F2070729C
S11333AC6F6772616D205448524553482041435411
S11333BC2052656769737465722E200D0A0046618C
S11333CC696C656420746F2070726F6772616D2014
S11333DC54485245534820494E4143542052656742
S11333EC69737465722E200D0A004661696C6564FC
S11333FC20746F2070726F6772616D2054494D4553
S113340C20494E4143542052656769737465722E8A
S113341C200D0A004661696C656420746F20736525
S113342C7420544150204158455320726567697388
S113343C7465722E200D0A004661696C65642074F3
S113344C6F20736574204475726174696F6E207299
S113345C656769737465722E200D0A004661696C88
S113346C656420746F20736574204C6174656E639D
S113347C792072656769737465722E200D0A004693
S113348C61696C656420746F207365742057696E70
S113349C646F772072656769737465722E200D0AE8
S11334AC00496E6974545749202D20496E76616C1D
S11334BC696420506172616D65746572730D0A00E4
S11334CC5472616E736D6974202D20446174612093
S11334DC5472616E736D697373696F6E20466169A2
S11334EC6C6564202D20537461747573203D2030F9
S11334FC7825780D0A005477694D6173746572549C
S113350C72616E736D6974202D2053746172742012
S113351C436F6E646974696F6E205472616E736D5F
S113352C697373696F6E204661696C6564202D2024
S113353C537461747573203D20307825780D0A001E
S113354C5477694D61737465725472616E736D69ED
S113355C74202D20536C617665204164647265730C
S113356C7320616E6420577269746520466C6167C0
S113357C205472616E736D697373696F6E2046614A
S113358C696C6564202D20537461747573203D201F
S113359C307825780D0A005477695472616E736D16
S11335AC6974202D20496E76616C696420506172B7
S11335BC616D65746572730D0A0054776954726198
S11335CC6E736D6974202D20536C61766520526581
S11335DC6164204E6F7420526571756573746564F3
S11335EC206279204D6173746572202D203078250A
S11335FC780D0A0052656365697665202D20446157
S113360C746120526563657074696F6E20466169DC
S113361C6C6564202D20537461747573203D2030C7
S113362C7825780D0A005477694D6173746572526C
S113363C656365697665202D20537461727420432B
S113364C6F6E646974696F6E205472616E736D6908
S113365C7373696F6E204661696C6564202D205309
S113366C7461747573203D20307825780D0A0054EC
S113367C77694D617374657252656365697665200B
S113368C2D20536C617665204164647265737320DC
S113369C616E64205265616420466C6167205472CB
S11336AC616E736D697373696F6E204661696C65C5
S11336BC64202D20537461747573203D203078255B
S11336CC780D0A0054776952656365697665202D17
S11336DC20496E76616C696420506172616D657409
S11336EC6572730D0A005477695265636569766572
S11336FC202D20536C617665205772697465204EB9
S113370C6F742052657175657374656420627920D9
S113371C4D6173746572202D20537461747573201C
S10B372C307825780D0A000035
S9030000FC
