:100000005BC0000077C0000075C0000073C0000036
:1000100071C000006FC000006DC000006BC0000028
:1000200069C0000067C0000065C0000053C7000041
:1000300061C000005FC000005DC000002BC7000071
:10004000FAC5000057C0000055C0000053C00000B2
:1000500001C600004FC0000061C600004BC0000098
:1000600049C0000047C0000045C0000043C0000078
:1000700023C600003FC0000083C600003BC0000054
:1000800039C0000037C0000035C000003C044E04F9
:100090002505110525052505250525052505040545
:1000A000250525052505250525052505090525051C
:1000B000900425052505CC0411241FBECFEFD0E404
:1000C000DEBFCDBF11E0A0E0B1E0EAE4F6E100E080
:1000D0000BBF02C007900D92A438B107D9F721E0F9
:1000E000A4E8B1E001C01D92A03AB207E1F703D045
:1000F0000C94230B85CFCF93DF9300D000D000D09A
:10010000CDB7DEB745E060E072E18AE790E074D0F9
:1001100080E091E09F938F9314E01F9368D38BE06E
:1001200091E09F938F931F9362D3789489818E7F00
:1001300089831A821B8281E08C83CE010196E2D6EC
:1001400087E090E04FD62FEF89E698E1215080407C
:100150009040E1F700C000000F900F900F900F90BB
:100160000F900F906894EE24E4F807E111E0689492
:10017000FF24F2F81E821D82BE016B5F7F4F80E07C
:10018000DED6BE016B5F7F4F80E0D9D64D815E81A8
:100190009A01A1E1B4E00E941A0ABA01681B790B26
:1001A00076956795860F971FBC0176956795729532
:1001B00062956F7067277F706727D62E2FE026170E
:1001C00008F4DE2C1F92DF925F934F931F930F93DF
:1001D000FF920DD36D2D80E031D66D2D81E02ED6AE
:1001E0006D2D82E02BD66D2D83E028D60FB6F894C6
:1001F000DEBF0FBECDBFBECF80918401811109C08B
:1002000040938D0140E063E370E043D481E080934C
:1002100084010895FC0101900020E9F731979F01C6
:10022000281B390B40E050E0BC0180E0FFC408957A
:100230008F929F92AF92BF92CF92DF92EF92FF92F6
:100240000F931F93CF93DF93CDB7DEB7DA950FB639
:10025000F894DEBF0FBECDBF022F932EA42EB52E75
:10026000C62ED72EE82EF92E10E0812C202F392D06
:100270004A2D5B2D6C2D7D2D8E2D9F2DAFE00E9484
:10028000170B09F080F4E1E0F0E0EC0FFD1FE10F47
:10029000F11D0083082D982CA82CB82CC82CD82C24
:1002A000E82CF82C1CC0E1E0F0E0EC0FFD1FE10FA2
:1002B000F11D802F8F708083202F392D4A2D5B2DCB
:1002C0006C2D7D2D8E2D9F2D04E00E94FB0A022FA8
:1002D000932EA42EB52EC62ED72EE82EF92EE12F62
:1002E000F0E0A1E0B0E0AC0FBD1FAE0FBF1F8C91DE
:1002F0008A3020F0FD01895A808308C021E030E077
:100300002C0F3D1FE20FF31F805D80831F5F202FA6
:10031000392D4A2D5B2D6C2D7D2D8E2D9F2DA82DD9
:100320000E94170B09F0A2CF112391F0612F70E00A
:100330006150710981E090E08C0F9D1F680F791F5B
:1003400021E030E040E050E080E070D4115071F7DF
:10035000D3950FB6F894DEBF0FBECDBFDF91CF911E
:100360001F910F91FF90EF90DF90CF90BF90AF90D3
:100370009F908F9008952F923F924F925F926F922D
:100380007F928F929F92AF92BF92CF92DF92EF9225
:10039000FF920F931F93CF93DF93CDB7DEB7C25079
:1003A000D1400FB6F894DEBF0FBECDBFCF5FDE4F9A
:1003B0002883C150D140232E342E452E562E672E31
:1003C000782E892E912CCF5FDE4F2881C150D140ED
:1003D000322D432D542D652D762D872D982DA9E096
:1003E0000E94170B09F040F4FE01E90DF11D822F68
:1003F000805D818393944BC00F2EFAE0AF2EF02DD9
:10040000B12CC12CD12CE12CF12C00E010E0CF5FFD
:10041000DE4F2881C150D140322D432D542D652D02
:10042000762D872D982D0E94540ACE5FDE4F2883AB
:10043000C250D140CF5FDE4F2881C150D140322D14
:10044000432D542D652D762D872D982D0E94560A0B
:10045000CF5FDE4F2883C150D140232E342E452E4E
:10046000562E672E782E892EE1E0F0E0EC0FFD1F6E
:10047000E90DF11DCE5FDE4FA881C250D140A05DD5
:10048000A0839394A0E00E94170B09F09CCF9920C1
:1004900091F0692D70E06150710981E090E08C0F5E
:1004A0009D1F680F791F21E030E040E050E080E0C0
:1004B000BDD39A9471F7CE5FDE4F0FB6F894DEBFCE
:1004C0000FBECDBFDF91CF911F910F91FF90EF90A5
:1004D000DF90CF90BF90AF909F908F907F906F9064
:1004E0005F904F903F902F9008956F927F928F92E0
:1004F0009F92AF92BF92CF92DF92EF92FF920F93B3
:100500001F93CF93DF9300D01F92CDB7DEB76B015F
:100510007C018EE28A838DE28B8320E030E0A901AA
:10052000C701B601B0D588236CF421E030E040E08B
:1005300050E0BE016D5F7F4F80E078D3F7FAF09412
:10054000F7F8F094C701B601A2D5622E732E842E5F
:10055000952EA62EB72E082F192FFFD59B01AC0183
:10056000C701B6012BD56B017C01262D372D482DF7
:10057000592D6A2D7B2D802F912FFDDE21E030E05B
:1005800040E050E0BE016E5F7F4F80E04FD320E03F
:1005900030E0A901C701B60176D5882349F120E0F2
:1005A00030E040E251E4C701B601DBD66B017C01CB
:1005B000A8D5162F70E080E090E0D5D59B01AC0166
:1005C000C701B601FBD46B017C01105D198321E0EA
:1005D00030E040E050E0BE016F5F7F4F80E026D307
:1005E00020E030E0A901C701B6014DD58111D7CF78
:1005F00080E3898321E030E040E050E0BE016F5F9E
:100600007F4F80E013D30F900F900F90DF91CF9129
:100610001F910F91FF90EF90DF90CF90BF90AF9020
:100620009F908F907F906F9008952F923F924F925E
:100630005F926F927F928F929F92AF92BF92CF9272
:10064000DF92EF92FF920F931F93CF93DF93CDB77B
:10065000DEB7C350D1400FB6F894DEBF0FBECDBF9A
:10066000CE5FDE4F2883C250D140832E742E652E7C
:10067000562E472E382E292E8DE2CF5FDE4F8883EF
:10068000C150D140832DA0E0D2D714F521E030E055
:1006900040E050E0BE016F5F7E4F80E0C7D2CE5F8A
:1006A000DE4F2881C250D140382D472D562D652D63
:1006B000742D832D922D56D7CE5FDE4F2883C250E6
:1006C000D140832E742E652E562E472E382E292E7D
:1006D000912CCE5FDE4F2881C250D140382D472D5E
:1006E000562D652D742D832D922DA9E0A0D709F0EC
:1006F00044F4FE01E90DF11D822F805D8183939406
:1007000048C00F2EFAE0AF2EF02DB12CC12CD12C09
:10071000E12CF12C00E010E0CE5FDE4F2881C250CA
:10072000D140382D472D562D652D742D832D922DBA
:1007300090D6CD5FDE4F2883C350D140CE5FDE4FD1
:100740002881C250D140382D472D562D652D742D4E
:10075000832D922D80D6CE5FDE4F2883C250D140AC
:10076000832E742E652E562E472E382E292EE1E02C
:10077000F0E0EC0FFD1FE90DF11DCD5FDE4FA8810C
:10078000C350D140A05DA0839394A0E050D709F05E
:10079000A0CF992091F0692D70E06150710981E03E
:1007A00090E08C0F9D1F680F791F21E030E040E042
:1007B00050E080E03BD29A9471F7CD5FDE4F0FB6E8
:1007C000F894DEBF0FBECDBFDF91CF911F910F9187
:1007D000FF90EF90DF90CF90BF90AF909F908F9061
:1007E0007F906F905F904F903F902F9008953F9231
:1007F0004F925F926F927F928F929F92AF92BF9231
:10080000CF92DF92EF92FF920F931F93CF93DF93DC
:100810001F92CDB7DEB70E891F898091840188238E
:1008200009F41BC180918D019D89892309F415C1AB
:100830007E0128E1E20EF11CF8012081222309F457
:100840000CC1412CD12C512C33243394253229F066
:10085000D11005C0411003C0EFC00F5F1F4FF8015A
:10086000808190E0FC01E356F109E631F10508F0E2
:10087000ECC0EA5BFF4FD8C55701F2E0AF0EB11CE8
:10088000F7018081898321E030E040E050E0BE0143
:100890006F5F7F4F852DCAD17501D7C0DD20D9F09C
:1008A0006701F4E0CF0ED11CF70180819181A28114
:1008B000B3814C015D01BB0C8808982C5401282F92
:1008C000392F4A2F5B2F682D782D882D982DADDE7E
:1008D0007601D52CBAC0442089F05701F8E0AF0E5C
:1008E000B11CF7012081318142815381648175817E
:1008F000868197819ADE7501452CA7C05701F2E0E9
:10090000AF0EB11CF70131812081932F990F990B04
:10091000492F592F692F792F892F87DE750195C0AF
:10092000DD20B9F03701F4E06F0E711CF701808112
:100930009181A281B3814C015D01282F392D4A2D6F
:100940005B2D652D752D852D952D15DD7301D52C10
:100950007CC0442089F05701F8E0AF0EB11CF701CC
:1009600020813181428153816481758186819781A3
:1009700002DD7501452C69C0F70140815181F2E02B
:10098000EF0EF11C242F352F452D552D652D752D7E
:10099000852D952DF0DC59C0DD20A9F0F70180816F
:1009A0009181A281B38124E0E20EF11C3C014D0152
:1009B000282F372D482D592D652D752D852D952DD9
:1009C00037DCD52C42C0442079F0F701208188E043
:1009D000E80EF11C318142815381648175818681E9
:1009E000978126DC452C31C0F70140815181E2E03E
:1009F000EE0EF11C242F352F452D552D652D752D0F
:100A0000852D952D15DC21C0DD20F1F0432CD52C52
:100A10001CC0F70180819181F2E0EF0EF11CFADB3E
:100A200014C0F701608171818281938124E0E20E1C
:100A3000F11C5BDDD52C09C021E030E040E050E046
:100A4000B801852DF3D001C0D32CC8010196F8015F
:100A50002181222311F08C01F9CE0F90DF91CF91EB
:100A60001F910F91FF90EF90DF90CF90BF90AF90CC
:100A70009F908F907F906F905F904F903F900895E0
:100A800082E084BD15BC16BC17BC18BC80936E00F8
:100A90000895CF9340939C01882319F08130C9F0C9
:100AA00030C07093C5006093C40088E98093C10092
:100AB000413039F486E08093C20081E08093C00029
:100AC00003C086E08093C20081E080938501C1E08D
:100AD00019C07093CD006093CC0088E98093C90061
:100AE000413039F486E08093CA0081E08093C800E9
:100AF00003C086E08093CA0081E080938601C1E054
:100B000001C0C0E0BDDF8C2FCF910895CF92DF925E
:100B1000EF92FF920F931F93CF93DF936B01882384
:100B200019F08130C1F16CC080918501882309F4EE
:100B30006BC0211531054105510509F46CC080E0F9
:100B400090E0DC01C0ECD0E00F2EF1ECEF2EF12CA8
:100B5000F02D66EC70E0188115FFFDCF10919C011F
:100B6000112359F0002329F0F7011081116010833F
:100B700004C0F70110811E7F1083F60111916F01EF
:100B8000FB0110830196A11DB11D82179307A407D5
:100B9000B50709F740C0809186018823C9F1211566
:100BA000310541055105B9F180E090E0DC01C8EC68
:100BB000D0E00F2EF9ECEF2EF12CF02D6EEC70E062
:100BC000188115FFFDCF10919C01112359F00023CE
:100BD00029F0F70110811160108304C0F701108122
:100BE0001E7F1083F60111916F01FB0110830196A6
:100BF000A11DB11D82179307A407B50709F70BC004
:100C000020E030E0A90107C020E030E0A90103C0E6
:100C100020E030E0A901CA01B901DF91CF911F9115
:100C20000F91FF90EF90DF90CF9008950F9300E029
:100C30006DDF0F9108951F920F920FB60F9211243E
:100C40008F9381E080939F018F910F900FBE0F9043
:100C50001F9018951F920F920FB60F9211240BB68A
:100C60000F922F933F934F935F936F937F938F9345
:100C70009F93AF93BF93EF93FF93E0918E01F09119
:100C80008F01309731F060919A0170919B0180E063
:100C90000995FF91EF91BF91AF919F918F917F91B6
:100CA0006F915F914F913F912F910F900BBE0F90DD
:100CB0000FBE0F901F9018951F920F920FB60F92B4
:100CC00011240BB60F922F933F934F935F936F9323
:100CD0007F938F939F93AF93BF93EF93FF93E09195
:100CE0009401F0919501309731F0609192017091EB
:100CF000930181E00995FF91EF91BF91AF919F9191
:100D00008F917F916F915F914F913F912F910F90B4
:100D10000BBE0F900FBE0F901F9018951F920F9251
:100D20000FB60F9211240BB60F922F933F934F9350
:100D30005F936F937F938F939F93AF93BF93EF9343
:100D4000FF93E0919001F0919101309731F0609123
:100D500098017091990180E00995FF91EF91BF9101
:100D6000AF919F918F917F916F915F914F913F9143
:100D70002F910F900BBE0F900FBE0F901F901895E4
:100D80001F920F920FB60F9211240BB60F922F9352
:100D90003F934F935F936F937F938F939F93AF9303
:100DA000BF93EF93FF93E0919601F09197013097F5
:100DB00031F060919D0170919E0181E00995FF9154
:100DC000EF91BF91AF919F918F917F916F915F91C3
:100DD0004F913F912F910F900BBE0F900FBE0F9030
:100DE0001F90189580918701882361F084E391E03A
:100DF0009F938F9384E08F93FADC0F900F900F9066
:100E000080E008958AB1806F8AB981EF8093800075
:100E10008093B00084E08093810086E08093B100ED
:100E200081E080936F008093700010928500109293
:100E300084001092B2008093870108951F93CF938E
:100E4000DF93162F909187019923F9F0C82FD0E0F6
:100E50001F926F931F928F938EE491E09F938F93D5
:100E600084E08F93C4DCC857DE4F8DB79EB70796DA
:100E70000FB6F8949EBF0FBE8DBF113108F010E180
:100E800080EF811B888381E001C080E0DF91CF91FA
:100E90001F9108951F920F920FB60F9211248F93F6
:100EA0009F9380918701882371F08091880190E061
:100EB00090938900809388008091890190E09093BD
:100EC0008B0080938A009F918F910F900FBE0F909F
:100ED0001F9018951F920F920FB60F9211248F93A7
:100EE00080918701882341F080918A018093B3002B
:100EF00080918B018093B4008F910F900FBE0F9063
:100F00001F901895FC010097B9F081818295880F98
:100F1000880F807C908190FB85F980937C00828192
:100F20008770806880937A0010927B008381809321
:100F30007E0081E080938C0180918C010895209146
:100F40007E0030E0082E02C0359527950A94E2F71E
:100F500020FD0CC08AE691E09F938F9381E08F93F0
:100F600046DC0F900F900F9080E00895ECE7F0E0E2
:100F700090818F71907E892B8083EAE7F0E08081F9
:100F800080648083808184FFFDCF8091780090E031
:100F9000FB019183808320917900922B8C3FF3E0B9
:100FA0009F0728F4FB019183808381E008958BEFF4
:100FB00093E0FB019183808381E008955058BB2723
:100FC000AA270ED094C185D130F08AD120F031F417
:100FD0009F3F11F41EF46AC10EF4E095E7FB60C177
:100FE000E92F96D180F3BA17620773078407950734
:100FF00018F071F49EF5AEC10EF4E0950B2EBA2FE9
:10100000A02D0B01B90190010C01CA01A00111240E
:10101000FF27591B99F0593F50F4503E68F11A16BA
:10102000F040A22F232F342F4427585FF3CF46954B
:1010300037952795A795F0405395C9F77EF41F166D
:10104000BA0B620B730B840BBAF09150A1F0FF0F37
:10105000BB1F661F771F881FC2F70EC0BA0F621F23
:10106000731F841F48F4879577956795B795F79513
:101070009E3F08F0B3CF9395880F08F09927EE0FA5
:10108000979587950895E8D008F481E00895BEE328
:1010900004D008F490E80895BFE322273327A9017C
:1010A0003FD158F19F5740F1B91738F1BFE3B91B51
:1010B0009927B8503AF4660F771F881F991FB39588
:1010C000D2F316C0B8504AF0232F342F452F562F95
:1010D000672F782F8827B850BAF7B85F49F0869500
:1010E000779567955795479537952795BA95B9F7A9
:1010F0000EF4DFD088940895889460E070E0CB010E
:1011000008950ED188F09F5790F0B92F9927B751C5
:10111000A0F0D1F0660F771F881F991F1AF0BA95BB
:10112000C9F712C0B13081F015D1B1E0089512C1F4
:10113000672F782F8827B85F39F0B93FCCF38695B1
:1011400077956795B395D9F73EF49095809570950E
:1011500061957F4F8F4F9F4F089597FB0EF4A9D055
:101160003EC0E89409C097FB3EF490958095709539
:1011700061957F4F8F4F9F4F9923A9F0F92F96E9E3
:10118000BB279395F695879577956795B795F11158
:10119000F8CFFAF4BB0F11F460FF1BC06F5F7F4FF5
:1011A0008F4F9F4F16C0882311F096E911C0772307
:1011B00021F09EE8872F762F05C0662371F096E810
:1011C000862F70E060E02AF09A95660F771F881FDF
:1011D000DAF7880F9695879597F90895E894F92F8F
:1011E00096EBFF2381F0121613061406440B939519
:1011F000F69587957795679557954040FF23B9F702
:101200001BC099270895882351F49850D2F7872B53
:10121000762F652F542F432F322F20E0B1F3121673
:1012200013061406440B88233AF09A95440F551F71
:10123000661F771F881FCAF755234AF4440F551FAE
:1012400011F460FF04C06F5F7F4F8F4F9F4F880F77
:101250009695879597F90895990F0008550FAA0B51
:10126000E0E8FEEF16161706E807F907C0F01216B9
:101270001306E407F50798F0621B730B840B950BBC
:1012800039F40A2661F0232B242B252B21F4089511
:101290000A2609F4A140A6958FEF811D811D0895AE
:1012A00097F99F6780E870E060E008959FEF80EC19
:1012B00008959095809570956095509540953095DE
:1012C00021953F4F4F4F5F4F6F4F7F4F8F4F9F4F36
:1012D000089500240A94161617061806090608959C
:1012E00000240A9412161306140605060895092E02
:1012F0000394000C11F4882352F0BB0F40F4BF2B71
:1013000011F460FF04C06F5F7F4F8F4F9F4F0895B0
:1013100057FD9058440F551F59F05F3F71F04795A6
:10132000880F97FB991F61F09F3F79F0879508958B
:10133000121613061406551FF2CF4695F1DF08C0AA
:10134000161617061806991FF1CF869571056105C7
:1013500008940895E894BB2766277727CB0197F96F
:1013600008950BD0C4CFB5DF28F0BADF18F095236D
:1013700009F096CF9BCF1124EECFCADFA0F3959F43
:10138000D1F3950F50E0551F629FF001729FBB276C
:10139000F00DB11D639FAA27F00DB11DAA1F649F18
:1013A0006627B00DA11D661F829F2227B00DA11DCB
:1013B000621F739FB00DA11D621F839FA00D611D51
:1013C000221F749F3327A00D611D231F849F600D72
:1013D000211D822F762F6A2F11249F5750408AF0AB
:1013E000E1F088234AF0EE0FFF1FBB1F661F771F37
:1013F000881F91505040A9F79E3F510570F050CF83
:10140000AACF5F3FECF3983EDCF38695779567951E
:10141000B795F795E7959F5FC1F7FE2B880F911D54
:101420009695879597F90895EE0FFF1F0590F49113
:10143000E02D0994A29FB001B39FC001A39F700D3E
:10144000811D1124911DB29F700D811D1124911DCC
:101450000895689401C0E894F92FF12B0AF027C091
:10146000A0E0B0E0E5E3FAE093C0092E05941AF499
:1014700079D0112392F4F0E80F26FFEFE094F09476
:1014800000951095B094C094D094A194BF0ACF0A4F
:10149000DF0AEF0AFF0A0F0B1F0B13D007FC62D005
:1014A000CDB7DEB7ECE090C0689401C0E8948F92AD
:1014B0009F92CF93DF9305D0DF91CF919F908F9034
:1014C000089588249924F401E401B0E49F93AA27A5
:1014D0009A158B049C04ED05FE05CF05D007A107E6
:1014E00098F4AD2FDC2FCF2FFE2FE92D982C892ECD
:1014F000982F872F762F652F542F432F322F222797
:10150000B85031F7BF9127C01B2EBF91BB27220FC8
:10151000331F441F551F661F771F881F991F881C84
:10152000991CEE1FFF1FCC1FDD1FAA1FBB1F8A14B3
:101530009B04EC05FD05CE05DF05A007B10748F0CB
:101540008A189B08EC09FD09CE09DF09A00BB10B35
:1015500021601A94E1F62EF49401AF01BE01CD0191
:10156000000C089560957095809590953095409504
:10157000509521953F4F4F4F5F4F6F4F7F4F8F4F8C
:101580009F4F08952F923F924F925F926F927F925A
:101590008F929F92AF92BF92CF92DF92EF92FF9283
:1015A0000F931F93CF93DF93CDB7DEB7CA1BDB0B2F
:1015B0000FB6F894DEBF0FBECDBF09942A883988D4
:1015C00048885F846E847D848C849B84AA84B984DB
:1015D000C884DF80EE80FD800C811B81AA81B981E7
:1015E000CE0FD11D0FB6F894DEBF0FBECDBFED01FB
:1015F000089597FB10F8169400080F93083098F0A0
:101600000850232F342F452F562F672F782F892FDF
:10161000902DF4CF05949795879577956795579575
:101620004795379527950A95AAF70F9108950024B5
:10163000A7FD00942A173005400550056005700588
:0A164000800590050895F894FFCF8F
:10164A0050574D20546573740D0A002D2D2D2D2DE4
:10165A002D2D2D2D0D0A004144432056616C7565D0
:10166A00203D2025642C2050756C7365203D202573
:10167A00640D0A0050574D20416C726561647920EF
:10168A00496E697469616C697A65640D0A00436818
:10169A00616E6E656C203D202564202D2050756C8E
:1016AA007365203D2025640D0A00414443204368A8
:1016BA00616E6E656C204E6F7420456E61626C655A
:0416CA00640D0A00A1
:00000001FF
