S01100005472616365546573742E7372656384
S113000045C0000060C000005EC000005CC000008D
S11300105AC0000058C0000056C0000054C0000080
S113002052C0000050C000004EC000004CC0000090
S11300304AC0000048C0000046C0000044C00000A0
S1130040B4C0000040C000003EC000003CC000003E
S1130050BBC0000038C000001BC1000034C0000059
S113006032C0000030C000002EC000002CC00000D0
S1130070DDC0000028C000003DC1000024C0000015
S113008022C0000020C000001EC0000011241FBEBA
S1130090CFEFD0E4DEBFCDBF12E0A0E0B1E0ECE5ED
S11300A0F3E000E00BBF02C007900D92A835B10742
S11300B0D9F722E0A8E5B2E001C01D92A936B20743
S11300C0E1F702D049C19CCF1F93CF93DF9347E060
S11300D060E072E18AE790E060D01F928DE48F9334
S11300E080E091E09F938F93C1E0CF9357D089E252
S11300F091E09F938F938DE391E09F938F93CF93A0
S11301004DD01EE41F93D0E2DF9383E691E09F93EA
S11301108F93CF9343D081EB8F9380EE8F938AE9B3
S113012091E09F938F93CF9339D01F93DF9381ED09
S113013091E09F938F93CF9331D080EC8F931F9254
S11301401F921F9281E092E09F938F93CF9326D0CA
S11301508DB79EB780960FB6F8949EBF0FBE8DBF25
S113016080ED8F931F921F921F921F921F921F92D6
S11301701F928CE292E09F938F93CF930FD08DB711
S11301809EB70B960FB6F8949EBF0FBE8DBF80E04E
S113019090E0DF91CF911F9108950895CF93DF935D
S11301A0CDB7DEB7DF91CF9108951F920F920FB6AE
S11301B00F9211248F9381E0809368028F910F90A6
S11301C00FBE0F901F9018951F920F920FB60F92AB
S11301D011240BB60F922F933F934F935F936F931A
S11301E07F938F939F93AF93BF93EF93FF93E0918C
S11301F05802F0915902309731F060916402709185
S1130200650280E00995FF91EF91BF91AF919F91B5
S11302108F917F916F915F914F913F912F910F90AB
S11302200BBE0F900FBE0F901F9018951F920F9248
S11302300FB60F9211240BB60F922F933F934F9347
S11302405F936F937F938F939F93AF93BF93EF933A
S1130250FF93E0915E02F0915F02309731F060917C
S11302605C0270915D0281E00995FF91EF91BF916D
S1130270AF919F918F917F916F915F914F913F913A
S11302802F910F900BBE0F900FBE0F901F901895DB
S11302901F920F920FB60F9211240BB60F922F9349
S11302A03F934F935F936F937F938F939F93AF93FA
S11302B0BF93EF93FF93E0915A02F0915B02309762
S11302C031F0609162027091630280E00995FF91C0
S11302D0EF91BF91AF919F918F917F916F915F91BA
S11302E04F913F912F910F900BBE0F900FBE0F9027
S11302F01F9018951F920F920FB60F9211240BB6F0
S11303000F922F933F934F935F936F937F938F93AA
S11303109F93AF93BF93EF93FF93E0916002F091AB
S11303206102309731F0609166027091670281E05A
S11303300995FF91EF91BF91AF919F918F917F911B
S11303406F915F914F913F912F910F900BBE0F9042
S10F03500FBE0F901F901895F894FFCF7B
S113035C54686973206973206120636861726163F6
S113036C746572207472616365206D657373616763
S113037C65202D2025630D0A004572726F7220547E
S113038C72616365204D65737361676500546869B8
S113039C73206973206120737472696E67207472A0
S11303AC616365206D657373616765202D2025730A
S11303BC0D0A00546869732069732061207369679E
S11303CC6E656420706F7369746976652064656307
S11303DC696D616C207472616365206D6573736102
S11303EC6765202D2025640D0A0054686973206903
S11303FC732061207369676E6564206E6567617430
S113040C69766520646563696D616C2074726163DF
S113041C65206D657373616765202D2025640D0A55
S113042C0054686973206973206120756E73696761
S113043C6E656420646563696D616C2074726163BC
S113044C65206D657373616765202D2025750D0A14
S113045C0054686973206973206120333220626907
S113046C7420686578207472616365206D6573739C
S113047C616765202D20256C780D0A00546869731A
S113048C2069732061203634206269742068657891
S113049C207472616365206D657373616765202DCB
S10B04AC20256C6C780D0A0098
S9030000FC
